:10000000E5C0000003C1000001C10000FFC0000006
:10001000FDC00000FBC00000F9C00000F7C00000F8
:10002000F5C00000F3C00000F1C00000EFC0000008
:100030000C942D08EBC00000E9C00000E7C00000F0
:10004000E5C00000E3C00000E1C00000DFC0000028
:10005000DDC00000DBC00000D9C00000D7C0000038
:10006000D5C000000C94391C0C948B1CCFC0000030
:10007000CDC00000CBC00000C9C00000C7C0000058
:10008000C5C00000C3C00000C1C00000BFC0000068
:100090000C94CF1C0C94211DB9C000000C949D221F
:1000A000B5C00000B3C00000B1C00000AFC0000088
:1000B000ADC00000ABC00000A9C00000A7C0000098
:1000C000A5C00000A3C00000A1C000000C94651DE5
:1000D0000C94B71D9BC000000C94FB1D0C944D1E8E
:1000E00095C00000E317E317E3171A182218371812
:1000F000E317E3171A182218BF222F232F232F23C9
:100100002F232F232F232F23BF222F232F232F23D0
:100110002F232F232F232F23C1222F232F232F23BE
:100120002F232F232F232F232F232F232F232F233F
:100130002F232F232F232F23C1222F232F232F239E
:100140002F232F232F232F232F232F232F232F231F
:100150002F232F232F232F232B232F232F232F2313
:100160002F232F232F232F23F6222F232F232F2339
:100170002F232F232F232F232F232F232F232F23EF
:100180002F232F232F232F23EA222F232F232F2325
:100190002F232F232F232F230E230E94250D809101
:1001A0009915823008F094D60E946018F6CFCF934C
:1001B000DF931F92CDB7DEB7CE0101960E94631583
:1001C00049810E9458170E94AC17F6CF11241FBE18
:1001D000CFEFD1E2DEBFCDBF00E00CBF17E0A0E063
:1001E000B2E0E2E1F2E500E00BBF02C007900D9241
:1001F000AC38B107D9F726E1ACE8B7E001C01D92F1
:10020000A539B207E1F7C3D00C940729F9CE809144
:10021000761690917716089580917C1690917D16B0
:100220000895EFD290937D1680937C16892B49F424
:1002300081E592E09F938F930E9417260F900F9075
:1002400004C084E692E00E942A26DBD290937B16BB
:1002500080937A16892B49F481E592E09F938F93DE
:100260000E9417260F900F90089587E792E00C9454
:100270002A2608958DE892E00E942A2641E060E057
:1002800070E08AE090E00E94AE0B90937F1680931E
:100290007E1641E060E070E084E090E00E94AE0BEA
:1002A00090938116809380160895EF92FF920F939A
:1002B000E12CF12C02E020E030E046E551E066EB75
:1002C00072E08CEC91E00E94E80D01E020E030E06B
:1002D0004BE051E062EC72E088E392E00E94E80DAE
:1002E00020E030E04BE051E06AEC72E087E393E01D
:1002F0000E94E80D20E030E04BE051E066ED72E056
:1003000081EE92E00E94E80D00E020E030E04BE05A
:1003100051E06EED72E080E993E00E94E80D02E0AA
:1003200020E030E04BE051E068EE72E08DE092E0DA
:100330000E94E80D20E030E04BE051E063EF72E016
:100340008FEE91E00E94E80D0F91FF90EF900895DD
:1003500080E00E94AF1E789480E093E00E942A26FD
:1003600081B1816881B985E00E94B61F5ADF0E9481
:10037000D71A64E681E00E94BF1A1BD16DD062D10A
:100380006CE981E00E94BF1AC8D174CF0895E0DF04
:100390008CDF0E94330EFFCFCF93DF9300D01F92EC
:1003A000CDB7DEB70E946F0E69837A838B839C83FF
:1003B00089E193E00E942A268DE393E00E942A2699
:1003C00042EE54E060E070E0CE0101960E9485109C
:1003D00023DF47E050E060E070E0C6D2E9CFCF9382
:1003E000DF9300D01F92CDB7DEB70E946F0E6983F6
:1003F0007A838B839C838CE693E00E942A264CE6CA
:1004000052E060E070E0CE0101960E948510F3CFCB
:1004100086E793E00C942A260895CF93DF9300D0CB
:100420001F92CDB7DEB7F4DF0E946F0E69837A8327
:100430008B839C838BE893E00E942A264CE652E053
:1004400060E070E0CE0101960E948510F3CF90939A
:10045000841680938316089583E993E00E942A26E8
:1004600083E00E94661A87E292E00C948B1A08954A
:100470000E946F0ED1DE0F2EF1E7CF2EF2E0DF2EBD
:10048000E12CF12CF02D01E021E041E050E060E0B2
:1004900070E0CAD160FF25C068EE73E080E090E0B4
:1004A0000E94EA1081EA93E00E942A260E94901A94
:1004B00080938216882321F087ED93E00E942A26FC
:1004C000809184168F93809183168F9389EF93E0A8
:1004D0009F938F930E9417260F900F900F900F906D
:1004E000C9CF82E094E00E942A26C4CFCF93DF9345
:1004F00000D000D0CDB7DEB7813009F041C0CE01C9
:1005000001960E94D120882331F0833021F480E4C9
:1005100094E00E942A26CE0101960E94A5208823FD
:1005200031F0833021F48BE794E00E942A26CE013B
:1005300001960E94C320882331F0833021F48FEA92
:1005400094E00E942A26CE0103960E94DF208111AA
:1005500011C020E030E040E251E46B817C818D816C
:100560009E810E94DE180E94841870938616609304
:10057000851606C0833021F484EE94E00E942A267A
:10058000809186168F93809185168F9384E195E0F4
:100590009F938F930E9417260F900F900F900F90AC
:1005A00026960FB6F894DEBF0FBECDBFDF91CF9178
:1005B000089586E792E00C94632008950C947E20C1
:1005C0000895CF93DF9300D01F92CDB7DEB7F6DF4B
:1005D00085E295E09F938F930E9417260E946F0EED
:1005E00069837A838B839C830F900F9015DE0F2E87
:1005F000F2EECF2EF4E0DF2EE12CF12CF02D01E015
:1006000021E044E050E060E070E00ED162FF0DC0F8
:1006100060ED77E080E090E00E94EA1084E395E0EE
:100620000E942A260E94932004C08AE695E00E9438
:100630002A2640E255E060E070E0CE0101960E947B
:100640008510D4CF0E949619811104C089EA95E0E3
:100650000E942A260E94AE19882321F086EC95E09C
:100660000E942A2685EE95E00C942A260895D4DD72
:100670000F2EF1E7CF2EF2E0DF2EE12CF12CF02D42
:1006800001E021E042E050E060E070E0CDD061FFA9
:100690003FC064EF71E080E090E00E94EA1087E0E4
:1006A00096E00E942A260E94C319882321F082E442
:1006B00096E00E942A266AE070E080E090E00E94C6
:1006C000EA100E94021A90938A16809389160E945B
:1006D000D4190E94891860938716709388167F93A7
:1006E0006F9380918A168F93809189168F9386E6F7
:1006F00096E09F938F930E94172686E896E00E94CB
:100700002A260F900F900F900F900F900F90AFCF61
:100710008EEA96E00E942A26AACF0C94D71A089552
:10072000CF93DF9300D01F92CDB7DEB70E946F0E3C
:1007300069837A838B839C83809178169091791654
:100740000097A9F148EE53E060E070E02DD78130CA
:1007500051F55DDD7C0100E020E030E0A90160E0C2
:1007600070E08091781690917916C9D581EF96E066
:100770000E942A268091060290910702E816F90647
:1007800029F489E197E00E942A2611C080E397E0CE
:100790009F938F930E9417266E2D81E00E94BF1AAF
:1007A0000F900F9004C089E597E00E942A2641E748
:1007B00052E060E070E0CE0101960E948510BCCF4F
:1007C0000F9301110CC0DC01CB0182239323A423DE
:1007D000B523892B8A2B8B2B79F480E010C0DC01A8
:1007E000CB0182239323A423B523281739074A0773
:1007F0005B0721F080E003C081E001C081E00F9140
:100800000895CF93DF938FE090E0AFD1EC01009794
:1008100039F0FC011192119211921192CF018AD2FA
:10082000CE01DF91CF9108952F923F924F925F9228
:100830006F927F928F929F92AF92BF92CF92DF92F0
:10084000EF92FF920F931F93CF93DF93EC014A0136
:100850005B01622E702E0E94690E288039804A80CA
:100860005B80A5019401C201B101AADF8823A1F038
:10087000662089F1D501C40180959095A095B09529
:1008800082219321A421B52188839983AA83BB83E4
:10089000C12CD12C760122C0C114D104E104F10491
:1008A000E9F0611004C040E050E0BA0104C040E04B
:1008B00050E060E071E071107460482959296A299C
:1008C0007B2997018601CE0104960E948011212C7C
:1008D000312C210103C0C12CD12C76010E94A90F1B
:1008E000CD28CE28CF2859F1811101C0F1D20E9424
:1008F00027156B017C0191FD1FC00FB6F8940F9274
:10090000C880D980EA80FB80072DA5019401C7012A
:10091000B60156DF882371F0662061F080949094D0
:10092000A094B0948C209D20AE20BF208882998214
:10093000AA82BB820F900FBE160127015524C20167
:10094000B101DF91CF911F910F91FF90EF90DF9058
:10095000CF90BF90AF909F908F907F906F905F905F
:100960004F903F902F9008954F925F926F927F9299
:10097000AF92BF92CF92DF92EF92FF920F931F93AD
:10098000CF93DF93EC016A017B018C01095F1F4F5C
:100990000E94690EEB85FC8588819981AA81BB81C3
:1009A000C82AD92AEA2AFB2AC882D982EA82FB828B
:1009B000C12CD12C76013DC0A480B580808191816D
:1009C000A281B381AC01BD017727B2FD0EC0488082
:1009D00059806A807B8044225522662277224528EE
:1009E0004628472889F420E012C0488059806A8050
:1009F0007B804422552266227722441555056605E0
:100A0000770521F020E003C021E001C021E022238E
:100A100071F0B0FF04C0C42AD52AE62AF72A48811B
:100A200059816A817B817260CF010E94BB12EA2DDD
:100A3000FB2DE017F10709F0BFCFC094D094E094EC
:100A4000F09488819981AA81BB81C822D922EA22A7
:100A5000FB22C882D982EA82FB820E94A90F6881A8
:100A600079818A819B81DF91CF911F910F91FF90B6
:100A7000EF90DF90CF90BF90AF907F906F905F909E
:100A80004F900895E8E9F7E0ACE9B7E0B183A083BF
:100A900013821282E4E4F5E1F0939707E09396075E
:100AA000138212821182108288EA9DE013969C9331
:100AB0008E931297ED93FC939093930780939207F4
:100AC000909395078093940780E090E890938D072A
:100AD00080938C070895CF93DF93EC01A8E9B7E0EA
:100AE00001C0DF01ED91FC911197EC17FD07C8F3F0
:100AF00012968D919C9113979D01280F391FC21753
:100B0000D30749F42A813B81820F931F13969C934C
:100B10008E931297ED018A819B819E01280F391FC8
:100B2000E217F307C1F42091960730919707E21777
:100B3000F30771F022813381820F931F9B838A8395
:100B4000ED91FC911197808191819983888305C0F3
:100B50003983288302C0F983E883CA17DB0711F0C1
:100B6000CD93DC93DF91CF910895EF92FF920F9395
:100B70001F93CF93DF938C010E94690E809196079B
:100B800090919707892B09F47DDF80918C079091D4
:100B90008D0780239123892B09F076C0011511055B
:100BA00049F0C80104960817190718F000E010E092
:100BB00001C08C010115110509F469C080919407E9
:100BC000909195078017910708F464C0C091980729
:100BD000D0919907E8E9F7E002C0FE01EC018A81B3
:100BE0009B818017910720F4888199810097A9F74C
:100BF0008091960790919707C817D90709F44DC0BF
:100C0000E080F18084E0E80EF11C88819981918375
:100C100080832A813B81201B310B2930310548F02C
:100C2000CE01800F911FFC01338322831B830A8333
:100C300052DF2A813B818091940790919507821B16
:100C4000930B90939507809394074091920750914E
:100C500093078417950720F4909393078093920746
:100C600080918C0790918D07282B392B3B832A8309
:100C70001982188280919007909191070196909324
:100C80009107809390070BC0E12CF12C08C0E12C58
:100C9000F12C05C0E12CF12C02C0E12CF12C0E94BA
:100CA000A90FE114F10411F40E946C18C701DF913F
:100CB000CF911F910F91FF90EF9008950F931F9385
:100CC000CF93DF93009789F1EC0124974A815B81F0
:100CD00020918C0730918D07BA0162237323672B13
:100CE00021F168817981672B01F5209530952423C6
:100CF00035233B832A83EDD78A819B8120919407FA
:100D000030919507820F931F9093950780939407D6
:100D1000CE01E1DE80918E0790918F07019690932E
:100D20008F0780938E070E94A90FDF91CF911F91AB
:100D30000F910895FC010396928381834FEF5FEF3B
:100D4000BA01438354836583768390878783928730
:100D5000818710820895FC011386128608950F93EF
:100D60001F93CF93DF93EB01088119812A813B8187
:100D70000F3F4FEF14072407340721F4FC01A1852E
:100D8000B28511C0DC01139601C0DF011496ED910C
:100D9000FC91159740815181628173810417150779
:100DA0002607370790F71496ED91FC911597FD8370
:100DB000EC83D783C683BF83AE831596DC93CE9333
:100DC00014979B878A87FC0120812F5F2083DF9106
:100DD000CF911F910F910895CF93DF93FC01A285CE
:100DE000B385C481D581868197819F838E83C68197
:100DF000D781848195819D838C8311968D919C915F
:100E00001297E817F90731F48681978112969C931F
:100E10008E931197138612868C9181508C938C91AE
:100E2000DF91CF910895A89590EC88E10FB6F894E2
:100E3000A895809360000FBE909360000895FC0118
:100E40006083319770833197108231971082319788
:100E500020E82083319710823197108231971082D9
:100E6000779740833197508386970895DCDFA09170
:100E70000716B0910816CD91CDBFDD91DEBFFF9171
:100E8000EF91DF91CF91BF91AF919F918F917F9122
:100E90006F915F914F913F912F911F910F91FF9013
:100EA000EF90DF90CF90BF90AF909F908F907F900A
:100EB0006F905F904F903F902F901F900F900CBEBF
:100EC0000F900BBE0F900FBE0F90089581E0089514
:100ED0000F920FB6F8940F920BB60F920CB60F92BA
:100EE0001F9211242F923F924F925F926F927F92A6
:100EF0008F929F92AF92BF92CF92DF92EF92FF922A
:100F00000F931F932F933F934F935F936F937F9311
:100F10008F939F93AF93BF93CF93DF93EF93FF9301
:100F2000A0910716B09108160DB60D920EB60D924F
:100F30000E940511A0910716B0910816CD91CDBF62
:100F4000DD91DEBFFF91EF91DF91CF91BF91AF9126
:100F50009F918F917F916F915F914F913F912F91D1
:100F60001F910F91FF90EF90DF90CF90BF90AF90C7
:100F70009F908F907F906F905F904F903F902F90B9
:100F80001F900F900CBE0F900BBE0F900FBE0F90D6
:100F900008950F920FB6F8940F920BB60F920CB6FD
:100FA0000F921F9211242F923F924F925F926F9255
:100FB0007F928F929F92AF92BF92CF92DF92EF92E9
:100FC000FF920F931F932F933F934F935F936F93D2
:100FD0007F938F939F93AF93BF93CF93DF93EF93C1
:100FE000FF93A0910716B09108160DB60D920EB69C
:100FF0000D9213BE82D681110E940511A091071691
:10100000B0910816CD91CDBFDD91DEBFFF91EF917C
:10101000DF91CF91BF91AF919F918F917F916F9110
:101020005F914F913F912F911F910F91FF90EF9002
:10103000DF90CF90BF90AF909F908F907F906F90F8
:101040005F904F903F902F901F900F900CBE0F908D
:101050000BBE0F900FBE0F9008959BDF1895DC011B
:1010600053962C915397222341F05A96ED91FC917F
:101070005B9790818AE0891B089580E008950FB600
:10108000F8940F92FC01868D811102C081E001C0AD
:1010900080E00F900FBE08950FB6F8940F92FC01F8
:1010A000268D878D281302C081E001C080E00F905B
:1010B0000FBE08950F931F93CF93DF93EC01042F7E
:1010C0001E8D48A141110CC088819981892B09F09E
:1010D00042C08C819D810E9465141D821C8242C089
:1010E000011117C050E08A819B810E94072628A128
:1010F0008A819B81820F911D9B838A832C813D81F4
:101100008217930750F1888199819B838A8380E0BD
:1011100029C050E08E819F810E94072688A190E01F
:101120009195819591092E813F81280F391F3F8329
:101130002E83488159812417350730F42C813D8155
:10114000820F931F9F838E83023049F4112349F04D
:10115000115080E007C080E005C080E003C080E05F
:1011600001C080E01F5F1E8FDF91CF911F910F9113
:101170000895FC0140A14423A9F050E02681378165
:10118000240F351F378326838481958128173907DB
:1011900020F08081918197838683CB01668177815E
:1011A0000C94072608951F93CF93DF93EC010FB69D
:1011B000F8940F921AA10BC08B89882351F0CE01AD
:1011C00043960E940C1281110E94CC1311501116EB
:1011D0009CF38FEF8AA30F900FBE0FB6F8940F9277
:1011E00019A10BC08885882351F0CE0108960E9472
:1011F0000C1281110E94CC13115011169CF38FEF29
:1012000089A30F900FBEDF91CF911F910895CF93C7
:10121000DF93EC010FB6F8940F92E881F9818F8D7E
:1012200028A190E030E0829FA001839F500D929F03
:10123000500D11244E0F5F1F5D834C831E8EFB8368
:10124000EA830197289FA001299F500D389F500DD8
:101250001124CF01840F951F9F838E838FEF89A365
:101260008AA361110BC08885882371F0CE0108968E
:101270000E940C12882341F02BDE06C0CE01089696
:1012800059DDCE01439656DD0F900FBE81E0DF9110
:10129000CF9108950F931F93F801611103C011833B
:1012A000008302C051834083878F60A361E0CF0138
:1012B000AEDF1F910F910895DF92EF92FF920F938F
:1012C0001F93CF93DF93F82EE62ED42E869FC00176
:1012D000112483964ADCEC01009741F08C012D2DFE
:1012E000AC014D5D5F4F6E2D8F2DD4DFCE01DF91B0
:1012F000CF911F910F91FF90EF90DF900895CF92C3
:10130000DF92EF92FF920F931F93CF93DF93CDB7AE
:10131000DEB729970FB6F894DEBF0FBECDBF7C01B4
:101320006B012E833F834887598710E00FB6F894EE
:101330000F92F701968D878D981710F00230B1F457
:10134000402FB601C701B6DEF7019389992341F01A
:10135000C70143960E940C12882321F0B9DD02C018
:101360008111B6DD0F900FBE81E048C08E819F8154
:10137000A885B985892B8A2B8B2B21F40F900FBE62
:1013800080E03CC0111105C0CE0101960E945513AA
:1013900011E00F900FBE9DD40FB6F8940F92F70195
:1013A00081A18F3F09F411A2F70182A18F3F09F4B7
:1013B00012A20F900FBEBE016A5F7F4FCE01019651
:1013C0000E946613811116C0C70166DE882371F082
:1013D0004E815F8168857985C70108967AD7C701F4
:1013E000E2DEB7D58111A2CF73DDA0CFC701DBDE6E
:1013F000B0D59CCFC701D7DEACD580E029960FB61B
:10140000F894DEBF0FBECDBFDF91CF911F910F913A
:10141000FF90EF90DF90CF900895EF92FF920F939F
:101420001F93CF93DF938A01FC01568D378D53179D
:1014300010F02230F1F4422F7801EC011AA18E8DC8
:10144000CE0138DE1F3F79F48B898823A1F0CE01CD
:101450004396E2D7882389F0E114F10481F081E01A
:10146000F70180830DC0FF24F394F10EFAA281E00E
:1014700007C080E005C081E003C081E001C081E0D9
:10148000DF91CF911F910F91FF90EF900895CF9230
:10149000DF92EF92FF920F931F93CF93DF93CDB71D
:1014A000DEB729970FB6F894DEBF0FBECDBF8C0113
:1014B0006B012E833F8348875987E12C0FB6F89440
:1014C0000F92F801F68CFF2091F0B601C80151DEB1
:1014D000FA94F801F68E8085882329F0C8010896D1
:1014E0009BD78111F5DC0F900FBE81E04EC08E813D
:1014F0009F81A885B985892B8A2B8B2B21F40F908E
:101500000FBE80E042C0E11006C0CE0101960E94ED
:101510005513EE24E3940F900FBEDBD30FB6F8946F
:101520000F92F80181A18F3F09F411A2F80182A165
:101530008F3F09F412A20F900FBEBE016A5F7F4F6A
:10154000CE0101960E946613811116C0C80197DD75
:10155000882371F04E815F8168857985C801439643
:10156000B8D6C80120DEF5D48111A8CFB1DCA6CF52
:10157000C80119DEEED4A2CFC80115DEEAD4C80135
:101580007EDD882309F49ACF80E029960FB6F8947F
:10159000DEBF0FBECDBFDF91CF911F910F91FF90A6
:1015A000EF90DF90CF900895EF92FF920F931F93EB
:1015B000CF93DF93CDB7DEB729970FB6F894DEBF90
:1015C0000FBECDBF8C014E835F8368877987E12C86
:1015D000F12C0FB6F8940F92F801868D8823C1F094
:1015E0008150868F80819181892B29F40E94511529
:1015F000F80195838483F8018085882329F0C80148
:1016000008960AD7811164DC0F900FBE81E06EC08E
:101610008E819F81A885B985892B8A2B8B2B21F4FC
:101620000F900FBE80E062C0F11006C0CE0101969F
:101630000E945513FF24F3940F900FBE4AD30FB6A8
:10164000F8940F92F80181A18F3F09F411A2F801DB
:1016500082A18F3F09F412A20F900FBEBE016A5FF4
:101660007F4FCE0101960E946613811125C0C801EB
:1016700006DD8823E9F0F80180819181892B51F4FE
:101680000FB6F8940F92848195810E94DE13E82EA4
:101690000F900FBE4E815F8168857985C8014396A2
:1016A00018D6C80180DD55D4811193CF11DC91CFBC
:1016B000C80179DD4ED48DCFC80175DD4AD4C8018B
:1016C000DEDC882309F485CFEE2079F00FB6F8949C
:1016D0000F92C801C4DC682FF801848195810E94B3
:1016E000C0140F900FBE80E001C080E029960FB6B5
:1016F000F894DEBF0FBECDBFDF91CF911F910F9148
:10170000FF90EF900895CF93DF93EC010FB6F8941C
:101710000F9289A18F3F09F419A28AA18F3F09F482
:101720001AA20F900FBE8E8D811103C0CE01439679
:1017300031D6CE0138DDDF91CF9108950F93FC01B2
:101740008FE0DF011D928A95E9F7758764875583DD
:1017500044833783268306870F910895CF92DF92C3
:10176000EF92FF920F93CF93DF93EC016B01413027
:1017700011F401E001C000E0C114D10419F4CC243B
:10178000C394D12CCE014096C817D90720F42196D6
:10179000ECD97C0102C0E12CF12CE114F10439F008
:1017A0009601AE01B701615F7F4FC701C7DFC70177
:1017B000DF91CF910F91FF90EF90DF90CF90089540
:1017C000E0918115F0918215808181110CC08FEF1D
:1017D0009FEFDC0180934B1590934C15A0934D1512
:1017E000B0934E150895E0918115F0918215078010
:1017F000F085E02D80819181A281B38180934B158A
:1018000090934C15A0934D15B0934E150895CF931A
:10181000DF93EC018B8D9C8D51DACE014FDADF9195
:10182000CF9108954F925F926F927F928F929F9285
:10183000AF92BF92CF92DF92EF92FF920F93CF932E
:10184000DF932C015B014A013901E60165EA70E092
:101850008B8D9C8D0E9410268B8D9C8D21E0821A91
:101860009108880E991EA114B10489F415C0822F25
:1018700090E0F501E80FF91F3081DE01A80FB91FD4
:101880005D963C938081882329F02F5F01C020E082
:10189000203168F31CA601C01D8E0A3008F009E053
:1018A0000A8F0DA71EA6CE01029655DACE010E961E
:1018B00052DADB87CA878AE090E0A0E0B0E0801BC4
:1018C0009109A109B1098E879F87A88BB98BDF8BFE
:1018D000CE8B84E0FE01BF96DF011D928A95E9F769
:1018E0001BAAA301B201C401AADA99838883E11477
:1018F000F10419F0F701D183C083DF91CF910F91EB
:10190000FF90EF90DF90CF90BF90AF909F908F901F
:101910007F906F905F904F900895CF93C0E008C084
:101920002BE0C29FC001112487569A4E03DACF5F85
:10193000CA30B0F38EE895E1FDD983E895E1FAD994
:1019400084E795E1F7D989E695E1F4D98DE595E14C
:10195000F1D98EE895E1909382158093811583E803
:1019600095E19093801580937F15CF910895CF9343
:10197000DF93EC010FB6F8940F9280915C158F5FA6
:1019800080935C158091071690910816892B51F46D
:10199000D0930816C093071680915C15813091F49E
:1019A000BCDF10C08091561581110CC0E091071664
:1019B000F0910816928D8A8D891720F0D093081621
:1019C000C093071680914F158F5F80934F15EA8D56
:1019D000809157158E1710F4E09357158BE08E9F6A
:1019E000F0011124E756FA4E0180F281E02DFF83C9
:1019F000EE832681378139872887A681B7819E01AA
:101A00002E5F3F4F15963C932E9314973783268372
:101A1000EA8D8E9FF0011124E756FA4EFD87EC8780
:101A200080818F5F80830F900FBE80915615882331
:101A300049F0E0910716F0910816928D8A8D98175B
:101A400008F446DADF91CF910895CF93DF931AC05F
:101A50000FB6F8940F92E0917015F0917115C08552
:101A6000D185CE010296B8D980915C1581508093C2
:101A70005C15809168158150809368150F900FBE9A
:101A8000CE01C5DE809168158111E2CFDF91CF9143
:101A900008958F929F92AF92BF92CF92DF92EF9272
:101AA000FF92CF93DF936B017C01C42F8090581578
:101AB00090905915A0905A15B0905B15809107161B
:101AC00090910816029688D98FEFC816D806E806B6
:101AD000F806B1F5CC23A1F1EDE5F5E1A181B281E4
:101AE000C0910716D0910816BF83AE83C091071628
:101AF000D091081616968D919C9117979987888793
:101B00001696CD91DC911797809107169091081643
:101B100002969D838C8380910716909108160296F9
:101B200017969C938E931697A0910716B09108165E
:101B30001D96FC93EE931C9780818F5F80833DC040
:101B4000C80CD91CEA1CFB1CE0910716F091081682
:101B5000C282D382E482F582C814D904EA04FB0469
:101B600060F4609107167091081680917F1590912E
:101B700080156E5F7F4FF3D820C06091071670917B
:101B8000081680918115909182156E5F7F4FE7D87E
:101B900080914B1590914C15A0914D15B0914E151B
:101BA000C816D906EA06FB0640F4C0924B15D0923F
:101BB0004C15E0924D15F0924E15DF91CF91FF90AC
:101BC000EF90DF90CF90BF90AF909F908F9008954F
:101BD0002F923F924F925F926F927F928F929F923D
:101BE000AF92BF92CF92DF92EF92FF920F93CF937B
:101BF000DF933C011B014A012901CA010E94B5057E
:101C00006C01892B69F084E390E00E94B505EC013A
:101C1000892B19F0DC8ECB8E05C0C6014FD802C0CF
:101C2000C0E0D0E0209761F0A12CB12C6E019201B0
:101C3000A401B101C301F6DDCE0199DE81E001C04E
:101C40008FEFDF91CF910F91FF90EF90DF90CF90CA
:101C5000BF90AF909F908F907F906F905F904F90CC
:101C60003F902F900895EF92FF920F930F2EF9E47B
:101C7000EF2EF5E1FF2EF02D00E020E030E040EC0B
:101C800050E066E777E08DEC90E0A2DF813009F468
:101C9000A4D78130C1F4F8948FEF9FEFDC018093DB
:101CA0004B1590934C15A0934D15B0934E1581E0B4
:101CB00080935615109258151092591510925A1576
:101CC00010925B15D3D8809108020F91FF90EF908E
:101CD0000895809148158F5F8093481508950FB639
:101CE000F8940F92609158157091591580915A157A
:101CF00090915B150F900FBE0895CF92DF92EF92F7
:101D0000FF92CF93DF9380914815811105C1C09058
:101D10005815D0905915E0905A15F0905B158FEF3B
:101D2000C81AD80AE80AF80AC0925815D09259156C
:101D3000E0925A15F0925B15C114D104E104F1044C
:101D4000B1F4809181159091821520917F15309189
:101D50008015309382152093811590938015809380
:101D60007F15809150158F5F8093501529DD8091EC
:101D70004B1590914C15A0914D15B0914E15C8166C
:101D8000D906EA06FB0620F480E0B2C081E001C07B
:101D900080E0E0918115F0918215908191110CC045
:101DA0004FEF5FEFBA0140934B1550934C15609382
:101DB0004D1570934E159CC0E0918115F0918215E0
:101DC0000780F085E02D0084F185E02D428153816C
:101DD00064817581C416D506E606F70648F440937B
:101DE0004B1550934C1560934D1570934E1580C054
:101DF000A485B585C681D781208531853F832E8313
:101E0000C085D185268137813D832C8311964D91E4
:101E10005C9112979F012E5F3F4F4217530731F499
:101E20004085518512965C934E93119715861486C2
:101E30009C9191509C93A08DB18D109709F1C2890E
:101E4000D389448955895F834E83C489D589428962
:101E500053895D834C8311966D917C911297AF01EC
:101E6000425F5F4F6417750731F4448955891296B4
:101E70005C934E931197118E108E9C9191509C9370
:101E8000A28D909157159A1710F4A09357159BE0C7
:101E90009A9FD0011124A756BA4E11960D90BC916D
:101EA000A02DB783A68316964D915C911797518705
:101EB00040871696CD91DC9117973D832C8317961A
:101EC0003C932E931697A28D9A9FD0011124A7566A
:101ED000BA4EB587A4879C919F5F9C93228DE09119
:101EE0000716F0910816928D291708F04FCF51CFA1
:101EF000E0910716F0910816E28D9BE0E99FF00152
:101F00001124E756FA4E9081923008F081E09091CA
:101F10005115911116C016C080915215909153150C
:101F2000A0915415B09155150196A11DB11D809336
:101F3000521590935315A0935415B093551580E006
:101F400001C081E0DF91CF91FF90EF90DF90CF90C3
:101F50000895CF92DF92EF92FF92CF93DF930FB667
:101F6000F8940F9280914815815080934815809184
:101F700048158111BEC080915C15811188C0BCC01C
:101F8000E0917B15F0917C150084F185E02DA08D0A
:101F9000B18DC289D389848995899F838E83C489B1
:101FA000D589828993899D838C8311962D913C914B
:101FB0001297CF010E962817390731F48489958935
:101FC00012969C938E931197118E108E8C91815046
:101FD0008C93A485B585C681D781808591859F83A3
:101FE0008E83C085D185868197819D838C83119650
:101FF0008D919C9112979F012E5F3F4F82179307FF
:1020000031F48085918512969C938E931197158655
:1020100014868C9181508C93A28D809157158A17CC
:1020200010F4A09357158BE08A9FD0011124A75676
:10203000BA4E11960D90BC91A02DB783A68316962B
:102040004D915C911797518740871696CD91DC9101
:1020500017973D832C8317963C932E931697A28D4A
:102060008A9FD0011124A756BA4EB587A4878C91B8
:102070008F5F8C93928DA0910716B09108165A9697
:102080008C91981730F081E08093511502C0E0E008
:10209000F0E080917415811173CFEF2B09F090DB84
:1020A000C0905215D0905315E0905415F0905515EE
:1020B000C114D104E104F104A1F01FDE882319F05A
:1020C00081E08093511581E0C81AD108E108F10838
:1020D000A1F71092521510925315109254151092A8
:1020E000551580915115882331F00E94680781E0D1
:1020F00003C080E001C080E00F900FBEDF91CF9160
:10210000FF90EF90DF90CF9008958F929F92AF92C3
:10211000BF92CF92DF92EF92FF921F93CF93DF9304
:10212000EC016A017B01D5DD80905815909059151E
:10213000A0905A15B0905B1588819981AA81BB81C6
:10214000AC01BD014C0D5D1D6E1D7F1D88169906ED
:10215000AA06BB0660F4481759076A077B0798F47C
:1021600084169506A606B70680F010E013C048173F
:1021700059076A077B0758F084169506A606B70626
:1021800040F010E007C010E005C011E003C011E00E
:1021900001C011E0488359836A837B83112341F096
:1021A000CB01BA01681979098A099B0940E071DC01
:1021B000D0DE811102C00E946807812FDF91CF918C
:1021C0001F91FF90EF90DF90CF90BF90AF909F90C6
:1021D0008F900895CF92DF92EF92FF926B017C0176
:1021E000672B682B692B39F074DD40E0C701B6011D
:1021F00050DCAFDE01C080E0811102C00E946807A0
:10220000FF90EF90DF90CF9008958091481588233C
:1022100021F081E080935115089510925115E091BD
:102220000716F091081620813181E0910716F09190
:102230000816838D948D8217930758F060910716C6
:1022400070910816635E7F4F809107169091081673
:102250004FD78091571501C08150282F30E09BE067
:10226000929FF001939FF00D1124E756FA4E908152
:10227000992391F39BE0929FA001939F500D11240D
:10228000DF010180F281E02D0480F581E02D1296BE
:10229000FC93EE93119744565A4EE417F50729F430
:1022A00044815581FD01528341839BE0929FF0015F
:1022B000939FF00D1124E756FA4E0180F281E02D34
:1022C0002085318530930816209307168093571583
:1022D0000895CF92DF92EF92FF926A017B016091A5
:1022E000071670910816625F7F4F0E94AF0641E0AB
:1022F000C701B601CEDBFF90EF90DF90CF9008953D
:102300000F931F93CF93DF93FC01A0910716B09119
:10231000081670681E964D935D936D937C9351974C
:10232000A181B281C0910716D0910816BB8BAA8BF0
:10233000C0910716D091081616968D919C9117970B
:102340009D8B8C8B1696CD91DC91179780910716FB
:10235000909108160E969D838C838091071690911C
:1023600008160E9617969C938E931697A0910716B3
:10237000B09108165996FC93EE93589780818F5F21
:10238000808341E0C901B80184DBDF91CF911F91C7
:102390000F910895CF93DF93FC01CB01BA01A18186
:1023A000B281C0910716D0910816BB8BAA8BC09141
:1023B0000716D091081616964D915C9117975D8B74
:1023C0004C8B1696CD91DC91179740910716509142
:1023D0000816425F5F4F5D834C8340910716509112
:1023E0000816425F5F4F17965C934E931697A09125
:1023F0000716B09108165996FC93EE9358973081C2
:102400003F5F3083222319F06FEF7FEFCB01422F24
:1024100040DBDF91CF910895CF93DF93DC011796D6
:10242000ED91FC9118970084F185E02DA08DB18D80
:10243000C289D389848995899F838E83C489D589EC
:10244000828993899D838C8311968D919C9112979B
:102450009F01225F3F4F8217930731F4848995894A
:1024600012969C938E931197118E108E8C918150A1
:102470008C9380914815811152C0A485B585C68181
:10248000D781808591859F838E83C085D185868104
:1024900097819D838C8311968D919C9112979F01BA
:1024A0002E5F3F4F8217930731F4808591851296F6
:1024B0009C938E931197158614868C9181508C93E2
:1024C000A28D809157158A1710F4A09357158BE0B1
:1024D0008A9FD0011124A756BA4E11960D90BC9137
:1024E000A02DB783A68316964D915C9117975187BF
:1024F00040871696CD91DC9117973D832C831796D4
:102500003C932E931697A28D8A9FD0011124A75633
:10251000BA4EB587A4878C918F5F8C931CC044E71B
:1025200055E1DA011196CD91DC911297D38BC28BD4
:102530008E819F81958B848B8E819F81DC01159686
:102540003C932E9314973F832E83518F408FDA0153
:102550008C918F5F8C93928DE0910716F091081605
:10256000828D891720F481E08093511501C080E0AD
:10257000DF91CF910895CF93DF93DC0170684D9385
:102580005D936D937C9313971896ED91FC91199739
:102590001A964D915C911B9714968D919C9115976D
:1025A00016962D913C911797EC013F832E8316963A
:1025B0008D919C91179714962D913C911597EC0154
:1025C0003D832C83EA0189819A81A817B90731F4E8
:1025D00016968D919C9117979A8389831B961C92CE
:1025E0001E921A97DA018C9181508C93A485B5853F
:1025F000C681D781808591859F838E83C085D18553
:10260000868197819D838C8311968D919C911297E1
:102610009F012E5F3F4F8217930731F4808591858C
:1026200012969C938E931197158614868C918150E7
:102630008C93A28D809157158A1710F4A09357158B
:102640008BE08A9FD0011124A756BA4E11960D90A7
:10265000BC91A02DB783A68316964D915C911797D8
:10266000518740871696CD91DC9117973D832C8337
:1026700017963C932E931697A28D8A9FD001112412
:10268000A756BA4EB587A4878C918F5F8C93928D95
:10269000E0910716F0910816828D891718F481E0F1
:1026A00080935115DF91CF91089520915015FC0131
:1026B0002083409158155091591560915A15709189
:1026C0005B15418352836383748308958F929F9235
:1026D000AF92BF92CF92DF92EF92FF920F931F9330
:1026E000CF93DF93FB010FB6F8940F92C09058156B
:1026F000D0905915E0905A15F0905B15DC011196B9
:102700000D911D912D913C91149746015701801A0E
:10271000910AA20AB30A40815181628173814F3FBD
:10272000BFEF5B076B077B0739F1EC01B881A09124
:102730005015BA1759F0C016D106E206F30630F06C
:10274000108211821282138281E017C084169506CE
:10275000A606B70658F4481959096A097B09408347
:10276000518362837383A1DF80E007C010821182EE
:102770001282138281E001C080E00F900FBEDF91D2
:10278000CF911F910F91FF90EF90DF90CF90BF906E
:10279000AF909F908F90089581E080935115089598
:1027A00080915615882331F080914815811104C01D
:1027B00082E0089581E0089580E008950F931F93CB
:1027C000CF93DF93FC01892B09F477C0828DA09110
:1027D0000716B09108165A969C91891708F063C0A5
:1027E0004685578560897189772394F0A0910716F3
:1027F000B09108165A969C914AE050E060E070E073
:10280000491B51096109710946875787608B718B94
:10281000248535854BE0849FC001112487569A4E4C
:1028200028173907B9F5EF018F010E5F1F4FC80157
:102830000E94EC06E0910716F0910816E28DEA8FEF
:10284000809157158E1710F4E09357158BE08E9FEB
:10285000F0011124E756FA4E0180F281E02DFF834A
:10286000EE832681378139872887A681B78115961F
:102870001C930E93149717830683EA8D8E9FF001A5
:102880001124E756FA4EFD87EC8780818F5F8083A5
:1028900081E016C0A0910716B09108165A968C9147
:1028A000828F81E00DC095A5E0910716F091081682
:1028B000828D981720F080E003C080E001C081E0A5
:1028C000DF91CF911F910F9108950F931F93CF9395
:1028D000DF93FC01892B09F449C086A5815086A7A6
:1028E000228D95A5291709F443C0811143C0EF013A
:1028F0008F010E5F1F4FC8010E94EC06EDA5EA8F05
:102900008AE090E0A0E0B0E08E1B9109A109B10936
:102910008E879F87A88BB98B809157158E1710F4DF
:10292000E09357158BE08E9FF0011124E756FA4E85
:102930000180F281E02DFF83EE8326813781398784
:102940002887A681B78115961C930E931497178339
:102950000683EA8D8E9FF0011124E756FA4EFD871B
:10296000EC8780818F5F808381E005C080E003C0B9
:1029700080E001C080E0DF91CF911F910F91089519
:102980000F931F93CF93DF93FC01892B09F45AC057
:1029900085A5861708F4862F928D891709F452C0F1
:1029A00026A5213009F04EC0828F46855785608963
:1029B0007189772364F04AE050E060E070E0481BE2
:1029C00051096109710946875787608B718B24858E
:1029D00035854BE0949FC001112487569A4E2817E5
:1029E000390781F5EF018F010E5F1F4FC8010E946B
:1029F000EC06EA8D809157158E1710F4E093571569
:102A00008BE08E9FF0011124E756FA4E0180F2818F
:102A1000E02DFF83EE832681378139872887A681C1
:102A2000B78115961C930E93149717830683EA8D2E
:102A30008E9FF0011124E756FA4EFD87EC878081C6
:102A40008F5F8083DF91CF911F910F910895CF9277
:102A5000DF92EF92FF92E0910716F09108166685DB
:102A6000778580899189E0910716F0910816A091E9
:102A70000716B09108165A962C910F2EFAE0CF2E19
:102A8000D12CE12CF12CF02DC21AD108E108F1086B
:102A9000C686D786E08AF18AFF90EF90DF90CF90CC
:102AA00008958091071690910816892B39F0E091CE
:102AB0000716F091081686A58F5F86A780910716E6
:102AC000909108160895DC01E0911316F091141608
:102AD000808191E0811190E09C93911108C0078062
:102AE000F085E02D6081718182819381089560E09D
:102AF00070E0CB010895CF92DF92EF92FF920F9397
:102B00001F93FC0142835383648375839387828779
:102B10000417150726073707C0F00C191D092E09E1
:102B20003F0986859785A089B189081719072A0763
:102B30003B0700F5BF016E5F7F4F809111169091AA
:102B400012160E94AF0680E018C00C151D052E0558
:102B50003F0528F44C155D056E057F0568F4BF013F
:102B60006E5F7F4F80911316909114160E94AF06EE
:102B700080E003C081E001C081E01F910F91FF90D0
:102B8000EF90DF90CF9008950FB6F8940F92809158
:102B90000F1690911016892BE9F480E296E10E94BD
:102BA0009A0685E196E10E949A0680E296E190936A
:102BB00014168093131685E196E190931216809374
:102BC000111640E067E08AE00E945C0990931016BD
:102BD00080930F160F900FBE0895EF92FF920F9300
:102BE000D3DF80910F1690911016892B91F00F2E44
:102BF000FDE0EF2EF6E1FF2EF02D03E020E030E0C7
:102C000040EC50E06BE777E087ED90E00E94E80D44
:102C100001C080E00F91FF90EF9008958F929F92F6
:102C2000AF92BF92CF92DF92EF92FF920F931F93DA
:102C3000CF93DF93CDB7DEB727970FB6F894DEBFFB
:102C40000FBECDBFE0910F16F0911016309781F1B5
:102C500069832A833B834C835D839F838E836630A5
:102C6000F4F49EDD823069F400E0A7019601BE0114
:102C70006F5F7F4F80910F16909110160E947F0911
:102C800018C000E020E030E0A901BE016F5F7F4F77
:102C900080910F16909110160E947F090AC020E0C3
:102CA000A801BE016F5F7F4FCF010E940D0A01C0D6
:102CB00080E027960FB6F894DEBF0FBECDBFDF9140
:102CC000CF911F910F91FF90EF90DF90CF90BF9029
:102CD000AF909F908F9008958F929F92AF92BF92E6
:102CE000CF92DF92EF92FF920F931F93CF93DF93D8
:102CF0003BC00780F085E02D80809180A280B3806A
:102D0000C085D1858E010E5F1F4FC8010E94EC0661
:102D1000EC89FD89CE0119958E8982FF25C08E85AB
:102D20009F85A889B989880D991DAA1DBB1D881684
:102D30009906AA06BB0670F48A839B83AC83BD8385
:102D4000DB87CA87B80180911316909114160E94F0
:102D5000AF060AC0C12CD12C760100E010E0A5011D
:102D6000940160E0CE015ADFE0911316F091141641
:102D700080818111BECF809111169091121690938F
:102D8000141680931316F0931216E0931116DF9128
:102D9000CF911F910F91FF90EF90DF90CF90BF9058
:102DA000AF909F908F900895CF92DF92EF92FF9215
:102DB000CF93DF93EC010E946F0E6B017C01809139
:102DC000091690910A16A0910B16B0910C16C81610
:102DD000D906EA06FB0620F47FDF81E0888301C084
:102DE0001882C0920916D0920A16E0920B16F09241
:102DF0000C16C701B601DF91CF91FF90EF90DF90E5
:102E0000CF9008954F925F926F927F928F929F9290
:102E1000AF92BF92CF92DF92EF92FF920F931F93E8
:102E2000CF93DF934B015C0129013A01E091131626
:102E3000F09114160780F085E02DC085D185CE0174
:102E400002960E94EC068E8982FF1BC04E855F852C
:102E500068897989480D591D6A1D7B1D75016401BA
:102E600093018201CE0147DE882369F0C12CD12C69
:102E7000760100E010E0A501940160E0CE01CEDE15
:102E800002C08E7F8E8BEC89FD89CE011995DF9172
:102E9000CF911F910F91FF90EF90DF90CF90BF9057
:102EA000AF909F908F907F906F905F904F9008951C
:102EB0008F929F92AF92BF92CF92DF92EF92FF924A
:102EC0001F93CF93DF931F92CDB7DEB76B017C01C9
:102ED000142F0E94690ECE01019666DF4B015C0142
:102EE000898181112BC011110CC08C149D04AE047A
:102EF000BF0438F02ED8A5019401C701B60182DFC6
:102F00001EC0112341F0E0911116F091121680813C
:102F100011E0811110E0B701A601481959096A09A9
:102F20007B09212F80910F16909110160E94830B20
:102F300010D8811104C00E94680701C00AD80F9000
:102F4000DF91CF911F91FF90EF90DF90CF90BF90D6
:102F5000AF909F908F900895AF92BF92CF92DF92E3
:102F6000EF92FF920F931F93CF93DF93CDB7DEB70E
:102F700028970FB6F894DEBF0FBECDBF82C08981FF
:102F800088230CF47EC0AE80BF80D5011C968D9145
:102F90009C911D97892B21F0C50102960E94EC0699
:102FA000CE01089601DF8B019C01E9810E2E000CF9
:102FB000FF0BEA30F10508F064C08827EE58FF4F98
:102FC0008F4F0C94DA24F50186898160868BCA8044
:102FD000DB80EC80FD8046855785608971894C0DCA
:102FE0005D1D6E1D7F1DC50186DD882309F449C066
:102FF000D5015496ED91FC915597C5011995F501B0
:10300000868982FF3EC04A815B816C817D81868595
:103010009785A089B1899A01AB01280F391F4A1FF2
:103020005B1FC12CD12C760100E010E060E0C501EF
:10303000F5DD27C0D50156968C9156978E7F569612
:103040008C931FC0F50186898160868B4A815B81E4
:103050006C817D8146875787608B718B400F511F34
:10306000621F731F68017901C50145DD0AC0F501C2
:10307000868981FD04C0C5010E945E0602C08E7F64
:10308000868B20E030E0A901BE016F5F7F4F809109
:103090000F16909110160E94470A811170CF289642
:1030A0000FB6F894DEBF0FBECDBFDF91CF911F9159
:1030B0000F91FF90EF90DF90CF90BF90AF90089569
:1030C000089584B1806884B985B1806885B9089510
:1030D00083B1806883B90895F4DF2FEF80E792E031
:1030E000215080409040E1F700C00000F1DFF5CFB3
:1030F000E8DF2FEF87EA91E6215080409040E1F72A
:1031000000C00000E5DFF5CF04D06894B11150C0D5
:10311000089533D088F09F5790F0B92F9927B75171
:10312000A0F0D1F0660F771F881F991F1AF0BA958B
:10313000C9F712C0B13081F03AD0B1E0089537C07C
:10314000672F782F8827B85F39F0B93FCCF3869581
:1031500077956795B395D9F73EF4909580957095DE
:1031600061957F4F8F4F9F4F089557FD9058440FA3
:10317000551F59F05F3F71F04795880F97FB991FD6
:1031800061F09F3F79F08795089512161306140693
:10319000551FF2CF4695F1DF08C016161706180620
:1031A000991FF1CF86957105610508940895E894FB
:1031B000BB2766277727CB0197F908950BD078C0F6
:1031C00069D028F06ED018F0952309F05AC05FC07E
:1031D0001124EECFCADFA0F3959FD1F3950F50E0F5
:1031E000551F629FF001729FBB27F00DB11D639FB9
:1031F000AA27F00DB11DAA1F649F6627B00DA11D5F
:10320000661F829F2227B00DA11D621F739FB00D04
:10321000A11D621F839FA00D611D221F749F332774
:10322000A00D611D231F849F600D211D822F762F0D
:103230006A2F11249F5750408AF0E1F088234AF00A
:10324000EE0FFF1FBB1F661F771F881F9150504056
:10325000A9F79E3F510570F014C0AACF5F3FECF371
:10326000983EDCF3869577956795B795F795E79542
:103270009F5FC1F7FE2B880F911D9695879597F953
:10328000089597F99F6780E870E060E008959FEFE8
:1032900080EC089500240A941616170618060906ED
:1032A000089500240A9412161306140605060895BC
:1032B000092E0394000C11F4882352F0BB0F40F444
:1032C000BF2B11F460FF04C06F5F7F4F8F4F9F4F84
:1032D00008956530F1F4FA0180818F7390E0982FA2
:1032E00088272181822B90930C0280930B0282818C
:1032F000F0E48F9FC0011124FA01238126952695C1
:10330000822B90930A028093090281E080932B160E
:103310000895643051F080E090E490930A02809325
:10332000090290930C0280930B0208950F931F9350
:1033300009E619E120E034E244EF50E060E087E282
:103340000E94CD2190932D1680932C1621E0892B7D
:1033500009F020E0822F1F910F91089580912C1683
:1033600090912D16009759F040E060E070E00E94C7
:103370001E22843031F410922B1680E0089582E0F2
:10338000089583E0089580912C1690912D16009752
:1033900039F064E00E946A22853021F083E00895CC
:1033A00082E0089580E0089560910B0270910C0214
:1033B00080E090E00E94532420E030E048EC52E4AA
:1033C000FDDE20E038EF4FE756E40C94E223089549
:1033D0006091090270910A0280E090E00E945324FB
:1033E00020E030E045E253E4E9DE20E038EF4FE74B
:1033F00056E40E94E22320E030E040E252E40C94E4
:1034000076230895E5DF20E030E040E251E4D6DEA7
:103410007BDECB01089580913116860F80933116A3
:1034200090913416913079F028F09230A9F09330D1
:1034300019F108956F3F09F048C01092311681E0EC
:10344000809334160895663809F03FC01092301604
:1034500082E0809334160895E091301681E08E0F5B
:1034600080933016F0E0E25DF94E6083823069F5BA
:1034700083E08093341608959091301621E0290F4F
:1034800020933016963009F581110EC0EEE2F6E178
:10349000808190E0982F88272181820F911D909341
:1034A00036168093351604C01092361610923516D3
:1034B00010923416E0913216F0913316309729F0BD
:1034C0008091351690913616199508958F929F9296
:1034D000AF92CF92EF920F930F2EFBE08F2EFAE177
:1034E0009F2EF02D6894AA24A4F86894CC24C4F8E4
:1034F000E12C00E023E040E855E260E070E073D0AA
:1035000090933816809337160F91EF90CF90AF902D
:103510009F908F900895909333168093321608955C
:10352000CF93DF93CDB7DEB729970FB6F894DEBF00
:103530000FBECDBF89E0E4E2F2E09E012F5F3F4F76
:10354000D90101900D928A95E1F7109236161092EA
:1035500035168091371690913816009731F0422F2A
:10356000532F69E011D180E001C082E029960FB6A7
:10357000F894DEBF0FBECDBFDF91CF9108956536C1
:103580000CF064E66C390CF46CE996EF6902B0015A
:1035900011246854744F811105C070932901609300
:1035A0002801089570932B0160932A010895EAE0A1
:1035B000F1E08081886180838FE39CE9909327010B
:1035C0008093260160E080E0DADF60E081E0D7DF11
:1035D000E0E2F1E08081826A8083E1E2F1E08081D3
:1035E0008A61808308952F923F924F925F926F92EB
:1035F0007F928F929F92AF92CF92EF92FF920F9312
:103600001F93CF93DF93CDB7DEB7F82E2A013B018E
:1036100088E090E00E94E2248C018F2D90E0FC0174
:10362000EE0FFF1FE75CF94E1183008301151105B2
:1036300009F46DC0880F991FFC01E35FFD4F808185
:103640009181D8018D939C938C2D90E0880F991FC8
:10365000880F991F0E94E2241C0186E090E00E94DE
:10366000E2247C014C2DB1010E945A23F801F5821D
:10367000E4828A2D90E0880F991F880F991F0E947D
:10368000E2241C0186E090E00E94E2247C014A2DA5
:10369000B1010E945A23D8011396FC92EE92129720
:1036A00017969C928E921697FFB6F894ED91FC9126
:1036B000119736978081826080838D909C90C301A2
:1036C000B2010E94532420E030E040E051E476DD76
:1036D0009B01AC0160E074E284E79BE40E94E2237A
:1036E00020E030E040E85FE30E94762312DDF40141
:1036F00032976083D801ED91FC911197359788E955
:103700008083ED91FC91349786E08083FFBEC801F1
:10371000DF91CF911F910F91FF90EF90CF90AF90DD
:103720009F908F907F906F905F904F903F902F90E1
:103730000895CF93DF93DC01892B01F11296ED916F
:10374000FC911397938182812581981B9223848118
:103750009817B1F0838126952823C081D181C20FAB
:10376000D11D68838F5F958189238383ED91FC91BF
:10377000359780818062808380E003C081E001C052
:1037800082E0DF91CF910895EF92FF920F931F9304
:10379000CF93DF937C01009709F441C0DC011296BE
:1037A000ED91FC91139793818281981B85819823D9
:1037B0008481891B8617A8F1662341F1842F952FF8
:1037C000DC016150462F50E04F5F5F4F480F591F9B
:1037D000E701EA81FB81938182812581981B9223F5
:1037E0008481981779F08C919381269529236081A3
:1037F00071818B01020F111DE80188839F5F858114
:10380000982393831196A417B50711F7D701ED916B
:10381000FC91359780818062808380E003C081E0E5
:1038200001C082E0DF91CF911F910F91FF90EF9047
:1038300008950097D1F0DC011496ED91FC91159755
:1038400093818281981799F0928185818695892349
:10385000A081B181A80FB11D8C91DB018C939F5F7A
:1038600085819823928380E0089581E0089583E024
:1038700008951F920F920FB60F9211240BB60F925C
:103880002F933F934F935F936F937F938F939F9368
:10389000AF93BF93CF93DF93EF93FF93A09139162C
:1038A000B0913A16109711F16091C6001496ED91FF
:1038B000FC911597938182812581981B92238481A5
:1038C000981761F0838126952823C081D181C20F8A
:1038D000D11D68838F5F9581892383831696ED912F
:1038E000FC911797309711F0CD011995FF91EF9149
:1038F000DF91CF91BF91AF919F918F917F916F9108
:103900005F914F913F912F910F900BBE0F900FBE83
:103910000F901F9018951F920F920FB60F921124BF
:103920000BB60F922F938F939F93AF93BF93EF9309
:10393000FF93E0913916F0913A163097B9F0028072
:10394000F381E02D938182819817B1F09281858176
:10395000282F26952923A081B181A20FB11D2C917A
:103960009F5F892382832093C6000BC0E1ECF0E0C7
:1039700080818F7D808305C0E1ECF0E080818F7DC8
:103980008083FF91EF91BF91AF919F918F912F9184
:103990000F900BBE0F900FBE0F901F9018951F92A7
:1039A0000F920FB60F9211240BB60F922F933F93E5
:1039B0004F935F936F937F938F939F93AF93BF9337
:1039C000CF93DF93EF93FF93A0913B16B0913C16FA
:1039D000109711F16091CE001496ED91FC9115971E
:1039E000938182812581981B92238481981761F0AD
:1039F000838126952823C081D181C20FD11D688380
:103A00008F5F9581892383831696ED91FC9117979B
:103A1000309711F0CD011995FF91EF91DF91CF9182
:103A2000BF91AF919F918F917F916F915F914F91D6
:103A30003F912F910F900BBE0F900FBE0F901F90D4
:103A400018951F920F920FB60F9211240BB60F927A
:103A50002F938F939F93AF93BF93EF93FF93E09137
:103A60003B16F0913C163097B9F00280F381E02DBF
:103A7000938182819817B1F092818581282F2695B4
:103A80002923A081B181A20FB11D2C919F5F8923B1
:103A900082832093CE000BC0E9ECF0E080818F7D23
:103AA000808305C0E9ECF0E080818F7D8083FF9109
:103AB000EF91BF91AF919F918F912F910F900BBE7E
:103AC0000F900FBE0F901F9018951F920F920FB678
:103AD0000F9211240BB60F922F933F934F935F9346
:103AE0006F937F938F939F93AF93BF93CF93DF9306
:103AF000EF93FF93A0913D16B0913E16109711F1F0
:103B00006091D6001496ED91FC9115979381828176
:103B10002581981B92238481981761F083812695D3
:103B20002823C081D181C20FD11D68838F5F958109
:103B3000892383831696ED91FC911797309711F0A6
:103B4000CD011995FF91EF91DF91CF91BF91AF9189
:103B50009F918F917F916F915F914F913F912F91A5
:103B60000F900BBE0F900FBE0F901F9018951F92D5
:103B70000F920FB60F9211240BB60F922F938F93C3
:103B80009F93AF93BF93EF93FF93E0913D16F09116
:103B90003E163097B9F00280F381E02D9381828147
:103BA0009817B1F092818581282F26952923A0812D
:103BB000B181A20FB11D2C919F5F89238283209335
:103BC000D6000BC0E1EDF0E080818F7D808305C0E1
:103BD000E1EDF0E080818F7D8083FF91EF91BF91D7
:103BE000AF919F918F912F910F900BBE0F900FBEB1
:103BF0000F901F9018951F920F920FB60F921124DD
:103C00000BB60F922F933F934F935F936F937F93D6
:103C10008F939F93AF93BF93CF93DF93EF93FF93D4
:103C2000A0913F16B0914016109711F160913601A6
:103C30001496ED91FC911597938182812581981BB3
:103C400092238481981761F0838126952823C0816F
:103C5000D181C20FD11D68838F5F958189238383B2
:103C60001696ED91FC911797309711F0CD011995AB
:103C7000FF91EF91DF91CF91BF91AF919F918F9184
:103C80007F916F915F914F913F912F910F900BBE5C
:103C90000F900FBE0F901F9018951F920F920FB6A6
:103CA0000F9211240BB60F922F938F939F93AF9384
:103CB000BF93EF93FF93E0913F16F091401630973A
:103CC000B9F00280F381E02D938182819817B1F0E1
:103CD00092818581282F26952923A081B181A20F69
:103CE000B11D2C919F5F89238283209336010BC0E5
:103CF000E1E3F1E080818F7D808305C0E1E3F1E0C5
:103D000080818F7D8083FF91EF91BF91AF919F91D3
:103D10008F912F910F900BBE0F900FBE0F901F90A1
:103D20001895CF93DF931F92CDB7DEB7BE016F5FBB
:103D30007F4F80914116909142167BDD8111F6CF25
:103D4000898190E00F90DF91CF910895682F809145
:103D5000411690914216EDDC80E090E008958F923C
:103D60009F92AF92CF92EF920F93812C912C6894F7
:103D7000AA24A7F86894CC24C7F8E12C00E023E03B
:103D800040E051EE60E070E02EDC909342168093AC
:103D90004116EFE8F6E185E192E091838083938319
:103DA00082830F91EF90CF90AF909F908F90089566
:103DB00090E0FC01EE0FFF1FE80FF91FEE0FFF1F51
:103DC000ED5BF94E238121111FC09C01220F331F8F
:103DD000F901E80FF91FEE0FFF1FED5BF94EA0810F
:103DE000B1814C91F901E80FF91FEE0FFF1FED5B58
:103DF000F94E81E090E0028002C0880F991F0A947A
:103E0000E2F7842B8C930895FC01EE0FFF1FDF0176
:103E1000A80FB91FAA0FBB1FAD5BB94E0D90BC9187
:103E2000A02D2C91E80FF91FEE0FFF1FED5BF94E4F
:103E300081E090E0028002C0880F991F0A94E2F7A7
:103E4000809582238C93089590E0FC01EE0FFF1F74
:103E5000E80FF91FEE0FFF1FED5BF94E23812111D3
:103E600020C09C01220F331FF901E80FF91FEE0F4C
:103E7000FF1FED5BF94EA081B1814C91F901E80F74
:103E8000F91FEE0FFF1FED5BF94E81E090E002801D
:103E900002C0880F991F0A94E2F7809584238C93BF
:103EA0000895FC01EE0FFF1FDF01A80FB91FAA0F35
:103EB000BB1FAD5BB94E0D90BC91A02D2C91E80FAE
:103EC000F91FEE0FFF1FED5BF94E81E090E00280DD
:103ED00002C0880F991F0A94E2F7822B8C930895F1
:103EE000CC24C394D12C6894BB24B2F8C3E4D6E1AB
:103EF00010E08C81813081F018F1823061F5E88129
:103F0000F9812081C6010A8002C0880F991F0A9496
:103F1000E2F7822780831FC08D818F5F863010F487
:103F20008D8319C01D82E881F9812081C6010A8034
:103F300002C0880F991F0A94E2F7822780830BC082
:103F40000D81002329F0812F7FDF01500D8303C0F5
:103F5000BC82812F2DDF1F5F2696143051F66CE056
:103F600070E080E090E00E94EA10C0CFEF92FF92F4
:103F70000F931F93CF93DF93082F80E487B9C3E497
:103F8000D6E10F2EF8E2EF2EF12CF02DF982E88227
:103F900086E08A831B8214E01C8380E009DF80E8CE
:103FA00087B9FF82EE8287E0888719861A8781E0C9
:103FB000FFDE80E283BB84E390E09D878C8785E011
:103FC0008E871F86188B82E0F3DE80E180930101EB
:103FD00082E091E09B8B8A8B1C8B1D8A1E8B83E079
:103FE000E7DEE12CF12C20E030E040EC50E063E82B
:103FF00077E080E79FE10E94E80DDF91CF911F916C
:104000000F91FF90EF900895E0916316F091641680
:10401000309709F0199508956450623008F03BC05C
:1040200020916216223079F018F4213031F030C03E
:10403000233081F02430A1F02BC022E020936216BF
:1040400061E048C20895FA01808180935F1682E0A2
:10405000DBCF089524E02093621664E03BC208950C
:10406000FA01818190E0982F88272081822B9093FC
:104070005E1680935D16838190E0982F88272281B9
:10408000822B90935C1680935B1681E0BDCF0895E0
:1040900080E0BACF08951092621686E0B5CF0895F9
:1040A00020916516309166162115310541F0462F95
:1040B000BC01C901C3D1823021F080E0089587E0BE
:1040C000089585E008950F931F939093641680934D
:1040D00063160CE010E220E034E244EF50E060E0D0
:1040E00089E25BD19093661680936516892B11F057
:1040F00080E001C088E01F910F910895CF93DF9376
:104100001F921F92CDB7DEB780EA898383E08A834E
:104110001092621662E0CE010196C2DF0F900F90FE
:10412000DF91CF910895CF93DF931F92CDB7DEB784
:1041300084EB898383E08093621661E0CE0101966F
:10414000AFDF0F90DF91CF91089520915B163091F2
:104150005C162F3F4FEF340741F040915D165091B0
:104160005E164F3F6FEF560739F42FEF3FEFFC011C
:104170003183208383E00895421B530BFC0151835C
:10418000408380E0089520915B1630915C16FC011D
:10419000318320832F3F3F4F11F080E0089583E06B
:1041A000089520915D1630915E16FC0131832083C5
:1041B0002F3F3F4F11F080E0089583E008952F9244
:1041C0003F924F925F926F927F928F929F92AF92A7
:1041D000BF92CF92DF92EF92FF920F931F93CF93F4
:1041E000DF93C0915B16D0915C16CF3F2FEFD207C3
:1041F00041F060915D1670915E166F3FEFEF7E07A4
:1042000059F44FEF5FEF6FE77FE7FC014083518385
:104210006283738383E09DC01C0180E090E043D300
:104220002B013C01BE0180E090E03DD34B015C01DD
:104230008091601690E0019624E6289FB001299FA6
:10424000700D112480916116803269F08033A1F0E5
:104250008031E1F40F2EC12CD12CF8ECEF2EF1E4DB
:10426000FF2EF02D1BC00F2EC12CD12CF6EDEF2E02
:10427000F3E4FF2EF02D12C00F2EC12CF0E5DF2E3F
:10428000FAE1EF2EF6E4FF2EF02D08C00F2EC12C20
:10429000D12CF0E8EF2EFFE3FF2EF02D072E000CBF
:1042A000880B990B02D3A70196010E94DE1820E02B
:1042B00030E04CEC53E486D26B017C0125E83BEE08
:1042C00041ED5FE3C501B4010E94DE189B01AC0122
:1042D000C301B2010BD2A701960174D2162FD72FBA
:1042E000C82F092F2DE33AE047E15FE3C301B20194
:1042F0000E94DE182B013C0126EF38E24CE55FE31B
:10430000C501B4010E94DE189B01AC01C301B201DA
:10431000EDD1A701960156D2C62ED72EE82EF92E42
:10432000262F372F482F592F612F7D2F8C2F902F1D
:10433000F7D2181624F01C2DDD2DCE2D0F2D412F78
:104340005D2F6C2F702FF101408351836283738343
:1043500080E0DF91CF911F910F91FF90EF90DF9060
:10436000CF90BF90AF909F908F907F906F905F9015
:104370004F903F902F9008958091751681110CC039
:104380008CE08093B8008FEF8093BB0084E0809333
:10439000BC0081E0809375160895AF92BF92CF92D2
:1043A000DF92EF92FF920F931F93CF93DF93A82E8C
:1043B000B62E69017A0184E090E004D3EC01892BE8
:1043C00061F1A88281E0B81212C0C701B60120EAEB
:1043D00036E841E050E0CCD2DA01C9014097A109AA
:1043E000B109B695A79597958795898311C0C7019F
:1043F000B60120E83AE146E050E0BAD2DA01C9015C
:104400004097A109B109B695A79597958795898396
:104410001B830A838C2F9D2F02C080E090E0DF91E8
:10442000CF911F910F91FF90EF90DF90CF90BF90B1
:10443000AF9008958091BC0081700895FF920F9312
:104440001F93CF93DF930097D1F14A30D0F5F42E2C
:104450008B01EC01EFDF811136C0809168169091DD
:104460006916C817D90741F087DF89818093B800A2
:10447000D0936916C093681681E08F0D80936A16F9
:104480008881880F80936B16FF2089F0F801ACE6D5
:10449000B6E14FEF4F0D642F70E0CB010196B801EC
:1044A000680F791F81918D93E617F707D9F788EF89
:1044B0008093230285EA8093BC0084E005C086E0F7
:1044C00003C087E001C082E0DF91CF911F910F917F
:1044D000FF9008951F93CF93DF93009729F16B30DE
:1044E00028F5162FEC01A6DF811122C080916816F5
:1044F00090916916C817D90741F03EDF89818093F2
:10450000B800D0936916C093681610936A16888114
:10451000880F816080936B1688EF8093230285EA71
:104520008093BC0085E005C086E003C087E001C041
:1045300082E0DF91CF911F9108951F920F920FB6E5
:104540000F9211240BB60F922F933F934F935F93CB
:104550006F937F938F939F93AF93BF93EF93FF934B
:10456000E091B9008E2F90E0FC013897E135F1051C
:1045700008F075C08827E458FF4F8F4F1BC2109278
:104580006716E091671680916A16E81770F481E06B
:104590008E0F80936716F0E0E559F94E8081809385
:1045A000BB0085E88093BC0072C084E98093BC00A6
:1045B0008091681690916916DC011296ED91FC913C
:1045C0001397309709F463C020E040E050E064E0C6
:1045D00019955DC0E091671681E08E0F8093671694
:1045E0008091BB00F0E0E559F94E80838091B900DD
:1045F000803411F4109267162091671630E0809194
:104600006A1690E001972817390724F485EC809307
:10461000BC003DC085E88093BC0039C08091BB00E0
:10462000E0916716F0E0E559F94E808384E98093C4
:10463000BC008091681690916916DC011296ED918C
:10464000FC911397309719F120916A164BE656E1C9
:1046500065E019951CC085EA8093BC0018C0809164
:10466000B9008093230284E08093BC008091681697
:1046700090916916DC011296ED91FC911397309799
:1046800031F020E040E050E0609123021995FF9165
:10469000EF91BF91AF919F918F917F916F915F91BA
:1046A0004F913F912F910F900BBE0F900FBE0F9027
:1046B0001F901895FC01411101C0A5D2842F90E0F4
:1046C0009C012150310982239323892B09F09BD22D
:1046D000413808F098D2128213824483440F41502B
:1046E00045837183608380E090E008955058BB2734
:1046F000AA2713D00C9458190E944A1938F00E9426
:10470000511920F039F49F3F19F426F40C944719FD
:104710000EF4E095E7FB0C944119E92F0E94B518BF
:1047200058F3BA17620773078407950720F079F4E6
:10473000A6F50C94D7180EF4E0950B2EBA2FA02DE9
:104740000B01B90190010C01CA01A0011124FF273E
:10475000591B99F0593F50F4503E68F11A16F04039
:10476000A22F232F342F4427585FF3CF4695379538
:104770002795A795F0405395C9F77EF41F16BA0BFD
:10478000620B730B840BBAF09150A1F0FF0FBB1FAB
:10479000661F771F881FC2F70EC0BA0F621F731FF4
:1047A000841F48F4879577956795B795F7959E3F51
:1047B00008F0B0CF9395880F08F09927EE0F9795E2
:1047C0008795089512D00C9458190E94511958F0E9
:1047D0000E944A1940F029F45F3F29F00C944119D6
:1047E00051110C94D8180C9447190E94B51868F30D
:1047F0009923B1F3552391F3951B550BBB27AA279A
:1048000062177307840738F09F5F5F4F220F331FD3
:10481000441FAA1FA9F335D00E2E3AF0E0E832D09B
:1048200091505040E695001CCAF72BD0FE2F29D09E
:10483000660F771F881FBB1F261737074807AB0770
:10484000B0E809F0BB0B802DBF01FF2793585F4FE5
:104850003AF09E3F510578F00C9441190C94D81809
:104860005F3FE4F3983ED4F3869577956795B795C7
:10487000F7959F5FC9F7880F911D9695879597F9D2
:104880000895E1E0660F771F881FBB1F621773074B
:104890008407BA0720F0621B730B840BBA0BEE1F60
:1048A00088F7E0950895E89409C097FB3EF4909549
:1048B0008095709561957F4F8F4F9F4F9923A9F0F9
:1048C000F92F96E9BB279395F69587957795679588
:1048D000B795F111F8CFFAF4BB0F11F460FF1BC0CC
:1048E0006F5F7F4F8F4F9F4F16C0882311F096E95F
:1048F00011C0772321F09EE8872F762F05C066230D
:1049000071F096E8862F70E060E02AF09A95660FC5
:10491000771F881FDAF7880F9695879597F908957E
:1049200003D008F48FEF0895990F0008550FAA0BD4
:10493000E0E8FEEF16161706E807F907C0F01216B2
:104940001306E407F50798F0621B730B840B950BB5
:1049500039F40A2661F0232B242B252B21F408950A
:104960000A2609F4A140A6958FEF811D811D0895A7
:10497000A1E21A2EAA1BBB1BFD010DC0AA1FBB1F63
:10498000EE1FFF1FA217B307E407F50720F0A21BD5
:10499000B30BE40BF50B661F771F881F991F1A9442
:1049A00069F760957095809590959B01AC01BD016C
:1049B000CF010895EE0FFF1F881F8BBF0790F69160
:1049C000E02D19940F931F93CF93DF9382309105BD
:1049D00010F482E090E0E0918D16F0918E1620E0C8
:1049E00030E0A0E0B0E0309719F1408151810281C0
:1049F000138148175907C8F08417950769F4109771
:104A000031F012960C93129713961C9327C00093C3
:104A10008D1610938E1622C02115310519F04217FC
:104A2000530718F49A01BD01EF01DF01F801DBCF54
:104A300021153105F9F0281B390B2430310580F49C
:104A40008A819B816115710521F0FB01938382832B
:104A500004C090938E1680938D16FE01329644C04A
:104A6000FE01E20FF31F81939193225031093983A4
:104A700028833AC020918B1630918C16232B41F459
:104A8000209102023091030230938C1620938B16F2
:104A900020910002309101022115310541F42DB71A
:104AA0003EB74091040250910502241B350BE09162
:104AB0008B16F0918C16E217F307A0F42E1B3F0B18
:104AC0002817390778F0AC014E5F5F4F2417350780
:104AD00048F04E0F5F1F50938C1640938B168193B6
:104AE000919302C0E0E0F0E0CF01DF91CF911F9100
:104AF0000F910895CF93DF93009709F481C0FC01D3
:104B0000329713821282A0918D16B0918E16109753
:104B100081F420813181820F931F20918B16309177
:104B20008C162817390751F5F0938C16E0938B16E5
:104B300067C0ED0120E030E0CE17DF0740F44A8186
:104B40005B819E0141155105F1F0EA01F5CFD38358
:104B5000C28340815181840F951FC817D90759F42A
:104B600088819981840F951F0296918380838A8121
:104B70009B81938382832115310529F4F0938E164E
:104B8000E0938D163DC0E901FB83EA834991599179
:104B9000C40FD51FEC17FD0761F480819181840F4C
:104BA000951F0296E90199838883828193819B8373
:104BB0008A83E0E0F0E012968D919C911397009724
:104BC00019F0FD01DC01F7CF8D919C9111979D01AA
:104BD0002E5F3F4F820F931F20918B1630918C16C2
:104BE0002817390769F4309729F410928E1610921D
:104BF0008D1602C013821282B0938C16A0938B166E
:104C0000DF91CF91089581E090E0F89400C3FB011B
:104C1000DC0102C001900D9241505040D8F7089538
:104C2000DC0101C06D9341505040E0F70895CF93EF
:104C3000DF93CDB7DEB7AE014A5F5F4FFA016191F6
:104C40007191AF01809191169091921633D0DF91BE
:104C5000CF9108950F931F93CF93DF93E091911617
:104C6000F0919216238121FF1BC08C01D0E0C0E09F
:104C7000F80181918F016091911670919216DB017C
:104C80001896ED91FC911997882331F01995892B8D
:104C900079F3DFEFCFEFECCF8AE01995892B19F08C
:104CA0008FEF9FEF02C08D2F9C2FDF91CF911F912F
:104CB0000F9108952F923F924F925F926F927F9241
:104CC0008F929F92AF92BF92CF92DF92EF92FF921C
:104CD0000F931F93CF93DF93CDB7DEB72B970FB60C
:104CE000F894DEBF0FBECDBF6C017B018A01FC01D1
:104CF00017821682838181FFBFC1CE0101963C01DC
:104D0000F6019381F70193FD859193FF81917F01D6
:104D1000882309F4ADC1853239F493FD859193FF61
:104D200081917F01853221F4B60190E0D6D1E8CFA0
:104D3000912C212C312CFFE1F315D8F08B3279F036
:104D400038F4803279F08332A1F4232D20611DC024
:104D50008D3261F0803369F4232D216016C0832DDC
:104D60008260382EE32DE4603E2E2AC0F32DF860D9
:104D70001DC037FC2DC020ED280F2A3040F08E32A8
:104D8000B9F436FC75C1232D2064322E19C036FECD
:104D900006C08AE0989E200D1124922E11C0EAE0F0
:104DA0002E9E200D1124222EF32DF0623F2E08C0DE
:104DB0008C3621F4832D8068382E02C0883641F469
:104DC000F70193FD859193FF81917F018111B3CF0D
:104DD000982F9F7D9554933028F40C5F1F4F9FE3CD
:104DE00099830DC0833631F0833771F0833509F034
:104DF00055C020C0F801808189830E5F1F4F882431
:104E00008394912C530112C02801F2E04F0E511CE3
:104E1000F801A080B18036FE03C0692D70E002C0A9
:104E20006FEF7FEFC5014ED14C018201F32DFF776B
:104E30003F2E15C0280122E0420E511CF801A0802F
:104E4000B18036FE03C0692D70E002C06FEF7FEFC6
:104E5000C5012DD14C01F32DF0683F2E820133FCAA
:104E600019C0822D90E088169906A0F4B60180E260
:104E700090E033D12A94F5CFF50137FC859137FEC8
:104E800081915F01B60190E028D121102A9421E0A0
:104E9000821A91088114910479F7E1C0843611F0E7
:104EA000893639F5F80137FE07C06081718182814A
:104EB00093810C5F1F4F08C060817181072E000C29
:104EC000880B990B0E5F1F4FF32DFF763F2E97FF38
:104ED00009C090958095709561957F4F8F4F9F4F3A
:104EE000F0683F2E2AE030E0A30133D1882E8618E7
:104EF00044C0853731F4232D2F7EB22E2AE030E0D6
:104F000025C0932D997FB92E8F36C1F018F48835BE
:104F100079F0AEC0803719F0883721F0A9C0E92FA9
:104F2000E061BE2EB4FE0DC0FB2DF460BF2E09C0A3
:104F300034FE0AC0292F2660B22E06C028E030E0D9
:104F400005C020E130E002C020E132E0F801B7FE08
:104F500007C060817181828193810C5F1F4F06C001
:104F60006081718180E090E00E5F1F4FA301F1D05E
:104F7000882E8618FB2DFF773F2E36FE0DC0232D81
:104F80002E7FA22E891458F434FE0BC032FC09C0C7
:104F9000832D8E7EA82E05C0B82CA32C03C0B82C60
:104FA00001C0B92CA4FE0FC0FE01E80DF11D8081E7
:104FB000803321F49A2D997EA92E09C0A2FE06C045
:104FC000B394B39404C08A2D867809F0B394A3FCFB
:104FD00010C0A0FE06C0B21480F4280C922C9B18BE
:104FE0000DC0B21458F4B60180E290E076D0B394CC
:104FF000F8CFB21418F42B1802C0982C212CA4FE60
:105000000FC0B60180E390E068D0A2FE16C0A1FCFC
:1050100003C088E790E002C088E590E0B6010CC0CC
:105020008A2D867851F0A1FE02C08BE201C080E299
:10503000A7FC8DE2B60190E050D0891430F4B6019F
:1050400080E390E04AD09A94F8CF8A94F301E80D77
:10505000F11D8081B60190E040D08110F6CF222072
:1050600009F44ECEB60180E290E037D02A94F7CF13
:10507000F6018681978102C08FEF9FEF2B960FB6C6
:10508000F894DEBF0FBECDBFDF91CF911F910F917E
:10509000FF90EF90DF90CF90BF90AF909F908F9058
:1050A0007F906F905F904F903F902F900895FC01FC
:1050B0000590615070400110D8F7809590958E0F43
:1050C0009F1F0895FC016150704001900110D8F7B6
:1050D000809590958E0F9F1F08950F931F93CF93E8
:1050E000DF93FB01238121FD03C08FEF9FEF2CC0D5
:1050F00022FF16C04681578124813581421753070C
:1051000044F4A081B1819D012F5F3F4F3183208303
:105110008C93268137812F5F3F4F3783268314C0BE
:105120008B01EC01FB010084F185E02D1995892BA1
:10513000E1F6D80116968D919C91179701961796D6
:105140009C938E931697CE01DF91CF911F910F9173
:105150000895FA01AA27283051F1203181F1E8940D
:105160006F936E7F6E5F7F4F8F4F9F4FAF4FB1E05A
:105170003ED0B4E03CD0670F781F891F9A1FA11D55
:10518000680F791F8A1F911DA11D6A0F711D811D56
:10519000911DA11D20D009F468943F912AE0269F1B
:1051A00011243019305D3193DEF6CF010895462F7A
:1051B0004770405D4193B3E00FD0C9F7F6CF462F5B
:1051C0004F70405D4A3318F0495D31FD40524193C4
:1051D00002D0A9F7EACFB4E0A69597958795779581
:1051E0006795BA95C9F700976105710508959B0108
:1051F000AC010A2E06945795479537952795BA9591
:10520000C9F7620F731F841F951FA01D0895F8949E
:02521000FFCFCE
:1052120000009516200046000900400040C600CE5E
:1052220000D60036010000000300000000A61E9117
:105232001E0000F8FF0186000000000079FF0179DE
:10524200A000000000E6FF0179000000000086FFD8
:105252000187000000000078FF01880000000000C4
:10526200004E6F7420656E6F756768206D656D6F97
:1052720072792E004D6561737572652067726F7564
:105282007020676F6F6400446174612052656164CD
:10529200792067726F757020676F6F64005B4D6570
:1052A2007373616765204275666665725D3A204177
:1052B2006C6C6F636174696E672062756666657295
:1052C200732E2E2E0A004D61696E41707054617307
:1052D2006B00434F325461736B0054656D704875B7
:1052E2006D5461736B004C75785461736B00536538
:1052F20072766F5461736B0055704C696E6B5461BA
:10530200736B00446F776E4C696E6B5461736B0004
:105312002D2D2D2D2D2D2D2D424F4F54494E472DE4
:105322002D2D2D2D2D2D2D0A005B4150505D205429
:10533200696D652D626173656420636865636B697D
:105342006E67207374617274202D3E0A005B4150B7
:10535200505D2053656E64696E67206D656173757B
:1053620072656D656E742073746172742065766502
:105372006E7420626974732E2E2E0A00444F574EAB
:105382004C494E4B0A005B55504C494E4B5D2055E3
:10539200706C696E6B20696E69740055704C496E51
:1053A2006B0A0043414C4C4241434B5320534554FA
:1053B200005B434F325D204D6561737572652072EB
:1053C2006571756573742072656365697665642EAF
:1053D2000A54616B696E67206D6561737572656DE4
:1053E200656E742E2E2E005B455D5B434F325D2051
:1053F200434F32204D6561737572656D656E742021
:105402006661696C65642E0A00434F323A20256456
:105412000A005B575D5B434F325D204D65617375DA
:105422007265206C697374656E65722074696D654E
:1054320064206F75742E2054616B696E67206E6FE5
:10544200206D6561737572656D656E742E2E2E000A
:105452000A46756C6C20737065637472756D206F8B
:10546200766572666C6F77202D206368616E676562
:10547200206761696E20616E6420696E746567726F
:105482006174696F6E2074696D6500566973696233
:105492006C65206F766572666C6F77202D2063686D
:1054A200616E6765206761696E20616E6420696E56
:1054B200746567726174696F6E2074696D65004905
:1054C2006E667261726564206F766572666C6F7764
:1054D200202D206368616E6765206761696E2061B7
:1054E2006E6420696E746567726174696F6E207490
:1054F200696D65004C7578206F766572666C6F77A2
:10550200202D206368616E6765206761696E206186
:105512006E6420696E746567726174696F6E20745F
:10552200696D65005B4C55585D20526573756C74EE
:105532003A202564005B4C55585D204C75782069F3
:105542006E6974005B4C55585D204D6561737572D0
:10555200652072657175657374207265636569761D
:1055620065642E0A54616B696E67206D656173759F
:1055720072656D656E742E2E2E005B575D5B4C5509
:10558200585D204D656173757265206C6973746531
:105592006E65722074696D6564206F75742E204E7D
:1055A2006F742074616B696E67206D6561737572CB
:1055B200656D656E742E2E2E0054454D502F485544
:1055C2004D2053454E534F5220494E495449414C68
:1055D200495A45440A0054454D502F48554D2053D1
:1055E200454E534F522057414B452055502057525C
:1055F2004F4E470A0054454D502F48554D205345B4
:105602004E534F522057414B4520555020434F4D4A
:10561200504C4554450A005B48554D2F54454D505A
:105622005D204D6561737572652072657175657374
:10563200742072656365697665642E0A54616B69CC
:105642006E67206D6561737572656D656E742E2E61
:105652002E005B455D5B54454D502F48554D5D20F6
:1056620053454E534F52204D4541535552452057B5
:10567200524F4E470A005B48554D2F54454D505DE1
:1056820020526573756C747320543A202564204847
:105692003A2025640A005B48554D2F54454D505D14
:1056A20020476F696E6720746F20736C6565702088
:1056B200666F7220696E74657276616C2E005B573C
:1056C2005D5B48554D2F54454D505D204D656173CE
:1056D200757265206C697374656E65722074696D8C
:1056E2006564206F75742E2054616B696E67206E3D
:1056F2006F206D6561737572656D656E742E2E2EE9
:1057020000536572766F20616E676C652072656307
:1057120065697665642066726F6D20636F6E666977
:105722006775726174696F6E00536572766F20617E
:105732006E676C6520756E6368616E6765642E00C6
:10574200536572766F20616E676C65206368616E67
:105752006765643B20636F7272656374696E67206C
:10576200616E676C652E2E2E004572726F7220720A
:105772006563656976696E6720736572766F20610D
:105782006E676C652E0049444C4500546D7220537F
:0C57920076630048414C5F4C4544000029
:00000001FF
