:10000000E5C0000003C1000001C10000FFC0000006
:10001000FDC00000FBC00000F9C00000F7C00000F8
:10002000F5C00000F3C00000F1C00000EFC0000008
:100030000C943C08EBC00000E9C00000E7C00000E1
:10004000E5C00000E3C00000E1C00000DFC0000028
:10005000DDC00000DBC00000D9C00000D7C0000038
:10006000D5C000000C94CC1E0C941E1FCFC0000005
:10007000CDC00000CBC00000C9C00000C7C0000058
:10008000C5C00000C3C00000C1C00000BFC0000068
:100090000C94621F0C94B41FB9C000000C94F2249D
:1000A000B5C00000B3C00000B1C00000AFC0000088
:1000B000ADC00000ABC00000A9C00000A7C0000098
:1000C000A5C00000A3C00000A1C000000C94F81F50
:1000D0000C944A209BC000000C948E200C94E020CD
:1000E00095C00000051B051B051B3C1B441B591B31
:1000F000051B051B3C1B441B1425842584258425D6
:100100008425842584258425142584258425842517
:100110008425842584258425162584258425842505
:100120008425842584258425842584258425842587
:1001300084258425842584251625842584258425E5
:100140008425842584258425842584258425842567
:10015000842584258425842580258425842584255B
:1001600084258425842584254B2584258425842580
:100170008425842584258425842584258425842537
:1001800084258425842584253F258425842584256C
:10019000842584258425842563250E94800E8091F2
:1001A0008F12823008F0A3D60E94821BF6CFCF9325
:1001B000DF931F92CDB7DEB7CE0101960E94821861
:1001C00049810E94771A0E94CE1AF6CF11241FBED1
:1001D000CFEFD1E2DEBFCDBF00E00CBF14E0A0E066
:1001E000B2E0E0EDF7E500E00BBF02C007900D9232
:1001F000A238B107D9F723E1A2E8B4E001C01D920B
:10020000AC38B207E1F7A8D00C94E62BF9CE809178
:100210006C1390916D13089581E00E942F0A9093C2
:100220006F1380936E13892B29F08FE492E00C9466
:100230000929089588E592E00C9409290895809190
:1002400072139091731308958091701390917113AC
:100250000895E5D29093731380937213892B49F418
:1002600086E692E09F938F930E94F6280F900F905E
:1002700004C089E792E00E940929D1D290937113BA
:1002800080937013892B49F486E692E09F938F93B5
:100290000E94F6280F900F9008958CE892E00C943D
:1002A00009290895EF92FF920F93E12CF12C02E0BF
:1002B00020E030E046E551E062EA72E08CED91E04A
:1002C0000E94450F01E020E030E04BE051E06EEA93
:1002D00072E080EA92E00E94450F20E030E04BE0BF
:1002E00051E066EB72E08CE593E00E94450F20E060
:1002F00030E04BE051E062EC72E083E293E00E9478
:10030000450F20E030E04BE051E06AEC72E08AEB10
:1003100093E00E94450F02E020E030E04BE051E026
:1003200064ED72E08DE592E00E94450F0F91FF9021
:10033000EF90089580E00E94422181B1816881B9E7
:1003400085E00E94492268DF12D283DFAAD119D04A
:1003500072D1EAD0A7CF0895EDDF8FED92E00E9431
:1003600009290E94910F87EE92E09F938F930E943C
:10037000F6280F900F90F7CF80917413909175131A
:1003800008958DEE92E00E94092941E060E070E05E
:100390008AE090E00E94860C90937513809374130A
:1003A00041E060E070E084E090E00E94860C909371
:1003B0007713809376130895CF93DF9300D01F9225
:1003C000CDB7DEB70E94CF0F69837A838B839C837E
:1003D00042EE54E060E070E0CE0101960E94E5112B
:1003E00088EF92E00E9409292ADF41E050E060E0B6
:1003F00070E0C8D229DF0F2EFEE3CF2ED12CE12CE6
:10040000F12CF02D00E021E041E050E060E070E0F0
:1004100019D2672B682B692B21F08AE093E00E94A8
:1004200009298CE193E00E94092909DF42E050E0AC
:1004300060E070E0A7D208DF0F2EFEE3CF2ED12CB4
:10044000E12CF12CF02D00E021E042E050E060E0F2
:1004500070E0F8D1672B682B692B21F08EE293E0D6
:100460000E9409298CE393E00E940929E8DE44E018
:1004700050E060E070E086D2E7DE0F2EFEE3CF2E84
:10048000D12CE12CF12CF02D00E021E044E050E0F3
:1004900060E070E0D7D1672B682B692B21F08EE4E8
:1004A00093E00E9409298CE593E00E94092990CFEE
:1004B00089E793E00C9409290895CF93DF93CDB792
:1004C000DEB728970FB6F894DEBF0FBECDBFF0DFC2
:1004D0000E94CF0F69837A838B839C834DE750E022
:1004E00060E070E0CE0101960E94E51145DF0CE668
:1004F00012E020E030E044E050E0BE016B5F7F4F4F
:100500000E94B80C892B21F085E893E00E9409290C
:1005100060E177E280E090E00E944A12DFCF9093A2
:100520007A138093791308958DE893E00E94092946
:1005300083E00E94FB1C8FE892E00C94201D08953C
:10054000CF93DF9300D01F92CDB7DEB70E94CF0FBD
:1005500069837A838B839C834DE750E060E070E091
:10056000CE0101960E94E5116ADE0F2EF2EECF2E2B
:10057000F4E0DF2EE12CF12CF02D01E021E041E050
:1005800050E060E070E05ED160FF1FC084E993E05E
:100590000E9409290E94251D80937813882321F049
:1005A00085EA93E00E94092980917A138F938091C4
:1005B00079138F9383EB93E09F938F930E94F62898
:1005C0000F900F900F900F90C7CF8CEB93E00E948D
:1005D0000929C2CFCF93DF9300D01F92CDB7DEB7EA
:1005E0008130C1F4CE0101960E9438238C818F9313
:1005F0008B818F938A818F9389818F938AEC93E08B
:100600009F938F930E94F6280F900F900F900F905A
:100610000F900F9069817A818B819C810E94A61B2B
:1006200070937C1360937B130F900F900F900F903B
:10063000DF91CF9108958AEE92E00C94F62208950E
:100640000C9411230895CF93DF9300D01F92CDB760
:10065000DEB7F6DF0E94CF0F69837A838B839C839A
:100660004DE750E060E070E0CE0101960E94E51198
:10067000E6DD0F2EF2EECF2EF4E0DF2EE12CF12C92
:10068000F02D01E021E044E050E060E070E0DAD0DD
:1006900062FFE6CF83ED93E00E9409290E942623A2
:1006A000DFCF0E94281C0E943F1C882321F08FED81
:1006B00093E00C9409290895CF93DF9300D01F9203
:1006C000CDB7DEB70E94CF0F69837A838B839C837B
:1006D0004DE750E060E070E0CE0101960E94E51128
:1006E000AEDD0F2EF1E7CF2EF2E0DF2EE12CF12C64
:1006F000F02D01E021E042E050E060E070E0A2D0A7
:1007000061FFE6CF8EEF93E00E9409290E94541CFE
:10071000882321F08FE094E00E94092964E170E0D1
:1007200080E090E00E944A120E94951C90938013F2
:1007300080937F130E94651C0E94A61B60937D130B
:1007400070937E137F936F93809180138F9380912A
:100750007F138F9383E294E09F938F930E94F628F8
:100760000F900F900F900F900F900F90B1CF0C94AF
:100770006C1D089566EA7EE080E090E00E944A12D7
:1007800080916E1390916F130097A1F34AE050E0AF
:1007900060E070E039D78130E1F439DDC82F00E046
:1007A00020E030E0A90160E070E080916E1390914C
:1007B0006F13B4D580918113C817E1F280E394E000
:1007C0000E9409296C2F81E00E94541DC09381135F
:1007D000D1CF80E594E00E940929CCCF0F9301117D
:1007E0000CC0DC01CB0182239323A423B523892BE6
:1007F0008A2B8B2B79F480E010C0DC01CB018223A3
:100800009323A423B523281739074A075B0721F050
:1008100080E003C081E001C081E00F910895CF9393
:10082000DF938FE090E0AFD1EC01009739F0FC014D
:100830001192119211921192CF018BD2CE01DF91C0
:10084000CF9108952F923F924F925F926F927F9235
:100850008F929F92AF92BF92CF92DF92EF92FF92D0
:100860000F931F93CF93DF93EC014A015B01622E3C
:10087000702E0E94C90F288039804A805B80A501B4
:100880009401C201B101AADF8823A1F0662089F199
:10089000D501C40180959095A095B09582219321B2
:1008A000A421B52188839983AA83BB83C12CD12C31
:1008B000760122C0C114D104E104F104E9F0611011
:1008C00004C040E050E0BA0104C040E050E060E005
:1008D00071E071107460482959296A297B299701B0
:1008E0008601CE0104960E94E112212C312C2101B7
:1008F00003C0C12CD12C76010E940911CD28CE282D
:10090000CF2859F1811101C0F2D20E948D166B01DE
:100910007C0191FD1FC00FB6F8940F92C880D9805A
:10092000EA80FB80072DA5019401C701B60156DFBF
:10093000882371F0662061F080949094A094B09424
:100940008C209D20AE20BF2088829982AA82BB8203
:100950000F900FBE160127015524C201B101DF918E
:10096000CF911F910F91FF90EF90DF90CF90BF90AC
:10097000AF909F908F907F906F905F904F903F903F
:100980002F9008954F925F926F927F92AF92BF9295
:10099000CF92DF92EF92FF920F931F93CF93DF934B
:1009A000EC016A017B018C01095F1F4F0E94C90F96
:1009B000EB85FC8588819981AA81BB81C82AD92AC7
:1009C000EA2AFB2AC882D982EA82FB82C12CD12C76
:1009D00076013DC0A480B58080819181A281B381E0
:1009E000AC01BD017727B2FD0EC0488059806A80F6
:1009F0007B804422552266227722452846284728B4
:100A000089F420E012C0488059806A807B804422AB
:100A1000552266227722441555056605770521F093
:100A200020E003C021E001C021E0222371F0B0FFEB
:100A300004C0C42AD52AE62AF72A488159816A8146
:100A40007B817260CF010E941C14EA2DFB2DE01700
:100A5000F10709F0BFCFC094D094E094F09488815E
:100A60009981AA81BB81C822D922EA22FB22C882AD
:100A7000D982EA82FB820E940911688179818A8188
:100A80009B81DF91CF911F910F91FF90EF90DF90AD
:100A9000CF90BF90AF907F906F905F904F900895F0
:100AA000EEE8F4E0A2E9B4E0B183A08313821282FD
:100AB000EAE3F2E1F0938D04E0938C041382128256
:100AC0001182108288EA9DE013969C938E93129770
:100AD000ED93FC93909389048093880490938B0406
:100AE00080938A0480E090E890938304809382044A
:100AF0000895CF93DF93EC01AEE8B4E001C0DF01CD
:100B0000ED91FC911197EC17FD07C8F312968D91AA
:100B10009C9113979D01280F391FC217D30749F4E1
:100B20002A813B81820F931F13969C938E93129779
:100B3000ED018A819B819E01280F391FE217F3077F
:100B4000C1F420918C0430918D04E217F30771F009
:100B500022813381820F931F9B838A83ED91FC91C5
:100B60001197808191819983888305C03983288377
:100B700002C0F983E883CA17DB0711F0CD93DC9339
:100B8000DF91CF910895EF92FF920F931F93CF9330
:100B9000DF938C010E94C90F80918C0490918D0489
:100BA000892B09F47DDF8091820490918304802356
:100BB0009123892B09F076C00115110549F0C80170
:100BC00004960817190718F000E010E001C08C0126
:100BD0000115110509F469C080918A0490918B0474
:100BE0008017910708F464C0C0918E04D0918F04DF
:100BF000EEE8F4E002C0FE01EC018A819B818017DF
:100C0000910720F4888199810097A9F780918C043D
:100C100090918D04C817D90709F44DC0E080F18088
:100C200084E0E80EF11C88819981918380832A8178
:100C30003B81201B310B2930310548F0CE01800F5C
:100C4000911FFC01338322831B830A8352DF2A8195
:100C50003B8180918A0490918B04821B930B90932B
:100C60008B0480938A0440918804509189048417EE
:100C7000950720F4909389048093880480918204DE
:100C800090918304282B392B3B832A831982188265
:100C900080918604909187040196909387048093B5
:100CA00086040BC0E12CF12C08C0E12CF12C05C00E
:100CB000E12CF12C02C0E12CF12C0E940911E1146D
:100CC000F10411F40E948E1BC701DF91CF911F9197
:100CD0000F91FF90EF9008950F931F93CF93DF93A1
:100CE000009791F1EC0124974A815B812091820465
:100CF00030918304BA0162237323672B29F1688141
:100D00007981672B09F520953095242335233B8382
:100D10002A830E94C90F8A819B8120918A04309185
:100D20008B04820F931F90938B0480938A04CE01CF
:100D3000E0DE80918404909185040196909385046F
:100D4000809384040E940911DF91CF911F910F912C
:100D50000895FC010396928381834FEF5FEFBA0100
:100D600043835483658376839087878392878187C3
:100D700010820895FC011386128608950F931F9325
:100D8000CF93DF93EB01088119812A813B810F3FCB
:100D90004FEF14072407340721F4FC01A185B28525
:100DA00011C0DC01139601C0DF011496ED91FC9196
:100DB00015974081518162817381041715072607B9
:100DC000370790F71496ED91FC911597FD83EC830E
:100DD000D783C683BF83AE831596DC93CE931497D7
:100DE0009B878A87FC0120812F5F2083DF91CF9131
:100DF0001F910F910895CF93DF93FC01A285B385D6
:100E0000C481D581868197819F838E83C681D78156
:100E1000848195819D838C8311968D919C911297ED
:100E2000E817F90731F48681978112969C938E9387
:100E30001197138612868C9181508C938C91DF913F
:100E4000CF910895A89590EC88E10FB6F894A895F5
:100E5000809360000FBE909360000895FC01608352
:100E6000319770833197108231971082319720E843
:100E700020833197108231971082319710827797B3
:100E800040833197508386970895DCDFA091FD124F
:100E9000B091FE12CD91CDBFDD91DEBFFF91EF91FC
:100EA000DF91CF91BF91AF919F918F917F916F9182
:100EB0005F914F913F912F911F910F91FF90EF9074
:100EC000DF90CF90BF90AF909F908F907F906F906A
:100ED0005F904F903F902F901F900F900CBE0F90FF
:100EE0000BBE0F900FBE0F90089581E008950F92F2
:100EF0000FB6F8940F920BB60F920CB60F921F928A
:100F000011242F923F924F925F926F927F928F9215
:100F10009F92AF92BF92CF92DF92EF92FF920F9388
:100F20001F932F933F934F935F936F937F938F9371
:100F30009F93AF93BF93CF93DF93EF93FF93A091D2
:100F4000FD12B091FE120DB60D920EB60D920E94DA
:100F50006512A091FD12B091FE12CD91CDBFDD9131
:100F6000DEBFFF91EF91DF91CF91BF91AF919F9144
:100F70008F917F916F915F914F913F912F911F9131
:100F80000F91FF90EF90DF90CF90BF90AF909F9028
:100F90008F907F906F905F904F903F902F901F9019
:100FA0000F900CBE0F900BBE0F900FBE0F900895C8
:100FB0000F920FB6F8940F920BB60F920CB60F92D9
:100FC0001F9211242F923F924F925F926F927F92C5
:100FD0008F929F92AF92BF92CF92DF92EF92FF9249
:100FE0000F931F932F933F934F935F936F937F9331
:100FF0008F939F93AF93BF93CF93DF93EF93FF9321
:10100000A091FD12B091FE120DB60D920EB60D928A
:1010100013BED3D781110E946512A091FD12B09129
:10102000FE12CD91CDBFDD91DEBFFF91EF91DF913B
:10103000CF91BF91AF919F918F917F916F915F9170
:101040004F913F912F911F910F91FF90EF90DF9063
:10105000CF90BF90AF909F908F907F906F905F9058
:101060004F903F902F901F900F900CBE0F900BBE93
:101070000F900FBE0F9008959BDF1895DC015396DB
:101080002C915397222341F05A96ED91FC915B9756
:1010900090818AE0891B089580E008950FB6F89446
:1010A0000F92FC01868D811102C081E001C080E0B9
:1010B0000F900FBE08950FB6F8940F92FC01268D85
:1010C000878D281302C081E001C080E00F900FBE21
:1010D00008950F931F93CF93DF93EC01042F1E8D80
:1010E00048A141110CC088819981892B09F042C027
:1010F0008C819D810E94CB151D821C8242C00111F2
:1011000017C050E08A819B810E94E62828A18A812D
:101110009B81820F911D9B838A832C813D81821745
:10112000930750F1888199819B838A8380E029C04D
:1011300050E08E819F810E94E62888A190E09195E1
:10114000819591092E813F81280F391F3F832E837E
:10115000488159812417350730F42C813D81820F55
:10116000931F9F838E83023049F4112349F011505D
:1011700080E007C080E005C080E003C080E001C0DF
:1011800080E01F5F1E8FDF91CF911F910F91089517
:10119000FC0140A14423A9F050E026813781240FAF
:1011A000351F37832683848195812817390720F0DE
:1011B0008081918197838683CB01668177810C94AE
:1011C000E62808951F93CF93DF93EC010FB6F894B0
:1011D0000F921AA10BC08B89882351F0CE01439640
:1011E0000E946D1381110E942D15115011169CF350
:1011F0008FEF8AA30F900FBE0FB6F8940F9219A12C
:101200000BC08885882351F0CE0108960E946D138B
:1012100081110E942D15115011169CF38FEF89A397
:101220000F900FBEDF91CF911F910895CF93DF9361
:10123000EC010FB6F8940F92E881F9818F8D28A107
:1012400090E030E0829FA001839F500D929F500D4F
:1012500011244E0F5F1F5D834C831E8EFB83EA8338
:101260000197289FA001299F500D389F500D1124F0
:10127000CF01840F951F9F838E838FEF89A38AA34D
:1012800061110BC08885882371F0CE0108960E94F9
:101290006D13882341F02BDE06C0CE01089659DD80
:1012A000CE01439656DD0F900FBE81E0DF91CF91C6
:1012B00008950F931F93F801611103C011830083F8
:1012C00002C051834083878F60A361E0CF01AEDF0E
:1012D0001F910F910895DF92EF92FF920F931F934A
:1012E000CF93DF93F82EE62ED42E869FC0011124D3
:1012F000839649DCEC01009741F08C012D2DAC0167
:101300004D5D5F4F6E2D8F2DD4DFCE01DF91CF91DC
:101310001F910F91FF90EF90DF900895CF92DF9291
:10132000EF92FF920F931F93CF93DF93CDB7DEB76A
:1013300029970FB6F894DEBF0FBECDBF7C016B01BD
:101340002E833F834887598710E00FB6F8940F9299
:10135000F701968D878D981710F00230B1F4402F69
:10136000B601C701B6DEF7019389992341F0C701A1
:1013700043960E946D13882321F0B9DD02C08111CC
:10138000B6DD0F900FBE81E049C08E819F81A88598
:10139000B985892B8A2B8B2B21F40F900FBE80E00F
:1013A0003DC0111105C0CE0101960E94B61411E096
:1013B0000F900FBEEED50FB6F8940F92F70181A1F2
:1013C0008F3F09F411A2F70182A18F3F09F412A205
:1013D0000F900FBEBE016A5F7F4FCE0101960E9443
:1013E000C714811117C0C70166DE882379F04E81CA
:1013F0005F8168857985C70108960E94CA12C70176
:10140000E1DE07D78111A1CF72DD9FCFC701DADE00
:1014100000D79BCFC701D6DEFCD680E029960FB659
:10142000F894DEBF0FBECDBFDF91CF911F910F911A
:10143000FF90EF90DF90CF9008950F93009769F0A1
:10144000FC011582148211821082168200E020E0D5
:1014500030E0A90160E070E061DF0F910895CF9363
:10146000DF93482F60E081E036DFEC01E6DFCE015C
:10147000DF91CF910895EF92FF920F931F93CF9337
:10148000DF938A01FC01568D378D531710F02230FF
:10149000F9F4422F7801EC011AA18E8DCE0119DEEC
:1014A0001F3F81F48B898823A9F0CE0143960E94C7
:1014B0006D13882389F0E114F10481F081E0F701D4
:1014C00080830DC0FF24F394F10EFAA281E007C0DF
:1014D00080E005C081E003C081E001C081E0DF91D0
:1014E000CF911F910F91FF90EF900895CF92DF92CF
:1014F000EF92FF920F931F93CF93DF93CDB7DEB799
:1015000029970FB6F894DEBF0FBECDBF8C016B01DB
:101510002E833F8348875987E12C0FB6F8940F92AA
:10152000F801F68CFF2099F0B601C80131DEFA947B
:10153000F801F68E8085882331F0C80108960E9454
:101540006D138111D4DC0F900FBE81E04EC08E81EF
:101550009F81A885B985892B8A2B8B2B21F40F902D
:101560000FBE80E042C0E11006C0CE0101960E948D
:10157000B614EE24E3940F900FBE0BD50FB6F8947B
:101580000F92F80181A18F3F09F411A2F80182A105
:101590008F3F09F412A20F900FBEBE016A5F7F4F0A
:1015A000CE0101960E94C714811116C0C80176DDD4
:1015B000882371F04E815F8168857985C8014396E3
:1015C000E9D7C801FFDD25D68111A7CF90DCA5CFD3
:1015D000C801F8DD1ED6A1CFC801F4DD1AD6C801B6
:1015E0005DDD882309F499CF80E029960FB6F89441
:1015F000DEBF0FBECDBFDF91CF911F910F91FF9046
:10160000EF90DF90CF900895EF92FF920F931F938A
:10161000CF93DF93CDB7DEB729970FB6F894DEBF2F
:101620000FBECDBF8C014E835F8368877987E12C25
:10163000F12C0FB6F8940F92F801868D8823C9F02B
:101640008150868F80819181892B29F40E94B71661
:10165000F80195838483F8018085882331F0C801DF
:1016600008960E946D13811142DC0F900FBE81E03D
:101670006EC08E819F81A885B985892B8A2B8B2B83
:1016800021F40F900FBE80E062C0F11006C0CE01C1
:1016900001960E94B614FF24F3940F900FBE79D4E4
:1016A0000FB6F8940F92F80181A18F3F09F411A2AF
:1016B000F80182A18F3F09F412A20F900FBEBE0164
:1016C0006A5F7F4FCE0101960E94C714811125C029
:1016D000C801E4DC8823E9F0F80180819181892B3D
:1016E00051F40FB6F8940F92848195810E944415AD
:1016F000E82E0F900FBE4E815F8168857985C80105
:10170000439648D7C8015EDD84D5811192CFEFDBC7
:1017100090CFC80157DD7DD58CCFC80153DD79D579
:10172000C801BCDC882309F484CFEE2079F00FB621
:10173000F8940F92C801A2DC682FF801848195818A
:101740000E9426160F900FBE80E001C080E029960F
:101750000FB6F894DEBF0FBECDBFDF91CF911F91C2
:101760000F91FF90EF900895CF93DF93EC010FB6A8
:10177000F8940F9289A18F3F09F419A28AA18F3F93
:1017800009F41AA20F900FBE8E8D811103C0CE01F5
:10179000439661D7CE0116DDDF91CF910895FC010C
:1017A0004481558122813381240F351F80819181AD
:1017B000B901681B790BCB016417750710F0841B06
:1017C000950B08950F93FC018FE0DF011D928A9520
:1017D000E9F77587648755834483378326830687B3
:1017E0000F910895AF92BF92CF92DF92EF92FF9246
:1017F0000F931F93CF93DF937C015B01E9014217A5
:10180000530708F4EA01209781F1F7010081118163
:1018100084819581801B910B6E018C179D0708F4C4
:101820006C01F70164857585600F711FA601C50104
:101830000E94E628CC16DD0658F4AE014C195D096D
:10184000F70164857585C5018C0D9D1D0E94E628F4
:101850000C0F1D1FF701848195810817190710F0DF
:10186000081B190BF70111830083CE01DF91CF9183
:101870001F910F91FF90EF90DF90CF90BF90AF90AE
:1018800008956F927F928F929F92AF92BF92CF9264
:10189000DF92EF92FF920F931F93CF93DF931F92EC
:1018A0001F92CDB7DEB76C014B015A0179010115CA
:1018B0001105B1F0FC0160807180A801BE016F5F6D
:1018C0007F4F90DF89819A81E01AF10AA816B90644
:1018D00030F4F60171826082A12CB12C01C05C0150
:1018E0009701A501B401C6017DDF0F900F90DF9134
:1018F000CF911F910F91FF90EF90DF90CF90BF900D
:10190000AF909F908F907F906F900895CF92DF92CD
:10191000EF92FF920F93CF93DF93EC016B01413075
:1019200011F401E001C000E0C114D10419F4CC2489
:10193000C394D12CCE014096C817D90720F4219624
:1019400022D97C0102C0E12CF12CE114F10439F020
:101950009601AE01B701615F7F4FC70133DFC70159
:10196000DF91CF910F91FF90EF90DF90CF9008958E
:101970004F925F926F927F928F929F92AF92BF929F
:10198000CF92DF92EF92FF920F931F93CF93DF934B
:10199000EC012B013A01580169018E8580FF05C0D9
:1019A0006894882481F8912C02C0812C912CA11478
:1019B000B104C104D10441F10FB6F8940F92CE01E5
:1019C000EEDE7C018816990648F060E080E090E049
:1019D0000E9468180E943115998788870F900FBE62
:1019E0008E149F04A0F0E12CF12C00E010E098018F
:1019F00040E050E0BA0180E00E94C91619861886BE
:101A0000CE01CDDE7C0103C0CE01C9DE7C018E1487
:101A10009F04E8F484019701A301B201CE0131DFF4
:101A20006C01892BB1F0B5D28A859B85892B69F031
:101A30008A859B85E12CF12C00E020E030E0A901B3
:101A400060E00E9471171B861A86E3D302C0C12C86
:101A5000D12CC601DF91CF911F910F91FF90EF9094
:101A6000DF90CF90BF90AF909F908F907F906F90BE
:101A70005F904F900895E0917712F09178128081F5
:101A800081110CC08FEF9FEFDC0180934112909386
:101A90004212A0934312B09344120895E09177123A
:101AA000F09178120780F085E02D80819181A281EC
:101AB000B3818093411290934212A0934312B0934A
:101AC00044120895CF93DF93EC018B8D9C8D04D944
:101AD000CE0102D9DF91CF9108954F925F926F921C
:101AE0007F928F929F92AF92BF92CF92DF92EF92AE
:101AF000FF920F93CF93DF932C015B014A013901D1
:101B0000E60165EA70E08B8D9C8D0E94EF288B8D3D
:101B10009C8D21E0821A9108880E991EA114B104AF
:101B200089F415C0822F90E0F501E80FF91F30818C
:101B3000DE01A80FB91F5D963C938081882329F0B0
:101B40002F5F01C020E0203168F31CA601C01D8E6C
:101B50000A3008F009E00A8F0DA71EA6CE010296F2
:101B600009D9CE010E9606D9DB87CA878AE090E0B4
:101B7000A0E0B0E0801B9109A109B1098E879F8781
:101B8000A88BB98BDF8BCE8B84E0FE01BF96DF0183
:101B90001D928A95E9F71BAAA301B201C4015ED97F
:101BA00099838883E114F10419F0F701D183C0838C
:101BB000DF91CF910F91FF90EF90DF90CF90BF908A
:101BC000AF909F908F907F906F905F904F9008950F
:101BD000CF93C0E008C02BE0C29FC0011124815701
:101BE0009D4EB7D8CF5FCA30B0F384E892E1B1D848
:101BF00089E792E1AED88AE692E1ABD88FE592E12F
:101C0000A8D883E592E1A5D884E892E19093781270
:101C10008093771289E792E1909376128093751200
:101C2000CF910895CF93DF93EC010FB6F8940F9204
:101C3000809152128F5F809352128091FD12909189
:101C4000FE12892B51F4D093FE12C093FD128091A5
:101C50005212813091F4BCDF10C080914C1281117E
:101C60000CC0E091FD12F091FE12928D8A8D8917C1
:101C700020F0D093FE12C093FD12809145128F5F29
:101C800080934512EA8D80914D128E1710F4E093E7
:101C90004D128BE08E9FF0011124E157FD4E018023
:101CA000F281E02DFF83EE832681378139872887F3
:101CB000A681B7819E012E5F3F4F15963C932E93D0
:101CC000149737832683EA8D8E9FF0011124E15704
:101CD000FD4EFD87EC8780818F5F80830F900FBE64
:101CE00080914C12882349F0E091FD12F091FE1290
:101CF000928D8A8D981708F4FAD8DF91CF910895C4
:101D0000CF93DF931AC00FB6F8940F92E09166124A
:101D1000F0916712C085D185CE0102966CD8809172
:101D2000521281508093521280915E1281508093A2
:101D30005E120F900FBECE01C5DE80915E12811142
:101D4000E2CFDF91CF9108958F929F92AF92BF9291
:101D5000CF92DF92EF92FF92CF93DF936B017C01E2
:101D6000C42F80904E1290904F12A0905012B090BD
:101D700051128091FD129091FE1202963CD88FEF85
:101D8000C816D806E806F806B1F5CC23A1F1E3E5BC
:101D9000F2E1A181B281C091FD12D091FE12BF8308
:101DA000AE83C091FD12D091FE1216968D919C913A
:101DB0001797998788871696CD91DC911797809110
:101DC000FD129091FE1202969D838C838091FD12EC
:101DD0009091FE12029617969C938E931697A0915F
:101DE000FD12B091FE121D96FC93EE931C9780811C
:101DF0008F5F80833FC0C80CD91CEA1CFB1CE0919C
:101E0000FD12F091FE12C282D382E482F582C814E0
:101E1000D904EA04FB0468F46091FD127091FE128B
:101E200080917512909176126E5F7F4F0E94BE0670
:101E300021C06091FD127091FE12809177129091F5
:101E400078126E5F7F4F0E94BE0680914112909182
:101E50004212A0914312B0914412C816D906EA0664
:101E6000FB0640F4C0924112D0924212E09243121B
:101E7000F0924412DF91CF91FF90EF90DF90CF90DE
:101E8000BF90AF909F908F9008952F923F924F9266
:101E90005F926F927F928F929F92AF92BF92CF92FA
:101EA000DF92EF92FF920F93CF93DF933C011B01E0
:101EB0004A012901CA010E94C3056C01892B71F0F6
:101EC00084E390E00E94C305EC01892B19F0DC8EBD
:101ED000CB8E06C0C6010E946C0602C0C0E0D0E0F6
:101EE000209761F0A12CB12C6E019201A401B101E7
:101EF000C301F3DDCE0196DE81E001C08FEFDF91FB
:101F0000CF910F91FF90EF90DF90CF90BF90AF9067
:101F10009F908F907F906F905F904F903F902F9009
:101F20000895EF92FF920F930F2EFFE3EF2EF2E151
:101F3000FF2EF02D00E020E030E040EC50E06DE6B8
:101F400074E08DEC90E0A1DF813011F40E940C1957
:101F50008130C9F4F8948FEF9FEFDC018093411238
:101F600090934212A0934312B093441281E0809365
:101F70004C1210924E1210924F1210925012109258
:101F800051120E944507809106020F91FF90EF9039
:101F9000089580913E128F5F80933E1208950FB690
:101FA000F8940F9260914E1270914F1280915012DE
:101FB000909151120F900FBE0895CF92DF92EF9241
:101FC000FF92CF93DF9380913E12811105C1C090A3
:101FD0004E12D0904F12E0905012F09051128FEFAD
:101FE000C81AD80AE80AF80AC0924E12D0924F12C4
:101FF000E0925012F0925112C114D104E104F104A4
:10200000B1F48091771290917812209175123091ED
:1020100076123093781220937712909376128093F1
:102020007512809146128F5F8093461224DD809155
:10203000411290914212A0914312B0914412C816DD
:10204000D906EA06FB0620F480E0B2C081E001C0B8
:1020500080E0E0917712F0917812908191110CC09C
:102060004FEF5FEFBA0140934112509342126093D9
:102070004312709344129CC0E0917712F091781251
:102080000780F085E02D0084F185E02D42815381A9
:1020900064817581C416D506E606F70648F44093B8
:1020A000411250934212609343127093441280C0C5
:1020B000A485B585C681D781208531853F832E8350
:1020C000C085D185268137813D832C8311964D9122
:1020D0005C9112979F012E5F3F4F4217530731F4D7
:1020E0004085518512965C934E9311971586148600
:1020F0009C9191509C93A08DB18D109709F1C2894C
:10210000D389448955895F834E83C489D58942899F
:1021100053895D834C8311966D917C911297AF0129
:10212000425F5F4F6417750731F4448955891296F1
:102130005C934E931197118E108E9C9191509C93AD
:10214000A28D90914D129A1710F4A0934D129BE01E
:102150009A9FD0011124A157BD4E11960D90BC91AC
:10216000A02DB783A68316964D915C911797518742
:1021700040871696CD91DC9117973D832C83179657
:102180003C932E931697A28D9A9FD0011124A157AC
:10219000BD4EB587A4879C919F5F9C93228DE09153
:1021A000FD12F091FE12928D291708F04FCF51CFFA
:1021B000E091FD12F091FE12E28D9BE0E99FF001AB
:1021C0001124E157FD4E9081923008F081E090910A
:1021D0004712911116C016C0809148129091491271
:1021E000A0914A12B0914B120196A11DB11D80938E
:1021F000481290934912A0934A12B0934B1280E078
:1022000001C081E0DF91CF91FF90EF90DF90CF9000
:102210000895CF92DF92EF92FF92CF93DF930FB6A4
:10222000F8940F9280913E12815080933E128091DB
:102230003E128111BEC080915212811188C0BCC073
:10224000E0917112F09172120084F185E02DA08D61
:10225000B18DC289D389848995899F838E83C489EE
:10226000D589828993899D838C8311962D913C9188
:102270001297CF010E962817390731F48489958972
:1022800012969C938E931197118E108E8C91815083
:102290008C93A485B585C681D781808591859F83E0
:1022A0008E83C085D185868197819D838C8311968D
:1022B0008D919C9112979F012E5F3F4F821793073C
:1022C00031F48085918512969C938E931197158693
:1022D00014868C9181508C93A28D80914D128A1717
:1022E00010F4A0934D128BE08A9FD0011124A157C6
:1022F000BD4E11960D90BC91A02DB783A683169666
:102300004D915C911797518740871696CD91DC913E
:1023100017973D832C8317963C932E931697A28D87
:102320008A9FD0011124A157BD4EB587A4878C91F7
:102330008F5F8C93928DA091FD12B091FE125A96F0
:102340008C91981730F081E08093471202C0E0E052
:10235000F0E080916A12811173CFEF2B09F08BDBD3
:10236000C0904812D0904912E0904A12F0904B125F
:10237000C114D104E104F104A1F01FDE882319F097
:1023800081E08093471281E0C81AD108E108F10882
:10239000A1F7109248121092491210924A1210920C
:1023A0004B1280914712882331F00E94770781E019
:1023B00003C080E001C080E00F900FBEDF91CF919D
:1023C000FF90EF90DF90CF9008958F929F92AF9201
:1023D000BF92CF92DF92EF92FF921F93CF93DF9342
:1023E000EC016A017B01D5DD80904E1290904F1276
:1023F000A0905012B090511288819981AA81BB811E
:10240000AC01BD014C0D5D1D6E1D7F1D881699062A
:10241000AA06BB0660F4481759076A077B0798F4B9
:1024200084169506A606B70680F010E013C048177C
:1024300059076A077B0758F084169506A606B70663
:1024400040F010E007C010E005C011E003C011E04B
:1024500001C011E0488359836A837B83112341F0D3
:10246000CB01BA01681979098A099B0940E06CDC43
:10247000D0DE811102C00E947707812FDF91CF91BA
:102480001F91FF90EF90DF90CF90BF90AF909F9003
:102490008F900895CF92DF92EF92FF926B017C01B3
:1024A000672B682B692B39F074DD40E0C701B6015A
:1024B0004BDCAFDE01C080E0811102C00E947707D3
:1024C000FF90EF90DF90CF90089580913E12882387
:1024D00021F081E080934712089510924712E09115
:1024E000FD12F091FE1220813181E091FD12F091F8
:1024F000FE12838D948D8217930760F06091FD1218
:102500007091FE12635E7F4F8091FD129091FE12DA
:102510000E949A1B80914D1201C08150282F30E0FB
:102520009BE0929FF001939FF00D1124E157FD4E27
:102530009081992391F39BE0929FA001939F500D6E
:102540001124DF010180F281E02D0480F581E02D6E
:102550001296FC93EE9311974E565D4EE417F507D5
:1025600029F444815581FD01528341839BE0929F70
:10257000F001939FF00D1124E157FD4E0180F2818F
:10258000E02D208531853093FE122093FD1280933B
:102590004D120895CF92DF92EF92FF926A017B0174
:1025A0006091FD127091FE12625F7F4F0E94BE0625
:1025B00041E0C701B601C8DBFF90EF90DF90CF90FC
:1025C00008950F931F93CF93DF93FC01A091FD1209
:1025D000B091FE1270681E964D935D936D937C933F
:1025E0005197A181B281C091FD12D091FE12BB8B97
:1025F000AA8BC091FD12D091FE1216968D919C91DE
:1026000017979D8B8C8B1696CD91DC9117978091A7
:10261000FD129091FE120E969D838C838091FD1287
:102620009091FE120E9617969C938E931697A091FA
:10263000FD12B091FE125996FC93EE93589780814B
:102640008F5F808341E0C901B8017EDBDF91CF91CC
:102650001F910F910895CF93DF93FC01CB01BA0135
:10266000A181B281C091FD12D091FE12BB8BAA8BC9
:10267000C091FD12D091FE1216964D915C91179764
:102680005D8B4C8B1696CD91DC9117974091FD1286
:102690005091FE12425F5F4F5D834C834091FD126B
:1026A0005091FE12425F5F4F17965C934E931697C0
:1026B000A091FD12B091FE125996FC93EE9358979B
:1026C00030813F5F3083222319F06FEF7FEFCB0122
:1026D000422F3ADBDF91CF910895CF93DF93DC0156
:1026E0001796ED91FC9118970084F185E02DA08D4F
:1026F000B18DC289D389848995899F838E83C4894A
:10270000D589828993899D838C8311968D919C9123
:1027100012979F01225F3F4F8217930731F48489FC
:10272000958912969C938E931197118E108E8C9191
:1027300081508C9380913E12811152C0A485B58541
:10274000C681D781808591859F838E83C085D18501
:10275000868197819D838C8311968D919C91129790
:102760009F012E5F3F4F8217930731F4808591853B
:1027700012969C938E931197158614868C91815096
:102780008C93A28D80914D128A1710F4A0934D1254
:102790008BE08A9FD0011124A157BD4E11960D9058
:1027A000BC91A02DB783A68316964D915C91179787
:1027B000518740871696CD91DC9117973D832C83E6
:1027C00017963C932E931697A28D8A9FD0011124C1
:1027D000A157BD4EB587A4878C918F5F8C931CC089
:1027E0004AE652E1DA011196CD91DC911297D38B32
:1027F000C28B8E819F81958B848B8E819F81DC0122
:1028000015963C932E9314973F832E83518F408FC0
:10281000DA018C918F5F8C93928DE091FD12F09193
:10282000FE12828D891720F481E08093471201C047
:1028300080E0DF91CF910895CF93DF93DC01706842
:102840004D935D936D937C9313971896ED91FC9146
:1028500019971A964D915C911B9714968D919C91A6
:10286000159716962D913C911797EC013F832E8377
:1028700016968D919C91179714962D913C911597D2
:10288000EC013D832C83EA0189819A81A817B9075D
:1028900031F416968D919C9117979A8389831B9694
:1028A0001C921E921A97DA018C9181508C93A48508
:1028B000B585C681D781808591859F838E83C085AC
:1028C000D185868197819D838C8311968D919C9172
:1028D00012979F012E5F3F4F8217930731F4808537
:1028E000918512969C938E931197158614868C91E0
:1028F00081508C93A28D80914D128A1710F4A09371
:102900004D128BE08A9FD0011124A157BD4E119624
:102910000D90BC91A02DB783A68316964D915C9126
:102920001797518740871696CD91DC9117973D8375
:102930002C8317963C932E931697A28D8A9FD001D5
:102940001124A157BD4EB587A4878C918F5F8C93BE
:10295000928DE091FD12F091FE12828D891718F48C
:1029600081E080934712DF91CF9108952091461224
:10297000FC01208340914E1250914F1260915012F1
:1029800070915112418352836383748308958F92AF
:102990009F92AF92BF92CF92DF92EF92FF920F93EE
:1029A0001F93CF93DF93FB010FB6F8940F92C09063
:1029B0004E12D0904F12E0905012F0905112DC0164
:1029C00011960D911D912D913C911497460157013F
:1029D000801A910AA20AB30A4081518162817381EF
:1029E0004F3FBFEF5B076B077B0739F1EC01B88105
:1029F000A0914612BA1759F0C016D106E206F306A6
:102A000030F0108211821282138281E017C0841686
:102A10009506A606B70658F4481959096A097B09AC
:102A20004083518362837383A1DF80E007C01082FB
:102A300011821282138281E001C080E00F900FBEEC
:102A4000DF91CF911F910F91FF90EF90DF90CF908A
:102A5000BF90AF909F908F90089581E08093471230
:102A600008958091FD129091FE12089580914C126C
:102A7000882331F080913E12811104C082E00895D4
:102A800081E0089580E008950F931F93CF93DF9323
:102A9000FC01892B09F477C0828DA091FD12B091C1
:102AA000FE125A969C91891708F063C04685578597
:102AB00060897189772394F0A091FD12B091FE1284
:102AC0005A969C914AE050E060E070E0491B510941
:102AD0006109710946875787608B718B248535851D
:102AE0004BE0849FC001112481579D4E2817390760
:102AF000B9F5EF018F010E5F1F4FC8010E94FB0661
:102B0000E091FD12F091FE12E28DEA8F80914D125C
:102B10008E1710F4E0934D128BE08E9FF00111247C
:102B2000E157FD4E0180F281E02DFF83EE83268187
:102B3000378139872887A681B78115961C930E9314
:102B4000149717830683EA8D8E9FF0011124E157B5
:102B5000FD4EFD87EC8780818F5F808381E016C00A
:102B6000A091FD12B091FE125A968C91828F81E055
:102B70000DC095A5E091FD12F091FE12828D98177F
:102B800020F080E003C080E001C081E0DF91CF91C0
:102B90001F910F9108950F931F93CF93DF93FC0123
:102BA000892B09F449C086A5815086A7228D95A559
:102BB000291709F443C0811143C0EF018F010E5F53
:102BC0001F4FC8010E94FB06EDA5EA8F8AE090E046
:102BD000A0E0B0E08E1B9109A109B1098E879F8703
:102BE000A88BB98B80914D128E1710F4E0934D1283
:102BF0008BE08E9FF0011124E157FD4E0180F281A0
:102C0000E02DFF83EE832681378139872887A681CF
:102C1000B78115961C930E93149717830683EA8D3C
:102C20008E9FF0011124E157FD4EFD87EC878081D6
:102C30008F5F808381E005C080E003C080E001C039
:102C400080E0DF91CF911F910F9108950F931F9313
:102C5000CF93DF93FC01892B09F45AC085A5861711
:102C600008F4862F928D891709F452C026A52130C9
:102C700009F04EC0828F4685578560897189772318
:102C800064F04AE050E060E070E0481B51096109DF
:102C9000710946875787608B718B248535854BE09A
:102CA000949FC001112481579D4E2817390781F543
:102CB000EF018F010E5F1F4FC8010E94FB06EA8DD6
:102CC00080914D128E1710F4E0934D128BE08E9F81
:102CD000F0011124E157FD4E0180F281E02DFF83C8
:102CE000EE832681378139872887A681B78115969B
:102CF0001C930E93149717830683EA8D8E9FF00121
:102D00001124E157FD4EFD87EC8780818F5F808322
:102D1000DF91CF911F910F910895CF92DF92EF92A3
:102D2000FF92E091FD12F091FE1266857785808911
:102D30009189E091FD12F091FE12A091FD12B091E7
:102D4000FE125A962C910F2EFAE0CF2ED12CE12CA8
:102D5000F12CF02DC21AD108E108F108C686D786F9
:102D6000E08AF18AFF90EF90DF90CF9008958091F4
:102D7000FD129091FE12892B39F0E091FD12F09135
:102D8000FE1286A58F5F86A78091FD129091FE129C
:102D900008954F925F926F927F92AF92BF92CF92BF
:102DA000DF92EF92FF920F931F93CF93DF9328014F
:102DB00039010FB6F8940F92E091FD12F091FE12D6
:102DC000C82FD0E0EC0FFD1F83A9823079F1E0918C
:102DD000FD12F091FE12CE01880F991F880F991FE6
:102DE000E80FF91F87A590A9A1A9B2A94095509510
:102DF00060957095482359236A237B2347A750ABDE
:102E000061AB72ABE091FD12F091FE12EC0FFD1F71
:102E100081E083ABA114B104C104D10439F041E0D5
:102E2000C601B5010E94A40E0E9477070F900FBE45
:102E30000FB6F8940F92E114F104A1F0E091FD12A5
:102E4000F091FE12CE01880F991F880F991FE80F8D
:102E5000F91F87A590A9A1A9B2A9F7018083918341
:102E6000A283B383E091FD12F091FE12EC0FFD1FDF
:102E700083A98230E9F4E091FD12F091FE12CE01B7
:102E8000880F991F880F991FE80FF91F87A590A930
:102E9000A1A9B2A9409450946094709448225922F8
:102EA0006A227B2247A650AA61AA72AA81E001C0C9
:102EB00080E02091FD123091FE12C20FD31F1BAA99
:102EC0000F900FBEDF91CF911F910F91FF90EF9068
:102ED000DF90CF90BF90AF907F906F905F904F90BA
:102EE00008958F929F92AF92BF92EF92FF920F93AD
:102EF000CF93DF93DC010FB6F8940F92E114F10445
:102F000089F0E62FF0E0EE0FFF1FEE0FFF1FE80F36
:102F1000F91F87A490A8A1A8B2A8F7018082918286
:102F2000A282B38270E0FD01E60FF71F83A992E051
:102F300093AB023001F118F4013031F04DC0033091
:102F400079F10430D1F148C0660F771F660F771F03
:102F5000FD01E60FF71F87A490A8A1A8B2A8BA01A7
:102F6000A901482959296A297B2947A750AB61AB98
:102F700072AB01E034C0660F771F660F771FFD014B
:102F8000E60FF71F47A550A961A972A94F5F5F4FD0
:102F90006F4F7F4F47A750AB61AB72AB01E01FC0D3
:102FA000660F771F660F771FFD01E60FF71F27A734
:102FB00030AB41AB52AB01E012C0823079F0660F0A
:102FC000771F660F771FFD01E60FF71F27A730ABAE
:102FD00041AB52AB01E003C001E001C000E0813031
:102FE00009F069C01C96ED91FC911D971696CD9144
:102FF000DC91179718968D919C9119979F838E83DA
:103000001896CD91DC91199716968D919C911797F2
:103010009D838C83818192819D012E5F3F4F82171A
:10302000930731F418968D919C911997928381831F
:103030001D961C921E921C978081815080835A9607
:10304000EC915A9780914D128E1710F4E0934D1227
:103050008BE08E9FF0011124E157FD4E0180F2813B
:10306000E02D1796FC93EE9316974681578119969B
:103070005C934E931897C681D7813D832C83378309
:1030800026835A96EC915A978E9FF0011124E157AE
:10309000FD4E1D96FC93EE931C9780818F5F80837D
:1030A0005A969C91E091FD12F091FE12828D891743
:1030B00010F40E9477070F900FBE802FDF91CF9101
:1030C0000F91FF90EF90BF90AF909F908F900895D9
:1030D000009721F48091FD129091FE120FB6F894A2
:1030E0000F9270E0FC01E60FF71F23A9223031F4A4
:1030F000FC01E60FF71F13AA81E001C080E00F90EA
:103100000FBE0895DC01E0910913F0910A1380814C
:1031100091E0811190E09C93911108C00780F085A7
:10312000E02D6081718182819381089560E070E07B
:10313000CB010895CF92DF92EF92FF920F931F93EE
:10314000FC014283538364837583938782870417CA
:10315000150726073707C0F00C191D092E093F096E
:1031600086859785A089B189081719072A073B0723
:1031700000F5BF016E5F7F4F809107139091081398
:103180000E94BE0680E018C00C151D052E053F05E7
:1031900028F44C155D056E057F0568F4BF016E5F70
:1031A0007F4F8091091390910A130E94BE0680E020
:1031B00003C081E001C081E01F910F91FF90EF906B
:1031C000DF90CF9008950FB6F8940F928091051379
:1031D00090910613892BE9F486E193E10E94A906F8
:1031E0008BE093E10E94A90686E193E190930A1394
:1031F000809309138BE093E1909308138093071356
:1032000040E067E08AE00E946B0990930613809388
:1032100005130F900FBE0895EF92FF920F93D3DF27
:103220008091051390910613892B91F00F2EF3E0F6
:10323000EF2EF3E1FF2EF02D03E020E030E040EC34
:1032400050E062E774E087ED90E00E94450F01C016
:1032500080E00F91FF90EF9008958F929F92AF9230
:10326000BF92CF92DF92EF92FF920F931F93CF9373
:10327000DF93CDB7DEB727970FB6F894DEBF0FBE4A
:10328000CDBFE0910513F0910613309781F169836A
:103290002A833B834C835D839F838E836630F4F463
:1032A000E5DB823069F400E0A7019601BE016F5FA3
:1032B0007F4F80910513909106130E948E0918C0CC
:1032C00000E020E030E0A901BE016F5F7F4F8091F8
:1032D0000513909106130E948E090AC020E0A801F0
:1032E000BE016F5F7F4FCF010E943B0A01C080E0AB
:1032F00027960FB6F894DEBF0FBECDBFDF91CF91FA
:103300001F910F91FF90EF90DF90CF90BF90AF9003
:103310009F908F9008958F929F92AF92BF92CF927D
:10332000DF92EF92FF920F931F93CF93DF933BC0F7
:103330000780F085E02D80809180A280B380C085D9
:10334000D1858E010E5F1F4FC8010E94FB06EC89DC
:10335000FD89CE0119958E8982FF25C08E859F85B6
:10336000A889B989880D991DAA1DBB1D88169906C3
:10337000AA06BB0670F48A839B83AC83BD83DB877C
:10338000CA87B8018091091390910A130E94BE0662
:103390000AC0C12CD12C760100E010E0A5019401F7
:1033A00060E0CE015ADFE0910913F0910A138081A9
:1033B0008111BECF809107139091081390930A1347
:1033C00080930913F0930813E0930713DF91CF91D3
:1033D0001F910F91FF90EF90DF90CF90BF90AF9033
:1033E0009F908F900895CF92DF92EF92FF92CF93AC
:1033F000DF93EC010E94CF0F6B017C018091FF12E3
:1034000090910013A0910113B0910213C816D90630
:10341000EA06FB0620F47FDF81E0888301C0188282
:10342000C092FF12D0920013E0920113F0920213A7
:10343000C701B601DF91CF91FF90EF90DF90CF9061
:1034400008954F925F926F927F928F929F92AF9268
:10345000BF92CF92DF92EF92FF920F931F93CF9381
:10346000DF934B015C0129013A01E0910913F091CE
:103470000A130780F085E02DC085D185CE01029624
:103480000E94FB068E8982FF1BC04E855F8568897E
:103490007989480D591D6A1D7B1D750164019301D1
:1034A0008201CE0147DE882369F0C12CD12C760140
:1034B00000E010E0A501940160E0CE01CEDE02C084
:1034C0008E7F8E8BEC89FD89CE011995DF91CF918E
:1034D0001F910F91FF90EF90DF90CF90BF90AF9032
:1034E0009F908F907F906F905F904F9008958F92F4
:1034F0009F92AF92BF92CF92DF92EF92FF921F9373
:10350000CF93DF931F92CDB7DEB76B017C01142FF1
:103510000E94C90FCE01019666DF4B015C018981D3
:1035200081112DC011110DC08C149D04AE04BF0477
:1035300040F00E940911A5019401C701B60181DF85
:1035400020C0112341F0E0910713F091081380810E
:1035500011E0811110E0B701A601481959096A0963
:103560007B09212F80910513909106130E94B40BC3
:103570000E940911811105C00E94770702C00E94B4
:1035800009110F90DF91CF911F91FF90EF90DF9085
:10359000CF90BF90AF909F908F900895AF92BF92C1
:1035A000CF92DF92EF92FF920F931F93CF93DF930F
:1035B000CDB7DEB728970FB6F894DEBF0FBECDBFEC
:1035C00082C0898188230CF47EC0AE80BF80D50183
:1035D0001C968D919C911D97892B21F0C501029617
:1035E0000E94FB06CE010896FEDE8B019C01E9815C
:1035F0000E2E000CFF0BEA30F10508F064C088279E
:10360000EE58FF4F8F4F0C94B927F50186898160E2
:10361000868BCA80DB80EC80FD804685578560897B
:1036200071894C0D5D1D6E1D7F1DC50183DD8823D5
:1036300009F449C0D5015496ED91FC915597C50107
:103640001995F501868982FF3EC04A815B816C81B4
:103650007D8186859785A089B1899A01AB01280F64
:10366000391F4A1F5B1FC12CD12C760100E010E0EE
:1036700060E0C501F2DD27C0D50156968C915697C2
:103680008E7F56968C931FC0F50186898160868B4C
:103690004A815B816C817D8146875787608B718B06
:1036A000400F511F621F731F68017901C50142DD80
:1036B0000AC0F501868981FD04C0C5010E946C061F
:1036C00002C08E7F868B20E030E0A901BE016F5FD3
:1036D0007F4F80910513909106130E94760A811105
:1036E00070CF28960FB6F894DEBF0FBECDBFDF9126
:1036F000CF911F910F91FF90EF90DF90CF90BF90EF
:10370000AF900895089584B1806884B985B18068C8
:1037100085B9089583B1806883B90895F4DF2FEFE8
:1037200080E792E0215080409040E1F700C0000027
:10373000F1DFF5CFE8DF2FEF87EA91E621508040F7
:103740009040E1F700C00000E5DFF5CF33D088F00E
:103750009F5790F0B92F9927B751A0F0D1F0660F7D
:10376000771F881F991F1AF0BA95C9F712C0B13098
:1037700081F03AD0B1E0089537C0672F782F8827BD
:10378000B85F39F0B93FCCF3869577956795B395D7
:10379000D9F73EF490958095709561957F4F8F4F46
:1037A0009F4F089557FD9058440F551F59F05F3FA4
:1037B00071F04795880F97FB991F61F09F3F79F053
:1037C00087950895121613061406551FF2CF4695D5
:1037D000F1DF08C0161617061806991FF1CF869557
:1037E0007105610508940895E894BB27662777273B
:1037F000CB0197F908956530F1F4FA0180818F7358
:1038000090E0982F88272181822B90930A02809341
:1038100009028281F0E48F9FC0011124FA01238103
:1038200026952695822B909308028093070281E0CB
:10383000809321130895643051F080E090E49093D8
:1038400008028093070290930A0280930902089568
:103850000F931F930BEF1BE120E034E244EF50E0A5
:1038600060E087E2EFD7909323138093221321E047
:10387000892B09F020E0822F1F910F9108958091EC
:10388000221390912313009759F040E060E070E01C
:103890000E947324843031F41092211380E0089543
:1038A00082E0089583E0089580912213909123137C
:1038B000009739F064E00E94BF24853021F083E056
:1038C000089582E0089580E0089560910902709162
:1038D0000A0280E090E00E94A42620E030E048EC5C
:1038E00052E40E940D2720E038EF4FE756E40C9495
:1038F00032260895609107027091080280E090E0FE
:103900000E94A42620E030E045E253E40E940D2707
:1039100020E038EF4FE756E40E94322620E030E006
:1039200040E252E40C94CB250895E4DF20E030E03F
:1039300040E251E40E940D270E949D26CB0108958C
:1039400080912713860F8093271390912A1391302B
:1039500079F028F09230A9F0933019F108956F3F73
:1039600009F048C01092271381E080932A1308952C
:10397000663809F03FC01092261382E080932A1324
:103980000895E091261381E08E0F80932613F0E0D6
:10399000EC5DFC4E6083823069F583E080932A13EE
:1039A00008959091261321E0290F20932613963035
:1039B00009F581110EC0E4E2F3E1808190E0982FD7
:1039C00088272181820F911D90932C1380932B13B4
:1039D00004C010922C1310922B1310922A13E09112
:1039E0002813F0912913309729F080912B1390918F
:1039F0002C13199508958F929F92AF92CF92EF92C8
:103A00000F930F2EF0EA8F2EFCE19F2EF02D68947D
:103A1000AA24A4F86894CC24C4F8E12C00E023E0A4
:103A200040E855E260E070E073D090932E138093ED
:103A30002D130F91EF90CF90AF909F908F9008959E
:103A400090932913809328130895CF93DF93CDB7D4
:103A5000DEB729970FB6F894DEBF0FBECDBF89E061
:103A6000E2E2F2E09E012F5F3F4FD90101900D92FB
:103A70008A95E1F710922C1310922B1380912D133D
:103A800090912E13009731F0422F532F69E00FD100
:103A900080E001C082E029960FB6F894DEBF0FBE29
:103AA000CDBFDF91CF91089565360CF064E66C3997
:103AB0000CF46CE996EF6902B00111246854744F5C
:103AC000811105C0709329016093280108957093B6
:103AD0002B0160932A010895EAE0F1E0808188617A
:103AE00080838FE39CE9909327018093260160E017
:103AF00080E0DADF60E081E0D7DFE0E2F1E08081C2
:103B0000826A8083E1E2F1E080818A6180830895A6
:103B10002F923F924F925F926F927F928F929F92DD
:103B2000AF92CF92EF92FF920F931F93CF93DF93B9
:103B3000CDB7DEB7F82E2A013B0188E090E00E9465
:103B4000C1278C018F2D90E0FC01EE0FFF1FE15D7E
:103B5000FC4E118300830115110509F46BC0880F19
:103B6000991FFC01E55FFD4F80819181D8018D9304
:103B70009C938C2D90E0880F991F880F991F0E94AD
:103B8000C1271C0186E090E00E94C1277C014C2DDA
:103B9000B101E5D7F801F582E4828A2D90E0880F23
:103BA000991F880F991F0E94C1271C0186E090E091
:103BB0000E94C1277C014A2DB101D1D7D8011396AB
:103BC000FC92EE92129717969C928E921697FFB6E1
:103BD000F894ED91FC9111973697808182608083F3
:103BE0008D909C90C301B2010E94A42620E030E099
:103BF00040E051E40E940D279B01AC0160E074E2BB
:103C000084E79BE40E94322620E030E040E85FE356
:103C1000C2D79CDDF40132976083D801ED91FC910D
:103C20001197359788E98083ED91FC91349786E070
:103C30008083FFBEC801DF91CF911F910F91FF904C
:103C4000EF90CF90AF909F908F907F906F905F900C
:103C50004F903F902F900895CF93DF93DC01892BF5
:103C600001F11296ED91FC91139793818281258148
:103C7000981B922384819817B1F08381269528237D
:103C8000C081D181C20FD11D68838F5F9581892347
:103C90008383ED91FC91359780818062808380E001
:103CA00003C081E001C082E0DF91CF910895EF92DF
:103CB000FF920F931F93CF93DF937C01009709F43A
:103CC00041C0DC011296ED91FC91139793818281A2
:103CD000981B858198238481891B8617A8F1662308
:103CE00041F1842F952FDC016150462F50E04F5F4A
:103CF0005F4F480F591FE701EA81FB819381828161
:103D00002581981B92238481981779F08C91938157
:103D100026952923608171818B01020F111DE80115
:103D200088839F5F8581982393831196A417B50795
:103D300011F7D701ED91FC913597808180628083E6
:103D400080E003C081E001C082E0DF91CF911F914C
:103D50000F91FF90EF9008950097D1F0DC01149639
:103D6000ED91FC91159793818281981799F092813A
:103D7000858186958923A081B181A80FB11D8C9181
:103D8000DB018C939F5F85819823928380E0089567
:103D900081E0089583E008951F920F920FB60F926D
:103DA00011240BB60F922F933F934F935F936F9312
:103DB0007F938F939F93AF93BF93CF93DF93EF93B3
:103DC000FF93A0912F13B0913013109711F16091D0
:103DD000C6001496ED91FC911597938182812581FF
:103DE000981B92238481981761F08381269528235C
:103DF000C081D181C20FD11D68838F5F95818923D6
:103E000083831696ED91FC911797309711F0CD01B1
:103E10001995FF91EF91DF91CF91BF91AF919F9154
:103E20008F917F916F915F914F913F912F910F9063
:103E30000BBE0F900FBE0F901F9018951F920F9200
:103E40000FB60F9211240BB60F922F938F939F935F
:103E5000AF93BF93EF93FF93E0912F13F091301343
:103E60003097B9F00280F381E02D93818281981719
:103E7000B1F092818581282F26952923A081B181D7
:103E8000A20FB11D2C919F5F892382832093C600CE
:103E90000BC0E1ECF0E080818F7D808305C0E1EC18
:103EA000F0E080818F7D8083FF91EF91BF91AF9192
:103EB0009F918F912F910F900BBE0F900FBE0F907F
:103EC0001F9018951F920F920FB60F9211240BB6E8
:103ED0000F922F933F934F935F936F937F938F93A3
:103EE0009F93AF93BF93CF93DF93EF93FF93A091F3
:103EF0003113B0913213109711F16091CE001496E6
:103F0000ED91FC911597938182812581981B9223D5
:103F10008481981761F0838126952823C081D181FF
:103F2000C20FD11D68838F5F958189238383169685
:103F3000ED91FC911797309711F0CD011995FF91F4
:103F4000EF91DF91CF91BF91AF919F918F917F9131
:103F50006F915F914F913F912F910F900BBE0F90FA
:103F60000FBE0F901F9018951F920F920FB60F92D1
:103F700011240BB60F922F938F939F93AF93BF9300
:103F8000EF93FF93E0913113F09132133097B9F032
:103F90000280F381E02D938182819817B1F09281A4
:103FA0008581282F26952923A081B181A20FB11DDB
:103FB0002C919F5F892382832093CE000BC0E9EC74
:103FC000F0E080818F7D808305C0E9ECF0E08081A6
:103FD0008F7D8083FF91EF91BF91AF919F918F91E2
:103FE0002F910F900BBE0F900FBE0F901F90189542
:103FF0001F920F920FB60F9211240BB60F922F93B0
:104000003F934F935F936F937F938F939F93AF9360
:10401000BF93CF93DF93EF93FF93A0913313B091AE
:104020003413109711F16091D6001496ED91FC9124
:104030001597938182812581981B922384819817FB
:1040400061F0838126952823C081D181C20FD11DC3
:1040500068838F5F9581892383831696ED91FC9108
:104060001797309711F0CD011995FF91EF91DF91DE
:10407000CF91BF91AF919F918F917F916F915F9100
:104080004F913F912F910F900BBE0F900FBE0F904D
:104090001F9018951F920F920FB60F9211240BB616
:1040A0000F922F938F939F93AF93BF93EF93FF93B1
:1040B000E0913313F09134133097B9F00280F3811B
:1040C000E02D938182819817B1F092818581282F0C
:1040D00026952923A081B181A20FB11D2C919F5F4C
:1040E000892382832093D6000BC0E1EDF0E080812C
:1040F0008F7D808305C0E1EDF0E080818F7D80833E
:10410000FF91EF91BF91AF919F918F912F910F9060
:104110000BBE0F900FBE0F901F9018951F920F921D
:104120000FB60F9211240BB60F922F933F934F931C
:104130005F936F937F938F939F93AF93BF93CF932F
:10414000DF93EF93FF93A0913513B091361310973F
:1041500011F1609136011496ED91FC9115979381C0
:1041600082812581981B92238481981761F0838135
:1041700026952823C081D181C20FD11D68838F5F0E
:104180009581892383831696ED91FC91179730973B
:1041900011F0CD011995FF91EF91DF91CF91BF9172
:1041A000AF919F918F917F916F915F914F913F91CF
:1041B0002F910F900BBE0F900FBE0F901F90189570
:1041C0001F920F920FB60F9211240BB60F922F93DE
:1041D0008F939F93AF93BF93EF93FF93E09135132A
:1041E000F09136133097B9F00280F381E02D93817E
:1041F00082819817B1F092818581282F26952923F5
:10420000A081B181A20FB11D2C919F5F8923828370
:10421000209336010BC0E1E3F1E080818F7D808344
:1042200005C0E1E3F1E080818F7D8083FF91EF9114
:10423000BF91AF919F918F912F910F900BBE0F90D7
:104240000FBE0F901F901895CF93DF931F92CDB79D
:10425000DEB7BE016F5F7F4F8091371390913813A7
:104260007BDD8111F6CF898190E00F90DF91CF91B6
:104270000895682F8091371390913813EDDC80E01A
:1042800090E008958F929F92AF92CF92EF920F930A
:10429000812C912C6894AA24A7F86894CC24C7F8A0
:1042A000E12C00E023E040E051EE60E070E030DC23
:1042B0009093381380933713E6E8F3E183E192E0BB
:1042C00091838083938382830F91EF90CF90AF90FF
:1042D0009F908F90089590E0FC01EE0FFF1FE80F74
:1042E000F91FEE0FFF1FE75CFC4E238121111FC059
:1042F0009C01220F331FF901E80FF91FEE0FFF1F7A
:10430000E75CFC4EA081B1814C91F901E80FF91FE7
:10431000EE0FFF1FE75CFC4E81E090E0028002C0E0
:10432000880F991F0A94E2F7842B8C930895FC015F
:10433000EE0FFF1FDF01A80FB91FAA0FBB1FA75C5D
:10434000BC4E0D90BC91A02D2C91E80FF91FEE0FE3
:10435000FF1FE75CFC4E81E090E0028002C0880F06
:10436000991F0A94E2F7809582238C93089590E038
:10437000FC01EE0FFF1FE80FF91FEE0FFF1FE75CB8
:10438000FC4E2381211120C09C01220F331FF90113
:10439000E80FF91FEE0FFF1FE75CFC4EA081B18113
:1043A0004C91F901E80FF91FEE0FFF1FE75CFC4E7F
:1043B00081E090E0028002C0880F991F0A94E2F722
:1043C000809584238C930895FC01EE0FFF1FDF017D
:1043D000A80FB91FAA0FBB1FA75CBC4E0D90BC91C4
:1043E000A02D2C91E80FF91FEE0FFF1FE75CFC4E8C
:1043F00081E090E0028002C0880F991F0A94E2F7E2
:10440000822B8C930895CC24C394D12C6894BB2424
:10441000B2F8C9E3D3E110E08C81813081F018F16A
:10442000823061F5E881F9812081C6010A8002C0ED
:10443000880F991F0A94E2F7822780831FC08D811D
:104440008F5F863010F48D8319C01D82E881F98159
:104450002081C6010A8002C0880F991F0A94E2F7E2
:10446000822780830BC00D81002329F0812F7FDFFD
:1044700001500D8303C0BC82812F2DDF1F5F269664
:10448000143051F66CE070E080E090E00E944A1237
:10449000C0CFEF92FF920F931F93CF93DF93082F1C
:1044A00080E487B9C9E3D3E10F2EF8E2EF2EF12CB7
:1044B000F02DF982E88286E08A831B8214E01C8357
:1044C00080E009DF80E887B9FF82EE8287E0888795
:1044D00019861A8781E0FFDE80E283BB84E390E0E7
:1044E0009D878C8785E08E871F86188B82E0F3DEA0
:1044F00080E18093010182E091E09B8B8A8B1C8B91
:104500001D8A1E8B83E0E7DEE12CF12C20E030E0F9
:1045100040EC50E06AE774E083E092E20E94450FCD
:10452000DF91CF911F910F91FF90EF900895E0914F
:104530005913F0915A13309709F019950895645062
:10454000623008F03BC020915813223079F018F403
:10455000213031F030C0233081F02430A1F02BC065
:1045600022E02093581361E00AC20895FA01808185
:104570008093551382E0DBCF089524E020935813F5
:1045800064E0FDC10895FA01818190E0982F8827A9
:104590002081822B9093541380935313838190E056
:1045A000982F88272281822B909352138093511346
:1045B00081E0BDCF089580E0BACF089510925813DE
:1045C00086E0B5CF089520915B1330915C132115DF
:1045D000310541F0462FBC01C90185D1823021F05F
:1045E00080E0089587E0089585E008950F931F9374
:1045F00090935A13809359130FE912E220E034E2AA
:1046000044EF50E060E089E21DD190935C13809309
:104610005B13892B11F080E001C088E01F910F919E
:104620000895CF93DF931F921F92CDB7DEB780EA34
:10463000898383E08A831092581362E0CE01019649
:10464000C2DF0F900F90DF91CF910895CF93DF934A
:104650001F92CDB7DEB784EB898383E08093581334
:1046600061E0CE010196AFDF0F90DF91CF91089509
:104670002F923F924F925F926F927F928F929F9272
:10468000AF92BF92CF92DF92EF92FF920F931F9360
:10469000CF93DF93C0915113D0915213CF3F2FEF9F
:1046A000D20741F060915313709154136F3FEFEFB5
:1046B0007E0759F44FEF5FEF6FE77FE7FC01408320
:1046C00051836283738383E099C01C0180E090E092
:1046D0003BD32B013C01BE0180E090E035D34B0180
:1046E0005C018091561390E0019624E6289FB0016A
:1046F000299F700D112480915713803269F0803307
:10470000A1F08031E1F40F2EC12CD12CF8ECEF2E6A
:10471000F1E4FF2EF02D1BC00F2EC12CD12CF6ED95
:10472000EF2EF3E4FF2EF02D12C00F2EC12CF0E57A
:10473000DF2EFAE1EF2EF6E4FF2EF02D08C00F2E4B
:10474000C12CD12CF0E8EF2EFFE3FF2EF02D072E29
:10475000000C880B990BFAD2A70196015ED320E0DA
:1047600030E04CEC53E47ED26B017C0125E83BEE5B
:1047700041ED5FE3C501B40150D39B01AC01C3011E
:10478000B20109D2A70196016DD2162FD72FC82FDB
:10479000092F2DE33AE047E15FE3C301B2013DD3C6
:1047A0002B013C0126EF38E24CE55FE3C501B40183
:1047B00034D39B01AC01C301B201EDD1A701960135
:1047C00051D2C62ED72EE82EF92E262F372F482F5E
:1047D000592F612F7D2F8C2F902F1BD3181624F06B
:1047E0001C2DDD2DCE2D0F2D412F5D2F6C2F702F09
:1047F000F101408351836283738380E0DF91CF9125
:104800001F910F91FF90EF90DF90CF90BF90AF90EE
:104810009F908F907F906F905F904F903F902F90E0
:10482000089580916B1381110CC08CE08093B800C7
:104830008FEF8093BB0084E08093BC0081E0809385
:104840006B130895AF92BF92CF92DF92EF92FF92D7
:104850000F931F93CF93DF93A82EB62E69017A0191
:1048600084E090E08ED3EC01892B61F1A88281E095
:10487000B81212C0C701B60120EA36E841E050E0A4
:1048800056D3DA01C9014097A109B109B695A79598
:1048900097958795898311C0C701B60120E83AE151
:1048A00046E050E044D3DA01C9014097A109B109BB
:1048B000B695A7959795879589831B830A838C2F37
:1048C0009D2F02C080E090E0DF91CF911F910F916A
:1048D000FF90EF90DF90CF90BF90AF9008958091C0
:1048E000BC0081700895FF920F931F93CF93DF93C5
:1048F0000097D1F14A30D0F5F42E8B01EC01EFDFB7
:10490000811136C080915E1390915F13C817D9074B
:1049100041F087DF89818093B800D0935F13C09303
:104920005E1381E08F0D809360138881880F8093E0
:104930006113FF2089F0F801A2E6B3E14FEF4F0DBC
:10494000642F70E0CB010196B801680F791F819147
:104950008D93E617F707D9F788EF8093210285EA50
:104960008093BC0084E005C086E003C087E001C0FE
:1049700082E0DF91CF911F910F91FF9008951F93D7
:10498000CF93DF93009729F16B3028F5162FEC01B8
:10499000A6DF811122C080915E1390915F13C8172A
:1049A000D90741F03EDF89818093B800D0935F132F
:1049B000C0935E13109360138881880F8160809389
:1049C000611388EF8093210285EA8093BC0085E023
:1049D00005C086E003C087E001C082E0DF91CF918F
:1049E0001F9108951F920F920FB60F9211240BB6CC
:1049F0000F922F933F934F935F936F937F938F9378
:104A00009F93AF93BF93EF93FF93E091B9008E2FE5
:104A100090E0FC013897E135F10508F075C0882772
:104A2000E458FF4F8F4FA5C210925D13E0915D13C4
:104A300080916013E81770F481E08E0F80935D130E
:104A4000F0E0EF59FC4E80818093BB0085E88093B5
:104A5000BC0072C084E98093BC0080915E13909189
:104A60005F13DC011296ED91FC911397309709F4D6
:104A700063C020E040E050E064E019955DC0E09143
:104A80005D1381E08E0F80935D138091BB00F0E099
:104A9000EF59FC4E80838091B900803411F410925C
:104AA0005D1320915D1330E08091601390E00197D9
:104AB0002817390724F485EC8093BC003DC085E8B5
:104AC0008093BC0039C08091BB00E0915D13F0E0A1
:104AD000EF59FC4E808384E98093BC0080915E1383
:104AE00090915F13DC011296ED91FC911397309732
:104AF00019F12091601341E653E165E019951CC05E
:104B000085EA8093BC0018C08091B900809321028F
:104B100084E08093BC0080915E1390915F13DC0170
:104B20001296ED91FC911397309731F020E040E020
:104B300050E0609121021995FF91EF91BF91AF91E3
:104B40009F918F917F916F915F914F913F912F91A5
:104B50000F900BBE0F900FBE0F901F901895FC0189
:104B6000411101C02FD3842F90E09C0121503109C5
:104B700082239323892B09F025D3413808F022D3CF
:104B8000128213824483440F4150458371836083B2
:104B900080E090E008955058BB27AA270ED028C186
:104BA00019D130F01ED120F031F49F3F11F41EF4E2
:104BB0000EC10EF4E095E7FB04C1E92F0E94D21B61
:104BC00078F3BA17620773078407950720F079F422
:104BD000A6F50C94F41B0EF4E0950B2EBA2FA02D25
:104BE0000B01B90190010C01CA01A0011124FF279A
:104BF000591B99F0593F50F4503E68F11A16F04095
:104C0000A22F232F342F4427585FF3CF4695379593
:104C10002795A795F0405395C9F77EF41F16BA0B58
:104C2000620B730B840BBAF09150A1F0FF0FBB1F06
:104C3000661F771F881FC2F70EC0BA0F621F731F4F
:104C4000841F48F4879577956795B795F7959E3FAC
:104C500008F0B1CF9395880F08F09927EE0F97953C
:104C6000879508950DD0C4C0BCD048F0B3D038F0BB
:104C700021F45F3F21F0A5C051110C94F51BA7C092
:104C80000E94D21B88F39923B9F35523A1F3951BF6
:104C9000550BBB27AA2762177307840738F09F5F5D
:104CA0005F4F220F331F441FAA1FA9F334D00E2ECB
:104CB0003AF0E0E831D091505040E695001CCAF738
:104CC0002AD0FE2F28D0660F771F881FBB1F2617FC
:104CD00037074807AB07B0E809F0BB0B802DBF01D1
:104CE000FF2793585F4F32F09E3F510570F069C027
:104CF0000C94F51B5F3FE4F3983ED4F386957795CB
:104D00006795B795F7959F5FC9F7880F911D9695A1
:104D1000879597F90895E1E0660F771F881FBB1FFD
:104D2000621773078407BA0720F0621B730B840BAA
:104D3000BA0BEE1F88F7E09508950E94A61B6894B1
:104D4000B1110C94F51B0895E89409C097FB3EF44B
:104D500090958095709561957F4F8F4F9F4F9923C8
:104D6000A9F0F92F96E9BB279395F6958795779546
:104D70006795B795F111F8CFFAF4BB0F11F460FF06
:104D80001BC06F5F7F4F8F4F9F4F16C0882311F05E
:104D900096E911C0772321F09EE8872F762F05C072
:104DA000662371F096E8862F70E060E02AF09A950D
:104DB000660F771F881FDAF7880F9695879597F902
:104DC000089597F99F6780E870E060E008959FEF8D
:104DD00080EC089500240A94161617061806090692
:104DE000089500240A941216130614060506089561
:104DF000092E0394000C11F4882352F0BB0F40F4E9
:104E0000BF2B11F460FF04C06F5F7F4F8F4F9F4F28
:104E1000089569D008F48FEF08950CD0E9CFDADF58
:104E200028F0DFDF18F0952309F0CBCFD0CF112485
:104E30000C94F51B0E94D21B90F3959FC1F3950F24
:104E400050E0551F629FF001729FBB27F00DB11D0E
:104E5000639FAA27F00DB11DAA1F649F6627B00D9E
:104E6000A11D661F829F2227B00DA11D621F739F87
:104E7000B00DA11D621F839FA00D611D221F749F95
:104E80003327A00D611D231F849F600D211D822FDC
:104E9000762F6A2F11249F57504092F0E9F0882313
:104EA0004AF0EE0FFF1FBB1F661F771F881F915030
:104EB0005040A9F79E3F510578F083CF0C94F51B25
:104EC0005F3FE4F3983ED4F3869577956795B79561
:104ED000F795E7959F5FC1F7FE2B880F911D96957B
:104EE000879597F90895990F0008550FAA0BE0E8E8
:104EF000FEEF16161706E807F907C0F0121613069C
:104F0000E407F50798F0621B730B840B950B39F4DB
:104F10000A2661F0232B242B252B21F408950A2641
:104F200009F4A140A6958FEF811D811D0895A1E28E
:104F30001A2EAA1BBB1BFD010DC0AA1FBB1FEE1F13
:104F4000FF1FA217B307E407F50720F0A21BB30B5E
:104F5000E40BF50B661F771F881F991F1A9469F7DA
:104F600060957095809590959B01AC01BD01CF0136
:104F70000895EE0FFF1F881F8BBF0790F691E02D5D
:104F800019940F931F93CF93DF938230910510F400
:104F900082E090E0E0918413F091851320E030E00E
:104FA000A0E0B0E0309719F1408151810281138176
:104FB00048175907C8F08417950769F4109731F01E
:104FC00012960C93129713961C9327C00093841388
:104FD0001093851322C02115310519F0421753078C
:104FE00018F49A01BD01EF01DF01F801DBCF2115B3
:104FF0003105F9F0281B390B2430310580F48A8102
:105000009B816115710521F0FB019383828304C0AC
:105010009093851380938413FE01329644C0FE0161
:10502000E20FF31F81939193225031093983288332
:105030003AC02091821330918313232B41F42091A5
:105040000202309103023093831320938213209144
:105050000002309101022115310541F42DB73EB710
:105060004091040250910502241B350BE0918213FC
:10507000F0918313E217F307A0F42E1B3F0B2817C0
:10508000390778F0AC014E5F5F4F2417350748F0C1
:105090004E0F5F1F5093831340938213819391931C
:1050A00002C0E0E0F0E0CF01DF91CF911F910F91BE
:1050B0000895CF93DF93009709F481C0FC013297E4
:1050C00013821282A0918413B0918513109781F4FA
:1050D00020813181820F931F20918213309183139D
:1050E0002817390751F5F0938313E093821367C0B3
:1050F000ED0120E030E0CE17DF0740F44A815B810C
:105100009E0141155105F1F0EA01F5CFD383C28329
:1051100040815181840F951FC817D90759F48881A0
:105120009981840F951F0296918380838A819B8148
:10513000938382832115310529F4F0938513E0933D
:1051400084133DC0E901FB83EA8349915991C40F5F
:10515000D51FEC17FD0761F480819181840F951FA5
:105160000296E90199838883828193819B838A8354
:10517000E0E0F0E012968D919C911397009719F062
:10518000FD01DC01F7CF8D919C9111979D012E5F60
:105190003F4F820F931F2091821330918313281762
:1051A000390769F4309729F410928513109284130B
:1051B00002C013821282B0938313A0938213DF91F3
:1051C000CF91089581E090E0F89400C3FB01DC01E9
:1051D00002C001900D9241505040D8F70895DC0173
:1051E00001C06D9341505040E0F70895CF93DF9395
:1051F000CDB7DEB7AE014A5F5F4FFA0161917191A1
:10520000AF01809188139091891333D0DF91CF91B2
:1052100008950F931F93CF93DF93E0918813F0913C
:105220008913238121FF1BC08C01D0E0C0E0F8016D
:1052300081918F016091881370918913DB01189619
:10524000ED91FC911997882331F01995892B79F309
:10525000DFEFCFEFECCF8AE01995892B19F08FEFB4
:105260009FEF02C08D2F9C2FDF91CF911F910F9147
:1052700008952F923F924F925F926F927F928F92FA
:105280009F92AF92BF92CF92DF92EF92FF920F93D5
:105290001F93CF93DF93CDB7DEB72B970FB6F8945C
:1052A000DEBF0FBECDBF6C017B018A01FC011782FE
:1052B0001682838181FFBFC1CE0101963C01F601B8
:1052C0009381F70193FD859193FF81917F0188235D
:1052D00009F4ADC1853239F493FD859193FF819135
:1052E0007F01853221F4B60190E0D6D1E8CF912C30
:1052F000212C312CFFE1F315D8F08B3279F038F402
:10530000803279F08332A1F4232D20611DC08D32CB
:1053100061F0803369F4232D216016C0832D8260F3
:10532000382EE32DE4603E2E2AC0F32DF8601DC018
:1053300037FC2DC020ED280F2A3040F08E32B9F412
:1053400036FC75C1232D2064322E19C036FE06C0EE
:105350008AE0989E200D1124922E11C0EAE02E9E24
:10536000200D1124222EF32DF0623F2E08C08C3622
:1053700021F4832D8068382E02C0883641F4F7016D
:1053800093FD859193FF81917F018111B3CF982F78
:105390009F7D9554933028F40C5F1F4F9FE39983B2
:1053A0000DC0833631F0833771F0833509F055C075
:1053B00020C0F801808189830E5F1F4F8824839469
:1053C000912C530112C02801F2E04F0E511CF8013C
:1053D000A080B18036FE03C0692D70E002C06FEF7F
:1053E0007FEFC5014ED14C018201F32DFF773F2E97
:1053F00015C0280122E0420E511CF801A080B180A6
:1054000036FE03C0692D70E002C06FEF7FEFC5016B
:105410002DD14C01F32DF0683F2E820133FC19C0D1
:10542000822D90E088169906A0F4B60180E290E003
:1054300033D12A94F5CFF50137FC859137FE819160
:105440005F01B60190E028D121102A9421E0821A50
:1054500091088114910479F7E1C0843611F08936FE
:1054600039F5F80137FE07C060817181828193812F
:105470000C5F1F4F08C060817181072E000C880BE4
:10548000990B0E5F1F4FF32DFF763F2E97FF09C03C
:1054900090958095709561957F4F8F4F9F4FF068E5
:1054A0003F2E2AE030E0A30133D1882E861844C075
:1054B000853731F4232D2F7EB22E2AE030E025C02F
:1054C000932D997FB92E8F36C1F018F4883579F075
:1054D000AEC0803719F0883721F0A9C0E92FE0610C
:1054E000BE2EB4FE0DC0FB2DF460BF2E09C034FEED
:1054F0000AC0292F2660B22E06C028E030E005C081
:1055000020E130E002C020E132E0F801B7FE07C040
:1055100060817181828193810C5F1F4F06C0608121
:10552000718180E090E00E5F1F4FA301F1D0882EC3
:105530008618FB2DFF773F2E36FE0DC0232D2E7FC4
:10554000A22E891458F434FE0BC032FC09C0832DFE
:105550008E7EA82E05C0B82CA32C03C0B82C01C089
:10556000B92CA4FE0FC0FE01E80DF11D808180332F
:1055700021F49A2D997EA92E09C0A2FE06C0B394EB
:10558000B39404C08A2D867809F0B394A3FC10C0AC
:10559000A0FE06C0B21480F4280C922C9B180DC0FB
:1055A000B21458F4B60180E290E076D0B394F8CF0C
:1055B000B21418F42B1802C0982C212CA4FE0FC092
:1055C000B60180E390E068D0A2FE16C0A1FC03C043
:1055D00088E790E002C088E590E0B6010CC08A2D13
:1055E000867851F0A1FE02C08BE201C080E2A7FCE8
:1055F0008DE2B60190E050D0891430F4B60180E31A
:1056000090E04AD09A94F8CF8A94F301E80DF11D06
:105610008081B60190E040D08110F6CF222009F4BD
:105620004ECEB60180E290E037D02A94F7CFF60153
:105630008681978102C08FEF9FEF2B960FB6F8946B
:10564000DEBF0FBECDBFDF91CF911F910F91FF90B5
:10565000EF90DF90CF90BF90AF909F908F907F9012
:105660006F905F904F903F902F900895FC010590B0
:10567000615070400110D8F7809590958E0F9F1F54
:105680000895FC016150704001900110D8F7809599
:1056900090958E0F9F1F08950F931F93CF93DF93C5
:1056A000FB01238121FD03C08FEF9FEF2CC022FF60
:1056B00016C046815781248135814217530744F42F
:1056C000A081B1819D012F5F3F4F318320838C9357
:1056D000268137812F5F3F4F3783268314C08B018C
:1056E000EC01FB010084F185E02D1995892BE1F691
:1056F000D80116968D919C911797019617969C93B9
:105700008E931697CE01DF91CF911F910F9108953F
:10571000FA01AA27283051F1203181F1E8946F93E2
:105720006E7F6E5F7F4F8F4F9F4FAF4FB1E03ED088
:10573000B4E03CD0670F781F891F9A1FA11D680F26
:10574000791F8A1F911DA11D6A0F711D811D911D59
:10575000A11D20D009F468943F912AE0269F1124CE
:105760003019305D3193DEF6CF010895462F477032
:10577000405D4193B3E00FD0C9F7F6CF462F4F708D
:10578000405D4A3318F0495D31FD4052419302D0EB
:10579000A9F7EACFB4E0A695979587957795679591
:1057A000BA95C9F700976105710508959B01AC0191
:1057B0000A2E06945795479537952795BA95C9F7B8
:1057C000620F731F841F951FA01D0895F894FFCFCB
:1057D00000008C1320000900400040C600CE00D617
:1057E00000360100000003000000003921242100E0
:1057F00000F8FF0186000000000079FF0179A00099
:10580000000000E6FF0179000000000086FF01872C
:10581000000000000078FF01880000000000004D3B
:1058200075746578206F6B004D75746578206661BE
:10583000696C656421004E6F7420656E6F756768D2
:10584000206D656D6F72792E004D6561737572659F
:105850002067726F757020676F6F640044617461B8
:105860002052656164792067726F757020676F6F71
:1058700064004D61696E4170705461736B00434FF9
:10588000325461736B0054656D7048756D5461736B
:105890006B004C75785461736B00536572766F546E
:1058A00061736B0055704C696E6B5461736B004291
:1058B0004F4F54204F4B004572726F720042756615
:1058C000666572204F4B0A0041505020537461723C
:1058D0007420434F322E2E2E0A0041505020434F49
:1058E00032206D656173757265640A004150502005
:1058F000537461727420542F482E2E2E0A00542F98
:1059000048206D656173757265640A0041505020CE
:105910005374617274204C55582E2E2E0A004C552B
:1059200058206D656173757265640A00415050209E
:10593000416C6C206D6561737572696E6720636F71
:105940006D706C657465640A0055706C696E6B20CF
:10595000696E69740055704C696E6B0A00434F3272
:10596000204F4B00434F32204D6561737572696E55
:10597000672E2E2E004520434F32204661696C650C
:10598000640A00434F323A2025640A005720434FEF
:10599000322054696D656F7574004C75783A202516
:1059A000640A004C7578206D6561737572650054EA
:1059B000454D502F48554D2053454E534F5220577B
:1059C000414B452055502057524F4E470A00542F07
:1059D00048206D6561737572696E672E2E2E0054B6
:1059E0002F48206D6561737572652077726F6E67E1
:1059F000210A00543A20256420483A2025640A00F0
:105A0000536572766F206368616E6765643B2063DF
:105A10006F7272656374696E6720616E676C650092
:105A20004572726F7220726563656976696E672070
:105A3000736572766F20616E676C652E0049444C09
:105A40004500546D72205376630048414C5F4C45CD
:025A5000440010
:00000001FF
