:10000000E5C0000003C1000001C10000FFC0000006
:10001000FDC00000FBC00000F9C00000F7C00000F8
:10002000F5C00000F3C00000F1C00000EFC0000008
:100030000C949909EBC00000E9C00000E7C0000083
:10004000E5C00000E3C00000E1C00000DFC0000028
:10005000DDC00000DBC00000D9C00000D7C0000038
:10006000D5C000000C94BA210C940C22CFC0000023
:10007000CDC00000CBC00000C9C00000C7C0000058
:10008000C5C00000C3C00000C1C00000BFC0000068
:100090000C9450220C94A222B9C000000C94E027CA
:1000A000B5C00000B3C00000B1C00000AFC0000088
:1000B000ADC00000ABC00000A9C00000A7C0000098
:1000C000A5C00000A3C00000A1C000000C94E6225F
:1000D0000C9438239BC000000C947C230C94CE23FA
:1000E00095C00000EF1DEF1DEF1D261E2E1E431EA6
:1000F000EF1DEF1D261E2E1E022872287228722860
:10010000722872287228722802287228722872288F
:10011000722872287228722804287228722872287D
:1001200072287228722872287228722872287228FF
:10013000722872287228722804287228722872285D
:1001400072287228722872287228722872287228DF
:1001500072287228722872286E28722872287228D3
:1001600072287228722872283928722872287228F8
:1001700072287228722872287228722872287228AF
:1001800072287228722872282D28722872287228E4
:10019000722872287228722851280E945211809168
:1001A0002313823008F0FFD70E946C1EF6CFCF9346
:1001B000DF931F92CDB7DEB7CE0101960E946C1B74
:1001C00049810E94611D0E94B81DF6CF11241FBEF7
:1001D000CFEFD1E2DEBFCDBF00E00CBF15E0A0E065
:1001E000B2E0EEE9FDE500E00BBF02C007900D9222
:1001F000A431B107D9F724E1A4E1B5E001C01D9213
:10020000AC33B207E1F704D10C94CD2EF9CE40E027
:1002100064E084E00E94C80A909301148093001463
:10022000892B21F08FE492E00C94F02B08950F932A
:10023000CF93DF9300D01F92CDB7DEB769837A8367
:100240008B839C8300E02AE030E040E050E0BE0178
:100250006F5F7F4F80910014909101140E94EB0A10
:10026000813021F088E592E00E94F02B0F900F90F2
:100270000F900F90DF91CF910F910895CF93DF935F
:1002800000D01F92CDB7DEB72AE030E040E050E06A
:10029000BE016F5F7F4F80910014909101140E9406
:1002A000D60B813021F085E090E09C838B836981BF
:1002B0007A818B819C810F900F900F900F90DF912E
:1002C000CF9108958091021490910314089581E0D4
:1002D0000E948F0B9093051480930414892B29F0AE
:1002E00083E692E00C94F02B08958CE692E00C9457
:1002F000F02B08958091081490910914089580912D
:100300000614909107140895E6D3909309148093EE
:100310000814892B49F48AE792E09F938F930E94F7
:10032000DD2B0F900F9004C08DE892E00E94F02B1F
:10033000D2D39093071480930614892B49F48AE74B
:1003400092E09F938F930E94DD2B0F900F90089562
:1003500080EA92E00C94F02B0895EF92FF920F93B5
:10036000E12CF12C02E020E030E046E551E066EBC4
:1003700072E081E692E00E94191201E020E030E094
:100380004BE051E062EC72E08AE993E00E941912BE
:1003900020E030E04BE051E06AEC72E087E994E065
:1003A0000E94191220E030E04BE051E066ED72E06F
:1003B00082E494E00E94191220E030E04BE051E02A
:1003C0006EED72E086E195E00E94191202E020E0F5
:1003D00030E04BE051E068EE72E087E493E00E9489
:1003E00019120F91FF90EF90089580E00E94302441
:1003F00081B1816881B985E00E94372568DF13D318
:1004000083DF8AD21AD036D289D1A7DF00CF0895F0
:10041000ECDF83EF92E00E94F02B0E9465128BEFDD
:1004200092E09F938F930E94DD2B0F900F90F7CF58
:1004300080910D1490910E14089541E060E070E0F9
:1004400088E190E00E94750E90930E1480930D1435
:10045000892B29F481E093E00C94F02B089580E13E
:1004600093E00C94F02B0895EFE0F4E128E0218371
:1004700022E0208320910C14422F022E000C550BF9
:100480005283238320912714422F022E000C550BF8
:100490005483258320910B14422F022E000C550B00
:1004A0005683278320910A14422F022E000C550BED
:1004B0005087218726E1DC0101900D922A95E1F712
:1004C0000895CF93DF93CDB7DEB7E0970FB6F894DA
:1004D000DEBF0FBECDBF0E94A31269837A838B83D8
:1004E0009C8342EE54E060E070E0CE0101960E94F1
:1004F000B9148BE193E00E94F02BFCDE41E050E068
:1005000060E070E09BD3FBDE0F2EFEE3CF2ED12CFC
:10051000E12CF12CF02D00E021E041E050E060E022
:1005200070E0ECD2672B682B692B21F08DE293E011
:100530000E94F02B8FE393E00E94F02BDBDE42E081
:1005400050E060E070E07AD3DADE0F2EFEE3CF2ECB
:10055000D12CE12CF12CF02D00E021E042E050E024
:1005600060E070E0CBD2672B682B692B21F081E52E
:1005700093E00E94F02B8FE593E00E94F02BBADE0F
:1005800044E050E060E070E059D3B9DE0F2EFEE3A6
:10059000CF2ED12CE12CF12CF02D00E021E044E015
:1005A00050E060E070E0AAD2672B682B692B21F045
:1005B00081E793E00E94F02B8FE793E00E94F02BFD
:1005C0005DDE6B017C0164E670E080E090E00E94FB
:1005D0001E15C7018530910589F18230910589F09A
:1005E0001CF4019739F022C083309105C1F00497C3
:1005F00079F01CC0C0920B148CE993E00E94F02BA0
:1006000019C0C0920C1484EA93E00E94F02B12C02F
:10061000C0920A148CEA93E00E94F02B0BC0C092A7
:10062000271484EB93E00E94F02B04C08DEB93E041
:100630000E94F02B85E0E816F10411F686EC93E0B9
:100640000E94F02BCE014B960FDF86E1FE017B96D8
:10065000DE01159601900D928A95E1F7E9DE04E638
:1006600010E020E030E046E150E0BE016B5F7F4FDC
:100670000E94B90E469709F434CF8FED93E00E94A3
:10068000F02B2FCF82EF93E00C94F02B0895CF93B3
:10069000DF93CDB7DEB766970FB6F894DEBF0FBE17
:1006A000CDBFF0DF6EE370E080E090E00E941E15A9
:1006B000BFDE01E712E020E030E046E150E0BE019D
:1006C0006F5F7F4F0E947E0F469761F78EEF93E03A
:1006D0000E94F02B9C818B811F929F931F928F937E
:1006E0008CE094E09F938F930E94DD2B64E670E092
:1006F00080E090E00E941E150F900F900F900F90D9
:100700000F900F90CFCF90932A148093291481E0FB
:1007100090E0909315058093140508958EE194E080
:100720000E94F02B83E00E94E91F83E893E00C9481
:100730000E200895CF93DF9300D01F92CDB7DEB780
:100740000E94A31269837A838B839C831092150580
:10075000109214054DE750E060E070E0CE01019684
:100760000E94B914C7DD0F2EF2EECF2EF4E0DF2E7B
:10077000E12CF12CF02D01E021E041E050E060E0BF
:1007800070E0BCD160FF3CC085E294E00E94F02B99
:100790000E94132080932814882359F086E394E064
:1007A0000E94F02B06C062E370E080E090E00E94BF
:1007B0001E158091140590911505892BA1F3AA248B
:1007C000A394B12C8090291490902A14C501B401EF
:1007D0002EDD62E370E080E090E00E941E158091C3
:1007E0002A148F93809129148F9384E494E09F932B
:1007F0008F930E94DD2B0F900F900F900F90A6CF3C
:100800008DE494E00E94F02BA1CFCF93DF9300D032
:100810001F92CDB7DEB78130B1F4CE0101960E94B0
:10082000262669817A818B819C810E94901E7F930C
:100830006F938BE594E09F938F930E94DD2B0F9035
:100840000F900F900F9069817A818B819C810E941B
:10085000951E70932C1460932B1481E090E090937C
:100860001505809314050F900F900F900F90DF9156
:10087000CF91089585E094E00C94E42508950C94BC
:10088000FF250895CF93DF9300D01F92CDB7DEB739
:10089000F6DF0E94A31269837A838B839C83109274
:1008A0001505109214054DE750E060E070E0CE01B0
:1008B00001960E94B9141EDD0F2EF2EECF2EF4E049
:1008C000DF2EE12CF12CF02D01E021E044E050E09E
:1008D00060E070E013D162FF0DC084E694E00E94F6
:1008E000F02B0E94142606C062E370E080E090E0E6
:1008F0000E941E158091140590911505892BA1F376
:100900006894AA24A2F8B12C80902B1490902C14F7
:10091000C501B4018CDCC3CF0E94171F0E942E1F9B
:10092000882321F080E794E00C94F02B0895CF9376
:10093000DF9300D01F92CDB7DEB70E94A312698368
:100940007A838B839C834DE750E060E070E0CE01BA
:1009500001960E94B914CEDC0F2EF1E7CF2EF2E003
:10096000DF2EE12CF12CF02D01E021E042E050E0FF
:1009700060E070E0C3D061FFE6CF8FE894E00E94B2
:10098000F02B0E94431F882321F080EA94E00E940C
:10099000F02B64E170E080E090E00E941E150E9460
:1009A000841F9093301480932F140F2EF3E0AF2EFA
:1009B000B12CF02D4C01C501B40139DC62E370E0CB
:1009C00080E090E00E941E150E94541F0E94951E18
:1009D00070932E1460932D146894AA24A1F8B12C5E
:1009E0004B01C501B40123DC62E370E080E090E0DC
:1009F0000E941E1580912E148F9380912D148F9339
:100A0000809130148F9380912F148F9384EB94E016
:100A10009F938F930E94DD2B0F900F900F900F905C
:100A20000F900F9090CF0C945A20089566EA7EE0C4
:100A300080E090E00E941E158091041490910514AE
:100A40000097A1F34AE050E060E070E03ED78130CB
:100A5000E1F438DCC82F00E020E030E0A90160E0DC
:100A600070E08091041490910514B5D580913114F3
:100A7000C817E1F281EC94E00E94F02B6C2F81E02A
:100A80000E944220C0933114D1CF81EE94E00E94A5
:100A9000F02BCCCF0F9301110CC0DC01CB018223D2
:100AA0009323A423B523892B8A2B8B2B79F480E005
:100AB00010C0DC01CB0182239323A423B523281784
:100AC00039074A075B0721F080E003C081E001C0DD
:100AD00081E00F910895CF93DF938FE090E0AFD145
:100AE000EC01009739F0FC011192119211921192D0
:100AF000CF018BD2CE01DF91CF9108952F923F92FB
:100B00004F925F926F927F928F929F92AF92BF921D
:100B1000CF92DF92EF92FF920F931F93CF93DF93C9
:100B2000EC014A015B01622E702E0E949D1228800A
:100B300039804A805B80A5019401C201B101AADF1E
:100B40008823A1F0662089F1D501C4018095909594
:100B5000A095B09582219321A421B5218883998302
:100B6000AA83BB83C12CD12C760122C0C114D1042D
:100B7000E104F104E9F0611004C040E050E0BA0182
:100B800004C040E050E060E071E0711074604829FA
:100B900059296A297B2997018601CE0104960E9472
:100BA000B515212C312C210103C0C12CD12C76018B
:100BB0000E94DD13CD28CE28CF2859F1811101C024
:100BC000F2D20E9477196B017C0191FD1FC00FB614
:100BD000F8940F92C880D980EA80FB80072DA50188
:100BE0009401C701B60156DF882371F0662061F0D9
:100BF00080949094A094B0948C209D20AE20BF202F
:100C000088829982AA82BB820F900FBE16012701AB
:100C10005524C201B101DF91CF911F910F91FF9037
:100C2000EF90DF90CF90BF90AF909F908F907F908C
:100C30006F905F904F903F902F9008954F925F92EA
:100C40006F927F92AF92BF92CF92DF92EF92FF921C
:100C50000F931F93CF93DF93EC016A017B018C010B
:100C6000095F1F4F0E949D12EB85FC858881998149
:100C7000AA81BB81C82AD92AEA2AFB2AC882D9823A
:100C8000EA82FB82C12CD12C76013DC0A480B580C4
:100C900080819181A281B381AC01BD017727B2FD32
:100CA0000EC0488059806A807B804422552266228B
:100CB000772245284628472889F420E012C048803A
:100CC00059806A807B80442255226622772244150F
:100CD00055056605770521F020E003C021E001C03D
:100CE00021E0222371F0B0FF04C0C42AD52AE62AED
:100CF000F72A488159816A817B817260CF010E9405
:100D0000F016EA2DFB2DE017F10709F0BFCFC094D4
:100D1000D094E094F09488819981AA81BB81C82203
:100D2000D922EA22FB22C882D982EA82FB820E946F
:100D3000DD13688179818A819B81DF91CF911F9139
:100D40000F91FF90EF90DF90CF90BF90AF907F908A
:100D50006F905F904F900895E2E2F5E0A6E2B5E073
:100D6000B183A08313821282EEECF2E1F0932105AD
:100D7000E0932005138212821182108288EA9DE09E
:100D800013969C938E931297ED93FC9390931D056D
:100D900080931C0590931F0580931E0580E090E8CA
:100DA00090931705809316050895CF93DF93EC0178
:100DB000A2E2B5E001C0DF01ED91FC911197EC17C3
:100DC000FD07C8F312968D919C9113979D01280FF2
:100DD000391FC217D30749F42A813B81820F931F21
:100DE00013969C938E931297ED018A819B819E01AD
:100DF000280F391FE217F307C1F420912005309125
:100E00002105E217F30771F022813381820F931FCE
:100E10009B838A83ED91FC911197808191819983C5
:100E2000888305C03983288302C0F983E883CA1701
:100E3000DB0711F0CD93DC93DF91CF910895EF9212
:100E4000FF920F931F93CF93DF938C010E949D120B
:100E50008091200590912105892B09F47DDF8091F7
:100E600016059091170580239123892B09F076C0F0
:100E70000115110549F0C80104960817190718F063
:100E800000E010E001C08C010115110509F469C0F2
:100E900080911E0590911F058017910708F464C08A
:100EA000C0912205D0912305E2E2F5E002C0FE01E7
:100EB000EC018A819B818017910720F488819981B8
:100EC0000097A9F78091200590912105C817D907AF
:100ED00009F44DC0E080F18084E0E80EF11C8881C7
:100EE0009981918380832A813B81201B310B29309A
:100EF000310548F0CE01800F911FFC01338322831E
:100F00001B830A8352DF2A813B8180911E059091C9
:100F10001F05821B930B90931F0580931E05409124
:100F20001C0550911D058417950720F490931D050D
:100F300080931C058091160590911705282B392B5D
:100F40003B832A831982188280911A0590911B0590
:100F5000019690931B0580931A050BC0E12CF12C90
:100F600008C0E12CF12C05C0E12CF12C02C0E12CD1
:100F7000F12C0E94DD13E114F10411F40E94781E9B
:100F8000C701DF91CF911F910F91FF90EF900895CE
:100F90000F931F93CF93DF93009791F1EC01249768
:100FA0004A815B812091160530911705BA016223B1
:100FB0007323672B29F168817981672B09F52095C7
:100FC0003095242335233B832A830E949D128A81F6
:100FD0009B8120911E0530911F05820F931F9093D6
:100FE0001F0580931E05CE01E0DE809118059091CB
:100FF0001905019690931905809318050E94DD1339
:10100000DF91CF911F910F910895FC010396928378
:1010100081834FEF5FEFBA01438354836583768307
:10102000908787839287818710820895FC011386B9
:10103000128608950F931F93CF93DF93EB010881DE
:1010400019812A813B810F3F4FEF14072407340792
:1010500021F4FC01A185B28511C0DC01139601C009
:10106000DF011496ED91FC911597408151816281C9
:101070007381041715072607370790F71496ED912B
:10108000FC911597FD83EC83D783C683BF83AE8322
:101090001596DC93CE9314979B878A87FC01208159
:1010A0002F5F2083DF91CF911F910F910895CF93F0
:1010B000DF93FC01A285B385C481D58186819781A8
:1010C0009F838E83C681D781848195819D838C8304
:1010D00011968D919C911297E817F90731F486814A
:1010E000978112969C938E931197138612868C91FA
:1010F00081508C938C91DF91CF910895A89590ECBD
:1011000088E10FB6F894A895809360000FBE909385
:1011100060000895FC0160833197708331971082DD
:1011200031971082319720E82083319710823197D0
:10113000108231971082779740833197508386973A
:101140000895DCDFA0919113B0919213CD91CDBFA2
:10115000DD91DEBFFF91EF91DF91CF91BF91AF9114
:101160009F918F917F916F915F914F913F912F91BF
:101170001F910F91FF90EF90DF90CF90BF90AF90B5
:101180009F908F907F906F905F904F903F902F90A7
:101190001F900F900CBE0F900BBE0F900FBE0F90C4
:1011A000089581E008950F920FB6F8940F920BB650
:1011B0000F920CB60F921F9211242F923F924F92D2
:1011C0005F926F927F928F929F92AF92BF92CF92D7
:1011D000DF92EF92FF920F931F932F933F934F93C2
:1011E0005F936F937F938F939F93AF93BF93CF93AF
:1011F000DF93EF93FF93A0919113B09192130DB6EB
:101200000D920EB60D920E943915A0919113B091D6
:101210009213CD91CDBFDD91DEBFFF91EF91DF91B4
:10122000CF91BF91AF919F918F917F916F915F917E
:101230004F913F912F911F910F91FF90EF90DF9071
:10124000CF90BF90AF909F908F907F906F905F9066
:101250004F903F902F901F900F900CBE0F900BBEA1
:101260000F900FBE0F9008950F920FB6F8940F9243
:101270000BB60F920CB60F921F9211242F923F9231
:101280004F925F926F927F928F929F92AF92BF9296
:10129000CF92DF92EF92FF920F931F932F933F9382
:1012A0004F935F936F937F938F939F93AF93BF936E
:1012B000CF93DF93EF93FF93A0919113B09192138B
:1012C0000DB60D920EB60D9213BE0E94B112811191
:1012D0000E943915A0919113B0919213CD91CDBF79
:1012E000DD91DEBFFF91EF91DF91CF91BF91AF9183
:1012F0009F918F917F916F915F914F913F912F912E
:101300001F910F91FF90EF90DF90CF90BF90AF9023
:101310009F908F907F906F905F904F903F902F9015
:101320001F900F900CBE0F900BBE0F900FBE0F9032
:1013300008959ADF1895DC0153962C915397222338
:1013400041F05A96ED91FC915B9790818AE0891B60
:10135000089580E008950FB6F8940F92FC01868DF1
:10136000811102C081E001C080E00F900FBE08959E
:101370000FB6F8940F92FC01268D878D281302C0BA
:1013800081E001C080E00F900FBE08950F931F937E
:10139000CF93DF93EC01042F1E8D48A141110CC0A7
:1013A00088819981892B09F042C08C819D810E949E
:1013B000B5181D821C8242C0011117C050E08A81FD
:1013C0009B810E94CD2B28A18A819B81820F911D38
:1013D0009B838A832C813D818217930750F18881FA
:1013E00099819B838A8380E029C050E08E819F8110
:1013F0000E94CD2B88A190E09195819591092E8135
:101400003F81280F391F3F832E834881598124173C
:10141000350730F42C813D81820F931F9F838E838B
:10142000023049F4112349F0115080E007C080E0F8
:1014300005C080E003C080E001C080E01F5F1E8F18
:10144000DF91CF911F910F910895FC0140A144239A
:10145000A9F050E026813781240F351F378326837A
:10146000848195812817390720F0808191819783A5
:101470008683CB01668177810C94CD2B08951F93D1
:10148000CF93DF93EC010FB6F8940F921AA10BC023
:101490008B89882351F0CE0143960E944116811119
:1014A0000E941718115011169CF38FEF8AA30F900A
:1014B0000FBE0FB6F8940F9219A10BC08885882330
:1014C00051F0CE0108960E94411681110E94171812
:1014D000115011169CF38FEF89A30F900FBEDF916F
:1014E000CF911F910895CF93DF93EC010FB6F8943D
:1014F0000F92E881F9818F8D28A190E030E0829FE2
:10150000A001839F500D929F500D11244E0F5F1F1D
:101510005D834C831E8EFB83EA830197289FA00185
:10152000299F500D389F500D1124CF01840F951F16
:101530009F838E838FEF89A38AA361110BC0888557
:10154000882371F0CE0108960E944116882341F04D
:101550002ADE06C0CE01089658DDCE01439655DD41
:101560000F900FBE81E0DF91CF9108950F931F93ED
:10157000F801611103C01183008302C051834083CD
:10158000878F60A361E0CF01AEDF1F910F910895B7
:10159000DF92EF92FF920F931F93CF93DF93F82E7A
:1015A000E62ED42E869FC0011124839648DCEC01E0
:1015B000009741F08C012D2DAC014D5D5F4F6E2DDC
:1015C0008F2DD4DFCE01DF91CF911F910F91FF902E
:1015D000EF90DF900895CF92DF92EF92FF920F93FA
:1015E0001F93CF93DF93CDB7DEB729970FB6F8944B
:1015F000DEBF0FBECDBF7C016B012E833F834887CA
:10160000598710E00FB6F8940F92F701968D878DE9
:10161000981710F00230B1F4402FB601C701B6DEC2
:10162000F7019389992341F0C70143960E9441161F
:10163000882321F0B8DD02C08111B5DD0F900FBE07
:1016400081E04CC08E819F81A885B985892B8A2B2A
:101650008B2B21F40F900FBE80E040C0111105C00C
:10166000CE0101960E94A01711E00F900FBE65D722
:101670000FB6F8940F92F70181A18F3F09F411A2E0
:10168000F70182A18F3F09F412A20F900FBEBE0195
:101690006A5F7F4FCE0101960E94B117811119C078
:1016A000C70166DE882381F04E815F816885798578
:1016B000C70108960E949E15C701E1DE0E94DD1356
:1016C0008111A0CF70DD9ECFC701D9DE0E94DD134E
:1016D00099CFC701D4DE0E94DD1380E029960FB6B2
:1016E000F894DEBF0FBECDBFDF91CF911F910F9158
:1016F000FF90EF90DF90CF9008950F93009769F0DF
:10170000FC011582148211821082168200E020E012
:1017100030E0A90160E070E05EDF0F910895CF93A3
:10172000DF93482F60E081E033DFEC01E6DFCE019C
:10173000DF91CF910895EF92FF920F931F93CF9374
:10174000DF938A01FC01568D378D531710F022303C
:10175000F9F4422F7801EC011AA18E8DCE0116DE2C
:101760001F3F81F48B898823A9F0CE0143960E9404
:101770004116882389F0E114F10481F081E0F7013A
:1017800080830DC0FF24F394F10EFAA281E007C01C
:1017900080E005C081E003C081E001C081E0DF910D
:1017A000CF911F910F91FF90EF900895CF92DF920C
:1017B000EF92FF920F931F93CF93DF93CDB7DEB7D6
:1017C00029970FB6F894DEBF0FBECDBF8C016B0119
:1017D0002E833F8348875987E12C0FB6F8940F92E8
:1017E000F801F68CFF2099F0B601C8012EDEFA94BC
:1017F000F801F68E8085882331F0C80108960E9492
:1018000041168111D0DC0F900FBE81E04FC08E8158
:101810009F81A885B985892B8A2B8B2B21F40F906A
:101820000FBE80E043C0E11006C0CE0101960E94C9
:10183000A017EE24E3940F900FBE7FD60FB6F89456
:101840000F92F80181A18F3F09F411A2F80182A142
:101850008F3F09F412A20F900FBEBE016A5F7F4F47
:10186000CE0101960E94B117811117C0C80173DD26
:10187000882379F04E815F8168857985C801439618
:101880000E949E15C801FBDD98D78111A6CF8BDC85
:10189000A4CFC801F4DD91D7A0CFC801F0DD8DD76A
:1018A000C80159DD882309F498CF80E029960FB646
:1018B000F894DEBF0FBECDBFDF91CF911F910F9186
:1018C000FF90EF90DF90CF900895EF92FF920F93EB
:1018D0001F93CF93DF93CDB7DEB729970FB6F89458
:1018E000DEBF0FBECDBF8C014E835F8368877987D3
:1018F000E12CF12C0FB6F8940F92F801868D882315
:10190000C9F08150868F80819181892B29F40E94B2
:10191000A119F80195838483F8018085882331F02B
:10192000C80108960E94411681113DDC0F900FBE40
:1019300081E06FC08E819F81A885B985892B8A2B14
:101940008B2B21F40F900FBE80E063C0F11006C016
:10195000CE0101960E94A017FF24F3940F900FBEB2
:10196000ECD50FB6F8940F92F80181A18F3F09F4DE
:1019700011A2F80182A18F3F09F412A20F900FBEAD
:10198000BE016A5F7F4FCE0101960E94B11781119F
:1019900026C0C801E0DC8823F1F0F8018081918144
:1019A000892B51F40FB6F8940F92848195810E948F
:1019B0002E18E82E0F900FBE4E815F8168857985C5
:1019C000C80143960E949E15C80159DDF6D68111C3
:1019D00091CFE9DB8FCFC80152DDEFD68BCFC801A5
:1019E0004EDDEBD6C801B7DC882309F483CFEE20A7
:1019F00079F00FB6F8940F92C8019DDC682FF801BA
:101A0000848195810E9410190F900FBE80E001C063
:101A100080E029960FB6F894DEBF0FBECDBFDF91F0
:101A2000CF911F910F91FF90EF900895CF93DF9387
:101A3000EC010FB6F8940F9289A18F3F09F419A217
:101A40008AA18F3F09F41AA20F900FBE8E8D8111CB
:101A500004C0CE0143960E94FF15CE0110DDDF9138
:101A6000CF910895FC014481558122813381240F57
:101A7000351F80819181B901681B790BCB016417F7
:101A8000750710F0841B950B08950F93FC018FE0F0
:101A9000DF011D928A95E9F7758764875583448332
:101AA0003783268306870F910895AF92BF92CF9216
:101AB000DF92EF92FF920F931F93CF93DF936C010E
:101AC0005B017A01FC01C281D381048115810C1B69
:101AD0001D0B4017510708F48A01F601848595858E
:101AE000A801B5018C0F9D1F0E94CD2B0E151F055F
:101AF00058F4A701401B510BB501600F711FF6018F
:101B0000848595850E94CD2BCE018E0D9F1DF601FB
:101B1000248135818217930710F0821B930BF60105
:101B200093838283C701DF91CF911F910F91FF9023
:101B3000EF90DF90CF90BF90AF900895CF92DF925B
:101B4000EF92FF920F931F93CF93DF931F921F92F9
:101B5000CDB7DEB77C016B015A834983211531056E
:101B6000C1F0FC01868580FD08C04217530708F4C8
:101B70009A013A83298381E00FC02017310758F07A
:101B800042E050E0BE016F5F7F4FC7018EDF81E012
:101B900003C080E001C080E0882331F049815A8190
:101BA000B601C70182DF02C080E090E00F900F9085
:101BB000DF91CF911F910F91FF90EF90DF90CF9029
:101BC0000895AF92BF92CF92DF92EF92FF920F9360
:101BD0001F93CF93DF937C015B01E9014217530709
:101BE00008F4EA01209781F1F701008111818481D5
:101BF0009581801B910B6E018C179D0708F46C0179
:101C0000F70164857585600F711FA601C5010E94EB
:101C1000CD2BCC16DD0658F4AE014C195D09F70149
:101C200064857585C5018C0D9D1D0E94CD2B0C0F03
:101C30001D1FF701848195810817190710F0081BF3
:101C4000190BF70111830083CE01DF91CF911F9112
:101C50000F91FF90EF90DF90CF90BF90AF900895DD
:101C60006F927F928F929F92AF92BF92CF92DF92AC
:101C7000EF92FF920F931F93CF93DF931F921F92C8
:101C8000CDB7DEB76C014B015A0179010115110581
:101C9000B1F0FC0160807180A801BE016F5F7F4FD1
:101CA00090DF89819A81E01AF10AA816B90630F40A
:101CB000F60171826082A12CB12C01C05C019701F8
:101CC000A501B401C6017DDF0F900F90DF91CF9188
:101CD0001F910F91FF90EF90DF90CF90BF90AF904A
:101CE0009F908F907F906F900895CF92DF92EF92A8
:101CF000FF920F93CF93DF93EC016B01413011F40E
:101D000001E001C000E0C114D10419F4CC24C39453
:101D1000D12CCE014096C817D90720F421968FD830
:101D20007C0102C0E12CF12CE114F10439F09601A0
:101D3000AE01B701615F7F4FC701A7DEC701DF9129
:101D4000CF910F91FF90EF90DF90CF900895FC011D
:101D50002481358180819181820F931F428153813B
:101D6000841B950B01978217930710F0821B930B2E
:101D700008952F923F924F925F926F927F928F922F
:101D80009F92AF92BF92CF92DF92EF92FF920F930A
:101D90001F93CF93DF93CDB7DEB72B970FB6F89491
:101DA000DEBF0FBECDBF4C017B876A871A010E8351
:101DB0001F8328873987FC018481958101972685B7
:101DC00020FF0CC02A01F2E04F0E511C841595052E
:101DD00058F41E821F821886198606C0841795073C
:101DE00010F02A0101C02C018E819F81A885B98540
:101DF000892B8A2B8B2B09F438C0CE0101960E94C7
:101E00008A170FB6F8940F92C401A1DF3C01841524
:101E1000950540F560E080E090E00E94521B0E9432
:101E20001B18F401938782870F900FBEAE80BF808E
:101E3000C884D984E12CF12C00E010E0980140E046
:101E400050E0BA0180E00E94B319F40113861286B3
:101E5000BE016A5F7F4FCE0101960E94B1178823B1
:101E600081F205C00F900FBE02C0612C712C61146D
:101E7000710419F4C4016BDF3C0182019301A101DB
:101E80006A857B85C4015ADE6C01892BE9F0C401A7
:101E9000E9DDF4012681378182179307A8F04DD33D
:101EA000F40180859185892B71F080859185E12CE5
:101EB000F12C00E020E030E0A90160E00E945B1A14
:101EC000F4011186108679D4C6012B960FB6F894CA
:101ED000DEBF0FBECDBFDF91CF911F910F91FF905D
:101EE000EF90DF90CF90BF90AF909F908F907F90BA
:101EF0006F905F904F903F902F9008954F925F9218
:101F00006F927F928F929F92AF92BF92CF92DF9209
:101F1000EF92FF920F931F93CF93DF93EC012B016E
:101F20003A01580169018E8580FF05C068948824B4
:101F300081F8912C02C0812C912CA114B104C10410
:101F4000D10441F10FB6F8940F92CE018BDD7C01E4
:101F50008816990648F060E080E090E00E94521BED
:101F60000E941B18998788870F900FBE8E149F04BC
:101F7000A0F0E12CF12C00E010E0980140E050E0EE
:101F8000BA0180E00E94B31919861886CE016ADD75
:101F90007C0103C0CE0166DD7C018E149F04E8F451
:101FA00084019701A301B201CE015ADE6C01892B95
:101FB000B1F0C3D28A859B85892B69F08A859B8580
:101FC000E12CF12C00E020E030E0A90160E00E946B
:101FD0005B1A1B861A86F1D302C0C12CD12CC60114
:101FE000DF91CF911F910F91FF90EF90DF90CF90F5
:101FF000BF90AF909F908F907F906F905F904F9029
:102000000895E0910B13F0910C13808181110CC0A5
:102010008FEF9FEFDC018093D5129093D612A0939F
:10202000D712B093D8120895E0910B13F0910C13CE
:102030000780F085E02D80819181A281B38180931A
:10204000D5129093D612A093D712B093D8120895B8
:10205000CF93DF93EC018B8D9C8D0E94C807CE013E
:102060000E94C807DF91CF9108954F925F926F92BF
:102070007F928F929F92AF92BF92CF92DF92EF9218
:10208000FF920F93CF93DF932C015B014A0139013B
:10209000E60165EA70E08B8D9C8D0E94D62B8B8DBE
:1020A0009C8D21E0821A9108880E991EA114B1041A
:1020B00089F415C0822F90E0F501E80FF91F3081F7
:1020C000DE01A80FB91F5D963C938081882329F01B
:1020D0002F5F01C020E0203168F31CA601C01D8ED7
:1020E0000A3008F009E00A8F0DA71EA6CE0102965D
:1020F0000E941608CE010E960E941608DB87CA873A
:102100008AE090E0A0E0B0E0801B9109A109B1094C
:102110008E879F87A88BB98BDF8BCE8B84E0FE01E7
:10212000BF96DF011D928A95E9F71BAAA301B201B0
:10213000C4010E948A0899838883E114F10419F08C
:10214000F701D183C083DF91CF910F91FF90EF9082
:10215000DF90CF90BF90AF909F908F907F906F90C7
:102160005F904F900895CF93C0E009C02BE0C29FCD
:10217000C00111248D5D9C4E0E940508CF5FCA30BE
:10218000A8F388E193E10E9405088DE093E10E94A5
:1021900005088EEF92E10E94050883EF92E10E940C
:1021A000050887EE92E10E94050888E193E190938B
:1021B0000C1380930B138DE093E190930A1380939B
:1021C0000913CF910895CF93DF93EC010FB6F894E4
:1021D0000F928091E6128F5F8093E61280919113A7
:1021E00090919213892B51F4D0939213C093911331
:1021F0008091E612813091F4B6DF10C08091E01238
:1022000081110CC0E0919113F0919213928D8A8DFF
:10221000891720F0D0939213C09391138091D91213
:102220008F5F8093D912EA8D8091E1128E1710F49E
:10223000E093E1128BE08E9FF0011124ED5DFC4EE6
:102240000180F281E02DFF83EE832681378139877B
:102250002887A681B7819E012E5F3F4F15963C933C
:102260002E93149737832683EA8D8E9FF0011124D5
:10227000ED5DFC4EFD87EC8780818F5F80830F9042
:102280000FBE8091E012882351F0E0919113F091FC
:102290009213928D8A8D981710F40E94D308DF91C3
:1022A000CF910895CF93DF931BC00FB6F8940F9290
:1022B000E091FA12F091FB12C085D185CE01029611
:1022C0000E9457088091E61281508093E612809117
:1022D000F21281508093F2120F900FBECE01B8DE41
:1022E0008091F2128111E1CFDF91CF9108958F9209
:1022F0009F92AF92BF92CF92DF92EF92FF92CF93D5
:10230000DF936B017C01C42F8090E2129090E31266
:10231000A090E412B090E5128091911390919213E5
:1023200002960E9457088FEFC816D806E806F806EE
:10233000B1F5CC23A1F1E7EEF2E1A181B281C09128
:102340009113D0919213BF83AE83C0919113D0911A
:10235000921316968D919C91179799878887169658
:10236000CD91DC91179780919113909192130296E1
:102370009D838C838091911390919213029617966E
:102380009C938E931697A0919113B09192131D96E2
:10239000FC93EE931C9780818F5F80833FC0C80CB5
:1023A000D91CEA1CFB1CE0919113F0919213C2829C
:1023B000D382E482F582C814D904EA04FB0468F4E9
:1023C00060919113709192138091091390910A1367
:1023D0006E5F7F4F0E941A0821C060919113709127
:1023E000921380910B1390910C136E5F7F4F0E949C
:1023F0001A088091D5129091D612A091D712B0915F
:10240000D812C816D906EA06FB0640F4C092D512C7
:10241000D092D612E092D712F092D812DF91CF91DB
:10242000FF90EF90DF90CF90BF90AF909F908F90F4
:1024300008952F923F924F925F926F927F928F9268
:102440009F92AF92BF92CF92DF92EF92FF920F9343
:10245000CF93DF933C011B014A012901CA010E946D
:102460001F076C01892B71F084E390E00E941F0725
:10247000EC01892B19F0DC8ECB8E06C0C6010E94C0
:10248000C80702C0C0E0D0E0209761F0A12CB12CB9
:102490006E019201A401B101C301E7DDCE0193DE1B
:1024A00081E001C08FEFDF91CF910F91FF90EF900E
:1024B000DF90CF90BF90AF909F908F907F906F9064
:1024C0005F904F903F902F900895EF92FF920F935F
:1024D0000F2EF3EDEF2EF2E1FF2EF02D00E020E0C5
:1024E00030E040EC50E06EEF74E08DEC90E0A1DF66
:1024F000813011F40E94F61B8130C9F4F8948FEFFB
:102500009FEFDC018093D5129093D612A093D7123F
:10251000B093D81281E08093E0121092E2121092F0
:10252000E3121092E4121092E5120E94A108809129
:1025300006020F91FF90EF9008958091D2128F5F65
:102540008093D21208950FB6F8940F926091E21220
:102550007091E3128091E4129091E5120F900FBEFA
:102560000895CF92DF92EF92FF92CF93DF93809105
:10257000D212811105C1C090E212D090E312E09016
:10258000E412F090E5128FEFC81AD80AE80AF80AA8
:10259000C092E212D092E312E092E412F092E512BD
:1025A000C114D104E104F104B1F480910B139091B2
:1025B0000C132091091330910A1330930C132093BC
:1025C0000B1390930A13809309138091DA128F5F93
:1025D0008093DA1216DD8091D5129091D612A091D7
:1025E000D712B091D812C816D906EA06FB0620F415
:1025F00080E0B2C081E001C080E0E0910B13F09177
:102600000C13908191110CC04FEF5FEFBA01409312
:10261000D5125093D6126093D7127093D8129CC0E3
:10262000E0910B13F0910C130780F085E02D0084EE
:10263000F185E02D4281538164817581C416D506F0
:10264000E606F70648F44093D5125093D6126093ED
:10265000D7127093D81280C0A485B585C681D78162
:10266000208531853F832E83C085D18526813781A2
:102670003D832C8311964D915C9112979F012E5FA3
:102680003F4F4217530731F44085518512965C93B2
:102690004E931197158614869C9191509C93A08D12
:1026A000B18D109709F1C289D389448955895F8317
:1026B0004E83C489D589428953895D834C831196A1
:1026C0006D917C911297AF01425F5F4F6417750760
:1026D00031F44489558912965C934E931197118E6B
:1026E000108E9C9191509C93A28D9091E1129A171B
:1026F00010F4A093E1129BE09A9FD0011124AD5DEC
:10270000BC4E11960D90BC91A02DB783A683169652
:102710004D915C911797518740871696CD91DC912A
:1027200017973D832C8317963C932E931697A28D73
:102730009A9FD0011124AD5DBC4EB587A4879C91B2
:102740009F5F9C93228DE0919113F0919213928D53
:10275000291708F04FCF51CFE0919113F0919213C8
:10276000E28D9BE0E99FF0011124ED5DFC4E90812C
:10277000923008F081E09091DB12911116C016C0E2
:102780008091DC129091DD12A091DE12B091DF12E7
:102790000196A11DB11D8093DC129093DD12A093D0
:1027A000DE12B093DF1280E001C081E0DF91CF91B3
:1027B000FF90EF90DF90CF900895CF92DF92EF924D
:1027C000FF92CF93DF930FB6F8940F928091D212BD
:1027D00081508093D2128091D2128111BEC080911B
:1027E000E612811188C0BCC0E0910513F091061378
:1027F0000084F185E02DA08DB18DC289D3898489B3
:1028000095899F838E83C489D589828993899D8385
:102810008C8311962D913C911297CF010E9628171B
:10282000390731F48489958912969C938E93119778
:10283000118E108E8C9181508C93A485B585C681A4
:10284000D781808591859F838E83C085D185868140
:1028500097819D838C8311968D919C9112979F01F6
:102860002E5F3F4F8217930731F480859185129632
:102870009C938E931197158614868C9181508C931E
:10288000A28D8091E1128A1710F4A093E1128BE0DF
:102890008A9FD0011124AD5DBC4E11960D90BC9164
:1028A000A02DB783A68316964D915C9117975187FB
:1028B00040871696CD91DC9117973D832C83179610
:1028C0003C932E931697A28D8A9FD0011124AD5D63
:1028D000BC4EB587A4878C918F5F8C93928DA0910D
:1028E0009113B09192135A968C91981730F081E021
:1028F0008093DB1202C0E0E0F0E08091FE128111D3
:1029000073CFEF2B09F07DDBC090DC12D090DD128D
:10291000E090DE12F090DF12C114D104E104F10462
:10292000A1F01FDE882319F081E08093DB1281E0A3
:10293000C81AD108E108F108A1F71092DC12109230
:10294000DD121092DE121092DF128091DB128823CA
:1029500031F00E94D30881E003C080E001C080E034
:102960000F900FBEDF91CF91FF90EF90DF90CF904F
:1029700008958F929F92AF92BF92CF92DF92EF9283
:10298000FF921F93CF93DF93EC016A017B01D5DDAA
:102990008090E2129090E312A090E412B090E512C1
:1029A00088819981AA81BB81AC01BD014C0D5D1D5F
:1029B0006E1D7F1D88169906AA06BB0660F448178F
:1029C00059076A077B0798F484169506A606B7068A
:1029D00080F010E013C0481759076A077B0758F0CA
:1029E00084169506A606B70640F010E007C010E072
:1029F00005C011E003C011E001C011E04883598314
:102A00006A837B83112341F0CB01BA0168197909EC
:102A10008A099B0940E06BDCD0DE811102C00E9474
:102A2000D308812FDF91CF911F91FF90EF90DF901E
:102A3000CF90BF90AF909F908F900895CF92DF92EC
:102A4000EF92FF926B017C01672B682B692B39F0A9
:102A500074DD40E0C701B6014ADCAFDE01C080E0B2
:102A6000811102C00E94D308FF90EF90DF90CF90B9
:102A700008958091D212882321F081E08093DB12A7
:102A800008951092DB12E0919113F091921320813E
:102A90003181E0919113F0919213838D948D82177F
:102AA000930760F06091911370919213635E7F4F72
:102AB00080919113909192130E94841E8091E11253
:102AC00001C08150282F30E09BE0929FF001939F3E
:102AD000F00D1124ED5DFC4E9081992391F39BE064
:102AE000929FA001939F500D1124DF010180F2817C
:102AF000E02D0480F581E02D1296FC93EE93119762
:102B00004A5D5C4EE417F50729F444815581FD01C7
:102B1000528341839BE0929FF001939FF00D11241B
:102B2000ED5DFC4E0180F281E02D208531853093F2
:102B30009213209391138093E1120895CF92DF9224
:102B4000EF92FF926A017B01609191137091921351
:102B5000625F7F4F0E941A0841E0C701B601C7DBE0
:102B6000FF90EF90DF90CF9008950F931F93CF9336
:102B7000DF93FC01A0919113B091921370681E969F
:102B80004D935D936D937C935197A181B281C091D8
:102B90009113D0919213BB8BAA8BC0919113D091BA
:102BA000921316968D919C9117979D8B8C8B1696F0
:102BB000CD91DC91179780919113909192130E967D
:102BC0009D838C8380919113909192130E9617960A
:102BD0009C938E931697A0919113B091921359964E
:102BE000FC93EE93589780818F5F808341E0C90109
:102BF000B8017DDBDF91CF911F910F910895CF93A5
:102C0000DF93FC01CB01BA01A181B281C091911384
:102C1000D0919213BB8BAA8BC0919113D091921338
:102C200016964D915C9117975D8B4C8B1696CD91B6
:102C3000DC9117974091911350919213425F5F4F2F
:102C40005D834C834091911350919213425F5F4F8B
:102C500017965C934E931697A0919113B09192138F
:102C60005996FC93EE93589730813F5F308322232F
:102C700019F06FEF7FEFCB01422F39DBDF91CF915E
:102C80000895CF93DF93DC011796ED91FC9118978F
:102C90000084F185E02DA08DB18DC289D38984890E
:102CA00095899F838E83C489D589828993899D83E1
:102CB0008C8311968D919C9112979F01225F3F4FBB
:102CC0008217930731F48489958912969C938E9389
:102CD0001197118E108E8C9181508C938091D2120D
:102CE000811152C0A485B585C681D7818085918523
:102CF0009F838E83C085D185868197819D838C83B8
:102D000011968D919C9112979F012E5F3F4F8217D4
:102D1000930731F48085918512969C938E93119739
:102D2000158614868C9181508C93A28D8091E1122E
:102D30008A1710F4A093E1128BE08A9FD00111242E
:102D4000AD5DBC4E11960D90BC91A02DB783A683AE
:102D500016964D915C911797518740871696CD91A5
:102D6000DC9117973D832C8317963C932E931697EF
:102D7000A28D8A9FD0011124AD5DBC4EB587A4877A
:102D80008C918F5F8C931CC04EEF52E1DA0111964B
:102D9000CD91DC911297D38BC28B8E819F81958BC5
:102DA000848B8E819F81DC0115963C932E93149722
:102DB0003F832E83518F408FDA018C918F5F8C93EC
:102DC000928DE0919113F0919213828D891720F4E6
:102DD00081E08093DB1201C080E0DF91CF91089504
:102DE000CF93DF93DC0170684D935D936D937C937B
:102DF00013971896ED91FC9119971A964D915C9145
:102E00001B9714968D919C91159716962D913C9138
:102E10001797EC013F832E8316968D919C911797FF
:102E200014962D913C911597EC013D832C83EA017A
:102E300089819A81A817B90731F416968D919C91D2
:102E400017979A8389831B961C921E921A97DA0110
:102E50008C9181508C93A485B585C681D78180855E
:102E600091859F838E83C085D185868197819D833F
:102E70008C8311968D919C9112979F012E5F3F4FED
:102E80008217930731F48085918512969C938E93D7
:102E90001197158614868C9181508C93A28D809108
:102EA000E1128A1710F4A093E1128BE08A9FD001FF
:102EB0001124AD5DBC4E11960D90BC91A02DB78331
:102EC000A68316964D915C91179751874087169669
:102ED000CD91DC9117973D832C8317963C932E93CD
:102EE0001697A28D8A9FD0011124AD5DBC4EB58787
:102EF000A4878C918F5F8C93928DE0919113F091C8
:102F00009213828D891718F481E08093DB12DF9190
:102F1000CF9108950FB6F8940F922091DA12FC0128
:102F200020834091E2125091E3126091E41270917B
:102F3000E51241835283638374830F900FBE08951B
:102F40002091DA12FC0120834091E2125091E312A9
:102F50006091E4127091E51241835283638374831C
:102F600008958F929F92AF92BF92CF92DF92EF928D
:102F7000FF920F931F93CF93DF93FB010FB6F8944B
:102F80000F92C090E212D090E312E090E412F09021
:102F9000E512DC0111960D911D912D913C91149734
:102FA00046015701801A910AA20AB30A4081518151
:102FB000628173814F3FBFEF5B076B077B0739F17E
:102FC000EC01B881A091DA12BA1759F0C016D106F7
:102FD000E206F30630F0108211821282138281E041
:102FE00017C084169506A606B70658F4481959095D
:102FF0006A097B094083518362837383A1DF80E088
:1030000007C0108211821282138281E001C080E029
:103010000F900FBEDF91CF911F910F91FF90EF9016
:10302000DF90CF90BF90AF909F908F90089581E0F8
:103030008093DB12089580919113909192130895DB
:103040008091E012882331F08091D212811104C066
:1030500082E0089581E0089580E008950F931F9322
:10306000CF93DF93FC01892B09F477C0828DA09167
:103070009113B09192135A969C91891708F063C0EE
:103080004685578560897189772394F0A0919113C3
:10309000B09192135A969C914AE050E060E070E043
:1030A000491B51096109710946875787608B718BEC
:1030B000248535854BE0849FC00111248D5D9C4E95
:1030C00028173907B9F5EF018F010E5F1F4FC801AF
:1030D0000E945708E0919113F0919213E28DEA8FCC
:1030E0008091E1128E1710F4E093E1128BE08E9F35
:1030F000F0011124ED5DFC4E0180F281E02DFF8393
:10310000EE832681378139872887A681B781159676
:103110001C930E93149717830683EA8D8E9FF001FC
:103120001124ED5DFC4EFD87EC8780818F5F8083ED
:1031300081E016C0A0919113B09192135A968C9190
:10314000828F81E00DC095A5E0919113F0919213CB
:10315000828D981720F080E003C080E001C081E0FC
:10316000DF91CF911F910F9108950F931F93CF93EC
:10317000DF93FC01892B09F449C086A5815086A7FD
:10318000228D95A5291709F443C0811143C0EF0191
:103190008F010E5F1F4FC8010E945708EDA5EA8FEF
:1031A0008AE090E0A0E0B0E08E1B9109A109B1098E
:1031B0008E879F87A88BB98B8091E1128E1710F4B0
:1031C000E093E1128BE08E9FF0011124ED5DFC4E47
:1031D0000180F281E02DFF83EE83268137813987DC
:1031E0002887A681B78115961C930E931497178391
:1031F0000683EA8D8E9FF0011124ED5DFC4EFD8764
:10320000EC8780818F5F808381E005C080E003C010
:1032100080E001C080E0DF91CF911F910F91089570
:103220000F931F93CF93DF93FC01892B09F45AC0AE
:1032300085A5861708F4862F928D891709F452C048
:1032400026A5213009F04EC0828F468557856089BA
:103250007189772364F04AE050E060E070E0481B39
:1032600051096109710946875787608B718B2485E5
:1032700035854BE0949FC00111248D5D9C4E28172D
:10328000390781F5EF018F010E5F1F4FC8010E94C2
:103290005708EA8D8091E1128E1710F4E093E11245
:1032A0008BE08E9FF0011124ED5DFC4E0180F281D8
:1032B000E02DFF83EE832681378139872887A68119
:1032C000B78115961C930E93149717830683EA8D86
:1032D0008E9FF0011124ED5DFC4EFD87EC8780810F
:1032E0008F5F8083DF91CF911F910F910895CF92CF
:1032F000DF92EF92FF92E0919113F0919213668525
:10330000778580899189E0919113F0919213A09132
:103310009113B09192135A962C910F2EFAE0CF2E62
:10332000D12CE12CF12CF02DC21AD108E108F108C2
:10333000C686D786E08AF18AFF90EF90DF90CF9023
:1033400008958091911390919213892B39F0E09117
:103350009113F091921386A58F5F86A780919113A8
:103360009091921308954F925F926F927F92AF92D5
:10337000BF92CF92DF92EF92FF920F931F93CF9362
:10338000DF93280139010FB6F8940F92E091911361
:10339000F0919213C82FD0E0EC0FFD1F83A982306B
:1033A00079F1E0919113F0919213CE01880F991F5A
:1033B000880F991FE80FF91F87A590A9A1A9B2A9A5
:1033C0004095509560957095482359236A237B2337
:1033D00047A750AB61AB72ABE0919113F0919213A0
:1033E000EC0FFD1F81E083ABA114B104C104D10433
:1033F00039F041E0C601B5010E9477110E94D3085F
:103400000F900FBE0FB6F8940F92E114F104A1F0E3
:10341000E0919113F0919213CE01880F991F880FBC
:10342000991FE80FF91F87A590A9A1A9B2A9F701D3
:1034300080839183A283B383E0919113F0919213DF
:10344000EC0FFD1F83A98230E9F4E0919113F09114
:103450009213CE01880F991F880F991FE80FF91F4B
:1034600087A590A9A1A9B2A94094509460947094A2
:10347000482259226A227B2247A650AA61AA72AA30
:1034800081E001C080E02091911330919213C20F2E
:10349000D31F1BAA0F900FBEDF91CF911F910F91E9
:1034A000FF90EF90DF90CF90BF90AF907F906F90A4
:1034B0005F904F9008958F929F92AF92BF92EF923C
:1034C000FF920F93CF93DF93DC010FB6F8940F9226
:1034D000E114F10489F0E62FF0E0EE0FFF1FEE0F8C
:1034E000FF1FE80FF91F87A490A8A1A8B2A8F701B1
:1034F00080829182A282B38270E0FD01E60FF71F05
:1035000083A992E093AB023001F118F4013031F05D
:103510004DC0033079F10430D1F148C0660F771FF8
:10352000660F771FFD01E60FF71F87A490A8A1A8DB
:10353000B2A8BA01A901482959296A297B2947A7B4
:1035400050AB61AB72AB01E034C0660F771F660F02
:10355000771FFD01E60FF71F47A550A961A972A9C2
:103560004F5F5F4F6F4F7F4F47A750AB61AB72AB61
:1035700001E01FC0660F771F660F771FFD01E60F82
:10358000F71F27A730AB41AB52AB01E012C082302E
:1035900079F0660F771F660F771FFD01E60FF71FA3
:1035A00027A730AB41AB52AB01E003C001E001C043
:1035B00000E0813009F069C01C96ED91FC911D97E7
:1035C0001696CD91DC91179718968D919C9119972D
:1035D0009F838E831896CD91DC91199716968D91C5
:1035E0009C9117979D838C83818192819D012E5F91
:1035F0003F4F8217930731F418968D919C9119973C
:10360000928381831D961C921E921C97808181500B
:1036100080835A96EC915A978091E1128E1710F49C
:10362000E093E1128BE08E9FF0011124ED5DFC4EE2
:103630000180F281E02D1796FC93EE931697468158
:10364000578119965C934E931897C681D7813D8315
:103650002C83378326835A96EC915A978E9FF001DC
:103660001124ED5DFC4E1D96FC93EE931C9780811A
:103670008F5F80835A969C91E0919113F091921301
:10368000828D891710F40E94D3080F900FBE802FEF
:10369000DF91CF910F91FF90EF90BF90AF909F90EF
:1036A0008F900895009721F4809191139091921337
:1036B0000FB6F8940F9270E0FC01E60FF71F23A9F4
:1036C000223031F4FC01E60FF71F13AA81E001C09C
:1036D00080E00F900FBE0895DC01E0919D13F09102
:1036E0009E13808191E0811190E09C93911108C01C
:1036F0000780F085E02D608171818281938108953A
:1037000060E070E0CB010895CF92DF92EF92FF92DC
:103710000F931F93FC0142835383648375839387C4
:1037200082870417150726073707C0F00C191D09F3
:103730002E093F0986859785A089B1890817190741
:103740002A073B0700F5BF016E5F7F4F80919B13F7
:1037500090919C130E941A0880E018C00C151D055A
:103760002E053F0528F44C155D056E057F0568F4B0
:10377000BF016E5F7F4F80919D1390919E130E94B9
:103780001A0880E003C081E001C081E01F910F9121
:10379000FF90EF90DF90CF9008950FB6F8940F92BE
:1037A0008091991390919A13892BE9F48AEA93E115
:1037B0000E9405088FE993E10E9405088AEA93E1D7
:1037C00090939E1380939D138FE993E190939C13A4
:1037D00080939B1340E067E08AE00E94C80A9093C0
:1037E0009A13809399130F900FBE0895EF92FF9252
:1037F0000F93D3DF8091991390919A13892B91F0B5
:103800000F2EF7E9EF2EF3E1FF2EF02D03E020E07D
:1038100030E040EC50E063E075E087ED90E00E941E
:10382000191201C080E00F91FF90EF9008958F92E0
:103830009F92AF92BF92CF92DF92EF92FF920F933F
:103840001F93CF93DF93CDB7DEB727970FB6F894CA
:10385000DEBF0FBECDBFE0919913F0919A13309760
:1038600081F169832A833B834C835D839F838E83AD
:103870006630F4F4E5DB823069F400E0A7019601DC
:10388000BE016F5F7F4F8091991390919A130E94B0
:10389000EB0A18C000E020E030E0A901BE016F5F34
:1038A0007F4F8091991390919A130E94EB0A0AC05E
:1038B00020E0A801BE016F5F7F4FCF010E949B0BEC
:1038C00001C080E027960FB6F894DEBF0FBECDBFD3
:1038D000DF91CF911F910F91FF90EF90DF90CF90EC
:1038E000BF90AF909F908F9008958F929F92AF92CC
:1038F000BF92CF92DF92EF92FF920F931F93CF93DD
:10390000DF933BC00780F085E02D80809180A2800E
:10391000B380C085D1858E010E5F1F4FC8010E9404
:103920005708EC89FD89CE0119958E8982FF25C043
:103930008E859F85A889B989880D991DAA1DBB1DF3
:1039400088169906AA06BB0670F48A839B83AC830B
:10395000BD83DB87CA87B80180919D1390919E1328
:103960000E941A080AC0C12CD12C760100E010E098
:10397000A501940160E0CE015ADFE0919D13F09122
:103980009E1380818111BECF80919B1390919C13D7
:1039900090939E1380939D13F0939C13E0939B133D
:1039A000DF91CF911F910F91FF90EF90DF90CF901B
:1039B000BF90AF909F908F900895CF92DF92EF923B
:1039C000FF92CF93DF93EC010E94A3126B017C0165
:1039D0008091931390919413A0919513B0919613A5
:1039E000C816D906EA06FB0620F47FDF81E088834B
:1039F00001C01882C0929313D0929413E092951351
:103A0000F0929613C701B601DF91CF91FF90EF902E
:103A1000DF90CF9008954F925F926F927F928F9236
:103A20009F92AF92BF92CF92DF92EF92FF920F934D
:103A30001F93CF93DF934B015C0129013A01E09181
:103A40009D13F0919E130780F085E02DC085D185F0
:103A5000CE0102960E9457088E8982FF1BC04E85B8
:103A60005F8568897989480D591D6A1D7B1D75011F
:103A7000640193018201CE0147DE882369F0C12CE5
:103A8000D12C760100E010E0A501940160E0CE01A8
:103A9000CEDE02C08E7F8E8BEC89FD89CE0119951A
:103AA000DF91CF911F910F91FF90EF90DF90CF901A
:103AB000BF90AF909F908F907F906F905F904F904E
:103AC00008958F929F92AF92BF92CF92DF92EF9222
:103AD000FF921F93CF93DF931F92CDB7DEB76B0199
:103AE0007C01142F0E949D12CE01019666DF4B01CE
:103AF0005C01898181112DC011110DC08C149D04B0
:103B0000AE04BF0440F00E94DD13A5019401C7017B
:103B1000B60181DF20C0112341F0E0919B13F091A9
:103B20009C13808111E0811110E0B701A6014819B2
:103B300059096A097B09212F8091991390919A1351
:103B40000E94160D0E94DD13811105C00E94D3084A
:103B500002C00E94DD130F90DF91CF911F91FF9063
:103B6000EF90DF90CF90BF90AF909F908F9008958F
:103B7000AF92BF92CF92DF92EF92FF920F931F937B
:103B8000CF93DF93CDB7DEB728970FB6F894DEBF9B
:103B90000FBECDBF82C0898188230CF47EC0AE8069
:103BA000BF80D5011C968D919C911D97892B21F08A
:103BB000C50102960E945708CE010896FEDE8B01D1
:103BC0009C01E9810E2E000CFF0BEA30F10508F094
:103BD00064C08827EE58FF4F8F4F0C94A02AF50140
:103BE00086898160868BCA80DB80EC80FD8046857B
:103BF0005785608971894C0D5D1D6E1D7F1DC50146
:103C000083DD882309F449C0D5015496ED91FC91D8
:103C10005597C5011995F501868982FF3EC04A81F5
:103C20005B816C817D8186859785A089B1899A01A8
:103C3000AB01280F391F4A1F5B1FC12CD12C760105
:103C400000E010E060E0C501F2DD27C0D501569626
:103C50008C9156978E7F56968C931FC0F50186895E
:103C60008160868B4A815B816C817D814687578725
:103C7000608B718B400F511F621F731F68017901A8
:103C8000C50142DD0AC0F501868981FD04C0C50178
:103C90000E94C80702C08E7F868B20E030E0A90119
:103CA000BE016F5F7F4F8091991390919A130E948C
:103CB000D60B811170CF28960FB6F894DEBF0FBED9
:103CC000CDBFDF91CF911F910F91FF90EF90DF90CB
:103CD000CF90BF90AF900895089584B1806884B963
:103CE00085B1806885B9089583B1806883B90895E6
:103CF000F4DF2FEF80E792E0215080409040E1F721
:103D000000C00000F1DFF5CFE8DF2FEF87EA91E692
:103D1000215080409040E1F700C00000E5DFF5CF82
:103D200004D06894B11150C0089533D088F09F57E3
:103D300090F0B92F9927B751A0F0D1F0660F771FF7
:103D4000881F991F1AF0BA95C9F712C0B13081F0D7
:103D50003AD0B1E0089537C0672F782F8827B85F31
:103D600039F0B93FCCF3869577956795B395D9F738
:103D70003EF490958095709561957F4F8F4F9F4F42
:103D8000089557FD9058440F551F59F05F3F71F04B
:103D90004795880F97FB991F61F09F3F79F08795B2
:103DA0000895121613061406551FF2CF4695F1DF3B
:103DB00008C0161617061806991FF1CF86957105CB
:103DC000610508940895E894BB2766277727CB01FF
:103DD00097F908956530F1F4FA0180818F7390E0CE
:103DE000982F88272181822B90930A0280930902C1
:103DF0008281F0E48F9FC0011124FA01238126956E
:103E00002695822B909308028093070281E080938D
:103E1000B5130895643051F080E090E49093080267
:103E20008093070290930A028093090208950F93EA
:103E30001F930AEE1EE120E034E244EF50E060E020
:103E400087E2EED79093B7138093B61321E0892BC6
:103E500009F020E0822F1F910F9108958091B613F1
:103E60009091B713009759F040E060E070E00E9435
:103E70006127843031F41092B51380E0089582E018
:103E8000089583E008958091B6139091B713009739
:103E900039F064E00E94AD27853021F083E0089579
:103EA00082E0089580E008956091090270910A020D
:103EB00080E090E00E948B2920E030E048EC52E462
:103EC0000E94F42920E038EF4FE756E40C942029B3
:103ED0000895609107027091080280E090E00E94CE
:103EE0008B2920E030E045E253E40E94F42920E0F1
:103EF00038EF4FE756E40E94202920E030E040E20E
:103F000052E40C94B9280895E4DF20E030E040E268
:103F100051E40E94F42904DFCB0108958091BB1382
:103F2000860F8093BB139091BE13913079F028F0E7
:103F30009230A9F0933019F108956F3F09F048C00D
:103F40001092BB1381E08093BE130895663809F088
:103F50003FC01092BA1382E08093BE130895E0919F
:103F6000BA1381E08E0F8093BA13F0E0E854FC4E50
:103F70006083823069F583E08093BE130895909149
:103F8000BA1321E0290F2093BA13963009F5811155
:103F90000EC0E8EBF3E1808190E0982F8827218123
:103FA000820F911D9093C0138093BF1304C0109291
:103FB000C0131092BF131092BE13E091BC13F09186
:103FC000BD13309729F08091BF139091C0131995BC
:103FD00008958F929F92AF92CF92EF920F930F2EF0
:103FE000FEE88F2EFFE19F2EF02D6894AA24A4F8FE
:103FF0006894CC24C4F8E12C00E023E040E855E2CA
:1040000060E070E073D09093C2138093C1130F915E
:10401000EF90CF90AF909F908F9008959093BD13A5
:104020008093BC130895CF93DF93CDB7DEB7299764
:104030000FB6F894DEBF0FBECDBF89E0E2E2F2E03A
:104040009E012F5F3F4FD90101900D928A95E1F7B4
:104050001092C0131092BF138091C1139091C2139C
:10406000009731F0422F532F69E00FD180E001C05B
:1040700082E029960FB6F894DEBF0FBECDBFDF9168
:10408000CF91089565360CF064E66C390CF46CE958
:1040900096EF6902B00111246854744F811105C074
:1040A0007093290160932801089570932B01609308
:1040B0002A010895EAE0F1E08081886180838FE33E
:1040C0009CE9909327018093260160E080E0DADF8D
:1040D00060E081E0D7DFE0E2F1E08081826A808306
:1040E000E1E2F1E080818A61808308952F923F921E
:1040F0004F925F926F927F928F929F92AF92CF92E8
:10410000EF92FF920F931F93CF93DF93CDB7DEB75C
:10411000F82E2A013B0188E090E00E94A82A8C0139
:104120008F2D90E0FC01EE0FFF1FED53FC4E11832D
:1041300000830115110509F46BC0880F991FFC015C
:10414000E55FFD4F80819181D8018D939C938C2DEB
:1041500090E0880F991F880F991F0E94A82A1C01C0
:1041600086E090E00E94A82A7C014C2DB101E5D7A1
:10417000F801F582E4828A2D90E0880F991F880F5C
:10418000991F0E94A82A1C0186E090E00E94A82A9C
:104190007C014A2DB101D1D7D8011396FC92EE9241
:1041A000129717969C928E921697FFB6F894ED91FF
:1041B000FC91119736978081826080838D909C90CE
:1041C000C301B2010E948B2920E030E040E051E4BD
:1041D0000E94F4299B01AC0160E074E284E79BE457
:1041E0000E94202920E030E040E85FE3C2D79DDD57
:1041F000F40132976083D801ED91FC9111973597C6
:1042000088E98083ED91FC91349786E08083FFBE3E
:10421000C801DF91CF911F910F91FF90EF90CF9048
:10422000AF909F908F907F906F905F904F903F9056
:104230002F900895CF93DF93DC01892B01F1129623
:10424000ED91FC911397938182812581981B922394
:1042500084819817B1F0838126952823C081D1816C
:10426000C20FD11D68838F5F958189238383ED9170
:10427000FC91359780818062808380E003C081E07B
:1042800001C082E0DF91CF910895EF92FF920F93EA
:104290001F93CF93DF937C01009709F441C0DC01A9
:1042A0001296ED91FC91139793818281981B8581E1
:1042B00098238481891B8617A8F1662341F1842FF6
:1042C000952FDC016150462F50E04F5F5F4F480F44
:1042D000591FE701EA81FB81938182812581981B27
:1042E00092238481981779F08C91938126952923C4
:1042F000608171818B01020F111DE80188839F5F2E
:104300008581982393831196A417B50711F7D701D8
:10431000ED91FC91359780818062808380E003C0BD
:1043200081E001C082E0DF91CF911F910F91FF905A
:10433000EF9008950097D1F0DC011496ED91FC9177
:10434000159793818281981799F09281858186953E
:104350008923A081B181A80FB11D8C91DB018C93C1
:104360009F5F85819823928380E0089581E008957E
:1043700083E008951F920F920FB60F9211240BB68F
:104380000F922F933F934F935F936F937F938F93EE
:104390009F93AF93BF93CF93DF93EF93FF93A0913E
:1043A000C313B091C413109711F16091C600149615
:1043B000ED91FC911597938182812581981B922321
:1043C0008481981761F0838126952823C081D1814B
:1043D000C20FD11D68838F5F9581892383831696D1
:1043E000ED91FC911797309711F0CD011995FF9140
:1043F000EF91DF91CF91BF91AF919F918F917F917D
:104400006F915F914F913F912F910F900BBE0F9045
:104410000FBE0F901F9018951F920F920FB60F921C
:1044200011240BB60F922F938F939F93AF93BF934B
:10443000EF93FF93E091C313F091C4133097B9F059
:104440000280F381E02D938182819817B1F09281EF
:104450008581282F26952923A081B181A20FB11D26
:104460002C919F5F892382832093C6000BC0E1ECCF
:10447000F0E080818F7D808305C0E1ECF0E08081F9
:104480008F7D8083FF91EF91BF91AF919F918F912D
:104490002F910F900BBE0F900FBE0F901F9018958D
:1044A0001F920F920FB60F9211240BB60F922F93FB
:1044B0003F934F935F936F937F938F939F93AF93AC
:1044C000BF93CF93DF93EF93FF93A091C513B09168
:1044D000C613109711F16091CE001496ED91FC91E6
:1044E0001597938182812581981B92238481981747
:1044F00061F0838126952823C081D181C20FD11D0F
:1045000068838F5F9581892383831696ED91FC9153
:104510001797309711F0CD011995FF91EF91DF9129
:10452000CF91BF91AF919F918F917F916F915F914B
:104530004F913F912F910F900BBE0F900FBE0F9098
:104540001F9018951F920F920FB60F9211240BB661
:104550000F922F938F939F93AF93BF93EF93FF93FC
:10456000E091C513F091C6133097B9F00280F38142
:10457000E02D938182819817B1F092818581282F57
:1045800026952923A081B181A20FB11D2C919F5F97
:10459000892382832093CE000BC0E9ECF0E0808178
:1045A0008F7D808305C0E9ECF0E080818F7D808382
:1045B000FF91EF91BF91AF919F918F912F910F90AC
:1045C0000BBE0F900FBE0F901F9018951F920F9269
:1045D0000FB60F9211240BB60F922F933F934F9368
:1045E0005F936F937F938F939F93AF93BF93CF937B
:1045F000DF93EF93FF93A091C713B091C813109767
:1046000011F16091D6001496ED91FC91159793816C
:1046100082812581981B92238481981761F0838180
:1046200026952823C081D181C20FD11D68838F5F59
:104630009581892383831696ED91FC911797309786
:1046400011F0CD011995FF91EF91DF91CF91BF91BD
:10465000AF919F918F917F916F915F914F913F911A
:104660002F910F900BBE0F900FBE0F901F901895BB
:104670001F920F920FB60F9211240BB60F922F9329
:104680008F939F93AF93BF93EF93FF93E091C713E3
:10469000F091C8133097B9F00280F381E02D938137
:1046A00082819817B1F092818581282F2695292340
:1046B000A081B181A20FB11D2C919F5F89238283BC
:1046C0002093D6000BC0E1EDF0E080818F7D8083E8
:1046D00005C0E1EDF0E080818F7D8083FF91EF9157
:1046E000BF91AF919F918F912F910F900BBE0F9023
:1046F0000FBE0F901F9018951F920F920FB60F923A
:1047000011240BB60F922F933F934F935F936F93A8
:104710007F938F939F93AF93BF93CF93DF93EF9349
:10472000FF93A091C913B091CA13109711F1609132
:1047300036011496ED91FC91159793818281258124
:10474000981B92238481981761F0838126952823F2
:10475000C081D181C20FD11D68838F5F958189236C
:1047600083831696ED91FC911797309711F0CD0148
:104770001995FF91EF91DF91CF91BF91AF919F91EB
:104780008F917F916F915F914F913F912F910F90FA
:104790000BBE0F900FBE0F901F9018951F920F9297
:1047A0000FB60F9211240BB60F922F938F939F93F6
:1047B000AF93BF93EF93FF93E091C913F091CA13A6
:1047C0003097B9F00280F381E02D938182819817B0
:1047D000B1F092818581282F26952923A081B1816E
:1047E000A20FB11D2C919F5F8923828320933601F4
:1047F0000BC0E1E3F1E080818F7D808305C0E1E3C0
:10480000F1E080818F7D8083FF91EF91BF91AF9127
:104810009F918F912F910F900BBE0F900FBE0F9015
:104820001F901895CF93DF931F92CDB7DEB7BE01CF
:104830006F5F7F4F8091CB139091CC137BDD811103
:10484000F6CF898190E00F90DF91CF910895682F86
:104850008091CB139091CC13EDDC80E090E0089533
:104860008F929F92AF92CF92EF920F93812C912CC7
:104870006894AA24A7F86894CC24C7F8E12C00E037
:1048800023E040E051EE60E070E030DC9093CC1328
:104890008093CB13E6E3F4E183E192E0918380839C
:1048A000938382830F91EF90CF90AF909F908F90E2
:1048B000089590E0FC01EE0FFF1FE80FF91FEE0FC7
:1048C000FF1FE353FC4E238121111FC09C01220FC7
:1048D000331FF901E80FF91FEE0FFF1FE353FC4EE2
:1048E000A081B1814C91F901E80FF91FEE0FFF1F74
:1048F000E353FC4E81E090E0028002C0880F991FD4
:104900000A94E2F7842B8C930895FC01EE0FFF1FAD
:10491000DF01A80FB91FAA0FBB1FA353BC4E0D90F8
:10492000BC91A02D2C91E80FF91FEE0FFF1FE35350
:10493000FC4E81E090E0028002C0880F991F0A942B
:10494000E2F7809582238C93089590E0FC01EE0FAE
:10495000FF1FE80FF91FEE0FFF1FE353FC4E2381EB
:10496000211120C09C01220F331FF901E80FF91F0C
:10497000EE0FFF1FE353FC4EA081B1814C91F90172
:10498000E80FF91FEE0FFF1FE353FC4E81E090E0AC
:10499000028002C0880F991F0A94E2F78095842351
:1049A0008C930895FC01EE0FFF1FDF01A80FB91FC4
:1049B000AA0FBB1FA353BC4E0D90BC91A02D2C91F0
:1049C000E80FF91FEE0FFF1FE353FC4E81E090E06C
:1049D000028002C0880F991F0A94E2F7822B8C9301
:1049E0000895CC24C394D12C6894BB24B2F8CDECA8
:1049F000D3E110E08C81813081F018F1823061F5D3
:104A0000E881F9812081C6010A8002C0880F991FC0
:104A10000A94E2F7822780831FC08D818F5F8630E2
:104A200010F48D8319C01D82E881F9812081C601AF
:104A30000A8002C0880F991F0A94E2F782278083B8
:104A40000BC00D81002329F0812F7FDF01500D83E2
:104A500003C0BC82812F2DDF1F5F2696143051F6D4
:104A60006CE070E080E090E00E941E15C0CFEF92F5
:104A7000FF920F931F93CF93DF93082F80E487B9A2
:104A8000CDECD3E10F2EF8E2EF2EF12CF02DF982D0
:104A9000E88286E08A831B8214E01C8380E009DFC1
:104AA00080E887B9FF82EE8287E0888719861A87B7
:104AB00081E0FFDE80E283BB84E390E09D878C870A
:104AC00085E08E871F86188B82E0F3DE80E180937D
:104AD000010182E091E09B8B8A8B1C8B1D8A1E8BCF
:104AE00083E0E7DEE12CF12C20E030E040EC50E008
:104AF0006BE075E081EF94E20E941912DF91CF9193
:104B00001F910F91FF90EF900895E091ED13F091B8
:104B1000EE13309709F0199508956450623008F04B
:104B20003BC02091EC13223079F018F4213031F0A1
:104B300030C0233081F02430A1F02BC022E020933C
:104B4000EC1361E00AC20895FA0180818093E913B1
:104B500082E0DBCF089524E02093EC1364E0FDC1F4
:104B60000895FA01818190E0982F88272081822B77
:104B70009093E8138093E713838190E0982F882720
:104B80002281822B9093E6138093E51381E0BDCFC1
:104B9000089580E0BACF08951092EC1386E0B5CF67
:104BA00008952091EF133091F0132115310541F054
:104BB000462FBC01C90185D1823021F080E00895E3
:104BC00087E0089585E008950F931F939093EE1367
:104BD0008093ED130DE815E220E034E244EF50E05D
:104BE00060E089E21DD19093F0138093EF13892B3D
:104BF00011F080E001C088E01F910F910895CF93DC
:104C0000DF931F921F92CDB7DEB780EA898383E0DE
:104C10008A831092EC1362E0CE010196C2DF0F90FE
:104C20000F90DF91CF910895CF93DF931F92CDB76F
:104C3000DEB784EB898383E08093EC1361E0CE01DF
:104C40000196AFDF0F90DF91CF9108952F923F92A1
:104C50004F925F926F927F928F929F92AF92BF928C
:104C6000CF92DF92EF92FF920F931F93CF93DF9338
:104C7000C091E513D091E613CF3F2FEFD20741F05B
:104C80006091E7137091E8136F3FEFEF7E0759F4DF
:104C90004FEF5FEF6FE77FE7FC0140835183628353
:104CA000738383E099C01C0180E090E034D32B0132
:104CB0003C01BE0180E090E02ED34B015C0180916D
:104CC000EA1390E0019624E6289FB001299F700D19
:104CD00011248091EB13803269F08033A1F0803190
:104CE000E1F40F2EC12CD12CF8ECEF2EF1E4FF2EC5
:104CF000F02D1BC00F2EC12CD12CF6EDEF2EF3E4BE
:104D0000FF2EF02D12C00F2EC12CF0E5DF2EFAE1A0
:104D1000EF2EF6E4FF2EF02D08C00F2EC12CD12C63
:104D2000F0E8EF2EFFE3FF2EF02D072E000C880B8E
:104D3000990BF3D2A701960157D320E030E04CEC59
:104D400053E47ED26B017C0125E83BEE41ED5FE34D
:104D5000C501B40149D39B01AC01C301B20109D221
:104D6000A70196016DD2162FD72FC82F092F2DE33B
:104D70003AE047E15FE3C301B20136D32B013C01C6
:104D800026EF38E24CE55FE3C501B4012DD39B016A
:104D9000AC01C301B201EDD1A701960151D2C62EDB
:104DA000D72EE82EF92E262F372F482F592F612F77
:104DB0007D2F8C2F902F14D3181624F01C2DDD2D51
:104DC000CE2D0F2D412F5D2F6C2F702FF1014083C1
:104DD00051836283738380E0DF91CF911F910F91A4
:104DE000FF90EF90DF90CF90BF90AF909F908F900B
:104DF0007F906F905F904F903F902F90089580919B
:104E0000FF1381110CC08CE08093B8008FEF80936A
:104E1000BB0084E08093BC0081E08093FF13089581
:104E2000AF92BF92CF92DF92EF92FF920F931F93B8
:104E3000CF93DF93A82EB62E69017A0184E090E02B
:104E400087D3EC01892B61F1A88281E0B81212C0EE
:104E5000C701B60120EA36E841E050E04FD3DA015D
:104E6000C9014097A109B109B695A795979587956E
:104E7000898311C0C701B60120E83AE146E050E05D
:104E80003DD3DA01C9014097A109B109B695A795AB
:104E90009795879589831B830A838C2F9D2F02C04A
:104EA00080E090E0DF91CF911F910F91FF90EF9004
:104EB000DF90CF90BF90AF9008958091BC0081703B
:104EC0000895FF920F931F93CF93DF930097D1F133
:104ED0004A30D0F5F42E8B01EC01EFDF811136C0A2
:104EE0008091F2139091F313C817D90741F087DF2F
:104EF00089818093B800D093F313C093F21381E0BB
:104F00008F0D8093F4138881880F8093F513FF2011
:104F100089F0F801A6EFB3E14FEF4F0D642F70E079
:104F2000CB010196B801680F791F81918D93E61727
:104F3000F707D9F788EF8093210285EA8093BC00B8
:104F400084E005C086E003C087E001C082E0DF9115
:104F5000CF911F910F91FF9008951F93CF93DF93EF
:104F6000009729F16B3028F5162FEC01A6DF81118F
:104F700022C08091F2139091F313C817D90741F022
:104F80003EDF89818093B800D093F313C093F2136E
:104F90001093F4138881880F81608093F51388EF54
:104FA0008093210285EA8093BC0085E005C086E0FD
:104FB00003C087E001C082E0DF91CF911F91089587
:104FC0001F920F920FB60F9211240BB60F922F93D0
:104FD0003F934F935F936F937F938F939F93AF9381
:104FE000BF93EF93FF93E091B9008E2F90E0FC0107
:104FF0003897E135F10508F075C08827E458FF4F70
:105000008F4F9EC21092F113E091F1138091F4132F
:10501000E81770F481E08E0F8093F113F0E0EB500D
:10502000FC4E80818093BB0085E88093BC0072C0F9
:1050300084E98093BC008091F2139091F313DC011A
:105040001296ED91FC911397309709F463C020E01C
:1050500040E050E064E019955DC0E091F11381E01B
:105060008E0F8093F1138091BB00F0E0EB50FC4E6B
:1050700080838091B900803411F41092F113209153
:10508000F11330E08091F41390E00197281739076D
:1050900024F485EC8093BC003DC085E88093BC007F
:1050A00039C08091BB00E091F113F0E0EB50FC4E71
:1050B000808384E98093BC008091F2139091F31374
:1050C000DC011296ED91FC911397309719F1209124
:1050D000F41345EF53E165E019951CC085EA809310
:1050E000BC0018C08091B9008093210284E08093B5
:1050F000BC008091F2139091F313DC011296ED91B4
:10510000FC911397309731F020E040E050E060913F
:1051100021021995FF91EF91BF91AF919F918F91CE
:105120007F916F915F914F913F912F910F900BBEA7
:105130000F900FBE0F901F901895FC01411101C0F8
:1051400028D3842F90E09C0121503109822393239E
:10515000892B09F01ED3413808F01BD31282138229
:105160004483440F415045837183608380E090E025
:1051700008955058BB27AA270ED021C112D130F074
:1051800017D120F031F49F3F11F41EF407C10EF443
:10519000E095E7FBFDC0E92F0E94C11E78F3BA1726
:1051A000620773078407950720F079F4A6F50C943D
:1051B000E31E0EF4E0950B2EBA2FA02D0B01B901C2
:1051C00090010C01CA01A0011124FF27591B99F07D
:1051D000593F50F4503E68F11A16F040A22F232F89
:1051E000342F4427585FF3CF469537952795A795D9
:1051F000F0405395C9F77EF41F16BA0B620B730B80
:10520000840BBAF09150A1F0FF0FBB1F661F771FF0
:10521000881FC2F70EC0BA0F621F731F841F48F4A5
:10522000879577956795B795F7959E3F08F0B1CF2D
:105230009395880F08F09927EE0F97958795089515
:105240000DD0BDC0B5D048F0ACD038F021F45F3FF0
:1052500021F09EC051110C94E41EA0C00E94C11EFA
:1052600088F39923B9F35523A1F3951B550BBB275D
:10527000AA2762177307840738F09F5F5F4F220FDA
:10528000331F441FAA1FA9F334D00E2E3AF0E0E8D2
:1052900031D091505040E695001CCAF72AD0FE2F1D
:1052A00028D0660F771F881FBB1F261737074807B0
:1052B000AB07B0E809F0BB0B802DBF01FF27935867
:1052C0005F4F32F09E3F510570F062C00C94E41EB7
:1052D0005F3FE4F3983ED4F3869577956795B7954D
:1052E000F7959F5FC9F7880F911D9695879597F958
:1052F0000895E1E0660F771F881FBB1F62177307D1
:105300008407BA0720F0621B730B840BBA0BEE1FE5
:1053100088F7E0950895E89409C097FB3EF49095CE
:105320008095709561957F4F8F4F9F4F9923A9F07E
:10533000F92F96E9BB279395F6958795779567950D
:10534000B795F111F8CFFAF4BB0F11F460FF1BC051
:105350006F5F7F4F8F4F9F4F16C0882311F096E9E4
:1053600011C0772321F09EE8872F762F05C0662392
:1053700071F096E8862F70E060E02AF09A95660F4B
:10538000771F881FDAF7880F9695879597F9089504
:1053900097F99F6780E870E060E008959FEF80ECE8
:1053A000089500240A94161617061806090608958B
:1053B00000240A9412161306140605060895092EF1
:1053C0000394000C11F4882352F0BB0F40F4BF2B60
:1053D00011F460FF04C06F5F7F4F8F4F9F4F0895A0
:1053E00069D008F48FEF08950CD0E9CFDADF28F008
:1053F000DFDF18F0952309F0CBCFD0CF11240C9428
:10540000E41E0E94C11E90F3959FC1F3950F50E0DA
:10541000551F629FF001729FBB27F00DB11D639F66
:10542000AA27F00DB11DAA1F649F6627B00DA11D0C
:10543000661F829F2227B00DA11D621F739FB00DB2
:10544000A11D621F839FA00D611D221F749F332722
:10545000A00D611D231F849F600D211D822F762FBB
:105460006A2F11249F57504092F0E9F088234AF0A8
:10547000EE0FFF1FBB1F661F771F881F9150504004
:10548000A9F79E3F510578F083CF0C94E41E5F3F4F
:10549000E4F3983ED4F3869577956795B795F7959D
:1054A000E7959F5FC1F7FE2B880F911D9695879515
:1054B00097F90895990F0008550FAA0BE0E8FEEF41
:1054C00016161706E807F907C0F012161306E407C8
:1054D000F50798F0621B730B840B950B39F40A26C1
:1054E00061F0232B242B252B21F408950A2609F49F
:1054F000A140A6958FEF811D811D0895A1E21A2E6E
:10550000AA1BBB1BFD010DC0AA1FBB1FEE1FFF1F67
:10551000A217B307E407F50720F0A21BB30BE40BB7
:10552000F50B661F771F881F991F1A9469F76095FE
:105530007095809590959B01AC01BD01CF010895B8
:10554000EE0FFF1F881F8BBF0790F691E02D199477
:105550000F931F93CF93DF938230910510F482E075
:1055600090E0E0913414F091351420E030E0A0E0B8
:10557000B0E0309719F140815181028113814817C1
:105580005907C8F08417950769F4109731F01296FF
:105590000C93129713961C9327C000933414109306
:1055A000351422C02115310519F04217530718F49C
:1055B0009A01BD01EF01DF01F801DBCF21153105B3
:1055C000F9F0281B390B2430310580F48A819B8146
:1055D0006115710521F0FB019383828304C09093D0
:1055E000351480933414FE01329644C0FE01E20F5C
:1055F000F31F8193919322503109398328833AC054
:105600002091321430913314232B41F42091020263
:10561000309103023093331420933214209100020E
:10562000309101022115310541F42DB73EB740916B
:10563000040250910502241B350BE0913214F091C5
:105640003314E217F307A0F42E1B3F0B281739077A
:1056500078F0AC014E5F5F4F2417350748F04E0FCE
:105660005F1F50933314409332148193919302C07F
:10567000E0E0F0E0CF01DF91CF911F910F9108950D
:10568000CF93DF93009709F481C0FC013297138216
:105690001282A0913414B0913514109781F42081B6
:1056A0003181820F931F20913214309133142817C7
:1056B000390751F5F0933314E093321467C0ED01CC
:1056C00020E030E0CE17DF0740F44A815B819E0185
:1056D00041155105F1F0EA01F5CFD383C283408132
:1056E0005181840F951FC817D90759F48881998172
:1056F000840F951F0296918380838A819B81938377
:1057000082832115310529F4F0933514E093341484
:105710003DC0E901FB83EA8349915991C40FD51F2C
:10572000EC17FD0761F480819181840F951F02962B
:10573000E90199838883828193819B838A83E0E056
:10574000F0E012968D919C911397009719F0FD014E
:10575000DC01F7CF8D919C9111979D012E5F3F4FFA
:10576000820F931F20913214309133142817390778
:1057700069F4309729F4109235141092341402C051
:1057800013821282B0933314A0933214DF91CF911D
:10579000089581E090E0F89400C3FB01DC0102C0B1
:1057A00001900D9241505040D8F70895DC0101C09E
:1057B0006D9341505040E0F70895CF93DF93CDB7FC
:1057C000DEB7AE014A5F5F4FFA0161917191AF019F
:1057D000809138149091391433D0DF91CF9108958E
:1057E0000F931F93CF93DF93E0913814F091391406
:1057F000238121FF1BC08C01D0E0C0E0F801819122
:105800008F016091381470913914DB011896ED9175
:10581000FC911997882331F01995892B79F3DFEFE3
:10582000CFEFECCF8AE01995892B19F08FEF9FEF1E
:1058300002C08D2F9C2FDF91CF911F910F91089562
:105840002F923F924F925F926F927F928F929F9290
:10585000AF92BF92CF92DF92EF92FF920F931F937E
:10586000CF93DF93CDB7DEB72B970FB6F894DEBF9B
:105870000FBECDBF6C017B018A01FC01178216822D
:10588000838181FFBFC1CE0101963C01F601938166
:10589000F70193FD859193FF81917F01882309F49E
:1058A000ADC1853239F493FD859193FF81917F01DC
:1058B000853221F4B60190E0D6D1E8CF912C212C8D
:1058C000312CFFE1F315D8F08B3279F038F48032C7
:1058D00079F08332A1F4232D20611DC08D3261F057
:1058E000803369F4232D216016C0832D8260382E09
:1058F000E32DE4603E2E2AC0F32DF8601DC037FC76
:105900002DC020ED280F2A3040F08E32B9F436FC3D
:1059100075C1232D2064322E19C036FE06C08AE0E0
:10592000989E200D1124922E11C0EAE02E9E200D8B
:105930001124222EF32DF0623F2E08C08C3621F464
:10594000832D8068382E02C0883641F4F70193FD1C
:10595000859193FF81917F018111B3CF982F9F7D16
:105960009554933028F40C5F1F4F9FE399830DC02B
:10597000833631F0833771F0833509F055C020C08C
:10598000F801808189830E5F1F4F88248394912CB6
:10599000530112C02801F2E04F0E511CF801A08003
:1059A000B18036FE03C0692D70E002C06FEF7FEF5B
:1059B000C5014ED14C018201F32DFF773F2E15C05A
:1059C000280122E0420E511CF801A080B18036FE71
:1059D00003C0692D70E002C06FEF7FEFC5012DD1CC
:1059E0004C01F32DF0683F2E820133FC19C0822D4B
:1059F00090E088169906A0F4B60180E290E033D1D9
:105A00002A94F5CFF50137FC859137FE81915F012E
:105A1000B60190E028D121102A9421E0821A910841
:105A20008114910479F7E1C0843611F0893639F593
:105A3000F80137FE07C060817181828193810C5F1C
:105A40001F4F08C060817181072E000C880B990BD5
:105A50000E5F1F4FF32DFF763F2E97FF09C09095E5
:105A60008095709561957F4F8F4F9F4FF0683F2EC7
:105A70002AE030E0A30133D1882E861844C0853750
:105A800031F4232D2F7EB22E2AE030E025C0932D55
:105A9000997FB92E8F36C1F018F4883579F0AEC0F1
:105AA000803719F0883721F0A9C0E92FE061BE2EB8
:105AB000B4FE0DC0FB2DF460BF2E09C034FE0AC039
:105AC000292F2660B22E06C028E030E005C020E174
:105AD00030E002C020E132E0F801B7FE07C060818B
