:10000000E6C0000004C1000002C1000000C1000001
:10001000FEC00000FCC00000FAC00000F8C00000F4
:10002000F6C00000F4C00000F2C00000F0C0000004
:100030000C94C20CECC00000EAC00000E8C0000054
:10004000E6C00000E4C00000E2C00000E0C0000024
:10005000DEC000000C94AE24DAC00000D8C000005E
:100060000C9483300C945F2C0C94B12CD0C0000005
:10007000CEC00000CCC00000CAC00000C8C0000054
:10008000C6C00000C4C00000C2C00000C0C0000064
:100090000C94F52C0C94472DBAC000000C941B3521
:1000A000B6C00000B4C00000B2C00000B0C0000084
:1000B000AEC00000ACC00000AAC00000A8C0000094
:1000C000A6C00000A4C00000A2C000000C948B2DAC
:1000D0000C94DD2D9CC000000C94212E0C94732EEA
:1000E00096C000009C229C229C22D322DB22F0227C
:1000F0009C229C22D322DB223D35AD35AD35AD357A
:10010000AD35AD35AD35AD353D35AD35AD35AD354F
:10011000AD35AD35AD35AD353F35AD35AD35AD353D
:10012000AD35AD35AD35AD35AD35AD35AD35AD35BF
:10013000AD35AD35AD35AD353F35AD35AD35AD351D
:10014000AD35AD35AD35AD35AD35AD35AD35AD359F
:10015000AD35AD35AD35AD35A935AD35AD35AD3593
:10016000AD35AD35AD35AD357435AD35AD35AD35B8
:10017000AD35AD35AD35AD35AD35AD35AD35AD356F
:10018000AD35AD35AD35AD356835AD35AD35AD35A4
:10019000AD35AD35AD35AD358C350E94DD14809172
:1001A000F516823010F00E94FC0B0E941923F5CF47
:1001B000CF93DF931F92CDB7DEB7CE0101960E9499
:1001C000192049810E940E220E946522F6CF112437
:1001D0001FBECFEFD1E2DEBFCDBF00E00CBF18E005
:1001E000A0E0B2E0EEECF9E700E00BBF02C0079040
:1001F0000D92A63EB107D9F729E1A6EEB8E001C0FD
:100200001D92A036B207E1F700D30C94E53CF8CE7E
:1002100040E064E084E00E94F10D9093FB1880932D
:10022000FA18892B21F08FE692E00C949E390895FC
:100230000F93CF93DF9300D01F92CDB7DEB76983C2
:100240007A838B839C8300E024E630E040E050E03A
:10025000BE016F5F7F4F8091FA189091FB180E944A
:10026000140E813021F086E792E00E949E390F90B3
:100270000F900F900F90DF91CF910F910895CF9332
:10028000DF9300D01F92CDB7DEB72AE030E040E028
:1002900050E0BE016F5F7F4F8091FA189091FB187C
:1002A0000E94FF0E813021F085E090E09C838B83DB
:1002B00069817A818B819C810F900F900F900F90B4
:1002C000DF91CF9108959093FD188093FC180895C5
:1002D0008091FC189091FD18089581E00E94B80E5D
:1002E0009093FF188093FE18892B29F08FE792E0F6
:1002F0000C949E39089588E892E00C949E390895F4
:10030000FF920F931F93CF93DF93CDB7DEB7649720
:100310000FB6F894DEBF0FBECDBF81E00E94232749
:1003200062E070E080E090E00E94A91880E00E9406
:10033000232766E970E080E090E00E94A9180E94FF
:10034000DC260E9431270E94AF28CE0101960E9430
:100350004327CE0101960E945F27AE014F5F5F4F9A
:1003600066E972E087EB92E00E948D290E94922755
:1003700081E00E948C2888EC90E00E94972882E01F
:100380000E944A321AE082E090E00E94FD37F82E87
:10039000092F1F921F9383E397E09F938F931F92E0
:1003A00082E08F930F93FF920E94CE398F2D902F72
:1003B0000E94B1238F2D902F0E94953880E00E94DB
:1003C0009827082F0E94AE299F938F931F921F9307
:1003D00088EC92E09F938F930E948B390FB6F8942C
:1003E000DEBF0FBECDBF083059F080E00E94AE32B4
:1003F00066E371E080E090E00E94A918115019F6C0
:10040000083089F487EE92E00E94B12381E00E94D7
:10041000903280E00E949F3287E090E0A5D082E099
:100420000E949F320EC081E00E949F320E94592498
:1004300080E00E946D3282E00E949F320E94FC0B9D
:10044000FDCF64960FB6F894DEBF0FBECDBFDF912F
:10045000CF911F910F91FF90089580910419909171
:1004600005190895809100199091011908958091BE
:10047000021990910319089557D690930519809306
:100480000419892B49F48CEE92E09F938F930E947C
:100490008B390F900F9004C08FEF92E00E949E392D
:1004A00043D69093011980930019892B49F48CEE5F
:1004B00092E09F938F930E948B390F900F9004C00E
:1004C00082E193E00E949E392FD690930319809386
:1004D0000219892B49F48CEE92E09F938F930E942E
:1004E0008B390F900F90089581E293E00C949E3920
:1004F000089581E090E008C0FC01EE0FFF1FEA5E66
:10050000F64E11821082019688309105ACF381E09D
:1005100090E09093171980931619A4DF4EEF50E0E6
:1005200060E070E0B4D681E393E00C949E390895C6
:10053000CF93DF9341E050E0EA0102C0CC0FDD1F12
:100540008A95E2F78FDFAE01DD0F660B770B9FD642
:10055000DF91CF910895FC01EE0FFF1FEA5EF64E8A
:1005600011821082E5CF0895FC01EE0FFF1FEA5EB5
:10057000F64E21E030E031832083DACF0895FC018C
:10058000EE0FFF1FEA5EF64E2081318121303105EA
:1005900009F45AC024F4232B09F46CC008952230C6
:1005A000310521F02330310541F10895FC01EE0FB2
:1005B000FF1FEA5FF64E20813181223031059CF029
:1005C00042B121E030E0082E02C0220F331F0A940E
:1005D000E2F7242722B9880F991FFC01EA5FF64E43
:1005E000118210820895880F991FFC01EA5FF64E70
:1005F0002F5F3F4F318320830895FC01EE0FFF1FD3
:10060000EA5FF64E20813181121613069CF442B146
:1006100021E030E0082E02C0220F331F0A94E2F7D7
:10062000242722B9880F991FFC01EA5FF64E118238
:1006300010820895880F991FFC01EA5FF64E2F5F24
:100640003F4F31832083089542B121E030E0082EEE
:1006500002C0220F331F0A94E2F72095242322B907
:10066000880F991FFC01EA5EF64E8FEF9FEF918392
:100670008083089542B121E030E0082E02C0220FAD
:10068000331F0A94E2F7242B22B9880F991FFC012B
:10069000EA5EF64E8FEF9FEF91838083089529DF06
:1006A000E1DE0F2EF5EBCF2EDD24D394E12CF12CDF
:1006B000F02D00E021E04EEF50E060E070E047D523
:1006C000C62F61FF03C081E090E059DFC2FF03C085
:1006D00082E090E054DFC3FF03C083E090E04FDF8F
:1006E000C4FF03C084E090E04ADFC5FF03C085E09B
:1006F00090E045DFC6FF03C086E090E040DFC7FF23
:10070000CFCF87E090E03BDFCBCFEF92FF920F930C
:10071000E12CF12C02E020E030E046E551E068E316
:1007200073E08BE694E00E94A41501E020E030E045
:1007300040EC50E064E473E08FEA96E00E94A41578
:1007400020E030E040EC50E06CE473E081E997E0B9
:100750000E94A41520E030E040EC50E068E573E032
:100760008FE397E00E94A41520E030E040EC50E0D9
:1007700060E673E083E098E00E94A41502E020E0C8
:1007800030E040EC50E06AE673E088E596E00E94D5
:10079000A41520E030E040EC50E065E773E08CE722
:1007A00095E00E94A41520E030E040EC50E062E8C3
:1007B00073E08FE493E00E94A4150F91FF90EF90F7
:1007C000089580E00E94D52E81B18FEF81B985E038
:1007D0000E94FC3180E090E00E9470240C9465241B
:1007E0000895EFDF7ADD0CD447DE8AD324D03FD3DF
:1007F000AAD28BDF0DDD1AD0BC0181E00E94E32676
:1008000081E993E00C949E390895EBDF0E94F01586
:1008100089E993E09F938F930E948B390F900F90FB
:10082000F7CF809126199091271908958091281962
:1008300090912919089541E060E070E088E190E02E
:100840000E949E11909327198093261941E060E041
:1008500070E088E190E00E949E11909329198093A6
:1008600028198091261990912719892B29F48FE94D
:1008700093E00C949E3908958EEA93E00C949E398F
:100880000895E0E3F9E128E0218322E0208320912C
:100890002E1930912F1932832383209146193091DC
:1008A00047193483258320912C1930912D193683D3
:1008B000278320912A1930912B193087218726E12F
:1008C000DC0101900D922A95E1F7089580E00E94E5
:1008D000903216CD0895CF93DF93CDB7DEB7E09772
:1008E0000FB6F894DEBF0FBECDBFF0DF0E942E160C
:1008F00069837A838B839C8387EB93E00E94B12387
:1009000082E090E031DE81E090E02EDE8CEB93E03F
:100910000E949E39A2DD41E050E060E070E0B7D473
:10092000A6DD0F2EFCE0CF2ED12CE12CF12CF02DEA
:1009300000E021E041E050E060E070E008D4672B87
:10094000682B692B21F08EEC93E00E949E3980EE9B
:1009500093E00E949E3981DD42E050E060E070E06B
:1009600096D485DD0F2EFCE0CF2ED12CE12CF12C7E
:10097000F02D00E021E042E050E060E070E0E7D3DD
:10098000672B682B692B21F082EF93E00E949E3940
:1009900080E094E00E949E3960DD44E050E060E039
:1009A00070E075D464DD0F2EFCE0CF2ED12CE12C4D
:1009B000F12CF02D00E021E044E050E060E070E038
:1009C000C6D3672B682B692B21F082E194E00E944B
:1009D0009E3980E294E00E949E3982E090E0BBDD87
:1009E0008DE394E00E94B1234ADC6B017C0164E654
:1009F00070E080E090E00E94A918C7018530910561
:100A0000D1F18230910599F01CF4019739F02AC098
:100A100083309105F1F0049799F024C0D0922D19FC
:100A2000C0922C1982E494E00E949E391FC0D0929B
:100A30002F19C0922E198AE494E00E949E3916C0A4
:100A4000D0922B19C0922A1982E594E00E949E3917
:100A50000DC0D0924719C09246198AE594E00E94D1
:100A60009E3904C083E694E00E949E3985E0E81632
:100A7000F10409F0B9CF8BE694E00E949E39CE01D3
:100A80004B96FFDE86E1FE017B96DE011596019016
:100A90000D928A95E1F764EF71E080E090E00E94AA
:100AA000A918BFDE08EE13E020E030E046E150E098
:100AB000BE016B5F7F4F0E940012469721F084E8D1
:100AC00094E00E949E398DE994E00E949E3981E075
:100AD00090E041DD87EE92E00E94B12346EA5EE0BD
:100AE00060E070E0CE0101960E94441805CF82EBD1
:100AF00094E00C949E390895CF93DF93CDB7DEB781
:100B000066970FB6F894DEBF0FBECDBFF0DF8EDE66
:100B100009E114E620E030E046E150E0BE016F5FFD
:100B20007F4F0E9409130FB6F8940F92469709F071
:100B300054C083E00E946D3281E00E94AE3288EBA7
:100B400094E00E94B1238DEB94E00E949E398B814A
:100B500090E0909349198093481981E090E0909338
:100B60004B1980934A198A811F928F9383E397E0F0
:100B70009F938F930E948B390F900F900F900F903F
:100B800000E010E015C0E3E0F0E0EC0FFD1FE00F27
:100B9000F11F80811F928F938EEC94E09F938F932F
:100BA0000E948B390F5F1F4F0F900F900F900F9087
:100BB0008A8190E00817190734F3809149198F93BF
:100BC000809148198F9385EC94E09F938F930E94B6
:100BD0008B390F900F900F900F9080914A19909140
:100BE0004B19019709F05CC08091FE189091FF1895
:100BF000009709F44DC044EF51E060E070E00E94BE
:100C00008E0F813009F03BC08091481990914919AD
:100C10008456910958DB00E020E030E0A90160E053
:100C200070E08091FE189091FF18FED782ED94E05D
:100C30000E949E3912DC48E050E060E070E027D36B
:100C400016DC0F2EFEE3CF2ED12CE12CF12CF02D53
:100C500021E042E050E060E070E079D26EE370E0C5
:100C600080E090E00E94A91888EB94E00E94B123F4
:100C700083E00E949F3281E00E94903209C08FEE93
:100C800094E00E949E390E94592483E00E949F3282
:100C900010924B1910924A1986E095E00E94B123F8
:100CA0000F900FBE34CF8BE095E00C949E390895E1
:100CB000CF93DF93CDB7DEB766970FB6F894DEBF5C
:100CC0000FBECDBFF0DFADDD0AE816E620E030E074
:100CD00046E150E0BE016F5F7F4F0E9409134697C7
:100CE00091F781E195E00E94B12382E00E946D328C
:100CF00086E195E00E949E39BE016F5F7F4F80E0E4
:100D00000E94C1270E94AE299F938F9380E295E0B5
:100D10009F938F930E948B3987EE92E00E94B123BC
:100D200082E00E949F320F900F900F900F90CBCFD8
:100D300090934E1980934D1981E090E09093E708CD
:100D40008093E60808958BE295E00E949E3983E047
:100D50000E948A2A88E996E00C94AF2A089510929E
:100D6000E7081092E60879DB0F2EF7E3CF2EFFE5B8
:100D7000DF2EE12CF12CF02D01E021E041E050E0EC
:100D800060E070E0E4D1C62F83E090E0EDDBC0FFCF
:100D900035C083E395E00E949E390E94B42A809377
:100DA0004C19882359F084E495E00E949E3906C0CE
:100DB00062E370E080E090E00E94A9188091E6086C
:100DC0009091E708892BA1F3AA24A394B12C8090D9
:100DD0004D1990904E19C501B4012ADA80914E192F
:100DE0008F9380914D198F9382E595E09F938F9318
:100DF0000E948B390F900F900F900F9083E090E03E
:100E0000AADBADCFCF93DF9300D01F92CDB7DEB773
:100E10008130B1F4CE0101960E94613369817A81FB
:100E20008B819C810E943D237F936F938BE595E09E
:100E30009F938F930E948B390F900F900F900F907C
:100E400069817A818B819C810E9442237093501921
:100E500060934F1981E090E09093E7088093E60853
:100E60000F900F900F900F90DF91CF91089582E037
:100E700097E00C941F3308950C943A330895FCDFE7
:100E8000ECDA0F2EF6ECCF2EFCE5DF2EE12CF12C68
:100E9000F02D01E021E044E050E060E070E057D147
:100EA000C62F85E090E060DBC2FF26C084E695E0B7
:100EB0000E949E390E944F33882349F00E94592492
:100EC00006C062E370E080E090E00E94A918809183
:100ED000E6089091E708892BA1F36894AA24A2F868
:100EE000B12C80904F1990905019C501B401A0D930
:100EF0001092E7081092E60885E090E02CDBC0CF66
:100F00000E944C25811104C080E795E00E949E3923
:100F10000E946425882321F088E795E00C949E398F
:100F200008959BDA0F2EF5E5CF2EFAE5DF2EE12CA2
:100F3000F12CF02D01E021E042E050E060E070E0B3
:100F400006D1C62F84E090E00FDBC1FF55C083E8D7
:100F500095E00E949E390E947925882321F084E93A
:100F600095E00E949E3964E170E080E090E00E948C
:100F7000A9180E94BA2590935419809353190F2EE3
:100F8000F3E0AF2EB12CF02D4C01C501B40150D9C6
:100F900062E370E080E090E00E94A9180E948A2538
:100FA0000E94422370935219609351196894AA24A5
:100FB000A1F8B12C4B01C501B4013AD962E370E04C
:100FC00080E090E00E94A918809152198F9380913F
:100FD00051198F93809154198F93809153198F9346
:100FE00083EA95E09F938F930E948B390F900F9027
:100FF0000F900F900F900F9084E090E0ACDA91CFBB
:101000000C94FB2A0895CF93DF9300D0CDB7DEB7C1
:1010100024DA0F2EF2EECF2EF4E0DF2EE12CF12CAD
:10102000F02D01E021E048E050E060E070E08FD07A
:1010300086E090E099DA8091FE189091FF18009771
:1010400009F447C04AE050E060E070E067D78130C3
:10105000E1F53ED9182F00E020E030E0A90160E082
:1010600070E08091FE189091FF18DED56AE070E084
:1010700080E090E00E94A91880915519181749F155
:1010800080EB95E00E949E39612F81E00E94E32A67
:1010900010935519812F012E000C990B9F931F93CC
:1010A00083E397E09F938F938E010F5F1F4F1F93F2
:1010B0000F930E940A3AC8010E94B1230F900F902B
:1010C0000F900F900F900F9004C080ED95E00E945C
:1010D0009E3966E070E080E090E00E94A91886E00A
:1010E00090E039DA95CF0F9301110CC0DC01CB01F0
:1010F00082239323A423B523892B8A2B8B2B79F46A
:1011000080E010C0DC01CB0182239323A423B5230C
:10111000281739074A075B0721F080E003C081E008
:1011200001C081E00F910895CF93DF938FE090E0AD
:10113000AFD1EC01009739F0FC011192119211929C
:101140001192CF018BD2CE01DF91CF9108952F92D2
:101150003F924F925F926F927F928F929F92AF9247
:10116000BF92CF92DF92EF92FF920F931F93CF9394
:10117000DF93EC014A015B01622E702E0E9428165B
:10118000288039804A805B80A5019401C201B101A9
:10119000AADF8823A1F0662089F1D501C4018095DA
:1011A0009095A095B09582219321A421B5218883A3
:1011B0009983AA83BB83C12CD12C760122C0C11490
:1011C000D104E104F104E9F0611004C040E050E012
:1011D000BA0104C040E050E060E071E0711074605A
:1011E000482959296A297B2997018601CE0104964D
:1011F0000E944019212C312C210103C0C12CD12C7B
:1012000076010E946817CD28CE28CF2859F1811188
:1012100001C0F2D20E94021D6B017C0191FD1FC032
:101220000FB6F8940F92C880D980EA80FB80072D12
:10123000A5019401C701B60156DF882371F066202D
:1012400061F080949094A094B0948C209D20AE2066
:10125000BF2088829982AA82BB820F900FBE16019E
:1012600027015524C201B101DF91CF911F910F9148
:10127000FF90EF90DF90CF90BF90AF909F908F90B6
:101280007F906F905F904F903F902F9008954F9276
:101290005F926F927F92AF92BF92CF92DF92EF9266
:1012A000FF920F931F93CF93DF93EC016A017B01B1
:1012B0008C01095F1F4F0E942816EB85FC858881F1
:1012C0009981AA81BB81C82AD92AEA2AFB2AC88225
:1012D000D982EA82FB82C12CD12C76013DC0A48048
:1012E000B58080819181A281B381AC01BD01772756
:1012F000B2FD0EC0488059806A807B80442255220E
:101300006622772245284628472889F420E012C023
:10131000488059806A807B80442255226622772249
:10132000441555056605770521F020E003C021E04E
:1013300001C021E0222371F0B0FF04C0C42AD52AE5
:10134000E62AF72A488159816A817B817260CF0140
:101350000E947B1AEA2DFB2DE017F10709F0BFCFA1
:10136000C094D094E094F09488819981AA81BB8143
:10137000C822D922EA22FB22C882D982EA82FB82D1
:101380000E946817688179818A819B81DF91CF9162
:101390001F910F91FF90EF90DF90CF90BF90AF9093
:1013A0007F906F905F904F900895E4EFF8E0A8EF82
:1013B000B8E0B183A08313821282E0EAF6E1F093F1
:1013C000F308E093F208138212821182108288EAF5
:1013D0009DE013969C938E931297ED93FC939093BC
:1013E000EF088093EE089093F1088093F00880E076
:1013F00090E89093E9088093E8080895CF93DF93ED
:10140000EC01A4EFB8E001C0DF01ED91FC91119770
:10141000EC17FD07C8F312968D919C9113979D01CF
:10142000280F391FC217D30749F42A813B81820F45
:10143000931F13969C938E931297ED018A819B8143
:101440009E01280F391FE217F307C1F42091F2081B
:101450003091F308E217F30771F022813381820F94
:10146000931F9B838A83ED91FC91119780819181D9
:101470009983888305C03983288302C0F983E88370
:10148000CA17DB0711F0CD93DC93DF91CF9108955C
:10149000EF92FF920F931F93CF93DF938C010E94E3
:1014A00028168091F2089091F308892B09F47DDFCA
:1014B0008091E8089091E90880239123892B09F015
:1014C00076C00115110549F0C801049608171907DF
:1014D00018F000E010E001C08C010115110509F4BD
:1014E00069C08091F0089091F1088017910708F485
:1014F00064C0C091F408D091F508E4EFF8E002C0B0
:10150000FE01EC018A819B818017910720F488817C
:1015100099810097A9F78091F2089091F308C81774
:10152000D90709F44DC0E080F18084E0E80EF11C99
:1015300088819981918380832A813B81201B310B93
:101540002930310548F0CE01800F911FFC01338313
:1015500022831B830A8352DF2A813B818091F0081A
:101560009091F108821B930B9093F1088093F008FF
:101570004091EE085091EF088417950720F490935E
:10158000EF088093EE088091E8089091E908282BF5
:10159000392B3B832A83198218828091EC08909121
:1015A000ED0801969093ED088093EC080BC0E12CB8
:1015B000F12C08C0E12CF12C05C0E12CF12C02C06B
:1015C000E12CF12C0E946817E114F10411F40E943F
:1015D0002523C701DF91CF911F910F91FF90EF90CD
:1015E00008950F931F93CF93DF93009791F1EC0130
:1015F00024974A815B812091E8083091E908BA017B
:1016000062237323672B29F168817981672B09F5A0
:1016100020953095242335233B832A830E94281666
:101620008A819B812091F0083091F108820F931FED
:101630009093F1088093F008CE01E0DE8091EA08F3
:101640009091EB0801969093EB088093EA080E9432
:101650006817DF91CF911F910F910895FC010396B8
:10166000928381834FEF5FEFBA0143835483658395
:101670007683908787839287818710820895FC0103
:101680001386128608950F931F93CF93DF93EB0178
:10169000088119812A813B810F3F4FEF14072407EE
:1016A000340721F4FC01A185B28511C0DC01139639
:1016B00001C0DF011496ED91FC9115974081518195
:1016C00062817381041715072607370790F7149670
:1016D000ED91FC911597FD83EC83D783C683BF837F
:1016E000AE831596DC93CE9314979B878A87FC0173
:1016F00020812F5F2083DF91CF911F910F9108955B
:10170000CF93DF93FC01A285B385C481D581868107
:1017100097819F838E83C681D781848195819D83A4
:101720008C8311968D919C911297E817F90731F4EB
:101730008681978112969C938E93119713861286B9
:101740008C9181508C938C91DF91CF910895A895C5
:1017500090EC88E10FB6F894A895809360000FBED6
:10176000909360000895FC016083319770833197F6
:10177000108231971082319720E8208331971082B0
:101780003197108231971082779740833197508339
:1017900086970895DCDFA0916317B0916417CD910F
:1017A000CDBFDD91DEBFFF91EF91DF91CF91BF9172
:1017B000AF919F918F917F916F915F914F913F91E9
:1017C0002F911F910F91FF90EF90DF90CF90BF90DE
:1017D000AF909F908F907F906F905F904F903F90D1
:1017E0002F901F900F900CBE0F900BBE0F900FBE4E
:1017F0000F90089581E008950F920FB6F8940F921C
:101800000BB60F920CB60F921F9211242F923F929B
:101810004F925F926F927F928F929F92AF92BF9200
:10182000CF92DF92EF92FF920F931F932F933F93EC
:101830004F935F936F937F938F939F93AF93BF93D8
:10184000CF93DF93EF93FF93A0916317B091641749
:101850000DB60D920EB60D920E94C418A09163179A
:10186000B0916417CD91CDBFDD91DEBFFF91EF91B7
:10187000DF91CF91BF91AF919F918F917F916F91A8
:101880005F914F913F912F911F910F91FF90EF909A
:10189000DF90CF90BF90AF909F908F907F906F9090
:1018A0005F904F903F902F901F900F900CBE0F9025
:1018B0000BBE0F900FBE0F9008950F920FB6F894C5
:1018C0000F920BB60F920CB60F921F9211242F920B
:1018D0003F924F925F926F927F928F929F92AF92C0
:1018E000BF92CF92DF92EF92FF920F931F932F93AD
:1018F0003F934F935F936F937F938F939F93AF9398
:10190000BF93CF93DF93EF93FF93A0916317B091B1
:1019100064170DB60D920EB60D9213BE0E943C16C2
:1019200081110E94C418A0916317B0916417CD91E2
:10193000CDBFDD91DEBFFF91EF91DF91CF91BF91E0
:10194000AF919F918F917F916F915F914F913F9157
:101950002F911F910F91FF90EF90DF90CF90BF904C
:10196000AF909F908F907F906F905F904F903F903F
:101970002F901F900F900CBE0F900BBE0F900FBEBC
:101980000F9008959ADF1895DC0153962C91539788
:10199000222341F05A96ED91FC915B9790818AE069
:1019A000891B089580E008950FB6F8940F92FC010A
:1019B000868D811102C081E001C080E00F900FBED2
:1019C00008950FB6F8940F92FC01268D878D281389
:1019D00002C081E001C080E00F900FBE08950F9318
:1019E0001F93CF93DF93EC01042F1E8D48A141116B
:1019F0000CC088819981892B09F042C08C819D811E
:101A00000E94401C1D821C8242C0011117C050E080
:101A10008A819B810E94223928A18A819B81820F21
:101A2000911D9B838A832C813D818217930750F1FE
:101A3000888199819B838A8380E029C050E08E81D0
:101A40009F810E94223988A190E09195819591090A
:101A50002E813F81280F391F3F832E834881598172
:101A60002417350730F42C813D81820F931F9F830B
:101A70008E83023049F4112349F0115080E007C0F1
:101A800080E005C080E003C080E001C080E01F5F0F
:101A90001E8FDF91CF911F910F910895FC0140A1FE
:101AA0004423A9F050E026813781240F351F378366
:101AB0002683848195812817390720F080819181C0
:101AC00097838683CB01668177810C9422390895B0
:101AD0001F93CF93DF93EC010FB6F8940F921AA1E6
:101AE0000BC08B89882351F0CE0143960E94CC19FC
:101AF00081110E94A21B115011169CF38FEF8AA333
:101B00000F900FBE0FB6F8940F9219A10BC08885E5
:101B1000882351F0CE0108960E94CC1981110E94B1
:101B2000A21B115011169CF38FEF89A30F900FBECB
:101B3000DF91CF911F910895CF93DF93EC010FB602
:101B4000F8940F92E881F9818F8D28A190E030E020
:101B5000829FA001839F500D929F500D11244E0F24
:101B60005F1F5D834C831E8EFB83EA830197289F52
:101B7000A001299F500D389F500D1124CF01840FD3
:101B8000951F9F838E838FEF89A38AA361110BC05A
:101B90008885882371F0CE0108960E94CC1988238D
:101BA00041F02ADE06C0CE01089658DDCE014396EC
:101BB00055DD0F900FBE81E0DF91CF9108950F9317
:101BC0001F93F801611103C01183008302C0518388
:101BD0004083878F60A361E0CF01AEDF1F910F913B
:101BE0000895DF92EF92FF920F931F93CF93DF93AD
:101BF000F82EE62ED42E869FC0011124839648DC51
:101C0000EC01009741F08C012D2DAC014D5D5F4F33
:101C10006E2D8F2DD4DFCE01DF91CF911F910F91CB
:101C2000FF90EF90DF900895CF92DF92EF92FF92B6
:101C30000F931F93CF93DF93CDB7DEB729970FB6DE
:101C4000F894DEBF0FBECDBF7C016B012E833F83B6
:101C50004887598710E00FB6F8940F92F701968DD8
:101C6000878D981710F00230B1F4402FB601C701EC
:101C7000B6DEF7019389992341F0C70143960E948C
:101C8000CC19882321F0B8DD02C08111B5DD0F9099
:101C90000FBE81E04CC08E819F81A885B985892BBC
:101CA0008A2B8B2B21F40F900FBE80E040C01111C6
:101CB00005C0CE0101960E942B1B11E00F900FBEB4
:101CC000C7D70FB6F8940F92F70181A18F3F09F49F
:101CD00011A2F70182A18F3F09F412A20F900FBE4B
:101CE000BE016A5F7F4FCE0101960E943C1B8111AD
:101CF00019C0C70166DE882381F04E815F81688547
:101D00007985C70108960E942919C701E1DE0E9462
:101D100068178111A0CF70DD9ECFC701D9DE0E9468
:101D2000681799CFC701D4DE0E94681780E0299612
:101D30000FB6F894DEBF0FBECDBFDF91CF911F91DC
:101D40000F91FF90EF90DF90CF9008950F93009741
:101D500069F0FC011582148211821082168200E063
:101D600020E030E0A90160E070E05EDF0F910895AF
:101D7000CF93DF93482F60E081E033DFEC01E6DFB3
:101D8000CE01DF91CF910895EF92FF920F931F93B1
:101D9000CF93DF938A01FC01568D378D531710F0D6
:101DA0002230F9F4422F7801EC011AA18E8DCE0178
:101DB00016DE1F3F81F48B898823A9F0CE0143965C
:101DC0000E94CC19882389F0E114F10481F081E0AC
:101DD000F70180830DC0FF24F394F10EFAA281E095
:101DE00007C080E005C081E003C081E001C081E060
:101DF000DF91CF911F910F91FF90EF900895CF92B7
:101E0000DF92EF92FF920F931F93CF93DF93CDB7A3
:101E1000DEB729970FB6F894DEBF0FBECDBF8C0199
:101E20006B012E833F8348875987E12C0FB6F894C6
:101E30000F92F801F68CFF2099F0B601C8012EDE52
:101E4000FA94F801F68E8085882331F0C80108964F
:101E50000E94CC198111D0DC0F900FBE81E04FC0E1
:101E60008E819F81A885B985892B8A2B8B2B21F4A4
:101E70000F900FBE80E043C0E11006C0CE01019676
:101E80000E942B1BEE24E3940F900FBEE1D60FB6F9
:101E9000F8940F92F80181A18F3F09F411A2F80183
:101EA00082A18F3F09F412A20F900FBEBE016A5F9C
:101EB0007F4FCE0101960E943C1B811117C0C801C3
:101EC00073DD882379F04E815F8168857985C8014B
:101ED00043960E942919C801FBDDFAD78111A6CFCC
:101EE0008BDCA4CFC801F4DDF3D7A0CFC801F0DDAF
:101EF000EFD7C80159DD882309F498CF80E02996EF
:101F00000FB6F894DEBF0FBECDBFDF91CF911F910A
:101F10000F91FF90EF90DF90CF900895EF92FF9296
:101F20000F931F93CF93DF93CDB7DEB729970FB6EB
:101F3000F894DEBF0FBECDBF8C014E835F836887F0
:101F40007987E12CF12C0FB6F8940F92F801868D69
:101F50008823C9F08150868F80819181892B29F453
:101F60000E942C1DF80195838483F80180858823C5
:101F700031F0C80108960E94CC1981113DDC0F9008
:101F80000FBE81E06FC08E819F81A885B985892BA6
:101F90008A2B8B2B21F40F900FBE80E063C0F110D1
:101FA00006C0CE0101960E942B1BFF24F3940F90D4
:101FB0000FBE4ED60FB6F8940F92F80181A18F3F55
:101FC00009F411A2F80182A18F3F09F412A20F9027
:101FD0000FBEBE016A5F7F4FCE0101960E943C1B7F
:101FE000811126C0C801E0DC8823F1F0F80180816E
:101FF0009181892B51F40FB6F8940F9284819581C9
:102000000E94B91BE82E0F900FBE4E815F8168853C
:102010007985C80143960E942919C80159DD58D70E
:10202000811191CFE9DB8FCFC80152DD51D78BCF22
:10203000C8014EDD4DD7C801B7DC882309F483CF32
:10204000EE2079F00FB6F8940F92C8019DDC682F4E
:10205000F801848195810E949B1C0F900FBE80E047
:1020600001C080E029960FB6F894DEBF0FBECDBF49
:10207000DF91CF911F910F91FF90EF900895CF9333
:10208000DF93EC010FB6F8940F9289A18F3F09F40A
:1020900019A28AA18F3F09F41AA20F900FBE8E8D4C
:1020A000811104C0CE0143960E948A19CE0110DD31
:1020B000DF91CF910895FC014481558122813381C4
:1020C000240F351F80819181B901681B790BCB01E9
:1020D0006417750710F0841B950B08950F93FC018E
:1020E0008FE0DF011D928A95E9F775876487558334
:1020F00044833783268306870F910895AF92BF925A
:10210000CF92DF92EF92FF920F931F93CF93DF93C3
:102110006C015B017A01FC01C281D38104811581CC
:102120000C1B1D0B4017510708F48A01F60184852A
:102130009585A801B5018C0F9D1F0E9422390E15AF
:102140001F0558F4A701401B510BB501600F711F0B
:10215000F601848595850E942239CE018E0D9F1D42
:10216000F601248135818217930710F0821B930BAF
:10217000F60193838283C701DF91CF911F910F9165
:10218000FF90EF90DF90CF90BF90AF900895CF92E7
:10219000DF92EF92FF920F931F93CF93DF931F92E3
:1021A0001F92CDB7DEB77C016B015A83498321159D
:1021B0003105C1F0FC01868580FD08C04217530738
:1021C00008F49A013A83298381E00FC02017310770
:1021D00058F042E050E0BE016F5F7F4FC7018EDFD5
:1021E00081E003C080E001C080E0882331F04981B4
:1021F0005A81B601C70182DF02C080E090E00F90F3
:102200000F90DF91CF911F910F91FF90EF90DF9092
:10221000CF900895AF92BF92CF92DF92EF92FF924C
:102220000F931F93CF93DF937C015B01E90142176A
:10223000530708F4EA01209781F1F7010081118129
:1022400084819581801B910B6E018C179D0708F48A
:102250006C01F70164857585600F711FA601C501CA
:102260000E942239CC16DD0658F4AE014C195D09E6
:10227000F70164857585C5018C0D9D1D0E9422396D
:102280000C0F1D1FF701848195810817190710F0A5
:10229000081B190BF70111830083CE01DF91CF9149
:1022A0001F910F91FF90EF90DF90CF90BF90AF9074
:1022B00008956F927F928F929F92AF92BF92CF922A
:1022C000DF92EF92FF920F931F93CF93DF931F92B2
:1022D0001F92CDB7DEB76C014B015A017901011590
:1022E0001105B1F0FC0160807180A801BE016F5F33
:1022F0007F4F90DF89819A81E01AF10AA816B9060A
:1023000030F4F60171826082A12CB12C01C05C0115
:102310009701A501B401C6017DDF0F900F90DF91F9
:10232000CF911F910F91FF90EF90DF90CF90BF90D2
:10233000AF909F908F907F906F900895CF92DF9293
:10234000EF92FF920F93CF93DF93EC016B0141303B
:1023500011F401E001C000E0C114D10419F4CC244F
:10236000C394D12CCE014096C817D90720F42196EA
:102370008FD87C0102C0E12CF12CE114F10439F07A
:102380009601AE01B701615F7F4FC701A7DEC701AC
:10239000DF91CF910F91FF90EF90DF90CF90089554
:1023A0000F930FB6F8940F92FC0120853185232BF3
:1023B00071F422853385232B61F426813781448192
:1023C000558164857585068589DE81E003C080E0DE
:1023D00001C080E00F900FBE0F910895FC01248191
:1023E000358180819181820F931F42815381841BAB
:1023F000950B01978217930710F0821B930B08959A
:102400002F923F924F925F926F927F928F929F9204
:10241000AF92BF92CF92DF92EF92FF920F931F93F2
:10242000CF93DF93CDB7DEB72B970FB6F894DEBF0F
:102430000FBECDBF4C017B876A871A010E831F83B5
:1024400028873987FC01848195810197268520FFA3
:102450000CC02A01F2E04F0E511C8415950558F46A
:102460001E821F821886198606C08417950710F0F1
:102470002A0101C02C018E819F81A885B985892BF5
:102480008A2B8B2B09F438C0CE0101960E94151BB4
:102490000FB6F8940F92C401A1DF3C018415950595
:1024A00040F560E080E090E00E94FF1F0E94A61BC4
:1024B000F401938782870F900FBEAE80BF80C884DF
:1024C000D984E12CF12C00E010E0980140E050E0CC
:1024D000BA0180E00E943E1DF40113861286BE01FF
:1024E0006A5F7F4FCE0101960E943C1B882381F2D8
:1024F00005C00F900FBE02C0612C712C61147104D5
:1025000019F4C4016BDF3C0182019301A1016A85CA
:102510007B85C4013CDE6C01892BE9F0C401CBDD75
:10252000F4012681378182179307A8F091D3F40133
:1025300080859185892B71F080859185E12CF12C26
:1025400000E020E030E0A90160E00E94E61DF40117
:1025500011861086BDD4C6012B960FB6F894DEBF47
:102560000FBECDBFDF91CF911F910F91FF90EF90E4
:10257000DF90CF90BF90AF909F908F907F906F90A3
:102580005F904F903F902F900895AF92BF92CF925F
:10259000DF92EF92FF920F931F93CF93DF93EC01A3
:1025A0007B015A0169018E8580FF04C08A010E5F9C
:1025B0001F4F01C08A01CE0111DF9C01A501B701A7
:1025C000CE01E5DD5C01892BC1F0CE0174DD2E81E9
:1025D0003F818217930788F088859985892B69F058
:1025E00088859985E12CF12C00E020E030E0A901FC
:1025F00060E00E94DD1E19861886C501DF91CF912B
:102600001F910F91FF90EF90DF90CF90BF90AF9010
:1026100008954F925F926F927F928F929F92AF92A6
:10262000BF92CF92DF92EF92FF920F931F93CF93BF
:10263000DF93EC012B013A01580169018E8580FF7F
:1026400005C06894882481F8912C02C0812C912CBB
:10265000A114B104C104D10441F10FB6F8940F9252
:10266000CE0129DD7C018816990648F060E080E003
:1026700090E00E94FF1F0E94A61B998788870F90F9
:102680000FBE8E149F04A0F0E12CF12C00E010E0AE
:10269000980140E050E0BA0180E00E943E1D19869A
:1026A0001886CE0108DD7C0103C0CE0104DD7C016B
:1026B0008E149F04E8F484019701A301B201CE01B6
:1026C000F8DD6C01892BB1F0C3D28A859B85892BFB
:1026D00069F08A859B85E12CF12C00E020E030E058
:1026E000A90160E00E94E61D1B861A86F1D302C094
:1026F000C12CD12CC601DF91CF911F910F91FF907A
:10270000EF90DF90CF90BF90AF909F908F907F9091
:102710006F905F904F900895E091DD16F091DE1676
:10272000808181110CC08FEF9FEFDC018093A71691
:102730009093A816A093A916B093AA160895E091B5
:10274000DD16F091DE160780F085E02D8081918105
:10275000A281B3818093A7169093A816A093A9167F
:10276000B093AA160895CF93DF93EC018B8D9C8DC7
:102770000E94F10ACE010E94F10ADF91CF910895E3
:102780004F925F926F927F928F929F92AF92BF9281
:10279000CF92DF92EF92FF920F93CF93DF932C01B2
:1027A0005B014A013901E60165EA70E08B8D9C8D81
:1027B0000E942B398B8D9C8D21E0821A9108880E06
:1027C000991EA114B10489F415C0822F90E0F5017F
:1027D000E80FF91F3081DE01A80FB91F5D963C9309
:1027E0008081882329F02F5F01C020E0203168F329
:1027F0001CA601C01D8E0A3008F009E00A8F0DA743
:102800001EA6CE0102960E943F0BCE010E960E949C
:102810003F0BDB87CA878AE090E0A0E0B0E0801B36
:102820009109A109B1098E879F87A88BB98BDF8B8E
:10283000CE8B84E0FE01BF96DF011D928A95E9F7F9
:102840001BAAA301B201C4010E94B30B9983888320
:10285000E114F10419F0F701D183C083DF91CF9126
:102860000F91FF90EF90DF90CF90BF90AF909F902F
:102870008F907F906F905F904F900895CF93C0E0BE
:1028800009C02BE0C29FC00111248B50994E0E94B9
:102890002E0BCF5FCA30A8F38AEE96E10E942E0B72
:1028A0008FED96E10E942E0B80ED96E10E942E0B9B
:1028B00085EC96E10E942E0B89EB96E10E942E0B8F
:1028C0008AEE96E19093DE168093DD168FED96E109
:1028D0009093DC168093DB16CF910895CF93DF930E
:1028E000EC010FB6F8940F928091B8168F5F809329
:1028F000B8168091631790916417892B51F4D09387
:102900006417C09363178091B816813091F4B6DFD5
:1029100010C08091B21681110CC0E0916317F09144
:102920006417928D8A8D891720F0D0936417C09315
:1029300063178091AB168F5F8093AB16EA8D809101
:10294000B3168E1710F4E093B3168BE08E9FF00150
:102950001124EB50F94E0180F281E02DFF83EE83CC
:102960002681378139872887A681B7819E012E5F0E
:102970003F4F15963C932E93149737832683EA8D09
:102980008E9FF0011124EB50F94EFD87EC8780817A
:102990008F5F80830F900FBE8091B216882351F015
:1029A000E0916317F0916417928D8A8D981710F457
:1029B0000E94FC0BDF91CF910895CF93DF931BC052
:1029C0000FB6F8940F92E091CC16F091CD16C08519
:1029D000D185CE0102960E94800B8091B81681505D
:1029E0008093B8168091C41681508093C4160F90BE
:1029F0000FBECE01B8DE8091C4168111E1CFDF9108
:102A0000CF9108958F929F92AF92BF92CF92DF9213
:102A1000EF92FF92CF93DF936B017C01C42F8090E4
:102A2000B4169090B516A090B616B090B7168091D7
:102A300063179091641702960E94800B8FEFC8165F
:102A4000D806E806F806B1F5CC23A1F1E9EBF6E1EA
:102A5000A181B281C0916317D0916417BF83AE8307
:102A6000C0916317D091641716968D919C9117971A
:102A7000998788871696CD91DC9117978091631777
:102A80009091641702969D838C8380916317909137
:102A90006417029617969C938E931697A0916317CE
:102AA000B09164171D96FC93EE931C9780818F5F05
:102AB00080833FC0C80CD91CEA1CFB1CE091631743
:102AC000F0916417C282D382E482F582C814D904DB
:102AD000EA04FB0468F460916317709164178091B5
:102AE000DB169091DC166E5F7F4F0E94430B21C076
:102AF00060916317709164178091DD169091DE16D6
:102B00006E5F7F4F0E94430B8091A7169091A8168D
:102B1000A091A916B091AA16C816D906EA06FB0616
:102B200040F4C092A716D092A816E092A916F0928F
:102B3000AA16DF91CF91FF90EF90DF90CF90BF90DA
:102B4000AF909F908F9008952F923F924F925F92F7
:102B50006F927F928F929F92AF92BF92CF92DF92AD
:102B6000EF92FF920F93CF93DF933C011B014A0139
:102B70002901CA010E94480A6C01892B71F084E383
:102B800090E00E94480AEC01892B19F0DC8ECB8E74
:102B900006C0C6010E94F10A02C0C0E0D0E0209742
:102BA00061F0A12CB12C6E019201A401B101C3010D
:102BB000E7DDCE0193DE81E001C08FEFDF91CF91A1
:102BC0000F91FF90EF90DF90CF90BF90AF909F90CC
:102BD0008F907F906F905F904F903F902F900895CF
:102BE000EF92FF920F930F2EF5EAEF2EF6E1FF2EF4
:102BF000F02D00E020E030E040EC50E06DEE75E0BC
:102C00008DEC90E0A1DF813011F40E94A32081308F
:102C1000C9F4F8948FEF9FEFDC018093A71690938F
:102C2000A816A093A916B093AA1681E08093B216B5
:102C30001092B4161092B5161092B6161092B716DE
:102C40000E94CA0B809106020F91FF90EF900895A9
:102C50008091A4168F5F8093A41608950FB6F89400
:102C60000F926091B4167091B5168091B61690913E
:102C7000B7160F900FBE0895CF92DF92EF92FF929A
:102C8000CF93DF938091A416811105C1C090B41633
:102C9000D090B516E090B616F090B7168FEFC81A20
:102CA000D80AE80AF80AC092B416D092B516E09293
:102CB000B616F092B716C114D104E104F104B1F4D0
:102CC0008091DD169091DE162091DB163091DC1696
:102CD0003093DE162093DD169093DC168093DB167E
:102CE0008091AC168F5F8093AC1616DD8091A7168D
:102CF0009091A816A091A916B091AA16C816D90647
:102D0000EA06FB0620F480E0B2C081E001C080E06A
:102D1000E091DD16F091DE16908191110CC04FEF1D
:102D20005FEFBA014093A7165093A8166093A916B7
:102D30007093AA169CC0E091DD16F091DE16078014
:102D4000F085E02D0084F185E02D4281538164817E
:102D50007581C416D506E606F70648F44093A71613
:102D60005093A8166093A9167093AA1680C0A485E4
:102D7000B585C681D781208531853F832E83C08567
:102D8000D185268137813D832C8311964D915C91AD
:102D900012979F012E5F3F4F4217530731F4408532
:102DA000518512965C934E931197158614869C91CB
:102DB00091509C93A08DB18D109709F1C289D38950
:102DC000448955895F834E83C489D5894289538953
:102DD0005D834C8311966D917C911297AF01425F98
:102DE0005F4F6417750731F44489558912965C93D7
:102DF0004E931197118E108E9C9191509C93A28DA1
:102E00009091B3169A1710F4A093B3169BE09A9F73
:102E1000D0011124AB50B94E11960D90BC91A02D4C
:102E2000B783A68316964D915C911797518740877B
:102E30001696CD91DC9117973D832C8317963C9382
:102E40002E931697A28D9A9FD0011124AB50B94EA4
:102E5000B587A4879C919F5F9C93228DE091631717
:102E6000F0916417928D291708F04FCF51CFE09160
:102E70006317F0916417E28D9BE0E99FF001112444
:102E8000EB50F94E9081923008F081E09091AD16B0
:102E9000911116C016C08091AE169091AF16A091F8
:102EA000B016B091B1160196A11DB11D8093AE165A
:102EB0009093AF16A093B016B093B11680E001C006
:102EC00081E0DF91CF91FF90EF90DF90CF90089558
:102ED000CF92DF92EF92FF92CF93DF930FB6F894E9
:102EE0000F928091A41681508093A4168091A4160D
:102EF0008111BEC08091B816811188C0BCC0E0911C
:102F0000D716F091D8160084F185E02DA08DB18DF3
:102F1000C289D389848995899F838E83C489D58901
:102F2000828993899D838C8311962D913C91129770
:102F3000CF010E962817390731F4848995891296A6
:102F40009C938E931197118E108E8C9181508C933F
:102F5000A485B585C681D781808591859F838E8321
:102F6000C085D185868197819D838C8311968D91B3
:102F70009C9112979F012E5F3F4F8217930731F468
:102F80008085918512969C938E9311971586148651
:102F90008C9181508C93A28D8091B3168A1710F476
:102FA000A093B3168BE08A9FD0011124AB50B94E89
:102FB00011960D90BC91A02DB783A68316964D91C6
:102FC0005C911797518740871696CD91DC911797A2
:102FD0003D832C8317963C932E931697A28D8A9F40
:102FE000D0011124AB50B94EB587A4878C918F5F67
:102FF0008C93928DA0916317B09164175A968C911F
:10300000981730F081E08093AD1602C0E0E0F0E068
:103010008091D016811173CFEF2B09F07DDBC0902A
:10302000AE16D090AF16E090B016F090B116C11465
:10303000D104E104F104A1F01FDE882319F081E03E
:103040008093AD1681E0C81AD108E108F108A1F714
:103050001092AE161092AF161092B0161092B116D2
:103060008091AD16882331F00E94FC0B81E003C0F3
:1030700080E001C080E00F900FBEDF91CF91FF9004
:10308000EF90DF90CF9008958F929F92AF92BF9272
:10309000CF92DF92EF92FF921F93CF93DF93EC01D9
:1030A0006A017B01D5DD8090B4169090B516A09092
:1030B000B616B090B71688819981AA81BB81AC0100
:1030C000BD014C0D5D1D6E1D7F1D88169906AA065B
:1030D000BB0660F4481759076A077B0798F4841603
:1030E0009506A606B70680F010E013C048175907EA
:1030F0006A077B0758F084169506A606B70640F0C7
:1031000010E007C010E005C011E003C011E001C0ED
:1031100011E0488359836A837B83112341F0CB01FB
:10312000BA01681979098A099B0940E06BDCD0DE95
:10313000811102C00E94FC0B812FDF91CF911F9162
:10314000FF90EF90DF90CF90BF90AF909F908F90C7
:103150000895CF92DF92EF92FF926B017C01672B73
:10316000682B692B39F074DD40E0C701B6014ADCF9
:10317000AFDE01C080E0811102C00E94FC0BFF9015
:10318000EF90DF90CF9008958091A416882321F0CE
:1031900081E08093AD1608951092AD16E09163170B
:1031A000F091641720813181E0916317F0916417E9
:1031B000838D948D8217930760F0609163177091EF
:1031C0006417635E7F4F80916317909164170E942C
:1031D00031238091B31601C08150282F30E09BE04D
:1031E000929FF001939FF00D1124EB50F94E9081C6
:1031F000992391F39BE0929FA001939F500D11247E
:10320000DF010180F281E02D0480F581E02D12962E
:10321000FC93EE9311974850594EE417F50729F4A3
:1032200044815581FD01528341839BE0929FF001CF
:10323000939FF00D1124EB50F94E0180F281E02DA7
:103240002085318530936417209363178093B316DC
:103250000895CF92DF92EF92FF926A017B01609115
:10326000631770916417625F7F4F0E94430B41E0C8
:10327000C701B601C7DBFF90EF90DF90CF900895B4
:103280000F931F93CF93DF93FC01A0916317B0912D
:10329000641770681E964D935D936D937C93519760
:1032A000A181B281C0916317D0916417BB8BAA8BA7
:1032B000C0916317D091641716968D919C911797C2
:1032C0009D8B8C8B1696CD91DC911797809163170F
:1032D000909164170E969D838C83809163179091D3
:1032E00064170E9617969C938E931697A09163176A
:1032F000B09164175996FC93EE93589780818F5F35
:10330000808341E0C901B8017DDBDF91CF911F913E
:103310000F910895CF93DF93FC01CB01BA01A181F6
:10332000B281C0916317D0916417BB8BAA8BC091F7
:103330006317D091641716964D915C9117975D8B2A
:103340004C8B1696CD91DC91179740916317509155
:103350006417425F5F4F5D834C83409163175091C8
:103360006417425F5F4F17965C934E931697A09138
:103370006317B09164175996FC93EE935897308178
:103380003F5F3083222319F06FEF7FEFCB01422F95
:1033900039DBDF91CF910895CF93DF93DC0117964E
:1033A000ED91FC9118970084F185E02DA08DB18DF1
:1033B000C289D389848995899F838E83C489D5895D
:1033C000828993899D838C8311968D919C9112970C
:1033D0009F01225F3F4F8217930731F484899589BB
:1033E00012969C938E931197118E108E8C91815012
:1033F0008C938091A416811152C0A485B585C68195
:10340000D781808591859F838E83C085D185868174
:1034100097819D838C8311968D919C9112979F012A
:103420002E5F3F4F8217930731F480859185129666
:103430009C938E931197158614868C9181508C9352
:10344000A28D8091B3168A1710F4A093B3168BE067
:103450008A9FD0011124AB50B94E11960D90BC91AA
:10346000A02DB783A68316964D915C91179751872F
:1034700040871696CD91DC9117973D832C83179644
:103480003C932E931697A28D8A9FD0011124AB50A6
:10349000B94EB587A4878C918F5F8C931CC040ED8B
:1034A00056E1DA011196CD91DC911297D38BC28B44
:1034B0008E819F81958B848B8E819F81DC011596F7
:1034C0003C932E9314973F832E83518F408FDA01C4
:1034D0008C918F5F8C93928DE0916317F0916417BC
:1034E000828D891720F481E08093AD1601C080E0C1
:1034F000DF91CF910895CF93DF93DC0170684D93F6
:103500005D936D937C9313971896ED91FC911997A9
:103510001A964D915C911B9714968D919C911597DD
:1035200016962D913C911797EC013F832E831696AA
:103530008D919C91179714962D913C911597EC01C4
:103540003D832C83EA0189819A81A817B90731F458
:1035500016968D919C9117979A8389831B961C923E
:103560001E921A97DA018C9181508C93A485B585AF
:10357000C681D781808591859F838E83C085D185C3
:10358000868197819D838C8311968D919C91129752
:103590009F012E5F3F4F8217930731F480859185FD
:1035A00012969C938E931197158614868C91815058
:1035B0008C93A28D8091B3168A1710F4A093B31642
:1035C0008BE08A9FD0011124AB50B94E11960D901B
:1035D000BC91A02DB783A68316964D915C91179749
:1035E000518740871696CD91DC9117973D832C83A8
:1035F00017963C932E931697A28D8A9FD001112483
:10360000AB50B94EB587A4878C918F5F8C93928D08
:10361000E0916317F0916417828D891718F481E0A7
:103620008093AD16DF91CF9108950FB6F8940F9265
:103630002091AC16FC0120834091B4165091B51630
:103640006091B6167091B716418352836383748379
:103650000F900FBE08952091AC16FC01208340917D
:10366000B4165091B5166091B6167091B716418395
:1036700052836383748308958F929F92AF92BF9217
:10368000CF92DF92EF92FF920F931F93CF93DF932E
:10369000FB010FB6F8940F92C090B416D090B516F7
:1036A000E090B616F090B716DC0111960D911D91C1
:1036B0002D913C91149746015701801A910AA20A54
:1036C000B30A40815181628173814F3FBFEF5B0735
:1036D0006B077B0739F1EC01B881A091AC16BA17E2
:1036E00059F0C016D106E206F30630F010821182BE
:1036F0001282138281E017C084169506A606B706CB
:1037000058F4481959096A097B0940835183628337
:103710007383A1DF80E007C01082118212821382BE
:1037200081E001C080E00F900FBEDF91CF911F912B
:103730000F91FF90EF90DF90CF90BF90AF909F9050
:103740008F90089581E08093AD160895809163175E
:103750009091641708958091B216882331F080917A
:10376000A416811104C082E0089581E0089580E0EC
:1037700008950F931F93CF93DF93FC01892B09F4D6
:1037800077C0828DA0916317B09164175A969C916F
:10379000891708F063C0468557856089718977234A
:1037A00094F0A0916317B09164175A969C914AE0E7
:1037B00050E060E070E0491B5109610971094687DA
:1037C0005787608B718B248535854BE0849FC001C2
:1037D00011248B50994E28173907B9F5EF018F0145
:1037E0000E5F1F4FC8010E94800BE0916317F0919C
:1037F0006417E28DEA8F8091B3168E1710F4E09370
:10380000B3168BE08E9FF0011124EB50F94E01802E
:10381000F281E02DFF83EE83268137813987288767
:10382000A681B78115961C930E9314971783068370
:10383000EA8D8E9FF0011124EB50F94EFD87EC8745
:1038400080818F5F808381E016C0A0916317B09163
:1038500064175A968C91828F81E00DC095A5E091F6
:103860006317F0916417828D981720F080E003C0F1
:1038700080E001C081E0DF91CF911F910F91089509
:103880000F931F93CF93DF93FC01892B09F449C059
:1038900086A5815086A7228D95A5291709F443C0D6
:1038A000811143C0EF018F010E5F1F4FC8010E94BD
:1038B000800BEDA5EA8F8AE090E0A0E0B0E08E1BDF
:1038C0009109A109B1098E879F87A88BB98B809137
:1038D000B3168E1710F4E093B3168BE08E9FF001B1
:1038E0001124EB50F94E0180F281E02DFF83EE832D
:1038F0002681378139872887A681B78115961C9341
:103900000E93149717830683EA8D8E9FF00111247E
:10391000EB50F94EFD87EC8780818F5F808381E0DB
:1039200005C080E003C080E001C080E0DF91CF915E
:103930001F910F9108950F931F93CF93DF93FC0175
:10394000892B09F45AC085A5861708F4862F928D15
:10395000891709F452C026A5213009F04EC0828F84
:103960004685578560897189772364F04AE050E085
:1039700060E070E0481B510961097109468757876B
:10398000608B718B248535854BE0949FC001112499
:103990008B50994E2817390781F5EF018F010E5F83
:1039A0001F4FC8010E94800BEA8D8091B3168E17BD
:1039B00010F4E093B3168BE08E9FF0011124EB50CE
:1039C000F94E0180F281E02DFF83EE83268137815D
:1039D00039872887A681B78115961C930E93149773
:1039E00017830683EA8D8E9FF0011124EB50F94E68
:1039F000FD87EC8780818F5F8083DF91CF911F915E
:103A00000F910895CF92DF92EF92FF92E0916317AA
:103A1000F09164176685778580899189E0916317B5
:103A2000F0916417A0916317B09164175A962C9186
:103A30000F2EFAE0CF2ED12CE12CF12CF02DC21A52
:103A4000D108E108F108C686D786E08AF18AFF909E
:103A5000EF90DF90CF900895809163179091641755
:103A6000892B39F0E0916317F091641786A58F5F79
:103A700086A7809163179091641708954F925F9283
:103A80006F927F92AF92BF92CF92DF92EF92FF92AE
:103A90000F931F93CF93DF93280139010FB6F8944A
:103AA0000F92E0916317F0916417C82FD0E0EC0FEC
:103AB000FD1F83A9823079F1E0916317F0916417BB
:103AC000CE01880F991F880F991FE80FF91F87A54E
:103AD00090A9A1A9B2A940955095609570954823E9
:103AE00059236A237B2347A750AB61AB72ABE091AC
:103AF0006317F0916417EC0FFD1F81E083ABA114F5
:103B0000B104C104D10439F041E0C601B5010E94FD
:103B100002150E94FC0B0F900FBE0FB6F8940F9287
:103B2000E114F104A1F0E0916317F0916417CE0164
:103B3000880F991F880F991FE80FF91F87A590A973
:103B4000A1A9B2A9F70180839183A283B383E091F5
:103B50006317F0916417EC0FFD1F83A98230E9F41D
:103B6000E0916317F0916417CE01880F991F880FB9
:103B7000991FE80FF91F87A590A9A1A9B2A94094A0
:103B8000509460947094482259226A227B2247A65E
:103B900050AA61AA72AA81E001C080E02091631757
:103BA00030916417C20FD31F1BAA0F900FBEDF9175
:103BB000CF911F910F91FF90EF90DF90CF90BF902A
:103BC000AF907F906F905F904F9008958F929F92EB
:103BD000AF92BF92EF92FF920F93CF93DF93DC01EE
:103BE0000FB6F8940F92E114F10489F0E62FF0E09B
:103BF000EE0FFF1FEE0FFF1FE80FF91F87A490A81D
:103C0000A1A8B2A8F70180829182A282B38270E05B
:103C1000FD01E60FF71F83A992E093AB023001F19B
:103C200018F4013031F04DC0033079F10430D1F196
:103C300048C0660F771F660F771FFD01E60FF71F5D
:103C400087A490A8A1A8B2A8BA01A9014829592916
:103C50006A297B2947A750AB61AB72AB01E034C046
:103C6000660F771F660F771FFD01E60FF71F47A549
:103C700050A961A972A94F5F5F4F6F4F7F4F47A750
:103C800050AB61AB72AB01E01FC0660F771F660FD0
:103C9000771FFD01E60FF71F27A730AB41AB52ABF3
:103CA00001E012C0823079F0660F771F660F771F30
:103CB000FD01E60FF71F27A730AB41AB52AB01E088
:103CC00003C001E001C000E0813009F069C01C962A
:103CD000ED91FC911D971696CD91DC911797189652
:103CE0008D919C9119979F838E831896CD91DC912D
:103CF000199716968D919C9117979D838C8381813E
:103D000092819D012E5F3F4F8217930731F41896E1
:103D10008D919C911997928381831D961C921E927E
:103D20001C978081815080835A96EC915A9780919C
:103D3000B3168E1710F4E093B3168BE08E9FF0014C
:103D40001124EB50F94E0180F281E02D1796FC937F
:103D5000EE9316974681578119965C934E93189768
:103D6000C681D7813D832C83378326835A96EC9175
:103D70005A978E9FF0011124EB50F94E1D96FC933B
:103D8000EE931C9780818F5F80835A969C91E0917F
:103D90006317F0916417828D891710F40E94FC0B51
:103DA0000F900FBE802FDF91CF910F91FF90EF907A
:103DB000BF90AF909F908F9008958F929F92AF92F7
:103DC000BF92CF92DF92EF92FF920F93CF93DF9348
:103DD000DC01E114F10489F0E62FF0E0EE0FFF1FA3
:103DE000EE0FFF1FE80FF91F87A490A8A1A8B2A8A3
:103DF000F70180829182A282B38270E0FD01E60F1A
:103E0000F71F93A982E083AB023001F118F401306F
:103E100031F04DC0033079F10430D1F148C0660F64
:103E2000771F660F771FFD01E60FF71F87A490A885
:103E3000A1A8B2A8BA01A901482959296A297B2950
:103E400047A750AB61AB72AB81E034C0660F771F00
:103E5000660F771FFD01E60FF71F47A550A961A95F
:103E600072A94F5F5F4F6F4F7F4F47A750AB61AB5A
:103E700072AB81E01FC0660F771F660F771FFD01D1
:103E8000E60FF71F27A730AB41AB52AB81E012C062
:103E9000923079F0660F771F660F771FFD01E60FEE
:103EA000F71F27A730AB41AB52AB81E003C081E0E5
:103EB00001C080E0913009F096C09091A416911154
:103EC0005FC01C96ED91FC911D971696CD91DC91EB
:103ED000179718962D913C9119973F832E8318962A
:103EE000CD91DC91199716962D913C9117973D83B2
:103EF0002C83418152819D012E5F3F4F4217530712
:103F000031F418964D915C911997528341831D9617
:103F10001C921E921C979081915090835A96EC911E
:103F20005A979091B3169E1710F4E093B3169BE046
:103F30009E9FF0011124EB50F94E0180F281E02D9B
:103F40001796FC93EE9316974681578119965C93CA
:103F50004E931897C681D7813D832C833783268360
:103F60005A96EC915A979E9FF0011124EB50F94E0E
:103F70001D96FC93EE931C9790819F5F908321C0C8
:103F800060ED76E1FB01C181D2815396DC93CE9343
:103F900052972E813F8155963C932E9354974E8194
:103FA0005F819D01225F3F4FFA01358324833F8368
:103FB0002E8359967C936E935897FB0190819F5F57
:103FC00090835A962C91E0916317F0916417928D2B
:103FD000921748F4C114D10419F091E0F6019083CE
:103FE00091E09093AD16DF91CF910F91FF90EF90FC
:103FF000DF90CF90BF90AF909F908F9008950097E3
:1040000021F480916317909164170FB6F8940F9282
:1040100070E0FC01E60FF71F23A9223031F4FC0108
:10402000E60FF71F13AA81E001C080E00F900FBEDA
:104030000895DC01E0916F17F0917017808191E095
:10404000811190E09C93911108C00780F085E02DCC
:104050006081718182819381089560E070E0CB017D
:104060000895CF92DF92EF92FF920F931F93FC017E
:10407000428353836483758393878287041715076C
:1040800026073707C0F00C191D092E093F09868540
:104090009785A089B189081719072A073B0700F5FA
:1040A000BF016E5F7F4F80916D1790916E170E94D8
:1040B000430B80E018C00C151D052E053F0528F4A4
:1040C0004C155D056E057F0568F4BF016E5F7F4F7F
:1040D00080916F17909170170E94430B80E003C08E
:1040E00081E001C081E01F910F91FF90EF90DF9080
:1040F000CF9008950FB6F8940F9280916B1790911E
:104100006C17892BE9F48CE797E10E942E0B81E76D
:1041100097E10E942E0B8CE797E1909370178093A4
:104120006F1781E797E190936E1780936D1740E0CA
:1041300067E08AE00E94F10D90936C1780936B17F3
:104140000F900FBE0895EF92FF920F93D3DF8091EF
:104150006B1790916C17892B91F00F2EF9E6EF2ECB
:10416000F7E1FF2EF02D03E020E030E040EC50E0DE
:1041700062EF75E088ED90E00E94A41501C080E038
:104180000F91FF90EF9008958F929F92AF92BF9200
:10419000CF92DF92EF92FF920F931F93CF93DF9313
:1041A000CDB7DEB727970FB6F894DEBF0FBECDBFF1
:1041B000E0916B17F0916C17309781F169832A8336
:1041C0003B834C835D839F838E836630F4F4C3DA34
:1041D000823069F400E0A7019601BE016F5F7F4F56
:1041E00080916B1790916C170E94140E18C000E01C
:1041F00020E030E0A901BE016F5F7F4F80916B1717
:1042000090916C170E94140E0AC020E0A801BE0114
:104210006F5F7F4FCF010E94C40E01C080E02796E0
:104220000FB6F894DEBF0FBECDBFDF91CF911F91C7
:104230000F91FF90EF90DF90CF90BF90AF909F9045
:104240008F9008958F929F92AF92BF92CF92DF92FC
:10425000EF92FF920F931F93CF93DF933BC00780A2
:10426000F085E02D80809180A280B380C085D185CB
:104270008E010E5F1F4FC8010E94800BEC89FD89E3
:10428000CE0119958E8982FF25C08E859F85A889CC
:10429000B989880D991DAA1DBB1D88169906AA0605
:1042A000BB0670F48A839B83AC83BD83DB87CA879C
:1042B000B80180916F17909170170E94430B0AC04C
:1042C000C12CD12C760100E010E0A501940160E042
:1042D000CE015ADFE0916F17F09170178081811144
:1042E000BECF80916D1790916E1790937017809349
:1042F0006F17F0936E17E0936D17DF91CF911F91B9
:104300000F91FF90EF90DF90CF90BF90AF909F9074
:104310008F900895CF92DF92EF92FF92CF93DF9329
:10432000EC010E942E166B017C0180916517909123
:104330006617A0916717B0916817C816D906EA06E4
:10434000FB0620F47FDF81E0888301C01882C092E1
:104350006517D0926617E0926717F0926817C70149
:10436000B601DF91CF91FF90EF90DF90CF9008954D
:104370004F925F926F927F928F929F92AF92BF9275
:10438000CF92DF92EF92FF920F931F93CF93DF9321
:104390004B015C0129013A01E0916F17F091701710
:1043A0000780F085E02DC085D185CE0102960E9460
:1043B000800B8E8982FF1BC04E855F856889798955
:1043C000480D591D6A1D7B1D750164019301820111
:1043D000CE0147DE882369F0C12CD12C760100E0A4
:1043E00010E0A501940160E0CE01CEDE02C08E7F18
:1043F0008E8BEC89FD89CE011995DF91CF911F91AC
:104400000F91FF90EF90DF90CF90BF90AF909F9073
:104410008F907F906F905F904F9008958F929F92B2
:10442000AF92BF92CF92DF92EF92FF921F93CF9302
:10443000DF931F92CDB7DEB76B017C01142F0E9472
:104440002816CE01019666DF4B015C01898181113E
:104450002DC011110DC08C149D04AE04BF0440F09A
:104460000E946817A5019401C701B60181DF20C031
:10447000112341F0E0916D17F0916E17808111E0EA
:10448000811110E0B701A601481959096A097B0991
:10449000212F80916B1790916C170E943F100E9402
:1044A0006817811105C00E94FC0B02C00E946817AA
:1044B0000F90DF91CF911F91FF90EF90DF90CF9001
:1044C000BF90AF909F908F900895AF92BF92CF9280
:1044D000DF92EF92FF920F931F93CF93DF93CDB7AD
:1044E000DEB728970FB6F894DEBF0FBECDBF82C0EF
:1044F000898188230CF47EC0AE80BF80D5011C96D4
:104500008D919C911D97892B21F0C50102960E94E7
:10451000800BCE010896FEDE8B019C01E9810E2EF8
:10452000000CFF0BEA30F10508F064C08827EE5854
:10453000FF4F8F4F0C94DB37F50186898160868BA6
:10454000CA80DB80EC80FD80468557856089718953
:104550004C0D5D1D6E1D7F1DC50183DD882309F493
:1045600049C0D5015496ED91FC915597C501199517
:10457000F501868982FF3EC04A815B816C817D8125
:1045800086859785A089B1899A01AB01280F391FCB
:104590004A1F5B1FC12CD12C760100E010E060E0C7
:1045A000C501F2DD27C0D50156968C9156978E7FB6
:1045B00056968C931FC0F50186898160868B4A814F
:1045C0005B816C817D8146875787608B718B400F43
:1045D000511F621F731F68017901C50142DD0AC0C6
:1045E000F501868981FD04C0C5010E94F10A02C05F
:1045F0008E7F868B20E030E0A901BE016F5F7F4F88
:1046000080916B1790916C170E94FF0E811170CFF3
:1046100028960FB6F894DEBF0FBECDBFDF91CF91C5
:104620001F910F91FF90EF90DF90CF90BF90AF90D0
:104630000895089584B1806884B985B1806885B98A
:10464000089583B1806883B90895F4DF2FEF80E780
:1046500092E0215080409040E1F700C00000F1DF7F
:10466000F5CFE8DF2FEF87EA91E6215080409040B8
:10467000E1F700C00000E5DFF5CF04D06894B11188
:1046800050C0089533D088F09F5790F0B92F9927E4
:10469000B751A0F0D1F0660F771F881F991F1AF04D
:1046A000BA95C9F712C0B13081F03AD0B1E008959F
:1046B00037C0672F782F8827B85F39F0B93FCCF320
:1046C000869577956795B395D9F73EF49095809543
:1046D000709561957F4F8F4F9F4F089557FD90586C
:1046E000440F551F59F05F3F71F04795880F97FBB6
:1046F000991F61F09F3F79F0879508951216130670
:104700001406551FF2CF4695F1DF08C0161617069E
:104710001806991FF1CF86957105610508940895D3
:10472000E894BB2766277727CB0197F9089581B3D3
:104730008F6081BB2898289A21B381E090E0009097
:10474000B81702C0880F991F0A94E2F78095822358
:1047500081BBE0918717F0918817309709F0199580
:104760000895CF93DF93EC01FC0101900020E9F75D
:104770003197E81BF90BE0938D17E13208F47DC007
:1047800018A20E94813980918D178530E0F444E0B1
:1047900050E0481B51091416150674F480E090E0AF
:1047A00020E02F5FFC01E257F84E1082822F90E04C
:1047B00084179507B4F301C020E010928A1791E0A6
:1047C000920F20E02EC0EEE8F7E1108211821282F3
:1047D00023E0F5CFFE01E40FF51FA08130ED3A0F85
:1047E0003A3050F4E82FF0E0E257F84EB0E0A6532C
:1047F000BA4F8C91808313C03FEB3A0F363050F4A0
:10480000E82FF0E0E257F84EB0E0AD53BA4F8C918C
:10481000808305C0E82FF0E0E257F84E10822F5F4A
:104820009F5F8FEF890F422F50E0FE010190002023
:10483000E9F73197EC1BFD0B4E175F0758F22091FB
:104840008D17253010F1E82FF0E0E257F84E108276
:10485000E92FF0E0E257F84E1082E1E0E90FF0E0D6
:10486000E257F84E10829E5F90938A171092891734
:1048700010928C1710928B1708C00E94813980917A
:104880008D17853008F483CF9ECFE4EBF7E1AEE8D7
:10489000B7E18C91808311968C9111978183129648
:1048A0008C911297828313968C918383DF91CF91A1
:1048B00008959FB7F894E4EBF7E110828EE98183C5
:1048C0008AE0828383839FBF089585B5856085BD17
:1048D000089585B5887F85BD81B38F6081BB0895BC
:1048E0008F92AF92CF92EF920F931F93CF93DF935C
:1048F000EC0180B38F6080BB81B38F6081BB209A55
:1049000087E993E29F938F93812CA12CC12CE12CFA
:1049100000E010E020E240E063E080E10E94372FF9
:104920009093BA178093B91789E187BD84B58260E7
:1049300084BDEEE6F0E0808182608083CADFD093A0
:104940008817C09387170F900F90DF91CF911F9119
:104950000F91EF90CF90AF908F9008951F920F928C
:104960000FB60F9211240BB60F922F933F934F93D4
:104970005F936F937F938F939F93AF93BF93EF93C7
:10498000FF9380918A17882369F120918B173091CA
:104990008C17253F91E0390738F42F5F3F4F309354
:1049A0008C1720938B171EC010928C1710928B17A8
:1049B000E09189172E2F30E090E0049728173907EF
:1049C00014F4EF5F01C0E0E0E0938917F0E0E257F4
:1049D000F84EA4EBB7E128EB37E181918D93A21754
:1049E000B307D9F78091B81790E00196837090785B
:1049F000992324F401978C6F9F6F01968093B817C9
:104A00009927FC01EC54F84E608160958091B917AC
:104A10009091BA170E940E30FF91EF91BF91AF9124
:104A20009F918F917F916F915F914F913F912F91C6
:104A30000F900BBE0F900FBE0F901F901895653012
:104A4000F1F4FA0180818F7390E0982F88272181FB
:104A5000822B90930A02809309028281F0E48F9F57
:104A6000C0011124FA01238126952695822B90936B
:104A700008028093070281E08093BB170895643099
:104A800051F080E090E490930802809307029093A5
:104A90000A028093090208950F931F930FE115E214
:104AA00020E034E244EF50E060E087E20E944B34C3
:104AB0009093BD178093BC1721E0892B09F020E06B
:104AC000822F1F910F9108958091BC179091BD176F
:104AD000009759F040E060E070E00E949C34843020
:104AE00031F41092BB1780E0089582E0089583E0CE
:104AF00008958091BC179091BD17009739F064E03C
:104B00000E94E834853021F083E0089582E0089522
:104B100080E008956091090270910A0280E090E0BF
:104B20000E94C63620E030E048EC52E40E942F3765
:104B300020E038EF4FE756E40C945B36089560911F
:104B400007027091080280E090E00E94C63620E0E3
:104B500030E045E253E40E942F3720E038EF4FE782
:104B600056E40E945B3620E030E040E252E40C94D0
:104B7000F4350895E4DF20E030E040E251E40E94A3
:104B80002F377BDDCB0108950F931F93CF93DF93D6
:104B90001F921F92CDB7DEB78C0119822DC0E09114
:104BA000F517EC3250F481E08E0F8093F517F0E0AA
:104BB000E95DF74E8A81808302C01092F5178A81E1
:104BC0008A30D1F44091F51750E0FA01EB5DF74ED1
:104BD0001082415051099E012F5F3F4F67E278E1FB
:104BE0008091F8179091F9170E94C512898181115F
:104BF0000E94FC0B1092F517BE016E5F7F4FC8013B
:104C00003ED6882361F20F900F90DF91CF911F91D4
:104C10000F9108950F931F93CF93DF938C01EB01B6
:104C20008091F8179091F9170E94D011B8018EEB7E
:104C300097E10E946239209779F0EEEBF7E101905D
:104C40000020E9F7319780E290E091838083BE01F4
:104C50008EEB97E10E945739EEEBF7E1DF010D9003
:104C60000020E9F711978DE09AE011969C938E93BE
:104C700012961C9201900020E9F73197EE5BF74104
:104C8000AE2F8EEB97E1AC016A2F8091FA179091CD
:104C9000FB17A0D5811111C008E215E020E030E03B
:104CA0004DE250E061E878E18091F8179091F917B2
:104CB0000E94091381E898E102C080E090E0DF9152
:104CC000CF911F910F9108952F923F924F925F9233
:104CD0006F927F928F929F92AF92BF92CF92DF920C
:104CE000EF92FF920F931F93CF93DF935C01FC0130
:104CF00001900020E9F731976F01C81AD90A5C2C9E
:104D00000F2EF3EA8F2EF8E09F2EF02DE12CF12CE0
:104D10004C2C3701F40101811281E8010990002037
:104D2000E9F72197C01BD10B3C2EF9E0CF16D10437
:104D300058F0F4012080FEE02F1206C0B801C50132
:104D40000E943239892B09F5442D351408F44C2F73
:104D500050E0B801C5010E946939892B49F4F3017B
:104D6000EE0FFF1FE60DF71DED55F74F20800DC02C
:104D70008FEFE81AF80AE3E08E0E911CF1E1EF16CE
:104D8000F10439F66894222424F8822DDF91CF9122
:104D90001F910F91FF90EF90DF90CF90BF90AF9059
:104DA0009F908F907F906F905F904F903F902F904B
:104DB000089530DF89CF08958091F8179091F91701
:104DC0000C94D01108958F929F92AF92CF92EF9250
:104DD0000F931F93CF93C82F8B0141E060E070E0E9
:104DE00088EC90E00E949E119093F9178093F81739
:104DF0001093F7170093F6170F2EF4EC8F2EF5E2B1
:104E00009F2EF02D6894AA24A6F86894CC24C6F8A6
:104E1000E12C00E023E040E051EE60E070E08C2FF8
:104E200006D49093FB178093FA17E7E0F1E08081B6
:104E300080618083CF911F910F91EF90CF90AF90C1
:104E40009F908F900895882331F0E8E0F1E0808111
:104E50008F7E80830895E8E0F1E080818061808327
:104E6000089560E070E089E296E0D4DEE1E8F8E1E0
:104E700001900020E9F73197E158F84181E07597FA
:104E800008F080E00895CF93DF93EC0160E070E0DC
:104E90008AE396E0BFDEE1E8F8E101900020E9F75F
:104EA000E259F84139F461E878E1CE010E946239B3
:104EB00080E002C0188281E0DF91CF910895FC016B
:104EC00001900020E9F79F01215131092817390786
:104ED00029F4BC0188E696E06CCF089589E0089536
:104EE000FC0101900020E9F79F01215131092817A9
:104EF000390729F4BC0187E796E05BCF089589E084
:104F00000895FC0101900020E9F79F012152310929
:104F10002817390729F4BC0186E896E04ACF08959E
:104F200089E0089560E070E085EC96E042CF089556
:104F30000F931F93E82FF0E0EE0FFF1FE156F74F9E
:104F4000608171818EEC96E034DF811114C008E23B
:104F500015E020E030E04DE250E061E878E180913A
:104F6000F8179091F9170E940913882321F081E81E
:104F700098E1AADE03C081E898E1A6DE1F910F91B7
:104F800008950F931F93CF93DF931F92CDB7DEB792
:104F9000DB0111969C911197953108F0B4C09923CB
:104FA00081F160E070E0272F30E0462F50E0FD01F6
:104FB000E40FF51F928192959F709A3010F0995CE2
:104FC00001C0905DF901EE5EF74E90832F5F3F4F79
:104FD000FD01E40FF51F92819F70492F50E04A3088
:104FE000510514F0995C01C0905DF901EE5EF74E39
:104FF00090837E5F6F5F11969C911197691798F26D
:1050000001C070E0E72FF0E0EE5EF74E10824C91A9
:10501000811103C087ED96E002C089ED96E022E1A0
:1050200038E13F932F931F924F939F938F938DED72
:1050300096E09F938F9384E598E19F938F930E94CE
:105040000A3A60E070E084E598E1B3DE0FB6F894C8
:10505000DEBF0FBECDBF811159C008E215E020E0D0
:1050600030E04DE250E061E878E18091F8179091EE
:10507000F9170E940913882309F447C081E898E1D1
:1050800023DE8E3009F042C087E089838091F617D5
:105090009091F717892BA9F1BE016F5F7F4F81E8CF
:1050A00098E168D18093FC17E981F0E0EF57F74E63
:1050B000DF010D900020E9F71197AE1BBF0BAA236B
:1050C00091F0BB27CD0101979C0112F42F5F3F4F58
:1050D000359527952093FD17AF014F5F5F4F64E132
:1050E0008EEF97E173D101E010E020E030E046E17F
:1050F00050E06CEF77E18091F6179091F7170E94DE
:1051000000128EE003C084E101C080E00F90DF91C7
:10511000CF911F910F910895813019F06DEE76E0D7
:1051200002C066EC77E081EF96E043CE08959F934E
:105130008F9382E297E09F938F9384E598E19F930A
:105140008F930E940A3A60E070E084E598E131DED6
:105150000F900F900F900F900F900F9008952F9237
:105160003F924F925F926F927F928F929F92AF92F7
:10517000BF92CF92DF92EF92FF920F931F93CF9344
:10518000DF93CDB7DEB7A0970FB6F894DEBF0FBEA2
:10519000CDBF6FE477E08BE597E03CDD95DD8111D5
:1051A000A3C080E2E2E2F2E0DE01119601900D92EE
:1051B0008A95E1F79E012F5F3F4F6901E12CF12CA9
:1051C0000F2EF7E6AF2EF7E0BF2EF02D04E518E125
:1051D0000F2EF0E84F2EF7E05F2EF02D0F2EF7E99F
:1051E0008F2EF7E09F2EF02D0F2EF1EB6F2EF7E0B4
:1051F0007F2EF02D3E2C2F2CFF92EF92BF92AF927C
:105200001F930F930E940A3A60E070E0C80102DD2C
:105210005BDD0F900F900F900F900F900F9081110A
:1052200063C032E03E15E8F4F60183818F938281FA
:105230008F9381818F9380818F93FF92EF925F9202
:105240004F921F930F930E940A3A60E070E0C801EA
:10525000E1DC3ADD0FB6F894DEBF0FBECDBF8111A1
:1052600043C02F923F929F928F921F930F930E9461
:105270000A3A60E070E0C801CDDC26DD0F900F90A7
:105280000F900F900F900F9081112EC02F923F9290
:105290007F926F921F930F930E940A3A60E070E032
:1052A000C801B8DC11DD0F900F900F900F900F9098
:1052B0000F90811119C03FEFE31AF30A84E0C80E82
:1052C000D11C98E0E916F10409F094CF60E070E099
:1052D00089EC97E09FDCF8DC811106C060E070E0AB
:1052E0008AED97E097DCF0DCA0960FB6F894DEBF6D
:1052F0000FBECDBFDF91CF911F910F91FF90EF9027
:10530000DF90CF90BF90AF909F908F907F906F90E5
:105310005F904F903F902F900895EF92FF920F93E0
:105320001F93CF93DF93EC018B017A0181E0F4DED0
:1053300081110DC0CE01D4DD811109C0C801E1DDAC
:10534000811105C0C701BBDD811101C0EBDDDF911B
:10535000CF911F910F91FF90EF90089590E0FC0185
:10536000EE0FFF1F8E0F9F1FFC01ED55F74F818140
:1053700092810895DC01009729F1FB012081FC0155
:1053800001900020E9F73197E81BF90B822F90E09C
:10539000E817F907C8F080E008C0880F382F330FEE
:1053A000330F830F8053890F2F5FFD01E20FF11D33
:1053B000908130ED390F3A3010F49111EECFFB01AE
:1053C0002083089580E0089580E008950F931F934F
:1053D000CF93DF93DC01EA012097E1F1FA0101901C
:1053E0000020E9F73197E41BF50B329710F532C036
:1053F0008D01040F151F30E0AE01420F531FFA015B
:105400009081913428F09753592F5295507F03C0C3
:10541000592F5295507F2C0F3D1FF90191819134E6
:1054200010F0975301C09053950FF80190838F5F50
:1054300001C080E0282F220F482F50E0FE0101908C
:105440000020E9F73197EC1BFD0B4E175F0710F4B6
:105450008613CECFDF91CF911F910F910895809148
:10546000B118860F8093B1189091B418913079F0EB
:1054700028F09230A9F0933019F108956F3F09F0A8
:1054800048C01092B11881E08093B418089566382E
:1054900009F03FC01092B01882E08093B4180895CC
:1054A000E091B01881E08E0F8093B018F0E0E255E3
:1054B000F74E6083823069F583E08093B4180895D5
:1054C0009091B01821E0290F2093B018963009F57B
:1054D00081110EC0EEEAF8E1808190E0982F8827D4
:1054E0002181820F911D9093B6188093B51804C046
:1054F0001092B6181092B5181092B418E091B21824
:10550000F091B318309729F08091B5189091B618A2
:10551000199508958F929F92AF92CF92EF920F9329
:105520000F2EFFE28F2EFAE29F2EF02D6894AA2410
:10553000A4F86894CC24C4F8E12C00E023E040E80F
:1055400055E260E070E073D09093B8188093B7187C
:105550000F91EF90CF90AF909F908F900895909380
:10556000B3188093B2180895CF93DF93CDB7DEB709
:1055700029970FB6F894DEBF0FBECDBF89E0E2E4F5
:10558000F2E09E012F5F3F4FD90101900D928A9565
:10559000E1F71092B6181092B5188091B718909153
:1055A000B818009731F0422F532F69E013D180E0F3
:1055B00001C082E029960FB6F894DEBF0FBECDBFC2
:1055C000DF91CF91089565360CF064E66C390CF4E8
:1055D0006CE996EF6902B00111246854744F81118F
:1055E00005C07093290160932801089570932B01E1
:1055F00060932A010895EAE0F1E080818861808368
:105600008FE39CE9909327018093260160E080E07E
:10561000DADF60E081E0D7DFE0E2F1E08081826AFA
:105620008083E1E2F1E080818A61808308952F9296
:105630003F924F925F926F927F928F929F92AF9222
:10564000CF92EF92FF920F931F93CF93DF93CDB73B
:10565000DEB7F82E2A013B0188E090E00E94FD377A
:105660008C018F2D90E0FC01EE0FFF1FE754F74EE9
:10567000118300830115110509F46FC0880F991F6C
:10568000FC01E55FFD4F80819181D8018D939C9352
:105690008C2D90E0880F991F880F991F0E94FD376D
:1056A0001C0186E090E00E94FD377C014C2DB10189
:1056B0000E94D835F801F582E4828A2D90E0880FA7
:1056C000991F880F991F0E94FD371C0186E090E00A
:1056D0000E94FD377C014A2DB1010E94D835D801C6
:1056E0001396FC92EE92129717969C928E921697B2
:1056F000FFB6F894ED91FC91119736978081826006
:1057000080838D909C90C301B2010E94C63620E038
:1057100030E040E051E40E942F379B01AC0160E093
:1057200074E284E79BE40E945B3620E030E040E8CE
:105730005FE30E94F4350E944223F40132976083B4
:10574000D801ED91FC911197359788E98083ED910F
:10575000FC91349786E08083FFBEC801DF91CF9132
:105760001F910F91FF90EF90CF90AF909F908F90EF
:105770007F906F905F904F903F902F900895CF93C0
:10578000DF93DC01892B01F11296ED91FC911397C7
:10579000938182812581981B922384819817B1F08F
:1057A000838126952823C081D181C20FD11D6883B2
:1057B0008F5F958189238383ED91FC91359780815B
:1057C0008062808380E003C081E001C082E0DF91DD
:1057D000CF910895EF92FF920F931F93CF93DF9392
:1057E0007C01009709F441C0DC011296ED91FC9117
:1057F000139793818281981B858198238481891BCB
:105800008617A8F1662341F1842F952FDC016150A2
:10581000462F50E04F5F5F4F480F591FE701EA8165
:10582000FB81938182812581981B92238481981723
:1058300079F08C91938126952923608171818B0168
:10584000020F111DE80188839F5F85819823938350
:105850001196A417B50711F7D701ED91FC91359773
:1058600080818062808380E003C081E001C082E0AB
:10587000DF91CF911F910F91FF90EF9008950097C6
:10588000D1F0DC011496ED91FC9115979381828102
:10589000981799F09281858186958923A081B1819D
:1058A000A80FB11D8C91DB018C939F5F858198239C
:1058B000928380E0089581E0089583E008951F9227
:1058C0000F920FB60F9211240BB60F922F933F93A6
:1058D0004F935F936F937F938F939F93AF93BF93F8
:1058E000CF93DF93EF93FF93A091B918B091BA18BB
:1058F000109711F16091C6001496ED91FC911597E7
:10590000938182812581981B92238481981761F06D
:10591000838126952823C081D181C20FD11D688340
:105920008F5F9581892383831696ED91FC9117975C
:10593000309711F0CD011995FF91EF91DF91CF9143
:10594000BF91AF919F918F917F916F915F914F9197
:105950003F912F910F900BBE0F900FBE0F901F9095
:1059600018951F920F920FB60F9211240BB60F923B
:105970002F938F939F93AF93BF93EF93FF93E091F8
:10598000B918F091BA183097B9F00280F381E02D80
:10599000938182819817B1F092818581282F269575
:1059A0002923A081B181A20FB11D2C919F5F892372
:1059B00082832093C6000BC0E1ECF0E080818F7DF4
:1059C000808305C0E1ECF0E080818F7D8083FF91D2
:1059D000EF91BF91AF919F918F912F910F900BBE3F
:1059E0000F900FBE0F901F9018951F920F920FB639
:1059F0000F9211240BB60F922F933F934F935F9307
:105A00006F937F938F939F93AF93BF93CF93DF93C6
:105A1000EF93FF93A091BB18B091BC18109711F1B0
:105A20006091CE001496ED91FC911597938182813F
:105A30002581981B92238481981761F08381269594
:105A40002823C081D181C20FD11D68838F5F9581CA
:105A5000892383831696ED91FC911797309711F067
:105A6000CD011995FF91EF91DF91CF91BF91AF914A
:105A70009F918F917F916F915F914F913F912F9166
:105A80000F900BBE0F900FBE0F901F9018951F9296
:105A90000F920FB60F9211240BB60F922F938F9384
:105AA0009F93AF93BF93EF93FF93E091BB18F09157
:105AB000BC183097B9F00280F381E02D9381828188
:105AC0009817B1F092818581282F26952923A081EE
:105AD000B181A20FB11D2C919F5F892382832093F6
