:10000000E6C0000004C1000002C1000000C1000001
:10001000FEC00000FCC00000FAC00000F8C00000F4
:10002000F6C00000F4C00000F2C00000F0C0000004
:100030000C94850CECC00000EAC00000E8C0000091
:10004000E6C00000E4C00000E2C00000E0C0000024
:10005000DEC000000C947124DAC00000D8C000009B
:100060000C9446300C94222C0C94742CD0C00000BC
:10007000CEC00000CCC00000CAC00000C8C0000054
:10008000C6C00000C4C00000C2C00000C0C0000064
:100090000C94B82C0C940A2DBAC000000C94DE34D9
:1000A000B6C00000B4C00000B2C00000B0C0000084
:1000B000AEC00000ACC00000AAC00000A8C0000094
:1000C000A6C00000A4C00000A2C000000C944E2DE9
:1000D0000C94A02D9CC000000C94E42D0C94362EA2
:1000E00096C000005F225F225F2296229E22B322EA
:1000F0005F225F2296229E22003570357035703562
:100100007035703570357035003570357035703537
:100110007035703570357035023570357035703525
:1001200070357035703570357035703570357035A7
:100130007035703570357035023570357035703505
:100140007035703570357035703570357035703587
:1001500070357035703570356C357035703570357B
:1001600070357035703570353735703570357035A0
:100170007035703570357035703570357035703557
:1001800070357035703570352B357035703570358C
:1001900070357035703570354F350E94A0148091E0
:1001A000EF16823010F00E94BF0B0E94DC22F5CFC8
:1001B000CF93DF931F92CDB7DEB7CE0101960E9499
:1001C000DC1F49810E94D1210E942822F6CF1124F0
:1001D0001FBECFEFD1E2DEBFCDBF00E00CBF18E005
:1001E000A0E0B2E0E4E5F9E700E00BBF02C0079051
:1001F0000D92A03EB107D9F729E1A0EEB8E001C009
:100200001D92A535B207E1F700D30C94A83CF8CEB7
:1002100040E064E084E00E94B40D9093F518809370
:10022000F418892B21F08FE692E00C94613908953F
:100230000F93CF93DF9300D01F92CDB7DEB76983C2
:100240007A838B839C8300E02AE030E040E050E03A
:10025000BE016F5F7F4F8091F4189091F5180E9456
:10026000D70D813021F086E792E00E9461390F902E
:100270000F900F900F90DF91CF910F910895CF9332
:10028000DF9300D01F92CDB7DEB72AE030E040E028
:1002900050E0BE016F5F7F4F8091F4189091F51888
:1002A0000E94C20E813021F085E090E09C838B8318
:1002B00069817A818B819C810F900F900F900F90B4
:1002C000DF91CF9108959093F7188093F6180895D1
:1002D0008091F6189091F718089581E00E947B0EA6
:1002E0009093F9188093F818892B29F08FE792E002
:1002F0000C946139089588E892E00C94613908956E
:10030000FF920F931F93CF93DF93CDB7DEB7649720
:100310000FB6F894DEBF0FBECDBF81E00E94E62687
:1003200062E070E080E090E00E946C1880E00E9443
:10033000E62666E970E080E090E00E946C180E947A
:100340009F260E94F4260E947228CE0101960E94E8
:100350000627CE0101960E942227AE014F5F5F4F14
:1003600066E972E087EB92E00E9450290E945527CF
:1003700081E00E944F2880ED97E00E945A2882E099
:100380000E940D321AE082E090E00E94C037F82E01
:10039000092F1F921F938EE297E09F938F931F92D6
:1003A00082E08F930F93FF920E9491398F2D902FAF
:1003B0000E9474238F2D902F0E94583880E00E9455
:1003C0005B27082F0E9471299F938F931F921F9381
:1003D00088EC92E09F938F930E944E390FB6F89469
:1003E000DEBF0FBECDBF083059F080E00E947132F1
:1003F00066E371E080E090E00E946C18115019F6FD
:10040000083089F487EE92E00E94742381E00E9414
:10041000533280E00E94623287E090E0A5D082E013
:100420000E9462320EC081E00E9462320E941C244F
:1004300080E00E94303282E00E9462320E94BF0B54
:10044000FDCF64960FB6F894DEBF0FBECDBFDF912F
:10045000CF911F910F91FF9008958091FE18909178
:10046000FF1808958091FA189091FB1808958091D3
:10047000FC189091FD1808951AD69093FF18809358
:10048000FE18892B49F48CEE92E09F938F930E9483
:100490004E390F900F9004C08FEF92E00E946139A7
:1004A00006D69093FB188093FA18892B49F48CEEAA
:1004B00092E09F938F930E944E390F900F9004C04B
:1004C00082E193E00E946139F2D59093FD18809308
:1004D000FC18892B49F48CEE92E09F938F930E9435
:1004E0004E390F900F90089581E293E00C9461399A
:1004F000089581E090E008C0FC01EE0FFF1FE05F6F
:10050000F64E11821082019688309105ACF381E09D
:1005100090E09093111980931019A4DF4EEF50E0F2
:1005200060E070E077D681E393E00C946139089540
:10053000CF93DF9341E050E0EA0102C0CC0FDD1F12
:100540008A95E2F78FDFAE01DD0F660B770B62D67F
:10055000DF91CF910895FC01EE0FFF1FE05FF64E93
:1005600011821082E5CF0895FC01EE0FFF1FE05FBE
:10057000F64E21E030E031832083DACF0895FC018C
:10058000EE0FFF1FE05FF64E2081318121303105F3
:1005900009F45AC024F4232B09F46CC008952230C6
:1005A000310521F02330310541F10895FC01EE0FB2
:1005B000FF1FE050F74E20813181223031059CF041
:1005C00042B121E030E0082E02C0220F331F0A940E
:1005D000E2F7242722B9880F991FFC01E050F74E5B
:1005E000118210820895880F991FFC01E050F74E88
:1005F0002F5F3F4F318320830895FC01EE0FFF1FD3
:10060000E050F74E20813181121613069CF442B15E
:1006100021E030E0082E02C0220F331F0A94E2F7D7
:10062000242722B9880F991FFC01E050F74E118250
:1006300010820895880F991FFC01E050F74E2F5F3C
:100640003F4F31832083089542B121E030E0082EEE
:1006500002C0220F331F0A94E2F72095242322B907
:10066000880F991FFC01E05FF64E8FEF9FEF91839B
:100670008083089542B121E030E0082E02C0220FAD
:10068000331F0A94E2F7242B22B9880F991FFC012B
:10069000E05FF64E8FEF9FEF91838083089529DF0F
:1006A000E1DE0F2EF5EBCF2EDD24D394E12CF12CDF
:1006B000F02D00E021E04EEF50E060E070E00AD560
:1006C000C62F61FF03C081E090E059DFC2FF03C085
:1006D00082E090E054DFC3FF03C083E090E04FDF8F
:1006E000C4FF03C084E090E04ADFC5FF03C085E09B
:1006F00090E045DFC6FF03C086E090E040DFC7FF23
:10070000CFCF87E090E03BDFCBCFEF92FF920F930C
:10071000E12CF12C02E020E030E046E551E068E316
:1007200073E083E794E00E94671501E020E030E089
:1007300040EC50E064E473E083E996E00E946715C2
:1007400020E030E040EC50E06CE473E085E797E0B7
:100750000E94671520E030E040EC50E068E573E06F
:1007600083E297E00E94671520E030E040EC50E023
:1007700060E673E087EE97E00E94671502E020E0F4
:1007800030E040EC50E06AE673E08CE396E00E94D3
:10079000671520E030E040EC50E065E773E08BE760
:1007A00095E00E94671520E030E040EC50E062E800
:1007B00073E08FE493E00E9467150F91FF90EF9034
:1007C000089580E00E94982E81B18FEF81B985E075
:1007D0000E94BF3180E090E00E9433240C942824D2
:1007E0000895EFDF7ADDF0D347DE6ED324D023D334
:1007F0008ED28BDF0DDD1AD0BC0181E00E94A626CF
:1008000081E993E00C9461390895EBDF0E94B31500
:1008100089E993E09F938F930E944E390F900F9038
:10082000F7CF809120199091211908958091221974
:1008300090912319089541E060E070E088E190E034
:100840000E946111909321198093201941E060E08A
:1008500070E088E190E00E946111909323198093E9
:1008600022198091201990912119892B29F48FE95F
:1008700093E00C94613908958EEA93E00C94613909
:100880000895E7E2F9E128E0218322E02083209126
:100890002619422F022E000C550B528323832091E0
:1008A0003D19422F022E000C550B548325832091B5
:1008B0002519422F022E000C550B568327832091B9
:1008C0002419422F022E000C550B5087218726E158
:1008D000DC0101900D922A95E1F7089580E00E94D5
:1008E00053320ECD0895CF93DF93CDB7DEB7E097A7
:1008F0000FB6F894DEBF0FBECDBFF0DF0E94F1153A
:1009000069837A838B839C8387EB93E00E947423B3
:1009100082E090E029DE81E090E026DE8CEB93E03F
:100920000E9461399ADD41E050E060E070E072D4ED
:100930009EDD0F2EFCE0CF2ED12CE12CF12CF02DE2
:1009400000E021E041E050E060E070E0C3D3672BBD
:10095000682B692B21F08EEC93E00E94613980EEC8
:1009600093E00E94613979DD42E050E060E070E0A0
:1009700051D47DDD0F2EFCE0CF2ED12CE12CF12CBB
:10098000F02D00E021E042E050E060E070E0A2D312
:10099000672B682B692B21F082EF93E00E9461396D
:1009A00080E094E00E94613958DD44E050E060E06E
:1009B00070E030D45CDD0F2EFCE0CF2ED12CE12C8A
:1009C000F12CF02D00E021E044E050E060E070E028
:1009D00081D3672B682B692B21F082E194E00E9480
:1009E000613980E294E00E94613982E090E0B3DDF9
:1009F0008DE394E00E94742342DC6B017C0164E689
:100A000070E080E090E00E946C18C701853091058D
:100A100089F18230910589F01CF4019739F022C0E8
:100A200083309105C1F0049779F01CC0C09225195C
:100A300082E494E00E94613919C0C09226198AE4C8
:100A400094E00E94613912C0C092241982E594E0BA
:100A50000E9461390BC0C0923D198AE594E00E9462
:100A6000613904C083E694E00E94613985E0E816AC
:100A7000F10411F68BE694E00E946139CE014B96A9
:100A800000DF86E1FE017B96DE01159601900D9256
:100A90008A95E1F764EF71E080E090E00E946C18C5
:100AA000C0DE08EE13E020E030E046E150E0BE0199
:100AB0006B5F7F4F0E94C311469721F084E894E05A
:100AC0000E9461398DE994E00E94613981E090E0F3
:100AD00042DD87EE92E00E94742348E853E160E033
:100AE00070E0CE0101960E9407180ECF82EB94E0D1
:100AF0000C9461390895CF93DF93CDB7DEB7669735
:100B00000FB6F894DEBF0FBECDBFF0DF8FDE09E178
:100B100014E620E030E046E150E0BE016F5F7F4F19
:100B20000E94CC12469709F046C083E00E94303202
:100B300081E00E94713288EB94E00E9474238DEB77
:100B400094E00E9461398B8180933E1981E090E0AE
:100B50009093401980933F1900E010E015C0E3E046
:100B6000F0E0EC0FFD1FE00FF11F80811F928F93CB
:100B70008EEC94E09F938F930E944E390F5F1F4F2E
:100B80000F900F900F900F908A8190E0081719072F
:100B900034F380913E19282F082E000C330B3F931D
:100BA0008F9385EC94E09F938F930E944E390F9022
:100BB0000F900F900F9080913F19909140190197DD
:100BC00009F0A4CF8091F8189091F918009709F4D2
:100BD00049C044EF51E060E070E00E94510F813065
:100BE000C1F580913E19082E000C990B845691098D
:100BF0006ADB00E020E030E0A90160E070E0809175
:100C0000F8189091F918D3D782ED94E00E946139D9
:100C100024DC48E050E060E070E0FCD228DC0F2EDD
:100C2000FEE3CF2ED12CE12CF12CF02D21E042E07F
:100C300050E060E070E04ED26EE370E080E090E063
:100C40000E946C1883E00E94623281E00E9453325D
:100C500009C08FEE94E00E9461390E941C2483E059
:100C60000E9462321092401910923F194FCF86E0D5
:100C700095E00C9461390895CF93DF93CDB7DEB73B
:100C800066970FB6F894DEBF0FBECDBFF0DFC9DDAB
:100C90000AE816E620E030E046E150E0BE016F5F72
:100CA0007F4F0E94CC12469791F78CE095E00E940E
:100CB000742382E00E94303281E195E00E94613924
:100CC000BE016F5F7F4F80E00E9484270E947129E0
:100CD0009F938F938BE195E09F938F930E944E3962
:100CE00087EE92E00E94742382E00E9462320F90AD
:100CF0000F900F900F90CBCF909343198093421990
:100D000081E090E09093E1088093E008089586E206
:100D100095E00E94613983E00E944D2A8CE796E0BD
:100D20000C94722A08951092E1081092E00895DB65
:100D30000F2EF7E3CF2EFFE5DF2EE12CF12CF02D67
:100D400001E021E041E050E060E070E0C3D1C62F57
:100D500083E090E009DCC0FF35C08EE295E00E94A0
:100D600061390E94772A80934119882359F08FE3D3
:100D700095E00E94613906C062E370E080E090E097
:100D80000E946C188091E0089091E108892BA1F3F2
:100D9000AA24A394B12C8090421990904319C501C4
:100DA000B40146DA809143198F93809142198F9351
:100DB0008DE495E09F938F930E944E390F900F9092
:100DC0000F900F9083E090E0C6DBADCFCF93DF9321
:100DD00000D01F92CDB7DEB78130B1F4CE010196BD
:100DE0000E94243369817A818B819C810E94002337
:100DF0007F936F9386E595E09F938F930E944E3982
:100E00000F900F900F900F9069817A818B819C8158
:100E10000E940523709345196093441981E090E086
:100E20009093E1088093E0080F900F900F900F903F
:100E3000DF91CF91089586EE96E00C94E23208950A
:100E40000C94FD320895FCDF08DB0F2EF6ECCF2E5C
:100E5000FCE5DF2EE12CF12CF02D01E021E044E057
:100E600050E060E070E036D1C62F85E090E07CDB9A
:100E7000C2FF26C08FE595E00E9461390E941233BF
:100E8000882349F00E941C2406C062E370E080E0E1
:100E900090E00E946C188091E0089091E108892B05
:100EA000A1F36894AA24A2F8B12C809044199090E0
:100EB0004519C501B401BCD91092E1081092E008AF
:100EC00085E090E048DBC0CF0E940F25811104C06F
:100ED0008BE695E00E9461390E942725882321F046
:100EE00083E795E00C9461390895B7DA0F2EF5E5A4
:100EF000CF2EFAE5DF2EE12CF12CF02D01E021E0E0
:100F000042E050E060E070E0E5D0C62F84E090E081
:100F10002BDBC1FF55C08EE795E00E9461390E942E
:100F20003C25882321F08FE895E00E94613964E137
:100F300070E080E090E00E946C180E947D25909304
:100F40004919809348190F2EF3E0AF2EB12CF02DE4
:100F50004C01C501B4016CD962E370E080E090E01F
:100F60000E946C180E944D250E940523709347191A
:100F7000609346196894AA24A1F8B12C4B01C501CD
:100F8000B40156D962E370E080E090E00E946C18F2
:100F9000809147198F93809146198F9380914919B9
:100FA0008F93809148198F938EE995E09F938F934B
:100FB0000E944E390F900F900F900F900F900F904E
:100FC00084E090E0C8DA91CF0C94BE2A089545DA07
:100FD0000F2EF7E3CF2EFFE5DF2EE12CF12CF02DC5
:100FE00001E021E048E050E060E070E073D0C62FFF
:100FF00086E090E0B9DAC3FFEACF8091F8189091CB
:10100000F918009749F148EE53E060E070E049D7E5
:101010008130F1F45DD9C82F00E020E030E0A90173
:1010200060E070E08091F8189091F918C0D56AE0FE
:1010300070E080E090E00E946C188BEA95E00E94DE
:1010400061396C2F81E00E94A62AC0934A1904C01E
:101050008BEC95E00E94613966E070E080E090E002
:101060000E946C1886E090E076DAB1CF0F93011100
:101070000CC0DC01CB0182239323A423B523892B4D
:101080008A2B8B2B79F480E010C0DC01CB0182230A
:101090009323A423B523281739074A075B0721F0B8
:1010A00080E003C081E001C081E00F910895CF93FB
:1010B000DF938FE090E0AFD1EC01009739F0FC01B5
:1010C0001192119211921192CF018BD2CE01DF9128
:1010D000CF9108952F923F924F925F926F927F929D
:1010E0008F929F92AF92BF92CF92DF92EF92FF9238
:1010F0000F931F93CF93DF93EC014A015B01622EA4
:10110000702E0E94EB15288039804A805B80A501F3
:101110009401C201B101AADF8823A1F0662089F100
:10112000D501C40180959095A095B0958221932119
:10113000A421B52188839983AA83BB83C12CD12C98
:10114000760122C0C114D104E104F104E9F0611078
:1011500004C040E050E0BA0104C040E050E060E06C
:1011600071E071107460482959296A297B29970117
:101170008601CE0104960E940319212C312C2101F5
:1011800003C0C12CD12C76010E942B17CD28CE286C
:10119000CF2859F1811101C0F2D20E94C51C6B0108
:1011A0007C0191FD1FC00FB6F8940F92C880D980C2
:1011B000EA80FB80072DA5019401C701B60156DF27
:1011C000882371F0662061F080949094A094B0948C
:1011D0008C209D20AE20BF2088829982AA82BB826B
:1011E0000F900FBE160127015524C201B101DF91F6
:1011F000CF911F910F91FF90EF90DF90CF90BF9014
:10120000AF909F908F907F906F905F904F903F90A6
:101210002F9008954F925F926F927F92AF92BF92FC
:10122000CF92DF92EF92FF920F931F93CF93DF93B2
:10123000EC016A017B018C01095F1F4F0E94EB15D5
:10124000EB85FC8588819981AA81BB81C82AD92A2E
:10125000EA2AFB2AC882D982EA82FB82C12CD12CDD
:1012600076013DC0A480B58080819181A281B38147
:10127000AC01BD017727B2FD0EC0488059806A805D
:101280007B8044225522662277224528462847281B
:1012900089F420E012C0488059806A807B80442213
:1012A000552266227722441555056605770521F0FB
:1012B00020E003C021E001C021E0222371F0B0FF53
:1012C00004C0C42AD52AE62AF72A488159816A81AE
:1012D0007B817260CF010E943E1AEA2DFB2DE01740
:1012E000F10709F0BFCFC094D094E094F0948881C6
:1012F0009981AA81BB81C822D922EA22FB22C88215
:10130000D982EA82FB820E942B17688179818A81C7
:101310009B81DF91CF911F910F91FF90EF90DF9014
:10132000CF90BF90AF907F906F905F904F90089557
:10133000EEEEF8E0A2EFB8E0B183A0831382128250
:10134000EAE9F6E1F093ED08E093EC0813821282EB
:101350001182108288EA9DE013969C938E931297D7
:10136000ED93FC939093E9088093E8089093EB0841
:101370008093EA0880E090E89093E3088093E20885
:101380000895CF93DF93EC01AEEEB8E001C0DF012A
:10139000ED91FC911197EC17FD07C8F312968D9112
:1013A0009C9113979D01280F391FC217D30749F449
:1013B0002A813B81820F931F13969C938E931297E1
:1013C000ED018A819B819E01280F391FE217F307E7
:1013D000C1F42091EC083091ED08E217F30771F0A9
:1013E00022813381820F931F9B838A83ED91FC912D
:1013F0001197808191819983888305C039832883DF
:1014000002C0F983E883CA17DB0711F0CD93DC93A0
:10141000DF91CF910895EF92FF920F931F93CF9397
:10142000DF938C010E94EB158091EC089091ED0800
:10143000892B09F47DDF8091E2089091E3088023F5
:101440009123892B09F076C00115110549F0C801D7
:1014500004960817190718F000E010E001C08C018D
:101460000115110509F469C08091EA089091EB0813
:101470008017910708F464C0C091EE08D091EF087E
:10148000EEEEF8E002C0FE01EC018A819B8180173C
:10149000910720F4888199810097A9F78091EC0841
:1014A0009091ED08C817D90709F44DC0E080F1808C
:1014B00084E0E80EF11C88819981918380832A81E0
:1014C0003B81201B310B2930310548F0CE01800FC4
:1014D000911FFC01338322831B830A8352DF2A81FD
:1014E0003B818091EA089091EB08821B930B9093CB
:1014F000EB088093EA084091E8085091E9088417C6
:10150000950720F49093E9088093E8088091E20819
:101510009091E308282B392B3B832A831982188268
:101520008091E6089091E70801969093E7088093F0
:10153000E6080BC0E12CF12C08C0E12CF12C05C011
:10154000E12CF12C02C0E12CF12C0E942B17E114AC
:10155000F10411F40E94E822C701DF91CF911F919D
:101560000F91FF90EF9008950F931F93CF93DF9308
:10157000009791F1EC0124974A815B812091E20868
:101580003091E308BA0162237323672B29F1688144
:101590007981672B09F520953095242335233B83EA
:1015A0002A830E94EB158A819B812091EA08309161
:1015B000EB08820F931F9093EB088093EA08CE010B
:1015C000E0DE8091E4089091E50801969093E508AB
:1015D0008093E4080E942B17DF91CF911F910F9108
:1015E0000895FC010396928381834FEF5FEFBA0168
:1015F000438354836583768390878783928781872B
:1016000010820895FC011386128608950F931F938C
:10161000CF93DF93EB01088119812A813B810F3F32
:101620004FEF14072407340721F4FC01A185B2858C
:1016300011C0DC01139601C0DF011496ED91FC91FD
:101640001597408151816281738104171507260720
:10165000370790F71496ED91FC911597FD83EC8375
:10166000D783C683BF83AE831596DC93CE9314973E
:101670009B878A87FC0120812F5F2083DF91CF9198
:101680001F910F910895CF93DF93FC01A285B3853D
:10169000C481D581868197819F838E83C681D781BE
:1016A000848195819D838C8311968D919C91129755
:1016B000E817F90731F48681978112969C938E93EF
:1016C0001197138612868C9181508C938C91DF91A7
:1016D000CF910895A89590EC88E10FB6F894A8955D
:1016E000809360000FBE909360000895FC016083BA
:1016F000319770833197108231971082319720E8AB
:10170000208331971082319710823197108277971A
:1017100040833197508386970895DCDFA0915D1751
:10172000B0915E17CD91CDBFDD91DEBFFF91EF91FE
:10173000DF91CF91BF91AF919F918F917F916F91E9
:101740005F914F913F912F911F910F91FF90EF90DB
:10175000DF90CF90BF90AF909F908F907F906F90D1
:101760005F904F903F902F901F900F900CBE0F9066
:101770000BBE0F900FBE0F90089581E008950F9259
:101780000FB6F8940F920BB60F920CB60F921F92F1
:1017900011242F923F924F925F926F927F928F927D
:1017A0009F92AF92BF92CF92DF92EF92FF920F93F0
:1017B0001F932F933F934F935F936F937F938F93D9
:1017C0009F93AF93BF93CF93DF93EF93FF93A0913A
:1017D0005D17B0915E170DB60D920EB60D920E9478
:1017E0008718A0915D17B0915E17CD91CDBFDD91A7
:1017F000DEBFFF91EF91DF91CF91BF91AF919F91AC
:101800008F917F916F915F914F913F912F911F9198
:101810000F91FF90EF90DF90CF90BF90AF909F908F
:101820008F907F906F905F904F903F902F901F9080
:101830000F900CBE0F900BBE0F900FBE0F9008952F
:101840000F920FB6F8940F920BB60F920CB60F9240
:101850001F9211242F923F924F925F926F927F922C
:101860008F929F92AF92BF92CF92DF92EF92FF92B0
:101870000F931F932F933F934F935F936F937F9398
:101880008F939F93AF93BF93CF93DF93EF93FF9388
:10189000A0915D17B0915E170DB60D920EB60D9228
:1018A00013BE0E94FF1581110E948718A0915D1739
:1018B000B0915E17CD91CDBFDD91DEBFFF91EF916D
:1018C000DF91CF91BF91AF919F918F917F916F9158
:1018D0005F914F913F912F911F910F91FF90EF904A
:1018E000DF90CF90BF90AF909F908F907F906F9040
:1018F0005F904F903F902F901F900F900CBE0F90D5
:101900000BBE0F900FBE0F9008959ADF1895DC0163
:1019100053962C915397222341F05A96ED91FC91C6
:101920005B9790818AE0891B089580E008950FB647
:10193000F8940F92FC01868D811102C081E001C0F4
:1019400080E00F900FBE08950FB6F8940F92FC013F
:10195000268D878D281302C081E001C080E00F90A2
:101960000FBE08950F931F93CF93DF93EC01042FC5
:101970001E8D48A141110CC088819981892B09F0E5
:1019800042C08C819D810E94031C1D821C8242C02A
:10199000011117C050E08A819B810E94E53828A17F
:1019A0008A819B81820F911D9B838A832C813D813B
:1019B0008217930750F1888199819B838A8380E005
:1019C00029C050E08E819F810E94E53888A190E077
:1019D0009195819591092E813F81280F391F3F8371
:1019E0002E83488159812417350730F42C813D819D
:1019F000820F931F9F838E83023049F4112349F095
:101A0000115080E007C080E005C080E003C080E0A6
:101A100001C080E01F5F1E8FDF91CF911F910F915A
:101A20000895FC0140A14423A9F050E026813781AC
:101A3000240F351F37832683848195812817390722
:101A400020F08081918197838683CB0166817781A5
:101A50000C94E53808951F93CF93DF93EC010FB6F4
:101A6000F8940F921AA10BC08B89882351F0CE01F4
:101A700043960E948F1981110E94651B1150111607
:101A80009CF38FEF8AA30F900FBE0FB6F8940F92BE
:101A900019A10BC08885882351F0CE0108960E94B9
:101AA0008F1981110E94651B115011169CF38FEF45
:101AB00089A30F900FBEDF91CF911F910895CF930F
:101AC000DF93EC010FB6F8940F92E881F9818F8DC6
:101AD00028A190E030E0829FA001839F500D929F4B
:101AE000500D11244E0F5F1F5D834C831E8EFB83B0
:101AF000EA830197289FA001299F500D389F500D20
:101B00001124CF01840F951F9F838E838FEF89A3AC
:101B10008AA361110BC08885882371F0CE010896D5
:101B20000E948F19882341F02ADE06C0CE01089654
:101B300058DDCE01439655DD0F900FBE81E0DF9159
:101B4000CF9108950F931F93F801611103C0118382
:101B5000008302C051834083878F60A361E0CF017F
:101B6000AEDF1F910F910895DF92EF92FF920F93D6
:101B70001F93CF93DF93F82EE62ED42E869FC001BD
:101B80001124839648DCEC01009741F08C012D2D47
:101B9000AC014D5D5F4F6E2D8F2DD4DFCE01DF91F7
:101BA000CF911F910F91FF90EF90DF900895CF920A
:101BB000DF92EF92FF920F931F93CF93DF93CDB7F6
:101BC000DEB729970FB6F894DEBF0FBECDBF7C01FC
:101BD0006B012E833F834887598710E00FB6F89436
:101BE0000F92F701968D878D981710F00230B1F49F
:101BF000402FB601C701B6DEF7019389992341F062
:101C0000C70143960E948F19882321F0B8DD02C0D6
:101C10008111B5DD0F900FBE81E04CC08E819F8198
:101C2000A885B985892B8A2B8B2B21F40F900FBEA9
:101C300080E040C0111105C0CE0101960E94EE1A4D
:101C400011E00F900FBEC7D70FB6F8940F92F701AF
:101C500081A18F3F09F411A2F70182A18F3F09F4FE
:101C600012A20F900FBEBE016A5F7F4FCE01019698
:101C70000E94FF1A811119C0C70166DE882381F016
:101C80004E815F8168857985C70108960E94EC18AE
:101C9000C701E1DE0E942B178111A0CF70DD9ECF1E
:101CA000C701D9DE0E942B1799CFC701D4DE0E944D
:101CB0002B1780E029960FB6F894DEBF0FBECDBF7C
:101CC000DF91CF911F910F91FF90EF90DF90CF9018
:101CD00008950F93009769F0FC0115821482118218
:101CE0001082168200E020E030E0A90160E070E0A0
:101CF0005EDF0F910895CF93DF93482F60E081E07E
:101D000033DFEC01E6DFCE01DF91CF910895EF9252
:101D1000FF920F931F93CF93DF938A01FC01568D9F
:101D2000378D531710F02230F9F4422F7801EC016F
:101D30001AA18E8DCE0116DE1F3F81F48B89882378
:101D4000A9F0CE0143960E948F19882389F0E114EF
:101D5000F10481F081E0F70180830DC0FF24F3944A
:101D6000F10EFAA281E007C080E005C081E003C067
:101D700081E001C081E0DF91CF911F910F91FF9031
:101D8000EF900895CF92DF92EF92FF920F931F93FF
:101D9000CF93DF93CDB7DEB729970FB6F894DEBFA8
:101DA0000FBECDBF8C016B012E833F8348875987BF
:101DB000E12C0FB6F8940F92F801F68CFF2099F001
:101DC000B601C8012EDEFA94F801F68E80858823CC
:101DD00031F0C80108960E948F198111D0DC0F9054
:101DE0000FBE81E04FC08E819F81A885B985892B68
:101DF0008A2B8B2B21F40F900FBE80E043C0E110A3
:101E000006C0CE0101960E94EE1AEE24E3940F90D4
:101E10000FBEE1D60FB6F8940F92F80181A18F3F63
:101E200009F411A2F80182A18F3F09F412A20F90C8
:101E30000FBEBE016A5F7F4FCE0101960E94FF1A5E
:101E4000811117C0C80173DD882379F04E815F814D
:101E500068857985C80143960E94EC18C801FBDDAE
:101E6000FAD78111A6CF8BDCA4CFC801F4DDF3D75C
:101E7000A0CFC801F0DDEFD7C80159DD882309F4F0
:101E800098CF80E029960FB6F894DEBF0FBECDBF85
:101E9000DF91CF911F910F91FF90EF90DF90CF9046
:101EA0000895EF92FF920F931F93CF93DF93CDB7D7
:101EB000DEB729970FB6F894DEBF0FBECDBF8C01F9
:101EC0004E835F8368877987E12CF12C0FB6F894F5
:101ED0000F92F801868D8823C9F08150868F80810A
:101EE0009181892B29F40E94EF1CF801958384834A
:101EF000F8018085882331F0C80108960E948F1967
:101F000081113DDC0F900FBE81E06FC08E819F81FB
:101F1000A885B985892B8A2B8B2B21F40F900FBEB6
:101F200080E063C0F11006C0CE0101960E94EE1A57
:101F3000FF24F3940F900FBE4ED60FB6F8940F9275
:101F4000F80181A18F3F09F411A2F80182A18F3F0E
:101F500009F412A20F900FBEBE016A5F7F4FCE013F
:101F600001960E94FF1A811126C0C801E0DC882377
:101F7000F1F0F80180819181892B51F40FB6F8942A
:101F80000F92848195810E947C1BE82E0F900FBEDA
:101F90004E815F8168857985C80143960E94EC185F
:101FA000C80159DD58D7811191CFE9DB8FCFC80126
:101FB00052DD51D78BCFC8014EDD4DD7C801B7DCFC
:101FC000882309F483CFEE2079F00FB6F8940F92AE
:101FD000C8019DDC682FF801848195810E945E1CF8
:101FE0000F900FBE80E001C080E029960FB6F894F4
:101FF000DEBF0FBECDBFDF91CF911F910F91FF903C
:10200000EF900895CF93DF93EC010FB6F8940F9201
:1020100089A18F3F09F419A28AA18F3F09F41AA25E
:102020000F900FBE8E8D811104C0CE0143960E9489
:102030004D19CE0110DDDF91CF910895FC0144814F
:10204000558122813381240F351F80819181B9010F
:10205000681B790BCB016417750710F0841B950B77
:1020600008950F93FC018FE0DF011D928A95E9F737
:1020700075876487558344833783268306870F914A
:102080000895AF92BF92CF92DF92EF92FF920F939B
:102090001F93CF93DF936C015B017A01FC01C28136
:1020A000D381048115810C1B1D0B4017510708F4C7
:1020B0008A01F60184859585A801B5018C0F9D1FC5
:1020C0000E94E5380E151F0558F4A701401B510B5F
:1020D000B501600F711FF601848595850E94E53872
:1020E000CE018E0D9F1DF601248135818217930745
:1020F00010F0821B930BF60193838283C701DF915B
:10210000CF911F910F91FF90EF90DF90CF90BF90F4
:10211000AF900895CF92DF92EF92FF920F931F93AB
:10212000CF93DF931F921F92CDB7DEB77C016B0177
:102130005A83498321153105C1F0FC01868580FD54
:1021400008C04217530708F49A013A83298381E0B3
:102150000FC02017310758F042E050E0BE016F5F1A
:102160007F4FC7018EDF81E003C080E001C080E0C7
:10217000882331F049815A81B601C70182DF02C04C
:1021800080E090E00F900F90DF91CF911F910F9121
:10219000FF90EF90DF90CF900895AF92BF92CF92D3
:1021A000DF92EF92FF920F931F93CF93DF937C0107
:1021B0005B01E9014217530708F4EA01209781F116
:1021C000F7010081118184819581801B910B6E0143
:1021D0008C179D0708F46C01F70164857585600F05
:1021E000711FA601C5010E94E538CC16DD0658F422
:1021F000AE014C195D09F70164857585C5018C0D2B
:102200009D1D0E94E5380C0F1D1FF70184819581EB
:102210000817190710F0081B190BF7011183008329
:10222000CE01DF91CF911F910F91FF90EF90DF9042
:10223000CF90BF90AF9008956F927F928F929F92B0
:10224000AF92BF92CF92DF92EF92FF920F931F93C4
:10225000CF93DF931F921F92CDB7DEB76C014B0176
:102260005A01790101151105B1F0FC0160807180FE
:10227000A801BE016F5F7F4F90DF89819A81E01ACC
:10228000F10AA816B90630F4F60171826082A12C19
:10229000B12C01C05C019701A501B401C6017DDF2D
:1022A0000F900F90DF91CF911F910F91FF90EF90C2
:1022B000DF90CF90BF90AF909F908F907F906F9066
:1022C0000895CF92DF92EF92FF920F93CF93DF9317
:1022D000EC016B01413011F401E001C000E0C114D8
:1022E000D10419F4CC24C394D12CCE014096C81744
:1022F000D90720F421968FD87C0102C0E12CF12C63
:10230000E114F10439F09601AE01B701615F7F4F2E
:10231000C701A7DEC701DF91CF910F91FF90EF902A
:10232000DF90CF9008950F930FB6F8940F92FC01B1
:1023300020853185232B71F422853385232B61F48D
:10234000268137814481558164857585068589DEBE
:1023500081E003C080E001C080E00F900FBE0F91CC
:102360000895FC012481358180819181820F931F22
:1023700042815381841B950B01978217930710F0BC
:10238000821B930B08952F923F924F925F926F9210
:102390007F928F929F92AF92BF92CF92DF92EF92F5
:1023A000FF920F931F93CF93DF93CDB7DEB72B9799
:1023B0000FB6F894DEBF0FBECDBF4C017B876A8796
:1023C0001A010E831F8328873987FC018481958138
:1023D0000197268520FF0CC02A01F2E04F0E511C08
:1023E0008415950558F41E821F821886198606C02A
:1023F0008417950710F02A0101C02C018E819F815E
:10240000A885B985892B8A2B8B2B09F438C0CE017E
:1024100001960E94D81A0FB6F8940F92C401A1DF5A
:102420003C018415950540F560E080E090E00E9455
:10243000C21F0E94691BF401938782870F900FBE11
:10244000AE80BF80C884D984E12CF12C00E010E07C
:10245000980140E050E0BA0180E00E94011DF401C3
:1024600013861286BE016A5F7F4FCE0101960E94DD
:10247000FF1A882381F205C00F900FBE02C0612CA5
:10248000712C6114710419F4C4016BDF3C018201E9
:102490009301A1016A857B85C4013CDE6C01892B17
:1024A000E9F0C401CBDDF40126813781821793075F
:1024B000A8F091D3F40180859185892B71F08085F6
:1024C0009185E12CF12C00E020E030E0A90160E0F2
:1024D0000E94A91DF40111861086BDD4C6012B9659
:1024E0000FB6F894DEBF0FBECDBFDF91CF911F9125
:1024F0000F91FF90EF90DF90CF90BF90AF909F90A3
:102500008F907F906F905F904F903F902F900895A5
:10251000AF92BF92CF92DF92EF92FF920F931F93F1
:10252000CF93DF93EC017B015A0169018E8580FF17
:1025300004C08A010E5F1F4F01C08A01CE0111DF66
:102540009C01A501B701CE01E5DD5C01892BC1F03D
:10255000CE0174DD2E813F818217930788F0888534
:102560009985892B69F088859985E12CF12C00E00B
:1025700020E030E0A90160E00E94A01E19861886C4
:10258000C501DF91CF911F910F91FF90EF90DF90E8
:10259000CF90BF90AF9008954F925F926F927F92CD
:1025A0008F929F92AF92BF92CF92DF92EF92FF9263
:1025B0000F931F93CF93DF93EC012B013A01580146
:1025C00069018E8580FF05C06894882481F8912C6C
:1025D00002C0812C912CA114B104C104D10441F199
:1025E0000FB6F8940F92CE0129DD7C01881699066A
:1025F00048F060E080E090E00E94C21F0E94691BEA
:10260000998788870F900FBE8E149F04A0F0E12C4D
:10261000F12C00E010E0980140E050E0BA0180E0C9
:102620000E94011D19861886CE0108DD7C0103C0B9
:10263000CE0104DD7C018E149F04E8F4840197012F
:10264000A301B201CE01F8DD6C01892BB1F0C3D238
:102650008A859B85892B69F08A859B85E12CF12CE5
:1026600000E020E030E0A90160E00E94A91D1B8687
:102670001A86F1D302C0C12CD12CC601DF91CF91B3
:102680001F910F91FF90EF90DF90CF90BF90AF9090
:102690009F908F907F906F905F904F900895E09102
:1026A000D716F091D816808181110CC08FEF9FEF63
:1026B000DC018093A1169093A216A093A316B09369
:1026C000A4160895E091D716F091D8160780F085EA
:1026D000E02D80819181A281B3818093A116909396
:1026E000A216A093A316B093A4160895CF93DF93D8
:1026F000EC018B8D9C8D0E94B40ACE010E94B40A1D
:10270000DF91CF9108954F925F926F927F928F9257
:102710009F92AF92BF92CF92DF92EF92FF920F9370
:10272000CF93DF932C015B014A013901E60165EA91
:1027300070E08B8D9C8D0E94EE388B8D9C8D21E0FE
:10274000821A9108880E991EA114B10489F415C04B
:10275000822F90E0F501E80FF91F3081DE01A80F0C
:10276000B91F5D963C938081882329F02F5F01C0BB
:1027700020E0203168F31CA601C01D8E0A3008F04D
:1027800009E00A8F0DA71EA6CE0102960E94020B39
:10279000CE010E960E94020BDB87CA878AE090E08A
:1027A000A0E0B0E0801B9109A109B1098E879F8745
:1027B000A88BB98BDF8BCE8B84E0FE01BF96DF0147
:1027C0001D928A95E9F71BAAA301B201C4010E94D8
:1027D000760B99838883E114F10419F0F701D18312
:1027E000C083DF91CF910F91FF90EF90DF90CF905A
:1027F000BF90AF909F908F907F906F905F904F9021
:102800000895CF93C0E009C02BE0C29FC0011124FE
:102810008151994E0E94F10ACF5FCA30A8F384EE2D
:1028200096E10E94F10A89ED96E10E94F10A8AEC94
:1028300096E10E94F10A8FEB96E10E94F10A83EB88
:1028400096E10E94F10A84EE96E19093D816809367
:10285000D71689ED96E19093D6168093D516CF9131
:102860000895CF93DF93EC010FB6F8940F92809107
:10287000B2168F5F8093B21680915D1790915E17AC
:10288000892B51F4D0935E17C0935D178091B216D7
:10289000813091F4B6DF10C08091AC1681110CC06C
:1028A000E0915D17F0915E17928D8A8D891720F067
:1028B000D0935E17C0935D178091A5168F5F8093AC
:1028C000A516EA8D8091AD168E1710F4E093AD1623
:1028D0008BE08E9FF0011124E151F94E0180F281CD
:1028E000E02DFF83EE832681378139872887A681F3
:1028F000B7819E012E5F3F4F15963C932E93149700
:1029000037832683EA8D8E9FF0011124E151F94E21
:10291000FD87EC8780818F5F80830F900FBE809151
:10292000AC16882351F0E0915D17F0915E17928DFF
:102930008A8D981710F40E94BF0BDF91CF910895F4
:10294000CF93DF931BC00FB6F8940F92E091C61699
:10295000F091C716C085D185CE0102960E94430B27
:102960008091B21681508093B2168091BE1681502C
:102970008093BE160F900FBECE01B8DE8091BE16BA
:102980008111E1CFDF91CF9108958F929F92AF9205
:10299000BF92CF92DF92EF92FF92CF93DF936B01C2
:1029A0007C01C42F8090AE169090AF16A090B01608
:1029B000B090B11680915D1790915E1702960E94BB
:1029C000430B8FEFC816D806E806F806B1F5CC23FE
:1029D000A1F1E3EBF6E1A181B281C0915D17D09145
:1029E0005E17BF83AE83C0915D17D0915E171696B8
:1029F0008D919C911797998788871696CD91DC9138
:102A0000179780915D1790915E1702969D838C8336
:102A100080915D1790915E17029617969C938E9306
:102A20001697A0915D17B0915E171D96FC93EE93DB
:102A30001C9780818F5F80833FC0C80CD91CEA1C23
:102A4000FB1CE0915D17F0915E17C282D382E48295
:102A5000F582C814D904EA04FB0468F460915D1798
:102A600070915E178091D5169091D6166E5F7F4F4C
:102A70000E94060B21C060915D1770915E178091D6
:102A8000D7169091D8166E5F7F4F0E94060B8091EB
:102A9000A1169091A216A091A316B091A416C816E3
:102AA000D906EA06FB0640F4C092A116D092A216FF
:102AB000E092A316F092A416DF91CF91FF90EF90D1
:102AC000DF90CF90BF90AF909F908F9008952F92FE
:102AD0003F924F925F926F927F928F929F92AF92AE
:102AE000BF92CF92DF92EF92FF920F93CF93DF933B
:102AF0003C011B014A012901CA010E940B0A6C0119
:102B0000892B71F084E390E00E940B0AEC01892B81
:102B100019F0DC8ECB8E06C0C6010E94B40A02C03A
:102B2000C0E0D0E0209761F0A12CB12C6E019201A1
:102B3000A401B101C301E7DDCE0193DE81E001C054
:102B40008FEFDF91CF910F91FF90EF90DF90CF90BB
:102B5000BF90AF909F908F907F906F905F904F90BD
:102B60003F902F900895EF92FF920F930F2EFFE961
:102B7000EF2EF6E1FF2EF02D00E020E030E040ECFB
:102B800050E068EE75E08DEC90E0A1DF813011F44B
:102B90000E9466208130C9F4F8948FEF9FEFDC012A
:102BA0008093A1169093A216A093A316B093A41697
:102BB00081E08093AC161092AE161092AF16109270
:102BC000B0161092B1160E948D0B809106020F91E3
:102BD000FF90EF90089580919E168F5F80939E16D0
:102BE00008950FB6F8940F926091AE167091AF16DB
:102BF0008091B0169091B1160F900FBE0895CF92AC
:102C0000DF92EF92FF92CF93DF9380919E16811116
:102C100005C1C090AE16D090AF16E090B016F090FF
:102C2000B1168FEFC81AD80AE80AF80AC092AE1691
:102C3000D092AF16E092B016F092B116C114D10442
:102C4000E104F104B1F48091D7169091D816209147
:102C5000D5163091D6163093D8162093D716909368
:102C6000D6168093D5168091A6168F5F8093A616F0
:102C700016DD8091A1169091A216A091A316B09195
:102C8000A416C816D906EA06FB0620F480E0B2C0F6
:102C900081E001C080E0E091D716F091D8169081D4
:102CA00091110CC04FEF5FEFBA014093A116509302
:102CB000A2166093A3167093A4169CC0E091D71639
:102CC000F091D8160780F085E02D0084F185E02D85
:102CD0004281538164817581C416D506E606F706E4
:102CE00048F44093A1165093A2166093A3167093D4
:102CF000A41680C0A485B585C681D781208531857D
:102D00003F832E83C085D185268137813D832C83E7
:102D100011964D915C9112979F012E5F3F4F421784
:102D2000530731F44085518512965C934E93119769
:102D3000158614869C9191509C93A08DB18D10970F
:102D400009F1C289D389448955895F834E83C48937
:102D5000D589428953895D834C8311966D917C910D
:102D60001297AF01425F5F4F6417750731F44489D2
:102D7000558912965C934E931197118E108E9C91EB
:102D800091509C93A28D9091AD169A1710F4A09338
:102D9000AD169BE09A9FD0011124A151B94E119616
:102DA0000D90BC91A02DB783A68316964D915C9192
:102DB0001797518740871696CD91DC9117973D83E1
:102DC0002C8317963C932E931697A28D9A9FD00131
:102DD0001124A151B94EB587A4879C919F5F9C9304
:102DE000228DE0915D17F0915E17928D291708F002
:102DF0004FCF51CFE0915D17F0915E17E28D9BE0D0
:102E0000E99FF0011124E151F94E9081923008F0D0
:102E100081E09091A716911116C016C08091A81656
:102E20009091A916A091AA16B091AB160196A11D7A
:102E3000B11D8093A8169093A916A093AA16B093DB
:102E4000AB1680E001C081E0DF91CF91FF90EF9061
:102E5000DF90CF900895CF92DF92EF92FF92CF93C1
:102E6000DF930FB6F8940F9280919E168150809355
:102E70009E1680919E168111BEC08091B21681115E
:102E800088C0BCC0E091D116F091D2160084F185C3
:102E9000E02DA08DB18DC289D389848995899F83C6
:102EA0008E83C489D589828993899D838C83119669
:102EB0002D913C911297CF010E962817390731F4C6
:102EC0008489958912969C938E931197118E108EFA
:102ED0008C9181508C93A485B585C681D7818085DE
:102EE00091859F838E83C085D185868197819D83BF
:102EF0008C8311968D919C9112979F012E5F3F4F6D
:102F00008217930731F48085918512969C938E9356
:102F10001197158614868C9181508C93A28D809187
:102F2000AD168A1710F4A093AD168BE08A9FD001DE
:102F30001124A151B94E11960D90BC91A02DB783CB
:102F4000A68316964D915C911797518740871696E8
:102F5000CD91DC9117973D832C8317963C932E934C
:102F60001697A28D8A9FD0011124A151B94EB58721
:102F7000A4878C918F5F8C93928DA0915D17B091F7
:102F80005E175A968C91981730F081E08093A716BF
:102F900002C0E0E0F0E08091CA16811173CFEF2B00
:102FA00009F07DDBC090A816D090A916E090AA1673
:102FB000F090AB16C114D104E104F104A1F01FDEBE
:102FC000882319F081E08093A71681E0C81AD10800
:102FD000E108F108A1F71092A8161092A916109214
:102FE000AA161092AB168091A716882331F00E9482
:102FF000BF0B81E003C080E001C080E00F900FBEF6
:10300000DF91CF91FF90EF90DF90CF9008958F9256
:103010009F92AF92BF92CF92DF92EF92FF921F9357
:10302000CF93DF93EC016A017B01D5DD8090AE1672
:103030009090AF16A090B016B090B116888199818B
:10304000AA81BB81AC01BD014C0D5D1D6E1D7F1DB4
:1030500088169906AA06BB0660F4481759076A073E
:103060007B0798F484169506A606B70680F010E054
:1030700013C0481759076A077B0758F0841695064E
:10308000A606B70640F010E007C010E005C011E04A
:1030900003C011E001C011E0488359836A837B8338
:1030A000112341F0CB01BA01681979098A099B09FA
:1030B00040E06BDCD0DE811102C00E94BF0B812F8B
:1030C000DF91CF911F91FF90EF90DF90CF90BF9055
:1030D000AF909F908F900895CF92DF92EF92FF92E2
:1030E0006B017C01672B682B692B39F074DD40E0A4
:1030F000C701B6014ADCAFDE01C080E0811102C029
:103100000E94BF0BFF90EF90DF90CF9008958091C9
:103110009E16882321F081E08093A71608951092CF
:10312000A716E0915D17F0915E1720813181E09143
:103130005D17F0915E17838D948D8217930760F071
:1031400060915D1770915E17635E7F4F80915D1790
:1031500090915E170E94F4228091AD1601C08150BB
:10316000282F30E09BE0929FF001939FF00D1124F7
:10317000E151F94E9081992391F39BE0929FA00138
:10318000939F500D1124DF010180F281E02D048016
:10319000F581E02D1296FC93EE9311974E50594E07
:1031A000E417F50729F444815581FD0152834183D9
:1031B0009BE0929FF001939FF00D1124E151F94E95
:1031C0000180F281E02D2085318530935E172093B8
:1031D0005D178093AD160895CF92DF92EF92FF9224
:1031E0006A017B0160915D1770915E17625F7F4F8E
:1031F0000E94060B41E0C701B601C7DBFF90EF90CC
:10320000DF90CF9008950F931F93CF93DF93FC012E
:10321000A0915D17B0915E1770681E964D935D93F7
:103220006D937C935197A181B281C0915D17D0912C
:103230005E17BB8BAA8BC0915D17D0915E17169657
:103240008D919C9117979D8B8C8B1696CD91DC91CF
:10325000179780915D1790915E170E969D838C83D2
:1032600080915D1790915E170E9617969C938E93A2
:103270001697A0915D17B0915E175996FC93EE9347
:10328000589780818F5F808341E0C901B8017DDB61
:10329000DF91CF911F910F910895CF93DF93FC01A0
:1032A000CB01BA01A181B281C0915D17D0915E17A7
:1032B000BB8BAA8BC0915D17D0915E1716964D916E
:1032C0005C9117975D8B4C8B1696CD91DC9117977F
:1032D00040915D1750915E17425F5F4F5D834C8355
:1032E00040915D1750915E17425F5F4F17965C9358
:1032F0004E931697A0915D17B0915E175996FC9367
:10330000EE93589730813F5F3083222319F06FEF9F
:103310007FEFCB01422F39DBDF91CF910895CF931F
:10332000DF93DC011796ED91FC9118970084F185ED
:10333000E02DA08DB18DC289D389848995899F8321
:103340008E83C489D589828993899D838C831196C4
:103350008D919C9112979F01225F3F4F8217930797
:1033600031F48489958912969C938E931197118ECE
:10337000108E8C9181508C9380919E16811152C039
:10338000A485B585C681D781808591859F838E83ED
:10339000C085D185868197819D838C8311968D917F
:1033A0009C9112979F012E5F3F4F8217930731F434
:1033B0008085918512969C938E931197158614861D
:1033C0008C9181508C93A28D8091AD168A1710F448
:1033D000A093AD168BE08A9FD0011124A151B94E64
:1033E00011960D90BC91A02DB783A68316964D9192
:1033F0005C911797518740871696CD91DC9117976E
:103400003D832C8317963C932E931697A28D8A9F0B
:10341000D0011124A151B94EB587A4878C918F5F3B
:103420008C931CC04AEC56E1DA011196CD91DC91E7
:103430001297D38BC28B8E819F81958B848B8E81CB
:103440009F81DC0115963C932E9314973F832E8326
:10345000518F408FDA018C918F5F8C93928DE09128
:103460005D17F0915E17828D891720F481E08093BB
:10347000A71601C080E0DF91CF910895CF93DF932D
:10348000DC0170684D935D936D937C931397189650
:10349000ED91FC9119971A964D915C911B9714969A
:1034A0008D919C91159716962D913C911797EC0153
:1034B0003F832E8316968D919C91179714962D918C
:1034C0003C911597EC013D832C83EA0189819A8117
:1034D000A817B90731F416968D919C9117979A8386
:1034E00089831B961C921E921A97DA018C91815047
:1034F0008C93A485B585C681D781808591859F836E
:103500008E83C085D185868197819D838C8311961A
:103510008D919C9112979F012E5F3F4F82179307C9
:1035200031F48085918512969C938E931197158620
:1035300014868C9181508C93A28D8091AD168A1740
:1035400010F4A093AD168BE08A9FD0011124A151F5
:10355000B94E11960D90BC91A02DB783A6831696F7
:103560004D915C911797518740871696CD91DC91CC
:1035700017973D832C8317963C932E931697A28D15
:103580008A9FD0011124A151B94EB587A4878C918F
:103590008F5F8C93928DE0915D17F0915E17828D15
:1035A000891718F481E08093A716DF91CF910895D1
:1035B0000FB6F8940F922091A616FC01208340913B
:1035C000AE165091AF166091B0167091B11641834E
:1035D0005283638374830F900FBE08952091A616C3
:1035E000FC0120834091AE165091AF166091B01649
:1035F0007091B116418352836383748308958F92CF
:103600009F92AF92BF92CF92DF92EF92FF920F9371
:103610001F93CF93DF93FB010FB6F8940F92C090E6
:10362000AE16D090AF16E090B016F090B116DC0157
:1036300011960D911D912D913C91149746015701C2
:10364000801A910AA20AB30A408151816281738172
:103650004F3FBFEF5B076B077B0739F1EC01B88188
:10366000A091A616BA1759F0C016D106E206F306C5
:1036700030F0108211821282138281E017C084160A
:103680009506A606B70658F4481959096A097B0930
:103690004083518362837383A1DF80E007C010827F
:1036A00011821282138281E001C080E00F900FBE70
:1036B000DF91CF911F910F91FF90EF90DF90CF900E
:1036C000BF90AF909F908F90089581E08093A71650
:1036D000089580915D1790915E1708958091AC16C2
:1036E000882331F080919E16811104C082E00895F4
:1036F00081E0089580E008950F931F93CF93DF93A7
:10370000FC01892B09F477C0828DA0915D17B091DF
:103710005E175A969C91891708F063C046855785B5
:1037200060897189772394F0A0915D17B0915E173D
:103730005A969C914AE050E060E070E0491B5109C4
:103740006109710946875787608B718B24853585A0
:103750004BE0849FC00111248151994E28173907ED
:10376000B9F5EF018F010E5F1F4FC8010E94430B97
:10377000E0915D17F0915E17E28DEA8F8091AD16B2
:103780008E1710F4E093AD168BE08E9FF00111249C
:10379000E151F94E0180F281E02DFF83EE83268115
:1037A000378139872887A681B78115961C930E9398
:1037B000149717830683EA8D8E9FF0011124E1513F
:1037C000F94EFD87EC8780818F5F808381E016C092
:1037D000A0915D17B0915E175A968C91828F81E00F
:1037E0000DC095A5E0915D17F0915E17828D981739
:1037F00020F080E003C080E001C081E0DF91CF9144
:103800001F910F9108950F931F93CF93DF93FC01A6
:10381000892B09F449C086A5815086A7228D95A5DC
:10382000291709F443C0811143C0EF018F010E5FD6
:103830001F4FC8010E94430BEDA5EA8F8AE090E07C
:10384000A0E0B0E08E1B9109A109B1098E879F8786
:10385000A88BB98B8091AD168E1710F4E093AD163E
:103860008BE08E9FF0011124E151F94E0180F2812D
:10387000E02DFF83EE832681378139872887A68153
:10388000B78115961C930E93149717830683EA8DC0
:103890008E9FF0011124E151F94EFD87EC87808164
:1038A0008F5F808381E005C080E003C080E001C0BD
:1038B00080E0DF91CF911F910F9108950F931F9397
:1038C000CF93DF93FC01892B09F45AC085A5861795
:1038D00008F4862F928D891709F452C026A521304D
:1038E00009F04EC0828F468557856089718977239C
:1038F00064F04AE050E060E070E0481B5109610963
:10390000710946875787608B718B248535854BE01D
:10391000949FC00111248151994E2817390781F5D0
:10392000EF018F010E5F1F4FC8010E94430BEA8D0C
:103930008091AD168E1710F4E093AD168BE08E9F3C
:10394000F0011124E151F94E0180F281E02DFF8355
:10395000EE832681378139872887A681B78115961E
:103960001C930E93149717830683EA8D8E9FF001A4
:103970001124E151F94EFD87EC8780818F5F8083B0
:10398000DF91CF911F910F910895CF92DF92EF9227
:10399000FF92E0915D17F0915E17668577858089CB
:1039A0009189E0915D17F0915E17A0915D17B0913C
:1039B0005E175A962C910F2EFAE0CF2ED12CE12CC7
:1039C000F12CF02DC21AD108E108F108C686D7867D
:1039D000E08AF18AFF90EF90DF90CF900895809178
:1039E0005D1790915E17892B39F0E0915D17F0918A
:1039F0005E1786A58F5F86A780915D1790915E17F1
:103A000008954F925F926F927F92AF92BF92CF9242
:103A1000DF92EF92FF920F931F93CF93DF932801D2
:103A200039010FB6F8940F92E0915D17F0915E178F
:103A3000C82FD0E0EC0FFD1F83A9823079F1E0910F
:103A40005D17F0915E17CE01880F991F880F991F9F
:103A5000E80FF91F87A590A9A1A9B2A94095509593
:103A600060957095482359236A237B2347A750AB61
:103A700061AB72ABE0915D17F0915E17EC0FFD1F2B
:103A800081E083ABA114B104C104D10439F041E059
:103A9000C601B5010E94C5140E94BF0B0F900FBE56
:103AA0000FB6F8940F92E114F104A1F0E0915D17C4
:103AB000F0915E17CE01880F991F880F991FE80FAC
:103AC000F91F87A590A9A1A9B2A9F70180839183C5
:103AD000A283B383E0915D17F0915E17EC0FFD1F99
:103AE00083A98230E9F4E0915D17F0915E17CE0171
:103AF000880F991F880F991FE80FF91F87A590A9B4
:103B0000A1A9B2A94094509460947094482259227B
:103B10006A227B2247A650AA61AA72AA81E001C04C
:103B200080E020915D1730915E17C20FD31F1BAA52
:103B30000F900FBEDF91CF911F910F91FF90EF90EB
:103B4000DF90CF90BF90AF907F906F905F904F903D
:103B500008958F929F92AF92BF92EF92FF920F9330
:103B6000CF93DF93DC010FB6F8940F92E114F104C8
:103B700089F0E62FF0E0EE0FFF1FEE0FFF1FE80FBA
:103B8000F91F87A490A8A1A8B2A8F701808291820A
:103B9000A282B38270E0FD01E60FF71F83A992E0D5
:103BA00093AB023001F118F4013031F04DC0033015
:103BB00079F10430D1F148C0660F771F660F771F87
:103BC000FD01E60FF71F87A490A8A1A8B2A8BA012B
:103BD000A901482959296A297B2947A750AB61AB1C
:103BE00072AB01E034C0660F771F660F771FFD01CF
:103BF000E60FF71F47A550A961A972A94F5F5F4F54
:103C00006F4F7F4F47A750AB61AB72AB01E01FC056
:103C1000660F771F660F771FFD01E60FF71F27A7B7
:103C200030AB41AB52AB01E012C0823079F0660F8D
:103C3000771F660F771FFD01E60FF71F27A730AB31
:103C400041AB52AB01E003C001E001C000E08130B4
:103C500009F069C01C96ED91FC911D971696CD91C7
:103C6000DC91179718968D919C9119979F838E835D
:103C70001896CD91DC91199716968D919C91179776
:103C80009D838C83818192819D012E5F3F4F82179E
:103C9000930731F418968D919C91199792838183A3
:103CA0001D961C921E921C978081815080835A968B
:103CB000EC915A978091AD168E1710F4E093AD16E3
:103CC0008BE08E9FF0011124E151F94E0180F281C9
:103CD000E02D1796FC93EE9316974681578119961F
:103CE0005C934E931897C681D7813D832C8337838D
:103CF00026835A96EC915A978E9FF0011124E15138
:103D0000F94E1D96FC93EE931C9780818F5F808304
:103D10005A969C91E0915D17F0915E17828D8917FC
:103D200010F40E94BF0B0F900FBE802FDF91CF9138
:103D30000F91FF90EF90BF90AF909F908F9008955C
:103D40008F929F92AF92BF92CF92DF92EF92FF92AB
:103D50000F93CF93DF93DC01E114F10489F0E62F98
:103D6000F0E0EE0FFF1FEE0FFF1FE80FF91F87A413
:103D700090A8A1A8B2A8F70180829182A282B38202
:103D800070E0FD01E60FF71F93A982E083AB0230DC
:103D900001F118F4013031F04DC0033079F10430F5
:103DA000D1F148C0660F771F660F771FFD01E60F40
:103DB000F71F87A490A8A1A8B2A8BA01A901482911
:103DC00059296A297B2947A750AB61AB72AB81E0C7
:103DD00034C0660F771F660F771FFD01E60FF71FD0
:103DE00047A550A961A972A94F5F5F4F6F4F7F4FE1
:103DF00047A750AB61AB72AB81E01FC0660F771F66
:103E0000660F771FFD01E60FF71F27A730AB41AB09
:103E100052AB81E012C0923079F0660F771F660FC7
:103E2000771FFD01E60FF71F27A730AB41AB52AB61
:103E300081E003C081E001C080E0913009F096C0CC
:103E400090919E1691115FC01C96ED91FC911D976B
:103E50001696CD91DC91179718962D913C91199754
:103E60003F832E831896CD91DC91199716962D914C
:103E70003C9117973D832C83418152819D012E5F98
:103E80003F4F4217530731F418964D915C911997A3
:103E9000528341831D961C921E921C9790819150D3
:103EA00090835A96EC915A979091AD169E1710F404
:103EB000E093AD169BE09E9FF0011124E151F94E75
:103EC0000180F281E02D1796FC93EE9316974681C0
:103ED000578119965C934E931897C681D7813D837D
:103EE0002C83378326835A96EC915A979E9FF00134
:103EF0001124E151F94E1D96FC93EE931C9790818D
:103F00009F5F908321C06AEC76E1FB01C181D28181
:103F10005396DC93CE9352972E813F8155963C93D6
:103F20002E9354974E815F819D01225F3F4FFA018E
:103F3000358324833F832E8359967C936E935897C1
:103F4000FB0190819F5F90835A962C91E0915D17C1
:103F5000F0915E17928D921748F4C114D10419F0B4
:103F600091E0F601908391E09093A716DF91CF91B5
:103F70000F91FF90EF90DF90CF90BF90AF909F9008
:103F80008F900895009721F480915D1790915E17AE
:103F90000FB6F8940F9270E0FC01E60FF71F23A90B
:103FA000223031F4FC01E60FF71F13AA81E001C0B3
:103FB00080E00F900FBE0895DC01E0916917F09149
:103FC0006A17808191E0811190E09C93911108C063
:103FD0000780F085E02D6081718182819381089551
:103FE00060E070E0CB010895CF92DF92EF92FF92F4
:103FF0000F931F93FC0142835383648375839387DC
:1040000082870417150726073707C0F00C191D090A
:104010002E093F0986859785A089B1890817190758
:104020002A073B0700F5BF016E5F7F4F809167173E
:10403000909168170E94060B80E018C00C151D05B2
:104040002E053F0528F44C155D056E057F0568F4C7
:10405000BF016E5F7F4F8091691790916A170E9430
:10406000060B80E003C081E001C081E01F910F9149
:10407000FF90EF90DF90CF9008950FB6F8940F92D5
:104080008091651790916617892BE9F486E797E18F
:104090000E94F10A8BE697E10E94F10A86E797E118
:1040A00090936A17809369178BE697E1909368174E
:1040B0008093671740E067E08AE00E94B40D909318
:1040C0006617809365170F900FBE0895EF92FF92C9
:1040D0000F93D3DF8091651790916617892B91F02C
:1040E0000F2EF3E6EF2EF7E1FF2EF02D03E020E098
:1040F00030E040EC50E06DEE75E088ED90E00E941D
:10410000671501C080E00F91FF90EF9008958F92A6
:104110009F92AF92BF92CF92DF92EF92FF920F9356
:104120001F93CF93DF93CDB7DEB727970FB6F894E1
:10413000DEBF0FBECDBFE0916517F09166173097D7
:1041400081F169832A833B834C835D839F838E83C4
:104150006630F4F4C3DA823069F400E0A701960116
:10416000BE016F5F7F4F80916517909166170E9427
:10417000D70D18C000E020E030E0A901BE016F5F5C
:104180007F4F80916517909166170E94D70D0AC0E6
:1041900020E0A801BE016F5F7F4FCF010E94870E14
:1041A00001C080E027960FB6F894DEBF0FBECDBFEA
:1041B000DF91CF911F910F91FF90EF90DF90CF9003
:1041C000BF90AF909F908F9008958F929F92AF92E3
:1041D000BF92CF92DF92EF92FF920F931F93CF93F4
:1041E000DF933BC00780F085E02D80809180A28026
:1041F000B380C085D1858E010E5F1F4FC8010E941C
:10420000430BEC89FD89CE0119958E8982FF25C06B
:104210008E859F85A889B989880D991DAA1DBB1D0A
:1042200088169906AA06BB0670F48A839B83AC8322
:10423000BD83DB87CA87B8018091691790916A179F
:104240000E94060B0AC0C12CD12C760100E010E0C0
:10425000A501940160E0CE015ADFE0916917F09169
:104260006A1780818111BECF80916717909168177E
:1042700090936A1780936917F0936817E093671714
:10428000DF91CF911F910F91FF90EF90DF90CF9032
:10429000BF90AF909F908F900895CF92DF92EF9252
:1042A000FF92CF93DF93EC010E94F1156B017C012B
:1042B00080915F1790916017A0916117B09162177C
:1042C000C816D906EA06FB0620F47FDF81E0888362
:1042D00001C01882C0925F17D0926017E0926117F8
:1042E000F0926217C701B601DF91CF91FF90EF9076
:1042F000DF90CF9008954F925F926F927F928F924E
:104300009F92AF92BF92CF92DF92EF92FF920F9364
:104310001F93CF93DF934B015C0129013A01E09198
:104320006917F0916A170780F085E02DC085D18567
:10433000CE0102960E94430B8E8982FF1BC04E85E0
:104340005F8568897989480D591D6A1D7B1D750136
:10435000640193018201CE0147DE882369F0C12CFC
:10436000D12C760100E010E0A501940160E0CE01BF
:10437000CEDE02C08E7F8E8BEC89FD89CE01199531
:10438000DF91CF911F910F91FF90EF90DF90CF9031
:10439000BF90AF909F908F907F906F905F904F9065
:1043A00008958F929F92AF92BF92CF92DF92EF9239
:1043B000FF921F93CF93DF931F92CDB7DEB76B01B0
:1043C0007C01142F0E94EB15CE01019666DF4B0194
:1043D0005C01898181112DC011110DC08C149D04C7
:1043E000AE04BF0440F00E942B17A5019401C70141
:1043F000B60181DF20C0112341F0E0916717F091F1
:104400006817808111E0811110E0B701A6014819F9
:1044100059096A097B09212F8091651790916617C8
:104420000E9402100E942B17811105C00E94BF0B31
:1044300002C00E942B170F90DF91CF911F91FF9028
:10444000EF90DF90CF90BF90AF909F908F900895A6
:10445000AF92BF92CF92DF92EF92FF920F931F9392
:10446000CF93DF93CDB7DEB728970FB6F894DEBFB2
:104470000FBECDBF82C0898188230CF47EC0AE8080
:10448000BF80D5011C968D919C911D97892B21F0A1
:10449000C50102960E94430BCE010896FEDE8B01F9
:1044A0009C01E9810E2E000CFF0BEA30F10508F0AB
:1044B00064C08827EE58FF4F8F4F0C949E37F5014C
:1044C00086898160868BCA80DB80EC80FD80468592
:1044D0005785608971894C0D5D1D6E1D7F1DC5015D
:1044E00083DD882309F449C0D5015496ED91FC91F0
:1044F0005597C5011995F501868982FF3EC04A810D
:104500005B816C817D8186859785A089B1899A01BF
:10451000AB01280F391F4A1F5B1FC12CD12C76011C
:1045200000E010E060E0C501F2DD27C0D50156963D
:104530008C9156978E7F56968C931FC0F501868975
:104540008160868B4A815B816C817D81468757873C
:10455000608B718B400F511F621F731F68017901BF
:10456000C50142DD0AC0F501868981FD04C0C5018F
:104570000E94B40A02C08E7F868B20E030E0A90141
:10458000BE016F5F7F4F80916517909166170E9403
:10459000C20E811170CF28960FB6F894DEBF0FBE01
:1045A000CDBFDF91CF911F910F91FF90EF90DF90E2
:1045B000CF90BF90AF900895089584B1806884B97A
:1045C00085B1806885B9089583B1806883B90895FD
:1045D000F4DF2FEF80E792E0215080409040E1F738
:1045E00000C00000F1DFF5CFE8DF2FEF87EA91E6AA
:1045F000215080409040E1F700C00000E5DFF5CF9A
:1046000004D06894B11150C0089533D088F09F57FA
:1046100090F0B92F9927B751A0F0D1F0660F771F0E
:10462000881F991F1AF0BA95C9F712C0B13081F0EE
:104630003AD0B1E0089537C0672F782F8827B85F48
:1046400039F0B93FCCF3869577956795B395D9F74F
:104650003EF490958095709561957F4F8F4F9F4F59
:10466000089557FD9058440F551F59F05F3F71F062
:104670004795880F97FB991F61F09F3F79F08795C9
:104680000895121613061406551FF2CF4695F1DF52
:1046900008C0161617061806991FF1CF86957105E2
:1046A000610508940895E894BB2766277727CB0116
:1046B00097F9089581B38F6081BB2898289A21B318
:1046C00081E090E00090B21702C0880F991F0A9411
:1046D000E2F78095822381BBE0918117F0918217E8
:1046E000309709F019950895CF93DF93EC01FC0101
:1046F00001900020E9F73197E81BF90BE093871749
:10470000E13208F47DC018A20E94443980918717D5
:104710008530E0F444E050E0481B510914161506BA
:1047200074F480E090E020E02F5FFC01E857F84E41
:104730001082822F90E084179507B4F301C020E027
:104740001092841791E0920F20E02EC0E8E8F7E184
:1047500010821182128223E0F5CFFE01E40FF51FD3
:10476000A08130ED3A0F3A3050F4E82FF0E0E857EE
:10477000F84EB0E0AB53BA4F8C91808313C03FEB3F
:104780003A0F363050F4E82FF0E0E857F84EB0E03A
:10479000A254BA4F8C91808305C0E82FF0E0E8570F
:1047A000F84E10822F5F9F5F8FEF890F422F50E0EE
:1047B000FE0101900020E9F73197EC1BFD0B4E172D
:1047C0005F0758F220918717253010F1E82FF0E0AD
:1047D000E857F84E1082E92FF0E0E857F84E1082C3
:1047E000E1E0E90FF0E0E857F84E10829E5F909309
:1047F000841710928317109286171092851708C09D
:104800000E94443980918717853008F483CF9ECF6A
:10481000EEEAF7E1A8E8B7E18C91808311968C91DC
:104820001197818312968C911297828313968C91A3
:104830008383DF91CF9108959FB7F894EEEAF7E173
:1048400010828EE981838AE0828383839FBF0895EB
:1048500085B5856085BD089585B5887F85BD81B3A3
:104860008F6081BB08958F92AF92CF92EF920F939A
:104870001F93CF93DF93EC0180B38F6080BB81B334
:104880008F6081BB209A8AE593E29F938F93812C5E
:10489000A12CC12CE12C00E010E020E240E063E01C
:1048A00080E10E94FA2E9093B4178093B31789E1A8
:1048B00087BD84B5826084BDEEE6F0E080818260D1
:1048C0008083CADFD0938217C09381170F900F9017
:1048D000DF91CF911F910F91EF90CF90AF908F907C
:1048E00008951F920F920FB60F9211240BB60F92DC
:1048F0002F933F934F935F936F937F938F939F93E8
:10490000AF93BF93EF93FF9380918417882369F14E
:104910002091851730918617253F91E0390738F4AB
:104920002F5F3F4F30938617209385171EC010923C
:10493000861710928517E09183172E2F30E090E0B4
:1049400004972817390714F4EF5F01C0E0E0E09303
:104950008317F0E0E857F84EAEEAB7E122EB37E113
:1049600081918D93A217B307D9F78091B21790E088
:10497000019683709078992324F401978C6F9F6F30
:1049800001968093B2179927FC01E255F84E608199
:1049900060958091B3179091B4170E94D12FFF9129
:1049A000EF91BF91AF919F918F917F916F915F91A7
:1049B0004F913F912F910F900BBE0F900FBE0F9014
:1049C0001F9018956530F1F4FA0180818F7390E0A3
:1049D000982F88272181822B90930A0280930902C5
:1049E0008281F0E48F9FC0011124FA012381269572
:1049F0002695822B909308028093070281E0809392
:104A0000B5170895643051F080E090E49093080267
:104A10008093070290930A028093090208950F93EE
:104A20001F9302EE14E220E034E244EF50E060E035
:104A300087E20E940E349093B7178093B61721E057
:104A4000892B09F020E0822F1F910F91089580910A
:104A5000B6179091B717009759F040E060E070E00A
:104A60000E945F34843031F41092B51780E00895CD
:104A700082E0089583E008958091B6179091B7176A
:104A8000009739F064E00E94AB34853021F083E078
:104A9000089582E0089580E0089560910902709180
:104AA0000A0280E090E00E94893620E030E048EC85
:104AB00052E40E94F23620E038EF4FE756E40C94BF
:104AC0001E360895609107027091080280E090E020
:104AD0000E94893620E030E045E253E40E94F2363D
:104AE00020E038EF4FE756E40E941E3620E030E029
:104AF00040E252E40C94B7350895E4DF20E030E062
:104B000040E251E40E94F2367BDDCB0108950F9321
:104B10001F93CF93DF931F921F92CDB7DEB78C0107
:104B200019822DC0E091EF17EC3250F481E08E0F26
:104B30008093EF17F0E0EF5DF74E8A81808302C02B
:104B40001092EF178A818A30D1F44091EF1750E02C
:104B5000FA01E15EF74E1082415051099E012F5F2C
:104B60003F4F61E278E18091F2179091F3170E9434
:104B70008812898181110E94BF0B1092EF17BE012C
:104B80006E5F7F4FC8013ED6882361F20F900F9071
:104B9000DF91CF911F910F9108950F931F93CF93A2
:104BA000DF938C01EB018091F2179091F3170E9433
:104BB0009311B80188EB97E10E942539209779F08D
:104BC000E8EBF7E101900020E9F7319780E290E00F
:104BD00091838083BE0188EB97E10E941A39E8EB4C
:104BE000F7E1DF010D900020E9F711978DE09AE0E1
:104BF00011969C938E9312961C9201900020E9F7D7
:104C00003197E85BF741AE2F88EB97E1AC016A2F53
:104C10008091F4179091F517A0D5811111C008E289
:104C200015E020E030E04DE250E06BE778E1809164
:104C3000F2179091F3170E94CC128BE798E102C013
:104C400080E090E0DF91CF911F910F9108952F9216
:104C50003F924F925F926F927F928F929F92AF920C
:104C6000BF92CF92DF92EF92FF920F931F93CF9359
:104C7000DF935C01FC0101900020E9F731976F019F
:104C8000C81AD90A5C2C0F2EFEE98F2EF8E09F2E51
:104C9000F02DE12CF12C4C2C3701F4010181128113
:104CA000E80109900020E9F72197C01BD10B3C2EA9
:104CB000F9E0CF16D10458F0F4012080FEE02F1265
:104CC00006C0B801C5010E94F538892B09F5442DAD
:104CD000351408F44C2F50E0B801C5010E942C395E
:104CE000892B49F4F301EE0FFF1FE60DF71DE25685
:104CF000F74F20800DC08FEFE81AF80AE3E08E0E20
:104D0000911CF1E1EF16F10439F66894222424F89D
:104D1000822DDF91CF911F910F91FF90EF90DF9047
:104D2000CF90BF90AF909F908F907F906F905F904B
:104D30004F903F902F90089530DF89CF0895809154
:104D4000F2179091F3170C94931108958F929F92FC
:104D5000AF92CF92EF920F931F93CF93C82F8B01F7
:104D600041E060E070E088EC90E00E946111909377
:104D7000F3178093F2171093F1170093F0170F2E8B
:104D8000F7E88F2EF5E29F2EF02D6894AA24A6F85E
:104D90006894CC24C6F8E12C00E023E040E051EE1A
:104DA00060E070E08C2F06D49093F5178093F41791
:104DB000E7E0F1E0808180618083CF911F910F91C6
:104DC000EF90CF90AF909F908F900895882331F00F
:104DD000E8E0F1E080818F7E80830895E8E0F1E0F3
:104DE000808180618083089560E070E084E296E0D5
:104DF000D4DEEBE7F8E101900020E9F73197EB57BB
:104E0000F84181E0759708F080E00895CF93DF9333
:104E1000EC0160E070E085E396E0BFDEEBE7F8E1EF
:104E200001900020E9F7EC58F84139F46BE778E19C
:104E3000CE010E94253980E002C0188281E0DF9116
:104E4000CF910895FC0101900020E9F79F012151C5
:104E500031092817390729F4BC0183E696E06CCFA5
:104E6000089589E00895FC0101900020E9F79F0171
:104E7000215131092817390729F4BC0182E796E04E
:104E80005BCF089589E00895FC0101900020E9F7C7
:104E90009F01215231092817390729F4BC0181E803
:104EA00096E04ACF089589E0089560E070E080ECD4
:104EB00096E042CF08950F931F93E82FF0E0EE0F96
:104EC000FF1FE656F74F6081718189EC96E034DF71
:104ED000811114C008E215E020E030E04DE250E01E
:104EE0006BE778E18091F2179091F3170E94CC1252
:104EF000882321F08BE798E1AADE03C08BE798E1D5
:104F0000A6DE1F910F9108950F931F93CF93DF9308
:104F10001F92CDB7DEB7DB0111969C9111979531A9
:104F200008F0B4C0992381F160E070E0272F30E0F1
:104F3000462F50E0FD01E40FF51F928192959F707E
:104F40009A3010F0995C01C0905DF901E45FF74E72
:104F500090832F5F3F4FFD01E40FF51F92819F70FB
:104F6000492F50E04A30510514F0995C01C0905D22
:104F7000F901E45FF74E90837E5F6F5F11969C911D
:104F80001197691798F201C070E0E72FF0E0E45F35
:104F9000F74E10824C91811103C082ED96E002C061
:104FA00084ED96E02CE038E13F932F931F924F93CE
:104FB0009F938F9388ED96E09F938F938EE498E173
:104FC0009F938F930E94CD3960E070E08EE498E16A
:104FD000B3DE0FB6F894DEBF0FBECDBF811159C04E
:104FE00008E215E020E030E04DE250E06BE778E1C8
:104FF0008091F2179091F3170E94CC12882309F444
:1050000047C08BE798E123DE8E3009F042C087E08D
:1050100089838091F0179091F117892BA9F1BE0136
:105020006F5F7F4F8BE798E168D18093F617E98136
:10503000F0E0E558F74EDF010D900020E9F71197F9
:10504000AE1BBF0BAA2391F0BB27CD0101979C019A
:1050500012F42F5F3F4F359527952093F717AF0137
:105060004F5F5F4F64E188EF97E173D101E010E09B
:1050700020E030E046E150E066EF77E18091F01704
:105080009091F1170E94C3118EE003C084E101C02A
:1050900080E00F90DF91CF911F910F9108958130A3
:1050A00019F068EE76E002C061EC77E08CEE96E0F5
:1050B00043CE08959F938F938DE197E09F938F93B5
:1050C0008EE498E19F938F930E94CD3960E070E069
:1050D0008EE498E131DE0F900F900F900F900F90BB
:1050E0000F9008952F923F924F925F926F927F920E
:1050F0008F929F92AF92BF92CF92DF92EF92FF92E8
:105100000F931F93CF93DF93CDB7DEB7A0970FB662
:10511000F894DEBF0FBECDBF6AE477E086E597E086
:105120003CDD95DD8111A3C080E2E2E2F2E0DE0128
:10513000119601900D928A95E1F79E012F5F3F4FE6
:105140006901E12CF12C0F2EF2E6AF2EF7E0BF2E15
:10515000F02D0EE418E10F2EFBE74F2EF7E05F2E47
:10516000F02D0F2EF2E98F2EF7E09F2EF02D0F2E4F
:10517000FCEA6F2EF7E07F2EF02D3E2C2F2CFF92B5
:10518000EF92BF92AF921F930F930E94CD3960E0D0
:1051900070E0C80102DD5BDD0F900F900F900F9063
:1051A0000F900F90811163C032E03E15E8F4F601D4
:1051B00083818F9382818F9381818F9380818F935D
:1051C000FF92EF925F924F921F930F930E94CD39FF
:1051D00060E070E0C801E1DC3ADD0FB6F894DEBFB4
:1051E0000FBECDBF811143C02F923F929F928F92ED
:1051F0001F930F930E94CD3960E070E0C801CDDCB1
:1052000026DD0F900F900F900F900F900F9081114F
:105210002EC02F923F927F926F921F930F930E9406
:10522000CD3960E070E0C801B8DC11DD0F900F905F
:105230000F900F900F900F90811119C03FEFE31A5C
:10524000F30A84E0C80ED11C98E0E916F10409F0D5
:1052500094CF60E070E084EC97E09FDCF8DC811193
:1052600006C060E070E085ED97E097DCF0DCA0968A
:105270000FB6F894DEBF0FBECDBFDF91CF911F9167
:105280000F91FF90EF90DF90CF90BF90AF909F90E5
:105290008F907F906F905F904F903F902F900895E8
:1052A000EF92FF920F931F93CF93DF93EC018B014B
:1052B0007A0181E0F4DE81110DC0CE01D4DD8111CF
:1052C00009C0C801E1DD811105C0C701BBDD811145
:1052D00001C0EBDDDF91CF911F910F91FF90EF9017
:1052E000089590E0FC01EE0FFF1F8E0F9F1FFC0141
:1052F000E256F74F818192810895DC01009729F1F0
:10530000FB012081FC0101900020E9F73197E81BA7
:10531000F90B822F90E0E817F907C8F080E008C089
:10532000880F382F330F330F830F8053890F2F5F70
:10533000FD01E20FF11D908130ED390F3A3010F48C
:105340009111EECFFB012083089580E0089580E065
:1053500008950F931F93CF93DF93DC01EA01209709
:10536000E1F1FA0101900020E9F73197E41BF50B18
:10537000329710F532C08D01040F151F30E0AE01D9
:10538000420F531FFA019081913428F09753592FFF
:105390005295507F03C0592F5295507F2C0F3D1FBF
:1053A000F9019181913410F0975301C09053950FFA
:1053B000F80190838F5F01C080E0282F220F482FD3
:1053C00050E0FE0101900020E9F73197EC1BFD0B46
:1053D0004E175F0710F48613CECFDF91CF911F9148
:1053E0000F9108958091AB18860F8093AB18909120
:1053F000AE18913079F028F09230A9F0933019F17D
:1054000008956F3F09F048C01092AB1881E0809377
:10541000AE180895663809F03FC01092AA1882E0CD
:105420008093AE180895E091AA1881E08E0F8093C2
:10543000AA18F0E0E855F74E6083823069F583E002
:105440008093AE1808959091AA1821E0290F209317
:10545000AA18963009F581110EC0E8EAF8E18081BA
:1054600090E0982F88272181820F911D9093B0188A
:105470008093AF1804C01092B0181092AF18109219
:10548000AE18E091AC18F091AD18309729F08091EA
:10549000AF189091B018199508958F929F92AF927E
:1054A000CF92EF920F930F2EF2EF8F2EF9E29F2EF5
:1054B000F02D6894AA24A4F86894CC24C4F8E12CB4
:1054C00000E023E040E855E260E070E073D09093A4
:1054D000B2188093B1180F91EF90CF90AF909F903A
:1054E0008F9008959093AD188093AC180895CF9342
:1054F000DF93CDB7DEB729970FB6F894DEBF0FBEA6
:10550000CDBF89E0E2E4F2E09E012F5F3F4FD90179
:1055100001900D928A95E1F71092B0181092AF1891
:105520008091B1189091B218009731F0422F532F0B
:1055300069E013D180E001C082E029960FB6F894AB
:10554000DEBF0FBECDBFDF91CF91089565360CF061
:1055500064E66C390CF46CE996EF6902B001112431
:105560006854744F811105C070932901609328011C
:10557000089570932B0160932A010895EAE0F1E009
:105580008081886180838FE39CE9909327018093D9
:10559000260160E080E0DADF60E081E0D7DFE0E272
:1055A000F1E08081826A8083E1E2F1E080818A61BA
:1055B000808308952F923F924F925F926F927F92D5
:1055C0008F929F92AF92CF92EF92FF920F931F9381
:1055D000CF93DF93CDB7DEB7F82E2A013B0188E0E9
:1055E00090E00E94C0378C018F2D90E0FC01EE0FFF
:1055F000FF1FED54F74E118300830115110509F4C7
:105600006FC0880F991FFC01E55FFD4F808191817C
:10561000D8018D939C938C2D90E0880F991F880F53
:10562000991F0E94C0371C0186E090E00E94C0379D
:105630007C014C2DB1010E949B35F801F582E4827A
:105640008A2D90E0880F991F880F991F0E94C037FC
:105650001C0186E090E00E94C0377C014A2DB10118
:105660000E949B35D8011396FC92EE9212971796E2
:105670009C928E921697FFB6F894ED91FC9111973B
:1056800036978081826080838D909C90C301B201A7
:105690000E94893620E030E040E051E40E94F2367A
:1056A0009B01AC0160E074E284E79BE40E941E363B
:1056B00020E030E040E85FE30E94B7350E94052318
:1056C000F40132976083D801ED91FC9111973597E1
:1056D00088E98083ED91FC91349786E08083FFBE5A
:1056E000C801DF91CF911F910F91FF90EF90CF9064
:1056F000AF909F908F907F906F905F904F903F9072
:105700002F900895CF93DF93DC01892B01F112963E
:10571000ED91FC911397938182812581981B9223AF
:1057200084819817B1F0838126952823C081D18187
:10573000C20FD11D68838F5F958189238383ED918B
:10574000FC91359780818062808380E003C081E096
:1057500001C082E0DF91CF910895EF92FF920F9305
:105760001F93CF93DF937C01009709F441C0DC01C4
:105770001296ED91FC91139793818281981B8581FC
:1057800098238481891B8617A8F1662341F1842F11
:10579000952FDC016150462F50E04F5F5F4F480F5F
:1057A000591FE701EA81FB81938182812581981B42
:1057B00092238481981779F08C91938126952923DF
:1057C000608171818B01020F111DE80188839F5F49
:1057D0008581982393831196A417B50711F7D701F4
:1057E000ED91FC91359780818062808380E003C0D9
:1057F00081E001C082E0DF91CF911F910F91FF9076
:10580000EF9008950097D1F0DC011496ED91FC9192
:10581000159793818281981799F092818581869559
:105820008923A081B181A80FB11D8C91DB018C93DC
:105830009F5F85819823928380E0089581E0089599
:1058400083E008951F920F920FB60F9211240BB6AA
:105850000F922F933F934F935F936F937F938F9309
:105860009F93AF93BF93CF93DF93EF93FF93A09159
:10587000B318B091B418109711F16091C600149646
:10588000ED91FC911597938182812581981B92233C
:105890008481981761F0838126952823C081D18166
:1058A000C20FD11D68838F5F9581892383831696EC
:1058B000ED91FC911797309711F0CD011995FF915B
:1058C000EF91DF91CF91BF91AF919F918F917F9198
:1058D0006F915F914F913F912F910F900BBE0F9061
:1058E0000FBE0F901F9018951F920F920FB60F9238
:1058F00011240BB60F922F938F939F93AF93BF9367
:10590000EF93FF93E091B318F091B4183097B9F08A
:105910000280F381E02D938182819817B1F092810A
:105920008581282F26952923A081B181A20FB11D41
:105930002C919F5F892382832093C6000BC0E1ECEA
:10594000F0E080818F7D808305C0E1ECF0E0808114
:105950008F7D8083FF91EF91BF91AF919F918F9148
:105960002F910F900BBE0F900FBE0F901F901895A8
:105970001F920F920FB60F9211240BB60F922F9316
:105980003F934F935F936F937F938F939F93AF93C7
:10599000BF93CF93DF93EF93FF93A091B518B0918E
:1059A000B618109711F16091CE001496ED91FC910C
:1059B0001597938182812581981B92238481981762
:1059C00061F0838126952823C081D181C20FD11D2A
:1059D00068838F5F9581892383831696ED91FC916F
:1059E0001797309711F0CD011995FF91EF91DF9145
:1059F000CF91BF91AF919F918F917F916F915F9167
:105A00004F913F912F910F900BBE0F900FBE0F90B3
:105A10001F9018951F920F920FB60F9211240BB67C
:105A20000F922F938F939F93AF93BF93EF93FF9317
:105A3000E091B518F091B6183097B9F00280F38173
:105A4000E02D938182819817B1F092818581282F72
:105A500026952923A081B181A20FB11D2C919F5FB2
:105A6000892382832093CE000BC0E9ECF0E0808193
:105A70008F7D808305C0E9ECF0E080818F7D80839D
:105A8000FF91EF91BF91AF919F918F912F910F90C7
:105A90000BBE0F900FBE0F901F9018951F920F9284
:105AA0000FB60F9211240BB60F922F933F934F9383
:105AB0005F936F937F938F939F93AF93BF93CF9396
:105AC000DF93EF93FF93A091B718B091B818109798
:105AD00011F16091D6001496ED91FC911597938188
