:10000000E6C0000004C1000002C1000000C1000001
:10001000FEC00000FCC00000FAC00000F8C00000F4
:10002000F6C00000F4C00000F2C00000F0C0000004
:100030000C94BB0AECC00000EAC00000E8C000005D
:10004000E6C00000E4C00000E2C00000E0C0000024
:10005000DEC00000DCC00000DAC00000D8C0000034
:10006000D6C000000C94CF280C942129D0C00000E9
:10007000CEC00000CCC00000CAC00000C8C0000054
:10008000C6C00000C4C00000C2C00000C0C0000064
:100090000C9465290C94B729BAC000000C94482F21
:1000A000B6C00000B4C00000B2C00000B0C0000084
:1000B000AEC00000ACC00000AAC00000A8C0000094
:1000C000A6C00000A4C00000A2C000000C94FB2940
:1000D0000C944D2A9CC000000C94912A0C94E32AA5
:1000E00096C00000952095209520CC20D420E920B2
:1000F00095209520CC20D4206A2FDA2FDA2FDA2F02
:10010000DA2FDA2FDA2FDA2F6A2FDA2FDA2FDA2F17
:10011000DA2FDA2FDA2FDA2F6C2FDA2FDA2FDA2F05
:10012000DA2FDA2FDA2FDA2FDA2FDA2FDA2FDA2F87
:10013000DA2FDA2FDA2FDA2F6C2FDA2FDA2FDA2FE5
:10014000DA2FDA2FDA2FDA2FDA2FDA2FDA2FDA2F67
:10015000DA2FDA2FDA2FDA2FD62FDA2FDA2FDA2F5B
:10016000DA2FDA2FDA2FDA2FA12FDA2FDA2FDA2F80
:10017000DA2FDA2FDA2FDA2FDA2FDA2FDA2FDA2F37
:10018000DA2FDA2FDA2FDA2F952FDA2FDA2FDA2F6C
:10019000DA2FDA2FDA2FDA2FB92F0E94D6128091B8
:1001A000C916823010F00E94F5090E941221F5CF85
:1001B000CF93DF931F92CDB7DEB7CE0101960E9499
:1001C000121E49810E9407200E945E20F6CF112452
:1001D0001FBECFEFD1E2DEBFCDBF00E00CBF18E005
:1001E000A0E0B2E0E8E6FDE600E00BBF02C0079049
:1001F0000D92AA3BB107D9F728E1AAEBB8E001C0FC
:100200001D92A53DB207E1F798D10C94B236F8CE15
:1002100040E064E084E00E94EA0B9093971880939A
:100220009618892B21F08FE692E00C94A73308955D
:100230000F93CF93DF9300D01F92CDB7DEB76983C2
:100240007A838B839C8300E02AE030E040E050E03A
:10025000BE016F5F7F4F80919618909197180E9412
:100260000D0C813021F088E792E00E94A7330F90B7
:100270000F900F900F90DF91CF910F910895CF9332
:10028000DF9300D01F92CDB7DEB72AE030E040E028
:1002900050E0BE016F5F7F4F809196189091971844
:1002A0000E94F80C813021F085E090E09C838B83E4
:1002B00069817A818B819C810F900F900F900F90B4
:1002C000DF91CF910895909399188093981808958D
:1002D0008091981890919918089581E00E94B10C2E
:1002E00090939B1880939A18892B29F083E892E0C9
:1002F0000C94A73308958CE892E00C94A7330895EA
:100300000F931F93CF93DF93CDB7DEB764970FB6EC
:10031000F894DEBF0FBECDBF81E00E94942362E05F
:1003200070E080E090E00E94A21680E00E9494239A
:1003300066E970E080E090E00E94A2160E944D23E2
:100340000E94A2230E942025CE0101960E94B42380
:10035000CE0101960E94D023AE014F5F5F4F6AE944
:1003600072E08BEB92E00E94FE250E94032481E064
:100370000E94FD2484EF91E00E9408251AE080E0AD
:100380000E940924082F0E941F269F938F931F927B
:100390001F938CEC92E09F938F930E9494330F9065
:1003A0000F900F900F900F900F90083059F080E051
:1003B0000E94DB2C66E371E080E090E00E94A216D0
:1003C0001150E9F6083021F481E00E94BD2C09C0EB
:1003D00081E00E94CC2C82E00E949A2C0E94F509B8
:1003E000FDCF64960FB6F894DEBF0FBECDBFDF9190
:1003F000CF911F910F91089580919E1890919F1811
:10040000089580919C1890919D18089586D490939A
:100410009F1880939E18892B49F48BEE92E09F934E
:100420008F930E9494330F900F9004C08EEF92E050
:100430000E94A73372D490939D1880939C18892BA7
:1004400049F48BEE92E09F938F930E9494330F9028
:100450000F90089581E193E00C94A7330895EF92F3
:10046000FF920F93E12CF12C02E020E030E046E512
:1004700051E067E273E08CE093E00E949D1301E09D
:1004800020E030E040EC50E063E373E08CEB94E07C
:100490000E949D1320E030E040EC50E06BE373E0FD
:1004A00089EB95E00E949D1320E030E040EC50E0A5
:1004B00067E473E084E695E00E949D1320E030E05D
:1004C00040EC50E06FE473E088E396E00E949D13F7
:1004D00002E020E030E040EC50E069E573E087E6C0
:1004E00094E00E949D1320E030E040EC50E064E690
:1004F00073E08EEE93E00E949D130F91FF90EF90BA
:10050000089580E00E94452B81B1816881B985E022
:100510000E944C2CE2DEA9D379DF20D328D0CCD2A4
:100520001FD29DDF75DE1ED0BC0181E00E945423E6
:1005300081E793E00C94A7330895E3DF8CE793E021
:100540000E94A7330E94E91384E893E09F938F935E
:100550000E9494330F900F90F7CF8091A318909141
:10056000A41808958091BB189091BC18089541E09B
:1005700060E070E088E190E00E94970F9093A418EB
:100580008093A31841E060E070E088E190E00E9471
:10059000970F9093BC188093BB188091A3189091EB
:1005A000A418892B29F48AE893E00C94A7330895C2
:1005B00089E993E00C94A7330895E5EAF8E128E08F
:1005C000218322E020832091A218422F022E000CCA
:1005D000550B528323832091BD18422F022E000C0D
:1005E000550B548325832091A118422F022E000C15
:1005F000550B568327832091A018422F022E000C02
:10060000550B5087218726E1DC0101900D922A9538
:10061000E1F7089575CE0895CF93DF93CDB7DEB798
:10062000E0970FB6F894DEBF0FBECDBFF3DF0E9498
:10063000271469837A838B839C8342EE54E060E0C5
:1006400070E0CE0101960E943D1684EA93E00E947C
:10065000A733D2DE41E050E060E070E011D4D1DE9B
:100660000F2EFEE3CF2ED12CE12CF12CF02D00E04B
:1006700021E041E050E060E070E062D3672B682B3E
:10068000692B21F086EB93E00E94A73388EC93E07E
:100690000E94A733B1DE42E050E060E070E0F0D3AA
:1006A000B0DE0F2EFEE3CF2ED12CE12CF12CF02D5D
:1006B00000E021E042E050E060E070E041D3672BD1
:1006C000682B692B21F08AED93E00E94A73388EE16
:1006D00093E00E94A73390DE44E050E060E070E0D9
:1006E000CFD38FDE0F2EFEE3CF2ED12CE12CF12CB9
:1006F000F02D00E021E044E050E060E070E020D325
:10070000672B682B692B21F08AEF93E00E94A733B7
:1007100088E094E00E94A733B2DD6B017C0164E6BF
:1007200070E080E090E00E94A216C701853091053C
:1007300089F18230910589F01CF4019739F022C0CB
:1007400083309105C1F0049779F01CC0C092A118C4
:1007500085E294E00E94A73319C0C092A2188DE2EE
:1007600094E00E94A73312C0C092A01885E394E0E1
:100770000E94A7330BC0C092BD188DE394E00E9485
:10078000A73304C086E494E00E94A73385E0E8160E
:10079000F10411F68FE494E00E94A733CE014B964A
:1007A0000CDF86E1FE017B96DE01159601900D922D
:1007B0008A95E1F7D2DE04E610E020E030E046E181
:1007C00050E0BE016B5F7F4F0E94F90F469709F41E
:1007D00034CF88E694E00E94A7332FCFCF93DF93E6
:1007E000CDB7DEB766970FB6F894DEBF0FBECDBFAC
:1007F0006EE370E080E090E00E94A216B3DE01E7B5
:1008000012E020E030E046E150E0BE016F5F7F4F34
:100810000E9402114697E9F481E894E00E94A73310
:100820008B818093BE1821E030E03093C018209374
:10083000BF18282F082E000C330B3F938F938FE0A7
:1008400097E09F938F930E9494330F900F900F9097
:100850000F908091BF189091C018019749F661E7F9
:1008600072E080E090E00E94A21680919A18909128
:100870009B18009711F144E150E060E070E00E94A5
:10088000870D8130B1F48091BE18082E000C990BB1
:100890001ADD00E020E030E0A90160E070E0809126
:1008A0009A1890919B18B9D781E994E00E94A733D8
:1008B00004C082EB94E00E94A7331092C0181092FB
:1008C000BF1896CF8AEC94E00C94A7330895CF9389
:1008D000DF93CDB7DEB766970FB6F894DEBF0FBED5
:1008E000CDBFF0DF6EE370E080E090E00E94A216E2
:1008F00034DE01E712E020E030E046E150E0BE01E6
:100900006F5F7F4F0E940211469761F784ED94E07C
:100910000E94A73362E370E080E090E00E94A2169C
:10092000BE016F5F7F4F80E00E9432240E941F262D
:100930009F938F9382EE94E09F938F930E949433C2
:100940000F900F900F900F90CDCF9093C31880937E
:10095000C21881E090E09093BB088093BA08089594
:1009600089EF94E00E94A73383E00E94FB2685EA8A
:1009700094E00C9420270895CF93DF9300D01F922A
:10098000CDB7DEB70E94271469837A838B839C835B
:100990001092BB081092BA084DE750E060E070E09A
:1009A000CE0101960E943D1627DD0F2EF2EECF2ECE
:1009B000F4E0DF2EE12CF12CF02D01E021E041E00C
:1009C00050E060E070E0BCD160FF3CC080E095E0AA
:1009D0000E94A7330E9425278093C118882359F0CD
:1009E00081E195E00E94A73306C062E370E080E0F9
:1009F00090E00E94A2168091BA089091BB08892BC2
:100A0000A1F3AA24A394B12C8090C2189090C3188B
:100A1000C501B4010DDC62E370E080E090E00E946B
:100A2000A2168091C3188F938091C2188F938FE183
:100A300095E09F938F930E9494330F900F900F90A7
:100A40000F90A6CF88E295E00E94A733A1CFCF9365
:100A5000DF9300D01F92CDB7DEB78130B1F4CE0165
:100A600001960E948E2D69817A818B819C810E94E2
:100A700036217F936F9386E395E09F938F930E9437
:100A800094330F900F900F900F9069817A818B8132
:100A90009C810E943B217093C5186093C41881E02B
:100AA00090E09093BB088093BA080F900F900F903E
:100AB0000F90DF91CF91089587E295E00C944C2D33
:100AC00008950C94672D0895CF93DF9300D01F9263
:100AD000CDB7DEB7F6DF0E94271469837A838B8354
:100AE0009C831092BB081092BA084DE750E060E07A
:100AF00070E0CE0101960E943D167EDC0F2EF2EED4
:100B0000CF2EF4E0DF2EE12CF12CF02D01E021E0DE
:100B100044E050E060E070E013D162FF0DC08FE36D
:100B200095E00E94A7330E947C2D06C062E370E02E
:100B300080E090E00E94A2168091BA089091BB08D4
:100B4000892BA1F36894AA24A2F8B12C8090C41830
:100B50009090C518C501B4016BDBC3CF0E94BD21C5
:100B60000E94D521882321F08BE495E00C94A733D3
:100B70000895CF93DF9300D01F92CDB7DEB70E94C8
:100B8000271469837A838B839C834DE750E060E070
:100B900070E0CE0101960E943D162EDC0F2EF1E78B
:100BA000CF2EF2E0DF2EE12CF12CF02D01E021E040
:100BB00042E050E060E070E0C3D061FFE6CF8AE63B
:100BC00095E00E94A7330E94EA21882321F08BE759
:100BD00095E00E94A73364E170E080E090E00E941D
:100BE000A2160E942B229093C9188093C8180F2E2A
:100BF000F3E0AF2EB12CF02D4C01C501B40118DB90
:100C000062E370E080E090E00E94A2160E94FB2167
:100C10000E943B217093C7186093C6186894AA2459
:100C2000A1F8B12C4B01C501B40102DB62E370E015
:100C300080E090E00E94A2168091C7188F93809167
:100C4000C6188F938091C9188F938091C8188F937D
:100C50008FE895E09F938F930E9494330F900F90AD
:100C60000F900F900F900F9090CF0C946C270895D9
:100C700061E772E080E090E00E94A21680919A18ED
:100C800090919B180097A1F34AE050E060E070E07B
:100C90003ED78130E1F41CDBC82F00E020E030E0DB
:100CA000A90160E070E080919A1890919B18B5D5E9
:100CB0008091CA18C817E1F28CE995E00E94A73329
:100CC0006C2F81E00E945427C093CA18D1CF8CEBBF
:100CD00095E00E94A733CCCF0F9301110CC0DC012B
:100CE000CB0182239323A423B523892B8A2B8B2B1F
:100CF00079F480E010C0DC01CB0182239323A4238C
:100D0000B523281739074A075B0721F080E003C0A5
:100D100081E001C081E00F910895CF93DF938FE0D0
:100D200090E0AFD1EC01009739F0FC0111921192E3
:100D300011921192CF018BD2CE01DF91CF91089504
:100D40002F923F924F925F926F927F928F929F92DB
:100D5000AF92BF92CF92DF92EF92FF920F931F93C9
:100D6000CF93DF93EC014A015B01622E702E0E944B
:100D70002114288039804A805B80A5019401C2013A
:100D8000B101AADF8823A1F0662089F1D501C40151
:100D900080959095A095B09582219321A421B521AD
:100DA00088839983AA83BB83C12CD12C760122C06E
:100DB000C114D104E104F104E9F0611004C040E081
:100DC00050E0BA0104C040E050E060E071E0711012
:100DD0007460482959296A297B2997018601CE0127
:100DE00004960E943917212C312C210103C0C12CFB
:100DF000D12C76010E946115CD28CE28CF2859F13B
:100E0000811101C0F2D20E94FB1A6B017C0191FD9D
:100E10001FC00FB6F8940F92C880D980EA80FB807B
:100E2000072DA5019401C701B60156DF882371F093
:100E3000662061F080949094A094B0948C209D20C2
:100E4000AE20BF2088829982AA82BB820F900FBEFB
:100E5000160127015524C201B101DF91CF911F91E5
:100E60000F91FF90EF90DF90CF90BF90AF909F9049
:100E70008F907F906F905F904F903F902F9008954C
:100E80004F925F926F927F92AF92BF92CF92DF921A
:100E9000EF92FF920F931F93CF93DF93EC016A01C0
:100EA0007B018C01095F1F4F0E942114EB85FC859B
:100EB00088819981AA81BB81C82AD92AEA2AFB2A7A
:100EC000C882D982EA82FB82C12CD12C76013DC036
:100ED000A480B58080819181A281B381AC01BD01E4
:100EE0007727B2FD0EC0488059806A807B804422FB
:100EF00055226622772245284628472889F420E093
:100F000012C0488059806A807B8044225522662224
:100F10007722441555056605770521F020E003C0CA
:100F200021E001C021E0222371F0B0FF04C0C42AF7
:100F3000D52AE62AF72A488159816A817B81726025
:100F4000CF010E947418EA2DFB2DE017F10709F07C
:100F5000BFCFC094D094E094F09488819981AA8105
:100F6000BB81C822D922EA22FB22C882D982EA8226
:100F7000FB820E946115688179818A819B81DF9162
:100F8000CF911F910F91FF90EF90DF90CF90BF9086
:100F9000AF907F906F905F904F900895E8ECF8E0ED
:100FA000ACECB8E0B183A08313821282E4E7F6E1EF
:100FB000F093C708E093C608138212821182108250
:100FC00088EA9DE013969C938E931297ED93FC9381
:100FD0009093C3088093C2089093C5088093C40877
:100FE00080E090E89093BD088093BC080895CF936B
:100FF000DF93EC01A8ECB8E001C0DF01ED91FC91BA
:101000001197EC17FD07C8F312968D919C911397D9
:101010009D01280F391FC217D30749F42A813B814C
:10102000820F931F13969C938E931297ED018A81E2
:101030009B819E01280F391FE217F307C1F420910D
:10104000C6083091C708E217F30771F02281338197
:10105000820F931F9B838A83ED91FC91119780816E
:1010600091819983888305C03983288302C0F983DD
:10107000E883CA17DB0711F0CD93DC93DF91CF91A2
:101080000895EF92FF920F931F93CF93DF938C01FC
:101090000E9421148091C6089091C708892B09F4F9
:1010A0007DDF8091BC089091BD0880239123892B1E
:1010B00009F076C00115110549F0C801049608171A
:1010C000190718F000E010E001C08C0101151105AE
:1010D00009F469C08091C4089091C50880179107F0
:1010E00008F464C0C091C808D091C908E8ECF8E0E1
:1010F00002C0FE01EC018A819B818017910720F4D8
:10110000888199810097A9F78091C6089091C708B6
:10111000C817D90709F44DC0E080F18084E0E80EDB
:10112000F11C88819981918380832A813B81201BD6
:10113000310B2930310548F0CE01800F911FFC01A1
:10114000338322831B830A8352DF2A813B81809170
:10115000C4089091C508821B930B9093C508809397
:10116000C4084091C2085091C3088417950720F421
:101170009093C3088093C2088091BC089091BD08E9
:10118000282B392B3B832A83198218828091C0082F
:101190009091C10801969093C1088093C0080BC03C
:1011A000E12CF12C08C0E12CF12C05C0E12CF12C34
:1011B00002C0E12CF12C0E946115E114F10411F43C
:1011C0000E941E21C701DF91CF911F910F91FF90C7
:1011D000EF9008950F931F93CF93DF93009791F1B2
:1011E000EC0124974A815B812091BC083091BD08B5
:1011F000BA0162237323672B29F168817981672BF8
:1012000009F520953095242335233B832A830E94BA
:1012100021148A819B812091C4083091C508820FD6
:10122000931F9093C5088093C408CE01E0DE80919F
:10123000BE089091BF0801969093BF088093BE08A6
:101240000E946115DF91CF911F910F910895FC01CC
:101250000396928381834FEF5FEFBA0143835483F8
:10126000658376839087878392878187108208952C
:10127000FC011386128608950F931F93CF93DF937B
:10128000EB01088119812A813B810F3F4FEF140741
:101290002407340721F4FC01A185B28511C0DC01CB
:1012A000139601C0DF011496ED91FC9115974081D2
:1012B000518162817381041715072607370790F75C
:1012C0001496ED91FC911597FD83EC83D783C6832B
:1012D000BF83AE831596DC93CE9314979B878A8742
:1012E000FC0120812F5F2083DF91CF911F910F910F
:1012F0000895CF93DF93FC01A285B385C481D58186
:10130000868197819F838E83C681D78184819581D1
:101310009D838C8311968D919C911297E817F90704
:1013200031F48681978112969C938E931197138640
:1013300012868C9181508C938C91DF91CF9108957E
:10134000A89590EC88E10FB6F894A895809360007A
:101350000FBE909360000895FC0160833197708305
:101360003197108231971082319720E8208331978E
:10137000108231971082319710827797408331978E
:10138000508386970895DCDFA0913717B091381706
:10139000CD91CDBFDD91DEBFFF91EF91DF91CF9178
:1013A000BF91AF919F918F917F916F915F914F917D
:1013B0003F912F911F910F91FF90EF90DF90CF9071
:1013C000BF90AF909F908F907F906F905F904F9065
:1013D0003F902F901F900F900CBE0F900BBE0F9060
:1013E0000FBE0F90089581E008950F920FB6F89404
:1013F0000F920BB60F920CB60F921F9211242F92E0
:101400003F924F925F926F927F928F929F92AF9294
:10141000BF92CF92DF92EF92FF920F931F932F9381
:101420003F934F935F936F937F938F939F93AF936C
:10143000BF93CF93DF93EF93FF93A0913717B091B2
:1014400038170DB60D920EB60D920E94BD16A091E2
:101450003717B0913817CD91CDBFDD91DEBFFF9129
:10146000EF91DF91CF91BF91AF919F918F917F913C
:101470006F915F914F913F912F911F910F91FF902D
:10148000EF90DF90CF90BF90AF909F908F907F9024
:101490006F905F904F903F902F901F900F900CBED9
:1014A0000F900BBE0F900FBE0F9008950F920FB6C6
:1014B000F8940F920BB60F920CB60F921F92112454
:1014C0002F923F924F925F926F927F928F929F9254
:1014D000AF92BF92CF92DF92EF92FF920F931F9342
:1014E0002F933F934F935F936F937F938F939F932C
:1014F000AF93BF93CF93DF93EF93FF93A0913717F1
:10150000B09138170DB60D920EB60D9213BE0E9413
:10151000351481110E94BD16A0913717B09138176C
:10152000CD91CDBFDD91DEBFFF91EF91DF91CF91E6
:10153000BF91AF919F918F917F916F915F914F91EB
:101540003F912F911F910F91FF90EF90DF90CF90DF
:10155000BF90AF909F908F907F906F905F904F90D3
:101560003F902F901F900F900CBE0F900BBE0F90CE
:101570000FBE0F9008959ADF1895DC0153962C91B9
:101580005397222341F05A96ED91FC915B979081FD
:101590008AE0891B089580E008950FB6F8940F92B1
:1015A000FC01868D811102C081E001C080E00F90B6
:1015B0000FBE08950FB6F8940F92FC01268D878D0B
:1015C000281302C081E001C080E00F900FBE089593
:1015D0000F931F93CF93DF93EC01042F1E8D48A12F
:1015E00041110CC088819981892B09F042C08C81FE
:1015F0009D810E94391A1D821C8242C0011117C0B0
:1016000050E08A819B810E94353328A18A819B8189
:10161000820F911D9B838A832C813D8182179307C2
:1016200050F1888199819B838A8380E029C050E0B2
:101630008E819F810E94353388A190E0919581959C
:1016400091092E813F81280F391F3F832E834881C6
:1016500059812417350730F42C813D81820F931F67
:101660009F838E83023049F4112349F0115080E0AA
:1016700007C080E005C080E003C080E001C080E0DA
:101680001F5F1E8FDF91CF911F910F910895FC0175
:1016900040A14423A9F050E026813781240F351F53
:1016A00037832683848195812817390720F080812C
:1016B000918197838683CB01668177810C94353342
:1016C00008951F93CF93DF93EC010FB6F8940F9218
:1016D0001AA10BC08B89882351F0CE0143960E943A
:1016E000C51781110E949B19115011169CF38FEFA1
:1016F0008AA30F900FBE0FB6F8940F9219A10BC0DA
:101700008885882351F0CE0108960E94C517811163
:101710000E949B19115011169CF38FEF89A30F9013
:101720000FBEDF91CF911F910895CF93DF93EC010E
:101730000FB6F8940F92E881F9818F8D28A190E07F
:1017400030E0829FA001839F500D929F500D112485
:101750004E0F5F1F5D834C831E8EFB83EA830197D0
:10176000289FA001299F500D389F500D1124CF01B3
:10177000840F951F9F838E838FEF89A38AA36111A6
:101780000BC08885882371F0CE0108960E94C5178A
:10179000882341F02ADE06C0CE01089658DDCE012E
:1017A000439655DD0F900FBE81E0DF91CF910895F4
:1017B0000F931F93F801611103C01183008302C0CE
:1017C00051834083878F60A361E0CF01AEDF1F911B
:1017D0000F910895DF92EF92FF920F931F93CF9393
:1017E000DF93F82EE62ED42E869FC0011124839617
:1017F00048DCEC01009741F08C012D2DAC014D5DD2
:101800005F4F6E2D8F2DD4DFCE01DF91CF911F91D1
:101810000F91FF90EF90DF900895CF92DF92EF92BB
:10182000FF920F931F93CF93DF93CDB7DEB7299726
:101830000FB6F894DEBF0FBECDBF7C016B012E83C7
:101840003F834887598710E00FB6F8940F92F7014D
:10185000968D878D981710F00230B1F4402FB601A5
:10186000C701B6DEF7019389992341F0C70143967A
:101870000E94C517882321F0B8DD02C08111B5DDB3
:101880000F900FBE81E04CC08E819F81A885B985E5
:10189000892B8A2B8B2B21F40F900FBE80E040C048
:1018A000111105C0CE0101960E94241911E00F907C
:1018B0000FBEC7D70FB6F8940F92F70181A18F3FE3
:1018C00009F411A2F70182A18F3F09F412A20F902F
:1018D0000FBEBE016A5F7F4FCE0101960E9435198F
:1018E000811119C0C70166DE882381F04E815F81B6
:1018F00068857985C70108960E942217C701E1DE35
:101900000E9461158111A0CF70DD9ECFC701D9DE85
:101910000E94611599CFC701D4DE0E94611580E055
:1019200029960FB6F894DEBF0FBECDBFDF91CF91E1
:101930001F910F91FF90EF90DF90CF9008950F933C
:10194000009769F0FC0115821482118210821682C0
:1019500000E020E030E0A90160E070E05EDF0F9180
:101960000895CF93DF93482F60E081E033DFEC01EF
:10197000E6DFCE01DF91CF910895EF92FF920F93B2
:101980001F93CF93DF938A01FC01568D378D531738
:1019900010F02230F9F4422F7801EC011AA18E8D5B
:1019A000CE0116DE1F3F81F48B898823A9F0CE017A
:1019B00043960E94C517882389F0E114F10481F051
:1019C00081E0F70180830DC0FF24F394F10EFAA2A9
:1019D00081E007C080E005C081E003C081E001C074
:1019E00081E0DF91CF911F910F91FF90EF900895CB
:1019F000CF92DF92EF92FF920F931F93CF93DF93DB
:101A0000CDB7DEB729970FB6F894DEBF0FBECDBFB6
:101A10008C016B012E833F8348875987E12C0FB6D9
:101A2000F8940F92F801F68CFF2099F0B601C801E6
:101A30002EDEFA94F801F68E8085882331F0C801F5
:101A400008960E94C5178111D0DC0F900FBE81E06F
:101A50004FC08E819F81A885B985892B8A2B8B2BBE
:101A600021F40F900FBE80E043C0E11006C0CE010C
:101A700001960E942419EE24E3940F900FBEE1D644
:101A80000FB6F8940F92F80181A18F3F09F411A2CB
:101A9000F80182A18F3F09F412A20F900FBEBE0180
:101AA0006A5F7F4FCE0101960E943519811117C0E0
:101AB000C80173DD882379F04E815F81688579855F
:101AC000C80143960E942217C801FBDDFAD7811195
:101AD000A6CF8BDCA4CFC801F4DDF3D7A0CFC8011B
:101AE000F0DDEFD7C80159DD882309F498CF80E0F5
:101AF00029960FB6F894DEBF0FBECDBFDF91CF9110
:101B00001F910F91FF90EF90DF90CF900895EF928B
:101B1000FF920F931F93CF93DF93CDB7DEB7299733
:101B20000FB6F894DEBF0FBECDBF8C014E835F832E
:101B300068877987E12CF12C0FB6F8940F92F801A1
:101B4000868D8823C9F08150868F80819181892B71
:101B500029F40E94251BF80195838483F801808570
:101B6000882331F0C80108960E94C51781113DDC19
:101B70000F900FBE81E06FC08E819F81A885B985CF
:101B8000892B8A2B8B2B21F40F900FBE80E063C032
:101B9000F11006C0CE0101960E942419FF24F3948F
:101BA0000F900FBE4ED60FB6F8940F92F80181A198
:101BB0008F3F09F411A2F80182A18F3F09F412A20C
:101BC0000F900FBEBE016A5F7F4FCE0101960E944B
:101BD0003519811126C0C801E0DC8823F1F0F80135
:101BE00080819181892B51F40FB6F8940F928481F2
:101BF00095810E94B219E82E0F900FBE4E815F8131
:101C000068857985C80143960E942217C80159DD6D
:101C100058D7811191CFE9DB8FCFC80152DD51D761
:101C20008BCFC8014EDD4DD7C801B7DC882309F43E
:101C300083CFEE2079F00FB6F8940F92C8019DDCA7
:101C4000682FF801848195810E94941A0F900FBE2D
:101C500080E001C080E029960FB6F894DEBF0FBE89
:101C6000CDBFDF91CF911F910F91FF90EF9008951D
:101C7000CF93DF93EC010FB6F8940F9289A18F3FB9
:101C800009F419A28AA18F3F09F41AA20F900FBE7E
:101C90008E8D811104C0CE0143960E948317CE0120
:101CA00010DDDF91CF910895FC014481558122819F
:101CB0003381240F351F80819181B901681B790B15
:101CC000CB016417750710F0841B950B08950F93D3
:101CD000FC018FE0DF011D928A95E9F77587648723
:101CE000558344833783268306870F910895AF92E7
:101CF000BF92CF92DF92EF92FF920F931F93CF93F9
:101D0000DF936C015B017A01FC01C281D381048104
:101D100015810C1B1D0B4017510708F48A01F601B1
:101D200084859585A801B5018C0F9D1F0E943533D0
:101D30000E151F0558F4A701401B510BB501600F8C
:101D4000711FF601848595850E943533CE018E0D75
:101D50009F1DF601248135818217930710F0821BA5
:101D6000930BF60193838283C701DF91CF911F917B
:101D70000F91FF90EF90DF90CF90BF90AF900895BC
:101D8000CF92DF92EF92FF920F931F93CF93DF9347
:101D90001F921F92CDB7DEB77C016B015A83498336
:101DA00021153105C1F0FC01868580FD08C0421770
:101DB000530708F49A013A83298381E00FC0201762
:101DC000310758F042E050E0BE016F5F7F4FC7011E
:101DD0008EDF81E003C080E001C080E0882331F025
:101DE00049815A81B601C70182DF02C080E090E0DC
:101DF0000F900F90DF91CF911F910F91FF90EF9077
:101E0000DF90CF900895AF92BF92CF92DF92EF9282
:101E1000FF920F931F93CF93DF937C015B01E90146
:101E20004217530708F4EA01209781F1F701008176
:101E3000118184819581801B910B6E018C179D0708
:101E400008F46C01F70164857585600F711FA601A8
:101E5000C5010E943533CC16DD0658F4AE014C198D
:101E60005D09F70164857585C5018C0D9D1D0E9476
:101E700035330C0F1D1FF701848195810817190751
:101E800010F0081B190BF70111830083CE01DF91BD
:101E9000CF911F910F91FF90EF90DF90CF90BF9067
:101EA000AF9008956F927F928F929F92AF92BF9260
:101EB000CF92DF92EF92FF920F931F93CF93DF9316
:101EC0001F921F92CDB7DEB76C014B015A01790109
:101ED00001151105B1F0FC0160807180A801BE01FF
:101EE0006F5F7F4F90DF89819A81E01AF10AA8160F
:101EF000B90630F4F60171826082A12CB12C01C0C8
:101F00005C019701A501B401C6017DDF0F900F9020
:101F1000DF91CF911F910F91FF90EF90DF90CF90C5
:101F2000BF90AF909F908F907F906F900895CF92C9
:101F3000DF92EF92FF920F93CF93DF93EC016B014F
:101F4000413011F401E001C000E0C114D10419F4E2
:101F5000CC24C394D12CCE014096C817D90720F4C5
:101F600021968FD87C0102C0E12CF12CE114F10400
:101F700039F09601AE01B701615F7F4FC701A7DE5F
:101F8000C701DF91CF910F91FF90EF90DF90CF903D
:101F900008950F930FB6F8940F92FC0120853185B8
:101FA000232B71F422853385232B61F4268137811D
:101FB0004481558164857585068589DE81E003C08D
:101FC00080E001C080E00F900FBE0F910895FC01EA
:101FD0002481358180819181820F931F42815381B9
:101FE000841B950B01978217930710F0821B930BAC
:101FF00008952F923F924F925F926F927F928F92AD
:102000009F92AF92BF92CF92DF92EF92FF920F9387
:102010001F93CF93DF93CDB7DEB72B970FB6F8940E
:10202000DEBF0FBECDBF4C017B876A871A010E83CE
:102030001F8328873987FC01848195810197268534
:1020400020FF0CC02A01F2E04F0E511C84159505AB
:1020500058F41E821F821886198606C084179507B9
:1020600010F02A0101C02C018E819F81A885B985BD
:10207000892B8A2B8B2B09F438C0CE0101960E9444
:102080000E190FB6F8940F92C401A1DF3C0184151C
:10209000950540F560E080E090E00E94F81D0E9408
:1020A0009F19F401938782870F900FBEAE80BF8087
:1020B000C884D984E12CF12C00E010E0980140E0C4
:1020C00050E0BA0180E00E94371BF40113861286AB
:1020D000BE016A5F7F4FCE0101960E9435198823A9
:1020E00081F205C00F900FBE02C0612C712C6114EB
:1020F000710419F4C4016BDF3C0182019301A10159
:102100006A857B85C4013CDE6C01892BE9F0C40142
:10211000CBDDF4012681378182179307A8F091D394
:10212000F40180859185892B71F080859185E12C62
:10213000F12C00E020E030E0A90160E00E94DF1B0C
:10214000F40111861086BDD4C6012B960FB6F89403
:10215000DEBF0FBECDBFDF91CF911F910F91FF90DA
:10216000EF90DF90CF90BF90AF909F908F907F9037
:102170006F905F904F903F902F900895AF92BF92D5
:10218000CF92DF92EF92FF920F931F93CF93DF9343
:10219000EC017B015A0169018E8580FF04C08A0130
:1021A0000E5F1F4F01C08A01CE0111DF9C01A50106
:1021B000B701CE01E5DD5C01892BC1F0CE0174DDF4
:1021C0002E813F818217930788F088859985892B16
:1021D00069F088859985E12CF12C00E020E030E061
:1021E000A90160E00E94D61C19861886C501DF91FE
:1021F000CF911F910F91FF90EF90DF90CF90BF9004
:10220000AF9008954F925F926F927F928F929F92BC
:10221000AF92BF92CF92DF92EF92FF920F931F93F4
:10222000CF93DF93EC012B013A01580169018E85B0
:1022300080FF05C06894882481F8912C02C0812C0D
:10224000912CA114B104C104D10441F10FB6F8944A
:102250000F92CE0129DD7C018816990648F060E0D6
:1022600080E090E00E94F81D0E949F19998788875E
:102270000F900FBE8E149F04A0F0E12CF12C00E013
:1022800010E0980140E050E0BA0180E00E94371B66
:1022900019861886CE0108DD7C0103C0CE0104DD5D
:1022A0007C018E149F04E8F484019701A301B2011C
:1022B000CE01F8DD6C01892BB1F0C3D28A859B85F4
:1022C000892B69F08A859B85E12CF12C00E020E0C8
:1022D00030E0A90160E00E94DF1B1B861A86F1D363
:1022E00002C0C12CD12CC601DF91CF911F910F915B
:1022F000FF90EF90DF90CF90BF90AF909F908F9026
:102300007F906F905F904F900895E091B116F0919B
:10231000B216808181110CC08FEF9FEFDC0180939A
:102320007B1690937C16A0937D16B0937E1608952D
:10233000E091B116F091B2160780F085E02D808112
:102340009181A281B38180937B1690937C16A09398
:102350007D16B0937E160895CF93DF93EC018B8D9D
:102360009C8D0E94EA08CE010E94EA08DF91CF917D
:1023700008954F925F926F927F928F929F92AF9249
:10238000BF92CF92DF92EF92FF920F93CF93DF93A2
:102390002C015B014A013901E60165EA70E08B8D91
:1023A0009C8D0E943E338B8D9C8D21E0821A91087A
:1023B000880E991EA114B10489F415C0822F90E0F3
:1023C000F501E80FF91F3081DE01A80FB91F5D96F6
:1023D0003C938081882329F02F5F01C020E02031C9
:1023E00068F31CA601C01D8E0A3008F009E00A8FB0
:1023F0000DA71EA6CE0102960E943809CE010E96A8
:102400000E943809DB87CA878AE090E0A0E0B0E04C
:10241000801B9109A109B1098E879F87A88BB98B71
:10242000DF8BCE8B84E0FE01BF96DF011D928A9583
:10243000E9F71BAAA301B201C4010E94AC09998368
:102440008883E114F10419F0F701D183C083DF918F
:10245000CF910F91FF90EF90DF90CF90BF90AF9012
:102460009F908F907F906F905F904F900895CF9343
:10247000C0E009C02BE0C29FC00111248753994ED0
:102480000E942709CF5FCA30A8F38EEB96E10E9425
:10249000270983EB96E10E94270984EA96E10E94CE
:1024A000270989E996E10E9427098DE896E10E94B3
:1024B00027098EEB96E19093B2168093B11683EBC9
:1024C00096E19093B0168093AF16CF910895CF9375
:1024D000DF93EC010FB6F8940F9280918C168F5F0A
:1024E00080938C168091371790913817892B51F46F
:1024F000D0933817C093371780918C16813091F4A0
:10250000B6DF10C08091861681110CC0E09137179C
:10251000F0913817928D8A8D891720F0D093381753
:10252000C093371780917F168F5F80937F16EA8D57
:10253000809187168E1710F4E09387168BE08E9F9C
:10254000F0011124E753F94E0180F281E02DFF8361
:10255000EE832681378139872887A681B7819E013E
:102560002E5F3F4F15963C932E9314973783268307
:10257000EA8D8E9FF0011124E753F94EFD87EC8719
:1025800080818F5F80830F900FBE80918616882395
:1025900051F0E0913717F0913817928D8A8D981786
:1025A00010F40E94F509DF91CF910895CF93DF9346
:1025B0001BC00FB6F8940F92E091A016F091A116EF
:1025C000C085D185CE0102960E94790980918C1632
:1025D000815080938C168091981681508093981624
:1025E0000F900FBECE01B8DE809198168111E1CF19
:1025F000DF91CF9108958F929F92AF92BF92CF9229
:10260000DF92EF92FF92CF93DF936B017C01C42F97
:102610008090881690908916A0908A16B0908B169C
:10262000809137179091381702960E9479098FEFA1
:10263000C816D806E806F806B1F5CC23A1F1EDE8F6
:10264000F6E1A181B281C0913717D0913817BF83CD
:10265000AE83C0913717D091381716968D919C9103
:102660001797998788871696CD91DC911797809157
:1026700037179091381702969D838C838091371776
:1026800090913817029617969C938E931697A09167
:102690003717B09138171D96FC93EE931C978081E5
:1026A0008F5F80833FC0C80CD91CEA1CFB1CE091E3
:1026B0003717F0913817C282D382E482F582C814AA
:1026C000D904EA04FB0468F4609137177091381755
:1026D0008091AF169091B0166E5F7F4F0E943C09BB
:1026E00021C060913717709138178091B116909181
:1026F000B2166E5F7F4F0E943C0980917B169091CD
:102700007C16A0917D16B0917E16C816D906EA06F1
:10271000FB0640F4C0927B16D0927C16E0927D16A8
:10272000F0927E16DF91CF91FF90EF90DF90CF90E7
:10273000BF90AF909F908F9008952F923F924F92AD
:102740005F926F927F928F929F92AF92BF92CF9241
:10275000DF92EF92FF920F93CF93DF933C011B0127
:102760004A012901CA010E9441086C01892B71F0BC
:1027700084E390E00E944108EC01892B19F0DC8E83
:10278000CB8E06C0C6010E94EA0802C0C0E0D0E0BD
:10279000209761F0A12CB12C6E019201A401B1012E
:1027A000C301E7DDCE0193DE81E001C08FEFDF9151
:1027B000CF910F91FF90EF90DF90CF90BF90AF90AF
:1027C0009F908F907F906F905F904F903F902F9051
:1027D0000895EF92FF920F930F2EF9E7EF2EF6E197
:1027E000FF2EF02D00E020E030E040EC50E069EDFD
:1027F00075E08DEC90E0A1DF813011F40E949C1E09
:102800008130C9F4F8948FEF9FEFDC0180937B1641
:1028100090937C16A0937D16B0937E1681E08093F2
:102820008616109288161092891610928A161092A7
:102830008B160E94C309809106020F91FF90EF90C2
:102840000895809178168F5F8093781608950FB65B
:10285000F8940F92609188167091891680918A166B
:1028600090918B160F900FBE0895CF92DF92EF924A
:10287000FF92CF93DF9380917816811105C1C090AC
:102880008816D0908916E0908A16F0908B168FEFFC
:10289000C81AD80AE80AF80AC0928816D09289168F
:1028A000E0928A16F0928B16C114D104E104F1046F
:1028B000B1F48091B1169091B2162091AF1630917B
:1028C000B0163093B2162093B1169093B016809341
:1028D000AF16809180168F5F8093801616DD8091F1
:1028E0007B1690917C16A0917D16B0917E16C8162D
:1028F000D906EA06FB0620F480E0B2C081E001C000
:1029000080E0E091B116F091B216908191110CC067
:102910004FEF5FEFBA0140937B1650937C166093A4
:102920007D1670937E169CC0E091B116F091B216A0
:102930000780F085E02D0084F185E02D42815381F0
:1029400064817581C416D506E606F70648F44093FF
:102950007B1650937C1660937D1670937E1680C014
:10296000A485B585C681D781208531853F832E8397
:10297000C085D185268137813D832C8311964D9169
:102980005C9112979F012E5F3F4F4217530731F41E
:102990004085518512965C934E9311971586148647
:1029A0009C9191509C93A08DB18D109709F1C28993
:1029B000D389448955895F834E83C489D5894289E7
:1029C00053895D834C8311966D917C911297AF0171
:1029D000425F5F4F6417750731F444895589129639
:1029E0005C934E931197118E108E9C9191509C93F5
:1029F000A28D909187169A1710F4A09387169BE0EA
:102A00009A9FD0011124A753B94E11960D90BC91F5
:102A1000A02DB783A68316964D915C911797518789
:102A200040871696CD91DC9117973D832C8317969E
:102A30003C932E931697A28D9A9FD0011124A753F1
:102A4000B94EB587A4879C919F5F9C93228DE0919E
:102A50003717F0913817928D291708F04FCF51CFC3
:102A6000E0913717F0913817E28D9BE0E99FF00174
:102A70001124E753F94E9081923008F081E0909153
:102A80008116911116C016C08091821690918316FE
:102A9000A0918416B09185160196A11DB11D809359
:102AA000821690938316A0938416B093851680E0C7
:102AB00001C081E0DF91CF91FF90EF90DF90CF9048
:102AC0000895CF92DF92EF92FF92CF93DF930FB6EC
:102AD000F8940F92809178168150809378168091A7
:102AE00078168111BEC080918C16811188C0BCC03F
:102AF000E091AB16F091AC160084F185E02DA08D2D
:102B0000B18DC289D389848995899F838E83C48935
:102B1000D589828993899D838C8311962D913C91CF
:102B20001297CF010E962817390731F484899589B9
:102B300012969C938E931197118E108E8C918150CA
:102B40008C93A485B585C681D781808591859F8327
:102B50008E83C085D185868197819D838C831196D4
:102B60008D919C9112979F012E5F3F4F8217930783
:102B700031F48085918512969C938E9311971586DA
:102B800014868C9181508C93A28D809187168A1720
:102B900010F4A09387168BE08A9FD0011124A753CD
:102BA000B94E11960D90BC91A02DB783A6831696B1
:102BB0004D915C911797518740871696CD91DC9186
:102BC00017973D832C8317963C932E931697A28DCF
:102BD0008A9FD0011124A753B94EB587A4878C9141
:102BE0008F5F8C93928DA0913717B09138175A96BA
:102BF0008C91981730F081E08093811602C0E0E05C
:102C0000F0E08091A416811173CFEF2B09F07DDBEA
:102C1000C0908216D0908316E0908416F0908516AE
:102C2000C114D104E104F104A1F01FDE882319F0DE
:102C300081E08093811681E0C81AD108E108F1088B
:102C4000A1F7109282161092831610928416109299
:102C5000851680918116882331F00E94F50981E064
:102C600003C080E001C080E00F900FBEDF91CF91E4
:102C7000FF90EF90DF90CF9008958F929F92AF9248
:102C8000BF92CF92DF92EF92FF921F93CF93DF9389
:102C9000EC016A017B01D5DD809088169090891641
:102CA000A0908A16B0908B1688819981AA81BB81E9
:102CB000AC01BD014C0D5D1D6E1D7F1D8816990672
:102CC000AA06BB0660F4481759076A077B0798F401
:102CD00084169506A606B70680F010E013C04817C4
:102CE00059076A077B0758F084169506A606B706AB
:102CF00040F010E007C010E005C011E003C011E093
:102D000001C011E0488359836A837B83112341F01A
:102D1000CB01BA01681979098A099B0940E06BDC8B
:102D2000D0DE811102C00E94F509812FDF91CF9181
:102D30001F91FF90EF90DF90CF90BF90AF909F904A
:102D40008F900895CF92DF92EF92FF926B017C01FA
:102D5000672B682B692B39F074DD40E0C701B601A1
:102D60004ADCAFDE01C080E0811102C00E94F5099B
:102D7000FF90EF90DF90CF90089580917816882390
:102D800021F081E080938116089510928116E091E0
:102D90003717F091381720813181E0913717F09182
:102DA0003817838D948D8217930760F060913717E1
:102DB00070913817635E7F4F809137179091381765
:102DC0000E942A218091871601C08150282F30E06F
:102DD0009BE0929FF001939FF00D1124E753F94E71
:102DE0009081992391F39BE0929FA001939F500DB6
:102DF0001124DF010180F281E02D0480F581E02DB6
:102E00001296FC93EE9311974453594EE417F5072D
:102E100029F444815581FD01528341839BE0929FB7
:102E2000F001939FF00D1124E753F94E0180F281D8
:102E3000E02D208531853093381720933717809304
:102E400087160895CF92DF92EF92FF926A017B017D
:102E50006091371770913817625F7F4F0E943C096D
:102E600041E0C701B601C7DBFF90EF90DF90CF9044
:102E700008950F931F93CF93DF93FC01A091371711
:102E8000B091381770681E964D935D936D937C9347
:102E90005197A181B281C0913717D0913817BB8B60
:102EA000AA8BC0913717D091381716968D919C91A7
:102EB00017979D8B8C8B1696CD91DC9117978091EF
:102EC0003717909138170E969D838C838091371712
:102ED000909138170E9617969C938E931697A09103
:102EE0003717B09138175996FC93EE935897808115
:102EF0008F5F808341E0C901B8017DDBDF91CF9115
:102F00001F910F910895CF93DF93FC01CB01BA017C
:102F1000A181B281C0913717D0913817BB8BAA8B92
:102F2000C0913717D091381716964D915C9117972D
:102F30005D8B4C8B1696CD91DC911797409137178E
:102F400050913817425F5F4F5D834C834091371734
:102F500050913817425F5F4F17965C934E931697C8
:102F6000A0913717B09138175996FC93EE93589764
:102F700030813F5F3083222319F06FEF7FEFCB0169
:102F8000422F39DBDF91CF910895CF93DF93DC019E
:102F90001796ED91FC9118970084F185E02DA08D96
:102FA000B18DC289D389848995899F838E83C48991
:102FB000D589828993899D838C8311968D919C916B
:102FC00012979F01225F3F4F8217930731F4848944
:102FD000958912969C938E931197118E108E8C91D9
:102FE00081508C9380917816811152C0A485B5854B
:102FF000C681D781808591859F838E83C085D18549
:10300000868197819D838C8311968D919C911297D7
:103010009F012E5F3F4F8217930731F48085918582
:1030200012969C938E931197158614868C918150DD
:103030008C93A28D809187168A1710F4A09387161F
:103040008BE08A9FD0011124A753B94E11960D90A1
:10305000BC91A02DB783A68316964D915C911797CE
:10306000518740871696CD91DC9117973D832C832D
:1030700017963C932E931697A28D8A9FD001112408
:10308000A753B94EB587A4878C918F5F8C931CC0D2
:1030900044EA56E1DA011196CD91DC911297D38B77
:1030A000C28B8E819F81958B848B8E819F81DC0169
:1030B00015963C932E9314973F832E83518F408F08
:1030C000DA018C918F5F8C93928DE0913717F0919C
:1030D0003817828D891720F481E08093811601C012
:1030E00080E0DF91CF910895CF93DF93DC0170688A
:1030F0004D935D936D937C9313971896ED91FC918E
:1031000019971A964D915C911B9714968D919C91ED
:10311000159716962D913C911797EC013F832E83BE
:1031200016968D919C91179714962D913C91159719
:10313000EC013D832C83EA0189819A81A817B907A4
:1031400031F416968D919C9117979A8389831B96DB
:103150001C921E921A97DA018C9181508C93A4854F
:10316000B585C681D781808591859F838E83C085F3
:10317000D185868197819D838C8311968D919C91B9
:1031800012979F012E5F3F4F8217930731F480857E
:10319000918512969C938E931197158614868C9127
:1031A00081508C93A28D809187168A1710F4A0937A
:1031B00087168BE08A9FD0011124A753B94E119630
:1031C0000D90BC91A02DB783A68316964D915C916E
:1031D0001797518740871696CD91DC9117973D83BD
:1031E0002C8317963C932E931697A28D8A9FD0011D
:1031F0001124A753B94EB587A4878C918F5F8C9308
:10320000928DE0913717F0913817828D891718F455
:1032100081E080938116DF91CF9108950FB6F894E5
:103220000F9220918016FC012083409188165091C6
:10323000891660918A1670918B164183528363833D
:1032400074830F900FBE089520918016FC01208397
:10325000409188165091891660918A1670918B164C
:10326000418352836383748308958F929F92AF92B8
:10327000BF92CF92DF92EF92FF920F931F93CF9363
:10328000DF93FB010FB6F8940F92C0908816D09090
:103290008916E0908A16F0908B16DC0111960D913C
:1032A0001D912D913C91149746015701801A910A66
:1032B000A20AB30A40815181628173814F3FBFEFFF
:1032C0005B076B077B0739F1EC01B881A091801691
:1032D000BA1759F0C016D106E206F30630F0108294
:1032E00011821282138281E017C084169506A60609
:1032F000B70658F4481959096A097B094083518374
:1033000062837383A1DF80E007C010821182128282
:10331000138281E001C080E00F900FBEDF91CF915A
:103320001F910F91FF90EF90DF90CF90BF90AF90E3
:103330009F908F90089581E08093811608958091E9
:10334000371790913817089580918616882331F0A9
:1033500080917816811104C082E0089581E008957B
:1033600080E008950F931F93CF93DF93FC01892B87
:1033700009F477C0828DA0913717B09138175A960B
:103380009C91891708F063C04685578560897189CB
:10339000772394F0A0913717B09138175A969C91E3
:1033A0004AE050E060E070E0491B51096109710991
:1033B00046875787608B718B248535854BE0849FCA
:1033C000C00111248753994E28173907B9F5EF0129
:1033D0008F010E5F1F4FC8010E947909E0913717D6
:1033E000F0913817E28DEA8F809187168E1710F4CE
:1033F000E09387168BE08E9FF0011124E753F94E7E
:103400000180F281E02DFF83EE83268137813987A9
:103410002887A681B78115961C930E93149717835E
:103420000683EA8D8E9FF0011124E753F94EFD8744
:10343000EC8780818F5F808381E016C0A091371771
:10344000B09138175A968C91828F81E00DC095A566
:10345000E0913717F0913817828D981720F080E0AF
:1034600003C080E001C081E0DF91CF911F910F91F7
:1034700008950F931F93CF93DF93FC01892B09F4D9
:1034800049C086A5815086A7228D95A5291709F4E4
:1034900043C0811143C0EF018F010E5F1F4FC80170
:1034A0000E947909EDA5EA8F8AE090E0A0E0B0E003
:1034B0008E1B9109A109B1098E879F87A88BB98BB3
:1034C000809187168E1710F4E09387168BE08E9FFD
:1034D000F0011124E753F94E0180F281E02DFF83C2
:1034E000EE832681378139872887A681B781159693
:1034F0001C930E93149717830683EA8D8E9FF00119
:103500001124E753F94EFD87EC8780818F5F80831C
:1035100081E005C080E003C080E001C080E0DF9171
:10352000CF911F910F9108950F931F93CF93DF9326
:10353000FC01892B09F45AC085A5861708F4862F4B
:10354000928D891709F452C026A5213009F04EC08A
:10355000828F4685578560897189772364F04AE0B8
:1035600050E060E070E0481B51096109710946872D
:103570005787608B718B248535854BE0949FC00104
:1035800011248753994E2817390781F5EF018F01D0
:103590000E5F1F4FC8010E947909EA8D809187163E
:1035A0008E1710F4E09387168BE08E9FF0011124A4
:1035B000E753F94E0180F281E02DFF83EE832681EF
:1035C000378139872887A681B78115961C930E937A
:1035D000149717830683EA8D8E9FF0011124E75319
:1035E000F94EFD87EC8780818F5F8083DF91CF91DB
:1035F0001F910F910895CF92DF92EF92FF92E09189
:103600003717F09138176685778580899189E09121
:103610003717F0913817A0913717B09138175A968D
:103620002C910F2EFAE0CF2ED12CE12CF12CF02D85
:10363000C21AD108E108F108C686D786E08AF18A65
:10364000FF90EF90DF90CF90089580913717909181
:103650003817892B39F0E0913717F091381786A584
:103660008F5F86A7809137179091381708954F92F2
:103670005F926F927F92AF92BF92CF92DF92EF9262
:10368000FF920F931F93CF93DF93280139010FB659
:10369000F8940F92E0913717F0913817C82FD0E0C7
:1036A000EC0FFD1F83A9823079F1E0913717F0917B
:1036B0003817CE01880F991F880F991FE80FF91F3F
:1036C00087A590A9A1A9B2A940955095609570953C
:1036D000482359236A237B2347A750AB61AB72ABC6
:1036E000E0913717F0913817EC0FFD1F81E083ABA5
:1036F000A114B104C104D10439F041E0C601B501FF
:103700000E94FB120E94F5090F900FBE0FB6F894AD
:103710000F92E114F104A1F0E0913717F0913817FE
:10372000CE01880F991F880F991FE80FF91F87A5F1
:1037300090A9A1A9B2A9F70180839183A283B38341
:10374000E0913717F0913817EC0FFD1F83A98230F5
:10375000E9F4E0913717F0913817CE01880F991FDF
:10376000880F991FE80FF91F87A590A9A1A9B2A9F1
:103770004094509460947094482259226A227B228B
:1037800047A650AA61AA72AA81E001C080E02091F8
:10379000371730913817C20FD31F1BAA0F900FBED7
:1037A000DF91CF911F910F91FF90EF90DF90CF901D
:1037B000BF90AF907F906F905F904F9008958F92E1
:1037C0009F92AF92BF92EF92FF920F93CF93DF93AE
:1037D000DC010FB6F8940F92E114F10489F0E62FA2
:1037E000F0E0EE0FFF1FEE0FFF1FE80FF91F87A499
:1037F00090A8A1A8B2A8F70180829182A282B38288
:1038000070E0FD01E60FF71F83A992E093AB023051
:1038100001F118F4013031F04DC0033079F104307A
:10382000D1F148C0660F771F660F771FFD01E60FC5
:10383000F71F87A490A8A1A8B2A8BA01A901482996
:1038400059296A297B2947A750AB61AB72AB01E0CC
:1038500034C0660F771F660F771FFD01E60FF71F55
:1038600047A550A961A972A94F5F5F4F6F4F7F4F66
:1038700047A750AB61AB72AB01E01FC0660F771F6B
:10388000660F771FFD01E60FF71F27A730AB41AB8F
:1038900052AB01E012C0823079F0660F771F660FDD
:1038A000771FFD01E60FF71F27A730AB41AB52ABE7
:1038B00001E003C001E001C000E0813009F069C00F
:1038C0001C96ED91FC911D971696CD91DC91179762
:1038D00018968D919C9119979F838E831896CD9100
:1038E000DC91199716968D919C9117979D838C83E7
:1038F000818192819D012E5F3F4F8217930731F4A2
:1039000018968D919C911997928381831D961C9294
:103910001E921C978081815080835A96EC915A9711
:10392000809187168E1710F4E09387168BE08E9F98
:10393000F0011124E753F94E0180F281E02D179632
:10394000FC93EE9316974681578119965C934E939C
:103950001897C681D7813D832C83378326835A9657
:10396000EC915A978E9FF0011124E753F94E1D9662
:10397000FC93EE931C9780818F5F80835A969C9175
:10398000E0913717F0913817828D891710F40E9453
:10399000F5090F900FBE802FDF91CF910F91FF900F
:1039A000EF90BF90AF909F908F9008958F929F92CD
:1039B000AF92BF92CF92DF92EF92FF920F93CF938D
:1039C000DF93DC01E114F10489F0E62FF0E0EE0F63
:1039D000FF1FEE0FFF1FE80FF91F87A490A8A1A8F3
:1039E000B2A8F70180829182A282B38270E0FD01C9
:1039F000E60FF71F93A982E083AB023001F118F4C0
:103A0000013031F04DC0033079F10430D1F148C0BC
:103A1000660F771F660F771FFD01E60FF71F87A45C
:103A200090A8A1A8B2A8BA01A901482959296A29D0
:103A30007B2947A750AB61AB72AB81E034C0660F06
:103A4000771F660F771FFD01E60FF71F47A550A9E7
:103A500061A972A94F5F5F4F6F4F7F4F47A750AB70
:103A600061AB72AB81E01FC0660F771F660F771FD7
:103A7000FD01E60FF71F27A730AB41AB52AB81E04A
:103A800012C0923079F0660F771F660F771FFD0125
:103A9000E60FF71F27A730AB41AB52AB81E003C065
:103AA00081E001C080E0913009F096C090917816D5
:103AB00091115FC01C96ED91FC911D971696CD91CA
:103AC000DC91179718962D913C9119973F832E837F
:103AD0001896CD91DC91199716962D913C911797D8
:103AE0003D832C83418152819D012E5F3F4F4217C0
:103AF000530731F418964D915C9119975283418385
:103B00001D961C921E921C979081915090835A96FC
:103B1000EC915A97909187169E1710F4E0938716B0
:103B20009BE09E9FF0011124E753F94E0180F28142
:103B3000E02D1796FC93EE931697468157811996C0
:103B40005C934E931897C681D7813D832C8337832E
:103B500026835A96EC915A979E9FF0011124E753C1
:103B6000F94E1D96FC93EE931C9790819F5F908376
:103B700021C064EA76E1FB01C181D2815396DC93D6
:103B8000CE9352972E813F8155963C932E93549716
:103B90004E815F819D01225F3F4FFA01358324836F
:103BA0003F832E8359967C936E935897FB019081A7
:103BB0009F5F90835A962C91E0913717F0913817B8
:103BC000928D921748F4C114D10419F091E0F601D6
:103BD000908391E090938116DF91CF910F91FF90A8
:103BE000EF90DF90CF90BF90AF909F908F9008950F
:103BF000009721F480913717909138170FB6F894F9
:103C00000F9270E0FC01E60FF71F23A9223031F478
:103C1000FC01E60FF71F13AA81E001C080E00F90BE
:103C20000FBE0895DC01E0914317F09144178081A5
:103C300091E0811190E09C93911108C00780F0857C
:103C4000E02D6081718182819381089560E070E050
:103C5000CB010895CF92DF92EF92FF920F931F93C3
:103C6000FC0142835383648375839387828704179F
:103C7000150726073707C0F00C191D092E093F0943
:103C800086859785A089B189081719072A073B07F8
:103C900000F5BF016E5F7F4F8091411790914217F1
:103CA0000E943C0980E018C00C151D052E053F053B
:103CB00028F44C155D056E057F0568F4BF016E5F45
:103CC0007F4F80914317909144170E943C0980E0F8
:103CD00003C081E001C081E01F910F91FF90EF9040
:103CE000DF90CF9008950FB6F8940F9280913F1710
:103CF00090914017892BE9F480E597E10E9427090C
:103D000085E497E10E94270980E597E190934417A5
:103D10008093431785E497E190934217809341176E
:103D200040E067E08AE00E94EA0B9093401780939E
:103D30003F170F900FBE0895EF92FF920F93D3DFBE
:103D400080913F1790914017892B91F00F2EFDE342
:103D5000EF2EF7E1FF2EF02D03E020E030E040EC05
:103D600050E06EED75E088ED90E00E949D1301C07B
:103D700080E00F91FF90EF9008958F929F92AF9205
:103D8000BF92CF92DF92EF92FF920F931F93CF9348
:103D9000DF93CDB7DEB727970FB6F894DEBF0FBE1F
:103DA000CDBFE0913F17F0914017309781F16983C3
:103DB0002A833B834C835D839F838E836630F4F438
:103DC000C3DA823069F400E0A7019601BE016F5F9B
:103DD0007F4F80913F17909140170E940D0C18C0A3
:103DE00000E020E030E0A901BE016F5F7F4F8091CD
:103DF0003F17909140170E940D0C0AC020E0A801C7
:103E0000BE016F5F7F4FCF010E94BD0C01C080E0FB
:103E100027960FB6F894DEBF0FBECDBFDF91CF91CE
:103E20001F910F91FF90EF90DF90CF90BF90AF90D8
:103E30009F908F9008958F929F92AF92BF92CF9252
:103E4000DF92EF92FF920F931F93CF93DF933BC0CC
:103E50000780F085E02D80809180A280B380C085AE
:103E6000D1858E010E5F1F4FC8010E947909EC8930
:103E7000FD89CE0119958E8982FF25C08E859F858B
:103E8000A889B989880D991DAA1DBB1D8816990698
:103E9000AA06BB0670F48A839B83AC83BD83DB8751
:103EA000CA87B80180914317909144170E943C093A
:103EB0000AC0C12CD12C760100E010E0A5019401CC
:103EC00060E0CE015ADFE0914317F0914417808102
:103ED0008111BECF80914117909142179093441762
:103EE00080934317F0934217E0934117DF91CF91EE
:103EF0001F910F91FF90EF90DF90CF90BF90AF9008
:103F00009F908F900895CF92DF92EF92FF92CF9380
:103F1000DF93EC010E9427146B017C01809139171B
:103F200090913A17A0913B17B0913C17C816D9064B
:103F3000EA06FB0620F47FDF81E0888301C0188257
:103F4000C0923917D0923A17E0923B17F0923C1783
:103F5000C701B601DF91CF91FF90EF90DF90CF9036
:103F600008954F925F926F927F928F929F92AF923D
:103F7000BF92CF92DF92EF92FF920F931F93CF9356
:103F8000DF934B015C0129013A01E0914317F09165
:103F900044170780F085E02DC085D185CE010296BB
:103FA0000E9479098E8982FF1BC04E855F856889D2
:103FB0007989480D591D6A1D7B1D750164019301A6
:103FC0008201CE0147DE882369F0C12CD12C760115
:103FD00000E010E0A501940160E0CE01CEDE02C059
:103FE0008E7F8E8BEC89FD89CE011995DF91CF9163
:103FF0001F910F91FF90EF90DF90CF90BF90AF9007
:104000009F908F907F906F905F904F9008958F92C8
:104010009F92AF92BF92CF92DF92EF92FF921F9347
:10402000CF93DF931F92CDB7DEB76B017C01142FC6
:104030000E942114CE01019666DF4B015C0189814B
:1040400081112DC011110DC08C149D04AE04BF044C
:1040500040F00E946115A5019401C701B60181DFFE
:1040600020C0112341F0E0914117F0914217808167
:1040700011E0811110E0B701A601481959096A0938
:104080007B09212F80913F17909140170E94380E95
:104090000E946115811105C00E94F50902C00E94AD
:1040A00061150F90DF91CF911F91FF90EF90DF90FE
:1040B000CF90BF90AF909F908F900895AF92BF9296
:1040C000CF92DF92EF92FF920F931F93CF93DF93E4
:1040D000CDB7DEB728970FB6F894DEBF0FBECDBFC1
:1040E00082C0898188230CF47EC0AE80BF80D50158
:1040F0001C968D919C911D97892B21F0C5010296EC
:104100000E947909CE010896FEDE8B019C01E981AF
:104110000E2E000CFF0BEA30F10508F064C0882772
:10412000EE58FF4F8F4F0C940832F501868981605D
:10413000868BCA80DB80EC80FD8046855785608950
:1041400071894C0D5D1D6E1D7F1DC50183DD8823AA
:1041500009F449C0D5015496ED91FC915597C501DC
:104160001995F501868982FF3EC04A815B816C8189
:104170007D8186859785A089B1899A01AB01280F39
:10418000391F4A1F5B1FC12CD12C760100E010E0C3
:1041900060E0C501F2DD27C0D50156968C91569797
:1041A0008E7F56968C931FC0F50186898160868B21
:1041B0004A815B816C817D8146875787608B718BDB
:1041C000400F511F621F731F68017901C50142DD55
:1041D0000AC0F501868981FD04C0C5010E94EA0874
:1041E00002C08E7F868B20E030E0A901BE016F5FA8
:1041F0007F4F80913F17909140170E94F80C8111DA
:1042000070CF28960FB6F894DEBF0FBECDBFDF91FA
:10421000CF911F910F91FF90EF90DF90CF90BF90C3
:10422000AF900895089584B1806884B985B180689D
:1042300085B9089583B1806883B90895F4DF2FEFBD
:1042400080E792E0215080409040E1F700C00000FC
:10425000F1DFF5CFE8DF2FEF87EA91E621508040CC
:104260009040E1F700C00000E5DFF5CF04D068948E
:10427000B11150C0089533D088F09F5790F0B92FF6
:104280009927B751A0F0D1F0660F771F881F991FAB
:104290001AF0BA95C9F712C0B13081F03AD0B1E046
:1042A000089537C0672F782F8827B85F39F0B93F56
:1042B000CCF3869577956795B395D9F73EF49095AD
:1042C0008095709561957F4F8F4F9F4F089557FD53
:1042D0009058440F551F59F05F3F71F04795880F74
:1042E00097FB991F61F09F3F79F08795089512160B
:1042F00013061406551FF2CF4695F1DF08C01616B7
:1043000017061806991FF1CF869571056105089467
:104310000895E894BB2766277727CB0197F908957E
:104320006530F1F4FA0180818F7390E0982F88272F
:104330002181822B90930A02809309028281F0E40A
:104340008F9FC0011124FA01238126952695822B87
:10435000909308028093070281E080935B17089591
:10436000643051F080E090E490930802809307025B
:1043700090930A028093090208950F931F9300E916
:1043800011E220E034E244EF50E060E087E20E9476
:10439000782E90935D1780935C1721E0892B09F0AC
:1043A00020E0822F1F910F91089580915C179091CA
:1043B0005D17009759F040E060E070E00E94C92E60
:1043C000843031F410925B1780E0089582E0089504
:1043D00083E0089580915C1790915D17009739F004
:1043E00064E00E94152F853021F083E0089582E07B
:1043F000089580E008956091090270910A0280E0BA
:1044000090E00E94F33020E030E048EC52E40E945B
:104410005C3120E038EF4FE756E40C948830089583
:10442000609107027091080280E090E00E94F330F2
:1044300020E030E045E253E40E945C3120E038EFB8
:104440004FE756E40E94883020E030E040E252E43A
:104450000C9421300895E4DF20E030E040E251E4A4
:104460000E945C3103DFCB0108950F931F93CF931C
:10447000DF931F921F92CDB7DEB78C0119822DC03A
:10448000E0919517EC3250F481E08E0F80939517F0
:10449000F0E0E953F84E8A81808302C010929517AC
:1044A0008A818A30D1F44091951750E0FA01EB539C
:1044B000F84E1082415051099E012F5F3F4F67EC2B
:1044C00077E180919817909199170E94BE10898189
:1044D00081110E94F50910929517BE016E5F7F4F02
:1044E000C8013DD6882361F20F900F90DF91CF91E4
:1044F0001F910F9108950F931F93CF93DF938C011A
:10450000EB0180919817909199170E94C90FB801FB
:104510008EE597E10E947533209779F0EEE5F7E19B
:1045200001900020E9F7319780E290E09183808349
:10453000BE018EE597E10E946A33EEE5F7E1DF0107
:104540000D900020E9F711978DE09AE011969C9369
:104550008E9312961C9201900020E9F73197EE5548
:10456000F741AE2F8EE597E1AC016A2F80919A1743
:1045700090919B179FD5811111C008E215E020E0B2
:1045800030E04DE250E061E278E18091981790913F
:1045900099170E94021181E298E102C080E090E048
:1045A000DF91CF911F910F9108952F923F924F92DB
:1045B0005F926F927F928F929F92AF92BF92CF92B3
:1045C000DF92EF92FF920F931F93CF93DF935C01E3
:1045D000FC0101900020E9F731976F01C81AD90A50
:1045E0005C2C0F2EFFE78F2EF8E09F2EF02DE12C94
:1045F000F12C4C2C3701F40101811281E801099062
:104600000020E9F72197C01BD10B3C2EF9E0CF1613
:10461000D10458F0F4012080FEE02F1206C0B8014A
:10462000C5010E944533892B09F5442D351408F442
:104630004C2F50E0B801C5010E947C33892B49F40E
:10464000F301EE0FFF1FE60DF71DE158F74F208035
:104650000DC08FEFE81AF80AE3E08E0E911CF1E12D
:10466000EF16F10439F66894222424F8822DDF91A4
:10467000CF911F910F91FF90EF90DF90CF90BF905F
:10468000AF909F908F907F906F905F904F903F90F2
:104690002F90089530DF89CF0895809198179091D9
:1046A00099170C94C90F08958F929F92AF92CF9251
:1046B000EF920F931F93CF93C82F8B0141E060E0DF
:1046C00070E088EC90E00E94970F90939917809388
:1046D000981710939717009396170F2EF5E38F2EC8
:1046E000F2E29F2EF02D6894AA24A6F86894CC24B8
:1046F000C6F8E12C00E023E040E051EE60E070E01D
:104700008C2F06D490939B1780939A17E7E0F1E0E3
:10471000808180618083CF911F910F91EF90CF9026
:10472000AF909F908F900895882331F0E8E0F1E0FA
:1047300080818F7E80830895E8E0F1E08081806150
:104740008083089560E070E085E096E0D4DEE1E2E9
:10475000F8E101900020E9F73197E152F84181E05A
:10476000759708F080E00895CF93DF93EC0160E047
:1047700070E086E196E0BFDEE1E2F8E10190002022
:10478000E9F7E253F84139F461E278E1CE010E94A1
:10479000753380E002C0188281E0DF91CF910895E7
:1047A000FC0101900020E9F79F01215131092817F0
:1047B000390729F4BC0184E496E06CCF089589E0C0
:1047C0000895FC0101900020E9F79F012151310972
:1047D0002817390729F4BC0183E596E05BCF0895DB
:1047E00089E00895FC0101900020E9F79F01215222
:1047F00031092817390729F4BC0182E696E04ACF2F
:10480000089589E0089560E070E081EA96E042CF83
:1048100008950F931F93E82FF0E0EE0FFF1FE55868
:10482000F74F608171818AEA96E034DF811114C00C
:1048300008E215E020E030E04DE250E061E278E18E
:1048400080919817909199170E940211882321F066
:1048500081E298E1AADE03C081E298E1A6DE1F9121
:104860000F9108950F931F93CF93DF931F92CDB7AE
:10487000DEB7DB0111969C911197953108F0B4C019
:10488000992381F160E070E0272F30E0462F50E05F
:10489000FD01E40FF51F928192959F709A3010F000
:1048A000995C01C0905DF901EE54F84E90832F5F42
:1048B0003F4FFD01E40FF51F92819F70492F50E09B
:1048C0004A30510514F0995C01C0905DF901EE5435
:1048D000F84E90837E5F6F5F11969C9111976917D8
:1048E00098F201C070E0E72FF0E0EE54F84E10822D
:1048F0004C91811103C083EB96E002C085EB96E0FA
:1049000022EB37E13F932F931F924F939F938F9307
:1049100089EB96E09F938F9384EF97E19F938F931A
:104920000E94D73360E070E084EF97E1B3DE0FB60A
:10493000F894DEBF0FBECDBF811159C008E215E06B
:1049400020E030E04DE250E061E278E1809198179C
:10495000909199170E940211882309F447C081E2BF
:1049600098E123DE8E3009F042C087E08983809190
:10497000961790919717892BA9F1BE016F5F7F4F12
:1049800081E298E168D180939C17E981F0E0EF5DC6
:10499000F74EDF010D900020E9F71197AE1BBF0B1A
:1049A000AA2391F0BB27CD0101979C0112F42F5F40
:1049B0003F4F3595279520939D17AF014F5F5F4F70
:1049C00064E18EE997E173D101E010E020E030E08E
:1049D00046E150E06CE977E1809196179091971746
:1049E0000E94F90F8EE003C084E101C080E00F90C7
:1049F000DF91CF911F910F910895813019F069ECEB
:104A000076E002C062EA77E08DEC96E043CE08954E
:104A10009F938F938EEF96E09F938F9384EF97E110
:104A20009F938F930E94D73360E070E084EF97E10B
:104A300031DE0F900F900F900F900F900F90089510
:104A40002F923F924F925F926F927F928F929F929E
:104A5000AF92BF92CF92DF92EF92FF920F931F938C
:104A6000CF93DF93CDB7DEB7A0970FB6F894DEBF34
:104A70000FBECDBF6BE277E087E397E03CDD95DDCD
:104A80008111A3C080E2E2E2F2E0DE011196019022
:104A90000D928A95E1F79E012F5F3F4F6901E12C4E
:104AA000F12C0F2EF3E4AF2EF7E0BF2EF02D04EF24
:104AB00017E10F2EFCE54F2EF7E05F2EF02D0F2EA5
:104AC000F3E78F2EF7E09F2EF02D0F2EFDE86F2ECF
:104AD000F7E07F2EF02D3E2C2F2CFF92EF92BF920D
:104AE000AF921F930F930E94D73360E070E0C8012C
:104AF00002DD5BDD0F900F900F900F900F900F90E5
:104B0000811163C032E03E15E8F4F60183818F9392
:104B100082818F9381818F9380818F93FF92EF9217
:104B20005F924F921F930F930E94D73360E070E023
:104B3000C801E1DC3ADD0FB6F894DEBF0FBECDBF91
:104B4000811143C02F923F929F928F921F930F9398
:104B50000E94D73360E070E0C801CDDC26DD0F9005
:104B60000F900F900F900F900F9081112EC02F92E9
:104B70003F927F926F921F930F930E94D73360E012
:104B800070E0C801B8DC11DD0F900F900F900F900E
:104B90000F900F90811119C03FEFE31AF30A84E0E0
:104BA000C80ED11C98E0E916F10409F094CF60E03A
:104BB00070E085EA97E09FDCF8DC811106C060E0D8
:104BC00070E086EB97E097DCF0DCA0960FB6F894E7
:104BD000DEBF0FBECDBFDF91CF911F910F91FF9030
:104BE000EF90DF90CF90BF90AF909F908F907F908D
:104BF0006F905F904F903F902F900895EF92FF92AB
:104C00000F931F93CF93DF93EC018B017A0181E027
:104C1000F4DE81110DC0CE01D4DD811109C0C801BF
:104C2000E1DD811105C0C701BBDD811101C0EBDDF4
:104C3000DF91CF911F910F91FF90EF90089590E039
:104C4000FC01EE0FFF1F8E0F9F1FFC01E158F74F75
:104C5000818192810895DC01009729F1FB01208177
:104C6000FC0101900020E9F73197E81BF90B822F36
:104C700090E0E817F907C8F080E008C0880F382FE7
:104C8000330F330F830F8053890F2F5FFD01E20F26
:104C9000F11D908130ED390F3A3010F49111EECFC3
:104CA000FB012083089580E0089580E008950F932C
:104CB0001F93CF93DF93DC01EA012097E1F1FA0122
:104CC00001900020E9F73197E41BF50B329710F5BE
:104CD00032C08D01040F151F30E0AE01420F531F8B
:104CE000FA019081913428F09753592F5295507FB3
:104CF00003C0592F5295507F2C0F3D1FF901918110
:104D0000913410F0975301C09053950FF8019083A0
:104D10008F5F01C080E0282F220F482F50E0FE0156
:104D200001900020E9F73197EC1BFD0B4E175F0750
:104D300010F48613CECFDF91CF911F910F9108957C
:104D400080915118860F809351189091541891308A
:104D500079F028F09230A9F0933019F108956F3F5F
:104D600009F048C01092511881E0809354180895BA
:104D7000663809F03FC01092501882E080935418B2
:104D80000895E091501881E08E0F80935018F0E064
:104D9000E25BF74E6083823069F583E080935418BC
:104DA00008959091501821E0290F209350189630C3
:104DB00009F581110EC0EEE4F8E1808190E0982FB2
:104DC00088272181820F911D909356188093551842
:104DD00004C0109256181092551810925418E09171
:104DE0005218F0915318309729F0809155189091EE
:104DF0005618199508958F929F92AF92CF92EF9285
:104E00000F930F2EF0EA8F2EF6E29F2EF02D68946E
:104E1000AA24A4F86894CC24C4F8E12C00E023E090
:104E200040E855E260E070E073D0909358188093AA
:104E300057180F91EF90CF90AF909F908F9008955B
:104E400090935318809352180895CF93DF93CDB762
:104E5000DEB729970FB6F894DEBF0FBECDBF89E04D
:104E6000E2E4F2E09E012F5F3F4FD90101900D92E5
:104E70008A95E1F71092561810925518809157189C
:104E800090915818009731F0422F532F69E012D1BA
:104E900080E001C082E029960FB6F894DEBF0FBE15
:104EA000CDBFDF91CF91089565360CF064E66C3983
:104EB0000CF46CE996EF6902B00111246854744F48
:104EC000811105C0709329016093280108957093A2
:104ED0002B0160932A010895EAE0F1E08081886166
:104EE00080838FE39CE9909327018093260160E003
:104EF00080E0DADF60E081E0D7DFE0E2F1E08081AE
:104F0000826A8083E1E2F1E080818A618083089592
:104F10002F923F924F925F926F927F928F929F92C9
:104F2000AF92CF92EF92FF920F931F93CF93DF93A5
:104F3000CDB7DEB7F82E2A013B0188E090E00E9451
:104F400010328C018F2D90E0FC01EE0FFF1FE75A0D
:104F5000F74E118300830115110509F46EC0880F07
:104F6000991FFC01E55FFD4F80819181D8018D93F0
:104F70009C938C2D90E0880F991F880F991F0E9499
:104F800010321C0186E090E00E9410327C014C2D12
:104F9000B1010E940530F801F582E4828A2D90E08B
:104FA000880F991F880F991F0E9410321C0186E0FC
:104FB00090E00E9410327C014A2DB1010E94053020
:104FC000D8011396FC92EE92129717969C928E92AD
:104FD0001697FFB6F894ED91FC9111973697808162
:104FE000826080838D909C90C301B2010E94F33057
:104FF00020E030E040E051E40E945C319B01AC01D4
:1050000060E074E284E79BE40E94883020E030E0B6
:1050100040E85FE30E9421302ED9F401329760838B
:10502000D801ED91FC911197359788E98083ED9136
:10503000FC91349786E08083FFBEC801DF91CF9159
:105040001F910F91FF90EF90CF90AF909F908F9016
:105050007F906F905F904F903F902F900895CF93E7
:10506000DF93DC01892B01F11296ED91FC911397EE
:10507000938182812581981B922384819817B1F0B6
:10508000838126952823C081D181C20FD11D6883D9
:105090008F5F958189238383ED91FC913597808182
:1050A0008062808380E003C081E001C082E0DF9104
:1050B000CF910895EF92FF920F931F93CF93DF93B9
:1050C0007C01009709F441C0DC011296ED91FC913E
:1050D000139793818281981B858198238481891BF2
:1050E0008617A8F1662341F1842F952FDC016150CA
:1050F000462F50E04F5F5F4F480F591FE701EA818D
:10510000FB81938182812581981B9223848198174A
:1051100079F08C91938126952923608171818B018F
:10512000020F111DE80188839F5F85819823938377
:105130001196A417B50711F7D701ED91FC9135979A
:1051400080818062808380E003C081E001C082E0D2
:10515000DF91CF911F910F91FF90EF9008950097ED
:10516000D1F0DC011496ED91FC9115979381828129
:10517000981799F09281858186958923A081B181C4
:10518000A80FB11D8C91DB018C939F5F85819823C3
:10519000928380E0089581E0089583E008951F924E
:1051A0000F920FB60F9211240BB60F922F933F93CD
:1051B0004F935F936F937F938F939F93AF93BF931F
:1051C000CF93DF93EF93FF93A0915918B0915A18A2
:1051D000109711F16091C6001496ED91FC9115970E
:1051E000938182812581981B92238481981761F095
:1051F000838126952823C081D181C20FD11D688368
:105200008F5F9581892383831696ED91FC91179783
:10521000309711F0CD011995FF91EF91DF91CF916A
:10522000BF91AF919F918F917F916F915F914F91BE
:105230003F912F910F900BBE0F900FBE0F901F90BC
:1052400018951F920F920FB60F9211240BB60F9262
:105250002F938F939F93AF93BF93EF93FF93E0911F
:105260005918F0915A183097B9F00280F381E02D67
:10527000938182819817B1F092818581282F26959C
:105280002923A081B181A20FB11D2C919F5F892399
:1052900082832093C6000BC0E1ECF0E080818F7D1B
:1052A000808305C0E1ECF0E080818F7D8083FF91F9
:1052B000EF91BF91AF919F918F912F910F900BBE66
:1052C0000F900FBE0F901F9018951F920F920FB660
:1052D0000F9211240BB60F922F933F934F935F932E
:1052E0006F937F938F939F93AF93BF93CF93DF93EE
:1052F000EF93FF93A0915B18B0915C18109711F198
:105300006091CE001496ED91FC9115979381828166
:105310002581981B92238481981761F083812695BB
:105320002823C081D181C20FD11D68838F5F9581F1
:10533000892383831696ED91FC911797309711F08E
:10534000CD011995FF91EF91DF91CF91BF91AF9171
:105350009F918F917F916F915F914F913F912F918D
:105360000F900BBE0F900FBE0F901F9018951F92BD
:105370000F920FB60F9211240BB60F922F938F93AB
:105380009F93AF93BF93EF93FF93E0915B18F091DE
:105390005C183097B9F00280F381E02D938182810F
:1053A0009817B1F092818581282F26952923A08115
:1053B000B181A20FB11D2C919F5F8923828320931D
:1053C000CE000BC0E9ECF0E080818F7D808305C0CA
:1053D000E9ECF0E080818F7D8083FF91EF91BF91B8
:1053E000AF919F918F912F910F900BBE0F900FBE99
:1053F0000F901F9018951F920F920FB60F921124C5
:105400000BB60F922F933F934F935F936F937F93BE
:105410008F939F93AF93BF93CF93DF93EF93FF93BC
:10542000A0915D18B0915E18109711F16091D600AF
:105430001496ED91FC911597938182812581981B9B
:1054400092238481981761F0838126952823C08157
:10545000D181C20FD11D68838F5F9581892383839A
:105460001696ED91FC911797309711F0CD01199593
:10547000FF91EF91DF91CF91BF91AF919F918F916C
:105480007F916F915F914F913F912F910F900BBE44
:105490000F900FBE0F901F9018951F920F920FB68E
:1054A0000F9211240BB60F922F938F939F93AF936C
:1054B000BF93EF93FF93E0915D18F0915E183097E2
:1054C000B9F00280F381E02D938182819817B1F0C9
:1054D00092818581282F26952923A081B181A20F51
:1054E000B11D2C919F5F892382832093D6000BC02E
:1054F000E1EDF0E080818F7D808305C0E1EDF0E09B
:1055000080818F7D8083FF91EF91BF91AF919F91BB
:105510008F912F910F900BBE0F900FBE0F901F9089
:1055200018951F920F920FB60F9211240BB60F927F
:105530002F933F934F935F936F937F938F939F939B
:10554000AF93BF93CF93DF93EF93FF93A0915F1837
:10555000B0916018109711F1609136011496ED9199
:10556000FC911597938182812581981B92238481D8
:10557000981761F0838126952823C081D181C20FBD
:10558000D11D68838F5F9581892383831696ED9162
:10559000FC911797309711F0CD011995FF91EF917C
:1055A000DF91CF91BF91AF919F918F917F916F913B
:1055B0005F914F913F912F910F900BBE0F900FBEB7
:1055C0000F901F9018951F920F920FB60F921124F3
:1055D0000BB60F922F938F939F93AF93BF93EF933D
:1055E000FF93E0915F18F09160183097B9F0028056
:1055F000F381E02D938182819817B1F092818581AA
:10560000282F26952923A081B181A20FB11D2C91AD
:105610009F5F89238283209336010BC0E1E3F1E091
:1056200080818F7D808305C0E1E3F1E080818F7D03
:105630008083FF91EF91BF91AF919F918F912F91B7
:105640000F900BBE0F900FBE0F901F901895CF9329
:10565000DF931F92CDB7DEB7BE016F5F7F4F8091A2
:105660006118909162187BDD8111F6CF898190E0FD
:105670000F90DF91CF910895682F809161189091DC
:105680006218EDDC80E090E008958F929F92AF92D7
:10569000CF92EF920F93812C912C6894AA24A7F8B3
:1056A0006894CC24C7F8E12C00E023E040E051EE00
:1056B00060E070E02DDC9093621880936118EFEC4D
:1056C000F8E183E192E091838083938382830F9159
:1056D000EF90CF90AF909F908F90089590E0FC0155
:1056E000EE0FFF1FE80FF91FEE0FFF1FED59F74EEA
:1056F000238121111FC09C01220F331FF901E80FE4
:10570000F91FEE0FFF1FED59F74EA081B1814C91AB
:10571000F901E80FF91FEE0FFF1FED59F74E81E079
:1057200090E0028002C0880F991F0A94E2F7842B50
:105730008C930895FC01EE0FFF1FDF01A80FB91F26
:10574000AA0FBB1FAD59B74E0D90BC91A02D2C9147
:10575000E80FF91FEE0FFF1FED59F74E81E090E0C3
:10576000028002C0880F991F0A94E2F78095822375
:105770008C93089590E0FC01EE0FFF1FE80FF91FD6
:10578000EE0FFF1FED59F74E2381211120C09C0120
:10579000220F331FF901E80FF91FEE0FFF1FED591C
:1057A000F74EA081B1814C91F901E80FF91FEE0F7E
:1057B000FF1FED59F74E81E090E0028002C0880F94
:1057C000991F0A94E2F7809584238C930895FC0135
:1057D000EE0FFF1FDF01A80FB91FAA0FBB1FAD59A6
:1057E000B74E0D90BC91A02D2C91E80FF91FEE0F34
:1057F000FF1FED59F74E81E090E0028002C0880F54
:10580000991F0A94E2F7822B8C930895CC24C394B9
:10581000D12C6894BB24B2F8C3E6D8E110E08C81A7
:10582000813081F018F1823061F5E881F9812081C1
:10583000C6010A8002C0880F991F0A94E2F78227E6
:1058400080831FC08D818F5F863010F48D8319C0D7
:105850001D82E881F9812081C6010A8002C0880F7B
:10586000991F0A94E2F7822780830BC00D810023E1
:1058700029F0812F7FDF01500D8303C0BC82812F6F
:105880002DDF1F5F2696143051F66CE070E080E04B
:1058900090E00E94A216C0CFEF92FF920F931F9349
:1058A000CF93DF93082F80E487B9C3E6D8E10F2EAA
:1058B000F8E2EF2EF12CF02DF982E88286E08A835F
:1058C0001B8214E01C8380E009DF80E887B9FF8237
:1058D000EE8287E0888719861A8781E0FFDE80E202
:1058E00083BB84E390E09D878C8785E08E871F864D
:1058F000188B82E0F3DE80E18093010182E091E089
:105900009B8B8A8B1C8B1D8A1E8B83E0E7DEE12C30
:10591000F12C20E030E040EC50E062EB78E086E0F3
:105920009CE20E949D13DF91CF911F910F91FF90F8
:10593000EF900895CF93DF9390E0FC01EE0FFF1FEF
:10594000DF01A80FB91FAA0FBB1FAD59B74ECD91EC
:10595000DC911197488121E030E012960C9012976B
:1059600002C0220F331F0A94E2F724272883FD0187
:1059700082E08483DF91CF910895282F30E0F901F0
:10598000EE0FFF1FE20FF31FEE0FFF1FED59F74E53
:1059900093E09483EFCE0895282F30E0F901EE0FC5
:1059A000FF1FE20FF31FEE0FFF1FED59F74E94E0BC
:1059B000948394CE089590E0FC01EE0FFF1FDF0169
:1059C000A80FB91FAA0FBB1FAD59B74E26E01596F9
:1059D0002C931597FD0114820895E0918318F0919E
:1059E0008418309709F0199508956450623008F0D2
:1059F0003BC020918218223079F018F4213031F028
:105A000030C0233081F02430A1F02BC022E020935D
:105A1000821861E00AC20895FA01808180937F189C
:105A200082E0DBCF089524E02093821864E0FDC17A
:105A30000895FA01818190E0982F88272081822B98
:105A400090937E1880937D18838190E0982F88270B
:105A50002281822B90937C1880937B1881E0BDCFAC
:105A6000089580E0BACF08951092821886E0B5CFED
:105A7000089520918518309186182115310541F03F
:105A8000462FBC01C90185D1823021F080E0089504
:105A900087E0089585E008950F931F9390938418ED
:105AA0008093831805EF1CE220E034E244EF50E0DD
:105AB00060E089E21DD19093861880938518892B28
:105AC00011F080E001C088E01F910F910895CF93FD
:105AD000DF931F921F92CDB7DEB780EA898383E000
