:10000000E6C0000004C1000002C1000000C1000001
:10001000FEC00000FCC00000FAC00000F8C00000F4
:10002000F6C00000F4C00000F2C00000F0C0000004
:100030000C94670CECC00000EAC00000E8C00000AF
:10004000E6C00000E4C00000E2C00000E0C0000024
:10005000DEC000000C944724DAC00000D8C00000C5
:100060000C941C300C94F82B0C944A2CD0C000003B
:10007000CEC00000CCC00000CAC00000C8C0000054
:10008000C6C00000C4C00000C2C00000C0C0000064
:100090000C948E2C0C94E02CBAC000000C9491347B
:1000A000B6C00000B4C00000B2C00000B0C0000084
:1000B000AEC00000ACC00000AAC00000A8C0000094
:1000C000A6C00000A4C00000A2C000000C94242D13
:1000D0000C94762D9CC000000C94BA2D0C940C2E20
:1000E00096C000004122412241227822802295229E
:1000F0004122412278228022B3342335233523350F
:100100002335233523352335B334233523352335A0
:100110002335233523352335B5342335233523358E
:10012000233523352335233523352335233523350F
:100130002335233523352335B5342335233523356E
:1001400023352335233523352335233523352335EF
:1001500023352335233523351F35233523352335E3
:100160002335233523352335EA3423352335233509
:1001700023352335233523352335233523352335BF
:100180002335233523352335DE34233523352335F5
:10019000233523352335233502350E94821480917F
:1001A0001917823010F00E94A10B0E94BE22F5CFD9
:1001B000CF93DF931F92CDB7DEB7CE0101960E9499
:1001C000BE1F49810E94B3210E940A22F6CF11244A
:1001D0001FBECFEFD1E2DEBFCDBF00E00CBF19E004
:1001E000A0E0B2E0E2E4F8E700E00BBF02C0079055
:1001F0000D92AA30B107D9F729E1AAE0B9E001C010
:100200001D92AF37B207E1F7D4D20C941F3CF8CE61
:1002100040E064E084E00E94960D90931F19809363
:100220001E19892B21F08FE692E00C941439089561
:100230000F93CF93DF9300D01F92CDB7DEB76983C2
:100240007A838B839C8300E02AE030E040E050E03A
:10025000BE016F5F7F4F80911E1990911F190E9400
:10026000B90D813021F088E792E00E9414390F9097
:100270000F900F900F90DF91CF910F910895CF9332
:10028000DF9300D01F92CDB7DEB72AE030E040E028
:1002900050E0BE016F5F7F4F80911E1990911F1932
:1002A0000E94A40E813021F085E090E09C838B8336
:1002B00069817A818B819C810F900F900F900F90B4
:1002C000DF91CF910895909321198093201908957B
:1002D0008091201990912119089581E00E945D0E6E
:1002E0009093231980932219892B29F083E892E0B7
:1002F0000C94143908958CE892E00C941439089504
:100300000F931F93CF93DF93CDB7DEB764970FB6EC
:10031000F894DEBF0FBECDBF81E00E94BC2662E034
:1003200070E080E090E00E944E1880E00E94BC26C1
:1003300066E970E080E090E00E944E180E94752609
:100340000E94CA260E944828CE0101960E94DC26FF
:10035000CE0101960E94F826AE014F5F5F4F6AE919
:1003600072E08BEB92E00E9426290E942B2781E00D
:100370000E94252884EF91E00E9430281AE080E056
:100380000E943127082F0E9447299F938F931F9225
:100390001F938CEC92E09F938F930E9401390F90F2
:1003A0000F900F900F900F900F90083059F080E051
:1003B0000E94243266E371E080E090E00E944E18D3
:1003C0001150E9F6083039F481E00E94063287E0E6
:1003D00090E09FD00CC081E00E94153287E090E051
:1003E0008FD080E00E94E3310E94A10BFDCF649684
:1003F0000FB6F894DEBF0FBECDBFDF91CF911F9136
:100400000F9108958091281990912919089580914C
:1004100024199091251908958091261990912719F2
:10042000089527D69093291980932819892B49F488
:100430008BEE92E09F938F930E9401390F900F9063
:1004400004C08EEF92E00E94143913D690932519C0
:1004500080932419892B49F48BEE92E09F938F931C
:100460000E9401390F900F9004C081E193E00E9437
:100470001439FFD59093271980932619892B49F4B5
:100480008BEE92E09F938F930E9401390F900F9013
:1004900008958BE193E00C941439089581E090E085
:1004A00008C0FC01EE0FFF1FE65CF64E11821082C1
:1004B000019688309105ACF381E090E090933B1970
:1004C00080933A19A4DF4EEF50E060E070E084D6EC
:1004D00081E393E00C9414390895CF93DF9341E0C6
:1004E00050E0EA0102C0CC0FDD1F8A95E2F78FDFF2
:1004F000AE01DD0F660B770B6FD6DF91CF910895BC
:10050000FC01EE0FFF1FE65CF64E11821082E5CF74
:100510000895FC01EE0FFF1FE65CF64E21E030E08F
:1005200031832083DACF0895FC01EE0FFF1FE65CD4
:10053000F64E208131812130310509F45AC024F46E
:10054000232B09F46CC008952230310521F02330AB
:10055000310541F10895FC01EE0FFF1FE65DF64EF7
:1005600020813181223031059CF042B121E030E020
:10057000082E02C0220F331F0A94E2F7242722B963
:10058000880F991FFC01E65DF64E118210820895D6
:10059000880F991FFC01E65DF64E2F5F3F4F3183B8
:1005A00020830895FC01EE0FFF1FE65DF64E2081CB
:1005B0003181121613069CF442B121E030E0082E7E
:1005C00002C0220F331F0A94E2F7242722B9880FB2
:1005D000991FFC01E65DF64E118210820895880F86
:1005E000991FFC01E65DF64E2F5F3F4F318320835C
:1005F000089542B121E030E0082E02C0220F331FDF
:100600000A94E2F72095242322B9880F991FFC0150
:10061000E65CF64E8FEF9FEF91838083089542B1A1
:1006200021E030E0082E02C0220F331F0A94E2F7C7
:10063000242B22B9880F991FFC01E65CF64E8FEF40
:100640009FEF91838083089529DFE1DE0F2EF2EE84
:10065000CF2EF4E0DF2EE12CF12CF02D00E021E094
:100660004EEF50E060E070E017D5C62F61FF03C089
:1006700081E090E059DFC2FF03C082E090E054DFE8
:10068000C3FF03C083E090E04FDFC4FF03C084E0FA
:1006900090E04ADFC5FF03C085E090E045DFC6FF7C
:1006A00003C086E090E040DFC7FFCFCF87E090E057
:1006B0003BDFCBCFEF92FF920F93E12CF12C02E0C6
:1006C00020E030E046E551E06BE373E088E494E03D
:1006D0000E94491501E020E030E040EC50E067E482
:1006E00073E080E196E00E94491520E030E040ECA4
:1006F00050E06FE473E089E297E00E94491520E042
:1007000030E040EC50E06BE573E089EC96E00E944D
:10071000491520E030E040EC50E063E673E083EB05
:1007200097E00E94491502E020E030E040EC50E004
:100730006DE673E08BEB95E00E94491520E030E018
:1007400040EC50E068E773E089E395E00E944915CA
:1007500003E020E030E040EC50E065E873E084E244
:1007600093E00E9449150F91FF90EF90089580E06B
:100770000E946E2E81B18FEF81B985E00E94953184
:1007800080E090E00E9409240E94FE23A6DDE8D3C9
:1007900048DE54D328D0F5D237D28CDF39DD1ED0D5
:1007A000BC0181E00E947C2684E993E00C9414391A
:1007B0000895DDDF8FE993E00E9414390E949515BA
:1007C00087EA93E09F938F930E9401390F900F90D7
:1007D000F7CF80914D1990914E1908958091651928
:1007E00090916619089541E060E070E088E190E042
:1007F0000E94431190934E1980934D1941E060E09F
:1008000070E088E190E00E94431190936619809314
:10081000651980914D1990914E19892B29F48DEA13
:1008200093E00C94143908958CEB93E00C941439F4
:100830000895EFE4F9E128E0218322E0208320916C
:100840004C19422F022E000C550B5283238320910A
:100850006719422F022E000C550B548325832091DB
:100860004B19422F022E000C550B568327832091E3
:100870004A19422F022E000C550B5087218726E182
:10088000DC0101900D922A95E1F7089539CD089584
:10089000CF93DF93CDB7DEB7E0970FB6F894DEBF06
:1008A0000FBECDBFF3DF0E94D31569837A838B839C
:1008B0009C8387EC93E00E94562344EC59E060E06F
:1008C00070E0CE0101960E94E91782E090E021DEFF
:1008D00081E090E01EDE8DEC93E00E94143992DD01
:1008E00041E050E060E070E077D496DD0F2EFEE34B
:1008F000CF2ED12CE12CF12CF02D00E021E041E0B5
:1009000050E060E070E0C8D3672B682B692B21F0C2
:100910008FED93E00E94143981EF93E00E94143927
:1009200071DD42E050E060E070E056D475DD0F2EDE
:10093000FEE3CF2ED12CE12CF12CF02D00E021E0B4
:1009400042E050E060E070E0A7D3672B682B692B92
:1009500021F083E094E00E94143981E194E00E9448
:10096000143950DD44E050E060E070E035D454DDEF
:100970000F2EFEE3CF2ED12CE12CF12CF02D00E038
:1009800021E044E050E060E070E086D3672B682B04
:10099000692B21F083E294E00E94143981E394E012
:1009A0000E9414396CDC6B017C0164E670E080E02D
:1009B00090E00E944E18C7018530910589F1823080
:1009C000910589F01CF4019739F022C0833091051C
:1009D000C1F0049779F01CC0C0924B198EE494E0EA
:1009E0000E94143919C0C0924C1986E594E00E9407
:1009F000143912C0C0924A198EE594E00E9414394D
:100A00000BC0C092671986E694E00E94143904C0B6
:100A10008FE694E00E94143985E0E816F10411F69F
:100A200088E794E00E94143982E090E069DDCE010D
:100A30004B96FFDE86E1FE017B96DE011596019066
:100A40000D928A95E1F7C5DE04E610E020E030E083
:100A500046E150E0BE016B5F7F4F0E94A5114697B3
:100A600021F081E994E00E94143981E090E048DDB2
:100A700024CFCF93DF93CDB7DEB766970FB6F89448
:100A8000DEBF0FBECDBFAADE01E712E020E030E0FE
:100A900046E150E0BE016F5F7F4F0E94AE128C01B5
:100AA00083E00E94E33181E00E9424320631110587
:100AB000E9F48AEA94E00E9414398B8180936819E2
:100AC00021E030E030936A1920936919282F082E0D
:100AD000000C330B3F938F9388E597E09F938F93A0
:100AE0000E9401390F900F900F900F90809169191B
:100AF00090916A19019799F561E772E080E090E0C2
:100B00000E944E188091221990912319009719F193
:100B100044E150E060E070E00E94330F8130B9F4AE
:100B200080916819082E000C990BCDDB00E020E0C5
:100B300030E0A90160E070E08091221990912319C2
:100B40000E94B90D8AEB94E00E94143904C08BED29
:100B500094E00E94143910926A191092691983E086
:100B60000E94153281E00E9406328DCF83EF94E01F
:100B70000C9414390895CF93DF93CDB7DEB7669701
:100B80000FB6F894DEBF0FBECDBFF0DF22DE01E767
:100B900012E020E030E046E150E0BE016F5F7F4FA1
:100BA0000E94AE12469709F582E00E94E3318DEF74
:100BB00094E00E941439BE016F5F7F4F80E00E9475
:100BC0005A270E9447299F938F938BE095E09F932C
:100BD0008F930E94013962E370E080E090E00E9410
:100BE0004E180F900F900F900F9082E00E941532D8
:100BF000CDCF90936D1980936C1981E090E0909324
:100C00000B0980930A09089582E295E00E94143945
:100C100083E00E94232A89EF95E00C94482A0895E6
:100C2000CF93DF9300D01F92CDB7DEB70E94D315CC
:100C300069837A838B839C8310920B0910920A0933
:100C40004DE750E060E070E0CE0101960E94E917A8
:100C5000D9DB0F2EF2EECF2EF4E0DF2EE12CF12CBB
:100C6000F02D01E021E041E050E060E070E014D2BE
:100C7000162F83E090E04DDC89E295E00E94562338
:100C800010FF3CC08DE295E00E9414390E944D2A6D
:100C900080936B19882359F08EE395E00E941439F4
:100CA00006C062E370E080E090E00E944E18809100
:100CB0000A0990910B09892BA1F3AA24A394B12CC2
:100CC00080906C1990906D19C501B401B1DA62E39E
:100CD00070E080E090E00E944E1880916D198F9333
:100CE00080916C198F938CE495E09F938F930E9471
:100CF00001390F900F900F900F900AC085E595E095
:100D00000E9414396AEF70E080E090E00E944E1873
:100D100083E090E0F5DB90CFCF93DF9300D01F927C
:100D2000CDB7DEB78130B1F4CE0101960E94D73243
:100D300069817A818B819C810E94E2227F936F93EB
:100D400083E695E09F938F930E9401390F900F9057
:100D50000F900F9069817A818B819C810E94E7229C
:100D600070936F1960936E1981E090E090930B0976
:100D700080930A090F900F900F900F90DF91CF9101
:100D800008958CE896E00C94953208950C94B03256
:100D90000895CF93DF9300D01F92CDB7DEB7F6DF73
:100DA0000E94D31569837A838B839C8310920B09ED
:100DB00010920A094DE750E060E070E0CE01019624
:100DC0000E94E9171FDB0F2EF2EECF2EF4E0DF2E8C
:100DD000E12CF12CF02D01E021E044E050E060E056
:100DE00070E05AD1162F85E090E093DB8CE695E019
:100DF0000E94562312FF0DC081E795E00E9414392E
:100E00000E94C53206C062E370E080E090E00E947C
:100E10004E1880910A0990910B09892BA1F36894CF
:100E2000AA24A2F8B12C80906E1990906F19C50178
:100E3000B401FED985E090E063DBB8CF0E94E524E1
:100E40000E94FD24882321F08DE795E00C9414394D
:100E50000895CF93DF9300D01F92CDB7DEB70E94E5
:100E6000D31569837A838B839C834DE750E060E0E0
:100E700070E0CE0101960E94E917C4DA0F2EF1E767
:100E8000CF2EF2E0DF2EE12CF12CF02D01E021E05D
:100E900042E050E060E070E0FFD0162F84E090E088
:100EA00038DB8CE995E00E94562311FF55C080EA9B
:100EB00095E00E9414390E941225882321F081EBCD
:100EC00095E00E94143964E170E080E090E00E94B7
:100ED0004E180E94532590937319809372190F2E08
:100EE000F3E0AF2EB12CF02D4C01C501B401A0D917
:100EF00062E370E080E090E00E944E180E9423259B
:100F00000E94E72270937119609370196894AA2463
:100F1000A1F8B12C4B01C501B4018AD962E370E09C
:100F200080E090E00E944E18809171198F9380911B
:100F300070198F93809173198F93809172198F9389
:100F400085EC95E09F938F930E9401390F900F904D
:100F50000F900F900F900F9084E090E0D1DA85CF42
:100F60000C94942A0895CF93DF9300D01F92CDB7AD
:100F7000DEB768E371E080E090E00E944E1886E002
:100F800090E0C7DA82ED95E00E9456238091221905
:100F900090912319009709F441C04AE050E060E0C5
:100FA00070E061D78130B1F593D9182F00E020E0CF
:100FB00030E0A90160E070E080912219909123193E
:100FC000D8D580917419181749F185ED95E00E94E4
:100FD0001439612F81E00E947C2A10937419812FAB
:100FE000012E000C990B9F931F9388E597E09F9328
:100FF0008F938E010F5F1F4F1F930F930E944439F1
:10100000C8010E9456230F900F900F900F900F90E1
:101010000F9004C085EF95E00E94143968E371E0F9
:1010200080E090E00E944E1886E090E069DAA1CF5F
:101030000F9301110CC0DC01CB0182239323A42365
:10104000B523892B8A2B8B2B79F480E010C0DC012F
:10105000CB0182239323A423B523281739074A07FA
:101060005B0721F080E003C081E001C081E00F91C7
:101070000895CF93DF938FE090E0AFD1EC0100971C
:1010800039F0FC011192119211921192CF018BD281
:10109000CE01DF91CF9108952F923F924F925F92B0
:1010A0006F927F928F929F92AF92BF92CF92DF9278
:1010B000EF92FF920F931F93CF93DF93EC014A01BE
:1010C0005B01622E702E0E94CD15288039804A80E7
:1010D0005B80A5019401C201B101AADF8823A1F0C0
:1010E000662089F1D501C40180959095A095B095B1
:1010F00082219321A421B52188839983AA83BB836C
:10110000C12CD12C760122C0C114D104E104F10418
:10111000E9F0611004C040E050E0BA0104C040E0D2
:1011200050E060E071E071107460482959296A2923
:101130007B2997018601CE0104960E94E518212C97
:10114000312C210103C0C12CD12C76010E940D1736
:10115000CD28CE28CF2859F1811101C0F2D20E94AA
:10116000A71C6B017C0191FD1FC00FB6F8940F9274
:10117000C880D980EA80FB80072DA5019401C701B2
:10118000B60156DF882371F0662061F08094909458
:10119000A094B0948C209D20AE20BF20888299829C
:1011A000AA82BB820F900FBE160127015524C201EF
:1011B000B101DF91CF911F910F91FF90EF90DF90E0
:1011C000CF90BF90AF909F908F907F906F905F90E7
:1011D0004F903F902F9008954F925F926F927F9221
:1011E000AF92BF92CF92DF92EF92FF920F931F9335
:1011F000CF93DF93EC016A017B018C01095F1F4FE4
:101200000E94CD15EB85FC8588819981AA81BB81DF
:10121000C82AD92AEA2AFB2AC882D982EA82FB8212
:10122000C12CD12C76013DC0A480B58080819181F4
:10123000A281B381AC01BD017727B2FD0EC0488009
:1012400059806A807B804422552266227722452875
:101250004628472889F420E012C0488059806A80D7
:101260007B80442255226622772244155505660567
:10127000770521F020E003C021E001C021E0222316
:1012800071F0B0FF04C0C42AD52AE62AF72A4881A3
:1012900059816A817B817260CF010E94201AEA2DF8
:1012A000FB2DE017F10709F0BFCFC094D094E09474
:1012B000F09488819981AA81BB81C822D922EA222F
:1012C000FB22C882D982EA82FB820E940D176881C4
:1012D00079818A819B81DF91CF911F910F91FF903E
:1012E000EF90DF90CF90BF90AF907F906F905F9026
:1012F0004F900895E8E1F9E0ACE1B9E0B183A08353
:1013000013821282E4ECF6E1F0931709E0931609D8
:10131000138212821182108288EA9DE013969C93B8
:101320008E931297ED93FC93909313098093120977
:10133000909315098093140980E090E890930D092B
:1013400080930C090895CF93DF93EC01A8E1B9E0F5
:1013500001C0DF01ED91FC911197EC17FD07C8F377
:1013600012968D919C9113979D01280F391FC217DA
:10137000D30749F42A813B81820F931F13969C93D4
:101380008E931297ED018A819B819E01280F391F50
:10139000E217F307C1F42091160930911709E217FB
:1013A000F30771F022813381820F931F9B838A831D
:1013B000ED91FC911197808191819983888305C07B
:1013C0003983288302C0F983E883CA17DB0711F049
:1013D000CD93DC93DF91CF910895EF92FF920F931D
:1013E0001F93CF93DF938C010E94CD158091160936
:1013F00090911709892B09F47DDF80910C09909158
:101400000D0980239123892B09F076C00115110560
:1014100049F0C80104960817190718F000E010E019
:1014200001C08C010115110509F469C080911409EE
:10143000909115098017910708F464C0C0911809AC
:10144000D0911909E8E1F9E002C0FE01EC018A81BE
:101450009B818017910720F4888199810097A9F7D3
:101460008091160990911709C817D90709F44DC042
:10147000E080F18084E0E80EF11C888199819183FD
:1014800080832A813B81201B310B2930310548F0B4
:10149000CE01800F911FFC01338322831B830A83BB
:1014A00052DF2A813B818091140990911509821B9A
:1014B000930B909315098093140940911209509150
:1014C00013098417950720F4909313098093120948
:1014D00080910C0990910D09282B392B3B832A838D
:1014E00019821882809110099091110901969093A8
:1014F0001109809310090BC0E12CF12C08C0E12CDC
:10150000F12C05C0E12CF12C02C0E12CF12C0E9441
:101510000D17E114F10411F40E94CA22C701DF91F2
:10152000CF911F910F91FF90EF9008950F931F930C
:10153000CF93DF93009791F1EC0124974A815B816F
:1015400020910C0930910D09BA0162237323672B96
:1015500029F168817981672B09F52095309524233D
:1015600035233B832A830E94CD158A819B8120915C
:10157000140930911509820F931F909315098093D8
:101580001409CE01E0DE80910E0990910F090196B9
:1015900090930F0980930E090E940D17DF91CF9150
:1015A0001F910F910895FC010396928381834FEF61
:1015B0005FEFBA0143835483658376839087878383
:1015C0009287818710820895FC0113861286089500
:1015D0000F931F93CF93DF93EB01088119812A8129
:1015E0003B810F3F4FEF14072407340721F4FC0120
:1015F000A185B28511C0DC01139601C0DF011496EC
:10160000ED91FC911597408151816281738104179E
:1016100015072607370790F71496ED91FC9115975B
:10162000FD83EC83D783C683BF83AE831596DC939B
:10163000CE9314979B878A87FC0120812F5F20839C
:10164000DF91CF911F910F910895CF93DF93FC010C
:10165000A285B385C481D581868197819F838E833E
:10166000C681D781848195819D838C8311968D91CC
:101670009C911297E817F90731F4868197811296A9
:101680009C938E931197138612868C9181508C9324
:101690008C91DF91CF910895A89590EC88E10FB6D9
:1016A000F894A895809360000FBE90936000089511
:1016B000FC016083319770833197108231971082DB
:1016C000319720E82083319710823197108231972B
:1016D0001082779740833197508386970895DCDF97
:1016E000A0918717B0918817CD91CDBFDD91DEBF56
:1016F000FF91EF91DF91CF91BF91AF919F918F912A
:101700007F916F915F914F913F912F911F910F9119
:10171000FF90EF90DF90CF90BF90AF909F908F9011
:101720007F906F905F904F903F902F901F900F9001
:101730000CBE0F900BBE0F900FBE0F90089581E06E
:1017400008950F920FB6F8940F920BB60F920CB645
:101750000F921F9211242F923F924F925F926F929D
:101760007F928F929F92AF92BF92CF92DF92EF9231
:10177000FF920F931F932F933F934F935F936F931A
:101780007F938F939F93AF93BF93CF93DF93EF9309
:10179000FF93A0918717B09188170DB60D920EB6E2
:1017A0000D920E946918A0918717B0918817CD916A
:1017B000CDBFDD91DEBFFF91EF91DF91CF91BF9162
:1017C000AF919F918F917F916F915F914F913F91D9
:1017D0002F911F910F91FF90EF90DF90CF90BF90CE
:1017E000AF909F908F907F906F905F904F903F90C1
:1017F0002F901F900F900CBE0F900BBE0F900FBE3E
:101800000F9008950F920FB6F8940F920BB60F92A7
:101810000CB60F921F9211242F923F924F925F921B
:101820006F927F928F929F92AF92BF92CF92DF92F0
:10183000EF92FF920F931F932F933F934F935F93DA
:101840006F937F938F939F93AF93BF93CF93DF93C8
:10185000EF93FF93A0918717B09188170DB60D9263
:101860000EB60D9213BE0E94E11581110E946918F7
:10187000A0918717B0918817CD91CDBFDD91DEBFC4
:10188000FF91EF91DF91CF91BF91AF919F918F9198
:101890007F916F915F914F913F912F911F910F9188
:1018A000FF90EF90DF90CF90BF90AF909F908F9080
:1018B0007F906F905F904F903F902F901F900F9070
:1018C0000CBE0F900BBE0F900FBE0F9008959ADFC5
:1018D0001895DC0153962C915397222341F05A9688
:1018E000ED91FC915B9790818AE0891B089580E0DF
:1018F00008950FB6F8940F92FC01868D811102C0F5
:1019000081E001C080E00F900FBE08950FB6F894FB
:101910000F92FC01268D878D281302C081E001C043
:1019200080E00F900FBE08950F931F93CF93DF9326
:10193000EC01042F1E8D48A141110CC088819981B2
:10194000892B09F042C08C819D810E94E51B1D827C
:101950001C8242C0011117C050E08A819B810E9405
:10196000983828A18A819B81820F911D9B838A834D
:101970002C813D818217930750F1888199819B8347
:101980008A8380E029C050E08E819F810E94983830
:1019900088A190E09195819591092E813F81280F32
:1019A000391F3F832E83488159812417350730F42E
:1019B0002C813D81820F931F9F838E83023049F4D7
:1019C000112349F0115080E007C080E005C080E09D
:1019D00003C080E001C080E01F5F1E8FDF91CF91C8
:1019E0001F910F910895FC0140A14423A9F050E0FC
:1019F00026813781240F351F378326838481958183
:101A00002817390720F08081918197838683CB0145
:101A1000668177810C94983808951F93CF93DF9354
:101A2000EC010FB6F8940F921AA10BC08B89882392
:101A300051F0CE0143960E94711981110E94471BFB
:101A4000115011169CF38FEF8AA30F900FBE0FB6A3
:101A5000F8940F9219A10BC08885882351F0CE010C
:101A600008960E94711981110E94471B115011168E
:101A70009CF38FEF89A30F900FBEDF91CF911F9141
:101A80000895CF93DF93EC010FB6F8940F92E8819D
:101A9000F9818F8D28A190E030E0829FA001839F83
:101AA000500D929F500D11244E0F5F1F5D834C838C
:101AB0001E8EFB83EA830197289FA001299F500D6A
:101AC000389F500D1124CF01840F951F9F838E8363
:101AD0008FEF89A38AA361110BC08885882371F0D9
:101AE000CE0108960E947119882341F02ADE06C0B3
:101AF000CE01089658DDCE01439655DD0F900FBEFE
:101B000081E0DF91CF9108950F931F93F801611148
:101B100003C01183008302C051834083878F60A379
:101B200061E0CF01AEDF1F910F910895DF92EF9238
:101B3000FF920F931F93CF93DF93F82EE62ED42EB0
:101B4000869FC0011124839648DCEC01009741F088
:101B50008C012D2DAC014D5D5F4F6E2D8F2DD4DF8F
:101B6000CE01DF91CF911F910F91FF90EF90DF9009
:101B70000895CF92DF92EF92FF920F931F93CF932E
:101B8000DF93CDB7DEB729970FB6F894DEBF0FBE4F
:101B9000CDBF7C016B012E833F834887598710E0BE
:101BA0000FB6F8940F92F701968D878D981710F065
:101BB0000230B1F4402FB601C701B6DEF7019389B8
:101BC000992341F0C70143960E947119882321F09F
:101BD000B8DD02C08111B5DD0F900FBE81E04CC0B1
:101BE0008E819F81A885B985892B8A2B8B2B21F427
:101BF0000F900FBE80E040C0111105C0CE010196CC
:101C00000E94D01A11E00F900FBEC7D70FB6F894FC
:101C10000F92F70181A18F3F09F411A2F70182A170
:101C20008F3F09F412A20F900FBEBE016A5F7F4F73
:101C3000CE0101960E94E11A811119C0C70166DE2A
:101C4000882381F04E815F8168857985C701089678
:101C50000E94CE18C701E1DE0E940D178111A0CFAE
:101C600070DD9ECFC701D9DE0E940D1799CFC70145
:101C7000D4DE0E940D1780E029960FB6F894DEBFDF
:101C80000FBECDBFDF91CF911F910F91FF90EF90CD
:101C9000DF90CF9008950F93009769F0FC011582B3
:101CA000148211821082168200E020E030E0A90147
:101CB00060E070E05EDF0F910895CF93DF93482FCF
:101CC00060E081E033DFEC01E6DFCE01DF91CF9110
:101CD0000895EF92FF920F931F93CF93DF938A01A2
:101CE000FC01568D378D531710F02230F9F4422F36
:101CF0007801EC011AA18E8DCE0116DE1F3F81F412
:101D00008B898823A9F0CE0143960E9471198823FC
:101D100089F0E114F10481F081E0F70180830DC0C6
:101D2000FF24F394F10EFAA281E007C080E005C021
:101D300081E003C081E001C081E0DF91CF911F917C
:101D40000F91FF90EF900895CF92DF92EF92FF9264
:101D50000F931F93CF93DF93CDB7DEB729970FB6BD
:101D6000F894DEBF0FBECDBF8C016B012E833F8385
:101D700048875987E12C0FB6F8940F92F801F68C3A
:101D8000FF2099F0B601C8012EDEFA94F801F68E14
:101D90008085882331F0C80108960E94711981114D
:101DA000D0DC0F900FBE81E04FC08E819F81A8854F
:101DB000B985892B8A2B8B2B21F40F900FBE80E0E5
:101DC00043C0E11006C0CE0101960E94D01AEE2455
:101DD000E3940F900FBEE1D60FB6F8940F92F8017E
:101DE00081A18F3F09F411A2F80182A18F3F09F46C
:101DF00012A20F900FBEBE016A5F7F4FCE01019607
:101E00000E94E11A811117C0C80173DD882379F09F
:101E10004E815F8168857985C80143960E94CE18FE
:101E2000C801FBDDFAD78111A6CF8BDCA4CFC80196
:101E3000F4DDF3D7A0CFC801F0DDEFD7C80159DD3D
:101E4000882309F498CF80E029960FB6F894DEBF76
:101E50000FBECDBFDF91CF911F910F91FF90EF90FB
:101E6000DF90CF900895EF92FF920F931F93CF933F
:101E7000DF93CDB7DEB729970FB6F894DEBF0FBE5C
:101E8000CDBF8C014E835F8368877987E12CF12C6D
:101E90000FB6F8940F92F801868D8823C9F081500F
:101EA000868F80819181892B29F40E94D11CF801B1
:101EB00095838483F8018085882331F0C8010896D2
:101EC0000E94711981113DDC0F900FBE81E06FC03F
:101ED0008E819F81A885B985892B8A2B8B2B21F434
:101EE0000F900FBE80E063C0F11006C0CE010196D6
:101EF0000E94D01AFF24F3940F900FBE4ED60FB657
:101F0000F8940F92F80181A18F3F09F411A2F80112
:101F100082A18F3F09F412A20F900FBEBE016A5F2B
:101F20007F4FCE0101960E94E11A811126C0C8019F
:101F3000E0DC8823F1F0F80180819181892B51F454
:101F40000FB6F8940F92848195810E945E1BE82E53
:101F50000F900FBE4E815F8168857985C8014396D9
:101F60000E94CE18C80159DD58D7811191CFE9DB05
:101F70008FCFC80152DD51D78BCFC8014EDD4DD771
:101F8000C801B7DC882309F483CFEE2079F00FB6BF
:101F9000F8940F92C8019DDC682FF8018481958127
:101FA0000E94401C0F900FBE80E001C080E0299687
:101FB0000FB6F894DEBF0FBECDBFDF91CF911F915A
:101FC0000F91FF90EF900895CF93DF93EC010FB640
:101FD000F8940F9289A18F3F09F419A28AA18F3F2B
:101FE00009F41AA20F900FBE8E8D811104C0CE018C
:101FF00043960E942F19CE0110DDDF91CF910895F5
:10200000FC014481558122813381240F351F808159
:102010009181B901681B790BCB016417750710F02A
:10202000841B950B08950F93FC018FE0DF011D9237
:102030008A95E9F7758764875583448337832683B8
:1020400006870F910895AF92BF92CF92DF92EF92E1
:10205000FF920F931F93CF93DF936C015B017A0183
:10206000FC01C281D381048115810C1B1D0B40171B
:10207000510708F48A01F60184859585A801B50108
:102080008C0F9D1F0E9498380E151F0558F4A7014C
:10209000401B510BB501600F711FF60184859585BA
:1020A0000E949838CE018E0D9F1DF6012481358146
:1020B0008217930710F0821B930BF60193838283A0
:1020C000C701DF91CF911F910F91FF90EF90DF90AB
:1020D000CF90BF90AF900895CF92DF92EF92FF9292
:1020E0000F931F93CF93DF931F921F92CDB7DEB74D
:1020F0007C016B015A83498321153105C1F0FC0134
:10210000868580FD08C04217530708F49A013A8378
:10211000298381E00FC02017310758F042E050E0DA
:10212000BE016F5F7F4FC7018EDF81E003C080E09B
:1021300001C080E0882331F049815A81B601C7018E
:1021400082DF02C080E090E00F900F90DF91CF918E
:102150001F910F91FF90EF90DF90CF900895AF9275
:10216000BF92CF92DF92EF92FF920F931F93CF9384
:10217000DF937C015B01E9014217530708F4EA0190
:10218000209781F1F7010081118184819581801B65
:10219000910B6E018C179D0708F46C01F7016485A3
:1021A0007585600F711FA601C5010E949838CC1675
:1021B000DD0658F4AE014C195D09F701648575859B
:1021C000C5018C0D9D1D0E9498380C0F1D1FF70135
:1021D000848195810817190710F0081B190BF70166
:1021E00011830083CE01DF91CF911F910F91FF905A
:1021F000EF90DF90CF90BF90AF9008956F927F9255
:102200008F929F92AF92BF92CF92DF92EF92FF9206
:102210000F931F93CF93DF931F921F92CDB7DEB71B
:102220006C014B015A01790101151105B1F0FC0156
:1022300060807180A801BE016F5F7F4F90DF898150
:102240009A81E01AF10AA816B90630F4F6017182F3
:102250006082A12CB12C01C05C019701A501B401E1
:10226000C6017DDF0F900F90DF91CF911F910F91ED
:10227000FF90EF90DF90CF90BF90AF909F908F90A6
:102280007F906F900895CF92DF92EF92FF920F931D
:10229000CF93DF93EC016B01413011F401E001C0F9
:1022A00000E0C114D10419F4CC24C394D12CCE0184
:1022B0004096C817D90720F421968FD87C0102C018
:1022C000E12CF12CE114F10439F09601AE01B701D3
:1022D000615F7F4FC701A7DEC701DF91CF910F91EB
:1022E000FF90EF90DF90CF9008950F930FB6F89482
:1022F0000F92FC0120853185232B71F422853385D3
:10230000232B61F42681378144815581648575854D
:10231000068589DE81E003C080E001C080E00F9087
:102320000FBE0F910895FC01248135818081918138
:10233000820F931F42815381841B950B0197821753
:10234000930710F0821B930B08952F923F924F92A8
:102350005F926F927F928F929F92AF92BF92CF9235
:10236000DF92EF92FF920F931F93CF93DF93CDB73E
:10237000DEB72B970FB6F894DEBF0FBECDBF4C0172
:102380007B876A871A010E831F8328873987FC01A0
:10239000848195810197268520FF0CC02A01F2E0F7
:1023A0004F0E511C8415950558F41E821F82188605
:1023B000198606C08417950710F02A0101C02C0168
:1023C0008E819F81A885B985892B8A2B8B2B09F457
:1023D00038C0CE0101960E94BA1A0FB6F8940F9237
:1023E000C401A1DF3C018415950540F560E080E063
:1023F00090E00E94A41F0E944B1BF40193878287E8
:102400000F900FBEAE80BF80C884D984E12CF12C20
:1024100000E010E0980140E050E0BA0180E00E9446
:10242000E31CF40113861286BE016A5F7F4FCE0162
:1024300001960E94E11A882381F205C00F900FBE19
:1024400002C0612C712C6114710419F4C4016BDF9A
:102450003C0182019301A1016A857B85C4013CDEB8
:102460006C01892BE9F0C401CBDDF40126813781B1
:1024700082179307A8F091D3F40180859185892B69
:1024800071F080859185E12CF12C00E020E030E0B6
:10249000A90160E00E948B1DF40111861086BDD455
:1024A000C6012B960FB6F894DEBF0FBECDBFDF91ED
:1024B000CF911F910F91FF90EF90DF90CF90BF9041
:1024C000AF909F908F907F906F905F904F903F90D4
:1024D0002F900895AF92BF92CF92DF92EF92FF922A
:1024E0000F931F93CF93DF93EC017B015A01690196
:1024F0008E8580FF04C08A010E5F1F4F01C08A01D4
:10250000CE0111DF9C01A501B701CE01E5DD5C0123
:10251000892BC1F0CE0174DD2E813F818217930794
:1025200088F088859985892B69F088859985E12CC3
:10253000F12C00E020E030E0A90160E00E94821E62
:1025400019861886C501DF91CF911F910F91FF90D9
:10255000EF90DF90CF90BF90AF9008954F925F9231
:102560006F927F928F929F92AF92BF92CF92DF92A3
:10257000EF92FF920F931F93CF93DF93EC012B0108
:102580003A01580169018E8580FF05C0689488244E
:1025900081F8912C02C0812C912CA114B104C104AA
:1025A000D10441F10FB6F8940F92CE0129DD7C01E0
:1025B0008816990648F060E080E090E00E94A41F31
:1025C0000E944B1B998788870F900FBE8E149F0423
:1025D000A0F0E12CF12C00E010E0980140E050E088
:1025E000BA0180E00E94E31C19861886CE0108DD3E
:1025F0007C0103C0CE0104DD7C018E149F04E8F44D
:1026000084019701A301B201CE01F8DD6C01892B91
:10261000B1F0C3D28A859B85892B69F08A859B8519
:10262000E12CF12C00E020E030E0A90160E00E9404
:102630008B1D1B861A86F1D302C0C12CD12CC6017A
:10264000DF91CF911F910F91FF90EF90DF90CF908E
:10265000BF90AF909F908F907F906F905F904F90C2
:102660000895E0910117F0910217808181110CC04B
:102670008FEF9FEFDC018093CB169093CC16A09345
:10268000CD16B093CE160895E0910117F091021780
:102690000780F085E02D80819181A281B3818093B4
:1026A000CB169093CC16A093CD16B093CE1608956A
:1026B000CF93DF93EC018B8D9C8D0E94960ACE0107
:1026C0000E94960ADF91CF9108954F925F926F9288
:1026D0007F928F929F92AF92BF92CF92DF92EF92B2
:1026E000FF920F93CF93DF932C015B014A013901D5
:1026F000E60165EA70E08B8D9C8D0E94A1388B8D80
:102700009C8D21E0821A9108880E991EA114B104B3
:1027100089F415C0822F90E0F501E80FF91F308190
:10272000DE01A80FB91F5D963C938081882329F0B4
:102730002F5F01C020E0203168F31CA601C01D8E70
:102740000A3008F009E00A8F0DA71EA6CE010296F6
:102750000E94E40ACE010E960E94E40ADB87CA8733
:102760008AE090E0A0E0B0E0801B9109A109B109E6
:102770008E879F87A88BB98BDF8BCE8B84E0FE0181
:10278000BF96DF011D928A95E9F71BAAA301B2014A
:10279000C4010E94580B99838883E114F10419F055
:1027A000F701D183C083DF91CF910F91FF90EF901C
:1027B000DF90CF90BF90AF909F908F907F906F9061
:1027C0005F904F900895CF93C0E009C02BE0C29F67
:1027D000C0011124875E984E0E94D30ACF5FCA3091
:1027E000A8F38EE097E10E94D30A83E097E10E946C
:1027F000D30A84EF96E10E94D30A89EE96E10E9403
:10280000D30A8DED96E10E94D30A8EE097E1909372
:1028100002178093011783E097E19093001780934C
:10282000FF16CF910895CF93DF93EC010FB6F89484
:102830000F928091DC168F5F8093DC168091871752
:1028400090918817892B51F4D0938817C0938717DC
:102850008091DC16813091F4B6DF10C08091D616DD
:1028600081110CC0E0918717F0918817928D8A8DA5
:10287000891720F0D0938817C09387178091CF16BF
:102880008F5F8093CF16EA8D8091D7168E1710F444
:10289000E093D7168BE08E9FF0011124E75EF84E8F
:1028A0000180F281E02DFF83EE8326813781398715
:1028B0002887A681B7819E012E5F3F4F15963C93D6
:1028C0002E93149737832683EA8D8E9FF00111246F
:1028D000E75EF84EFD87EC8780818F5F80830F90E5
:1028E0000FBE8091D616882351F0E0918717F091A2
:1028F0008817928D8A8D981710F40E94A10BDF9192
:10290000CF910895CF93DF931BC00FB6F8940F9229
:10291000E091F016F091F116C085D185CE010296B6
:102920000E94250B8091DC1681508093DC168091EB
:10293000E81681508093E8160F900FBECE01B8DEE6
:102940008091E8168111E1CFDF91CF9108958F92A8
:102950009F92AF92BF92CF92DF92EF92FF92CF936E
:10296000DF936B017C01C42F8090D8169090D9160C
:10297000A090DA16B090DB16809187179091881797
:1029800002960E94250B8FEFC816D806E806F806B7
:10299000B1F5CC23A1F1EDEDF6E1A181B281C091B9
:1029A0008717D0918817BF83AE83C0918717D091C6
:1029B000881716968D919C911797998788871696F8
:1029C000CD91DC9117978091871790918817029687
:1029D0009D838C8380918717909188170296179614
:1029E0009C938E931697A0918717B09188171D9688
:1029F000FC93EE931C9780818F5F80833FC0C80C4F
:102A0000D91CEA1CFB1CE0918717F0918817C28241
:102A1000D382E482F582C814D904EA04FB0468F482
:102A200060918717709188178091FF169091001719
:102A30006E5F7F4F0E94E80A21C0609187177091F6
:102A4000881780910117909102176E5F7F4F0E9447
:102A5000E80A8091CB169091CC16A091CD16B0913A
:102A6000CE16C816D906EA06FB0640F4C092CB166D
:102A7000D092CC16E092CD16F092CE16DF91CF9187
:102A8000FF90EF90DF90CF90BF90AF909F908F908E
:102A900008952F923F924F925F926F927F928F9202
:102AA0009F92AF92BF92CF92DF92EF92FF920F93DD
:102AB000CF93DF933C011B014A012901CA010E9407
:102AC000ED096C01892B71F084E390E00E94ED091F
:102AD000EC01892B19F0DC8ECB8E06C0C6010E945A
:102AE000960A02C0C0E0D0E0209761F0A12CB12C82
:102AF0006E019201A401B101C301E7DDCE0193DEB5
:102B000081E001C08FEFDF91CF910F91FF90EF90A7
:102B1000DF90CF90BF90AF909F908F907F906F90FD
:102B20005F904F903F902F900895EF92FF920F93F8
:102B30000F2EF9ECEF2EF6E1FF2EF02D00E020E055
:102B400030E040EC50E062E176E08DEC90E0A1DF17
:102B5000813011F40E9448208130C9F4F8948FEF3D
:102B60009FEFDC018093CB169093CC16A093CD16EB
:102B7000B093CE1681E08093D6161092D81610929C
:102B8000D9161092DA161092DB160E946F0B809104
:102B900006020F91FF90EF9008958091C8168F5F05
:102BA0008093C81608950FB6F8940F926091D816C6
:102BB0007091D9168091DA169091DB160F900FBEA6
:102BC0000895CF92DF92EF92FF92CF93DF9380919F
:102BD000C816811105C1C090D816D090D916E090C2
:102BE000DA16F090DB168FEFC81AD80AE80AF80A4E
:102BF000C092D816D092D916E092DA16F092DB166F
:102C0000C114D104E104F104B1F480910117909151
:102C100002172091FF16309100173093021720936E
:102C20000117909300178093FF168091D0168F5F45
:102C30008093D01616DD8091CB169091CC16A09182
:102C4000CD16B091CE16C816D906EA06FB0620F4BA
:102C500080E0B2C081E001C080E0E0910117F09116
:102C60000217908191110CC04FEF5FEFBA014093B2
:102C7000CB165093CC166093CD167093CE169CC095
:102C8000E0910117F09102170780F085E02D008494
:102C9000F185E02D4281538164817581C416D5068A
:102CA000E606F70648F44093CB165093CC16609393
:102CB000CD167093CE1680C0A485B585C681D78108
:102CC000208531853F832E83C085D185268137813C
:102CD0003D832C8311964D915C9112979F012E5F3D
:102CE0003F4F4217530731F44085518512965C934C
:102CF0004E931197158614869C9191509C93A08DAC
:102D0000B18D109709F1C289D389448955895F83B0
:102D10004E83C489D589428953895D834C8311963A
:102D20006D917C911297AF01425F5F4F64177507F9
:102D300031F44489558912965C934E931197118E04
:102D4000108E9C9191509C93A28D9091D7169A17BA
:102D500010F4A093D7169BE09A9FD0011124A75E90
:102D6000B84E11960D90BC91A02DB783A6831696F0
:102D70004D915C911797518740871696CD91DC91C4
:102D800017973D832C8317963C932E931697A28D0D
:102D90009A9FD0011124A75EB84EB587A4879C9155
:102DA0009F5F9C93228DE0918717F0918817928DF9
:102DB000291708F04FCF51CFE0918717F09188176E
:102DC000E28D9BE0E99FF0011124E75EF84E9081CF
:102DD000923008F081E09091D116911116C016C082
:102DE0008091D2169091D316A091D416B091D51699
:102DF0000196A11DB11D8093D2169093D316A09376
:102E0000D416B093D51680E001C081E0DF91CF9158
:102E1000FF90EF90DF90CF900895CF92DF92EF92E6
:102E2000FF92CF93DF930FB6F8940F928091C8165C
:102E300081508093C8168091C8168111BEC08091C0
:102E4000DC16811188C0BCC0E091FB16F091FC1625
:102E50000084F185E02DA08DB18DC289D38984894C
:102E600095899F838E83C489D589828993899D831F
:102E70008C8311962D913C911297CF010E962817B5
:102E8000390731F48489958912969C938E93119712
:102E9000118E108E8C9181508C93A485B585C6813E
:102EA000D781808591859F838E83C085D1858681DA
:102EB00097819D838C8311968D919C9112979F0190
:102EC0002E5F3F4F8217930731F4808591851296CC
:102ED0009C938E931197158614868C9181508C93B8
:102EE000A28D8091D7168A1710F4A093D7168BE085
:102EF0008A9FD0011124A75EB84E11960D90BC9107
:102F0000A02DB783A68316964D915C911797518794
:102F100040871696CD91DC9117973D832C831796A9
:102F20003C932E931697A28D8A9FD0011124A75E01
:102F3000B84EB587A4878C918F5F8C93928DA091AA
:102F40008717B09188175A968C91981730F081E0C6
:102F50008093D11602C0E0E0F0E08091F416811178
:102F600073CFEF2B09F07DDBC090D216D090D31633
:102F7000E090D416F090D516C114D104E104F10408
:102F8000A1F01FDE882319F081E08093D11681E043
:102F9000C81AD108E108F108A1F71092D2161092D0
:102FA000D3161092D4161092D5168091D11688237C
:102FB00031F00E94A10B81E003C080E001C080E0FD
:102FC0000F900FBEDF91CF91FF90EF90DF90CF90E9
:102FD00008958F929F92AF92BF92CF92DF92EF921D
:102FE000FF921F93CF93DF93EC016A017B01D5DD44
:102FF0008090D8169090D916A090DA16B090DB1673
:1030000088819981AA81BB81AC01BD014C0D5D1DF8
:103010006E1D7F1D88169906AA06BB0660F4481728
:1030200059076A077B0798F484169506A606B70623
:1030300080F010E013C0481759076A077B0758F063
:1030400084169506A606B70640F010E007C010E00B
:1030500005C011E003C011E001C011E048835983AD
:103060006A837B83112341F0CB01BA016819790986
:103070008A099B0940E06BDCD0DE811102C00E940E
:10308000A10B812FDF91CF911F91FF90EF90DF90E7
:10309000CF90BF90AF909F908F900895CF92DF9286
:1030A000EF92FF926B017C01672B682B692B39F043
:1030B00074DD40E0C701B6014ADCAFDE01C080E04C
:1030C000811102C00E94A10BFF90EF90DF90CF9082
:1030D00008958091C816882321F081E08093D1164D
:1030E00008951092D116E0918717F09188172081EA
:1030F0003181E0918717F0918817838D948D821725
:10310000930760F06091871770918817635E7F4F17
:1031100080918717909188170E94D6228091D716A8
:1031200001C08150282F30E09BE0929FF001939FD7
:10313000F00D1124E75EF84E9081992391F39BE006
:10314000929FA001939F500D1124DF010180F28115
:10315000E02D0480F581E02D1296FC93EE931197FB
:10316000445E584EE417F50729F444815581FD016A
:10317000528341839BE0929FF001939FF00D1124B5
:10318000E75EF84E0180F281E02D20853185309395
:103190008817209387178093D7160895CF92DF92D0
:1031A000EF92FF926A017B016091871770918817F7
:1031B000625F7F4F0E94E80A41E0C701B601C7DBAA
:1031C000FF90EF90DF90CF9008950F931F93CF93D0
:1031D000DF93FC01A0918717B091881770681E9645
:1031E0004D935D936D937C935197A181B281C09172
:1031F0008717D0918817BB8BAA8BC0918717D09166
:10320000881716968D919C9117979D8B8C8B16968F
:10321000CD91DC91179780918717909188170E9622
:103220009D838C8380918717909188170E961796AF
:103230009C938E931697A0918717B09188175996F3
:10324000FC93EE93589780818F5F808341E0C901A2
:10325000B8017DDBDF91CF911F910F910895CF933E
:10326000DF93FC01CB01BA01A181B281C091871724
:10327000D0918817BB8BAA8BC0918717D0918817E4
:1032800016964D915C9117975D8B4C8B1696CD9150
:10329000DC9117974091871750918817425F5F4FD5
:1032A0005D834C834091871750918817425F5F4F31
:1032B00017965C934E931697A0918717B091881735
:1032C0005996FC93EE93589730813F5F30832223C9
:1032D00019F06FEF7FEFCB01422F39DBDF91CF91F8
:1032E0000895CF93DF93DC011796ED91FC91189729
:1032F0000084F185E02DA08DB18DC289D3898489A8
:1033000095899F838E83C489D589828993899D837A
:103310008C8311968D919C9112979F01225F3F4F54
:103320008217930731F48489958912969C938E9322
:103330001197118E108E8C9181508C938091C816AC
:10334000811152C0A485B585C681D78180859185BC
:103350009F838E83C085D185868197819D838C8351
:1033600011968D919C9112979F012E5F3F4F82176E
:10337000930731F48085918512969C938E931197D3
:10338000158614868C9181508C93A28D8091D716CE
:103390008A1710F4A093D7168BE08A9FD0011124CE
:1033A000A75EB84E11960D90BC91A02DB783A68351
:1033B00016964D915C911797518740871696CD913F
:1033C000DC9117973D832C8317963C932E93169789
:1033D000A28D8A9FD0011124A75EB84EB587A4871D
:1033E0008C918F5F8C931CC044EF56E1DA011196EB
:1033F000CD91DC911297D38BC28B8E819F81958B5F
:10340000848B8E819F81DC0115963C932E931497BB
:103410003F832E83518F408FDA018C918F5F8C9385
:10342000928DE0918717F0918817828D891720F48B
:1034300081E08093D11601C080E0DF91CF910895A3
:10344000CF93DF93DC0170684D935D936D937C9314
:1034500013971896ED91FC9119971A964D915C91DE
:103460001B9714968D919C91159716962D913C91D2
:103470001797EC013F832E8316968D919C91179799
:1034800014962D913C911597EC013D832C83EA0114
:1034900089819A81A817B90731F416968D919C916C
:1034A00017979A8389831B961C921E921A97DA01AA
:1034B0008C9181508C93A485B585C681D7818085F8
:1034C00091859F838E83C085D185868197819D83D9
:1034D0008C8311968D919C9112979F012E5F3F4F87
:1034E0008217930731F48085918512969C938E9371
:1034F0001197158614868C9181508C93A28D8091A2
:10350000D7168A1710F4A093D7168BE08A9FD001A4
:103510001124A75EB84E11960D90BC91A02DB783D3
:10352000A68316964D915C91179751874087169602
:10353000CD91DC9117973D832C8317963C932E9366
:103540001697A28D8A9FD0011124A75EB84EB58729
:10355000A4878C918F5F8C93928DE0918717F09167
:103560008817828D891718F481E08093D116DF9136
:10357000CF9108950FB6F8940F922091D016FC01C8
:1035800020834091D8165091D9166091DA16709127
:10359000DB1641835283638374830F900FBE0895BB
:1035A0002091D016FC0120834091D8165091D91655
:1035B0006091DA167091DB164183528363837483C2
:1035C00008958F929F92AF92BF92CF92DF92EF9227
:1035D000FF920F931F93CF93DF93FB010FB6F894E5
:1035E0000F92C090D816D090D916E090DA16F090CD
:1035F000DB16DC0111960D911D912D913C911497D4
:1036000046015701801A910AA20AB30A40815181EA
:10361000628173814F3FBFEF5B076B077B0739F117
:10362000EC01B881A091D016BA1759F0C016D10696
:10363000E206F30630F0108211821282138281E0DA
:1036400017C084169506A606B70658F448195909F6
:103650006A097B094083518362837383A1DF80E021
:1036600007C0108211821282138281E001C080E0C3
:103670000F900FBEDF91CF911F910F91FF90EF90B0
:10368000DF90CF90BF90AF909F908F90089581E092
:103690008093D11608958091871790918817089587
:1036A0008091D616882331F08091C816811104C00C
:1036B00082E0089581E0089580E008950F931F93BC
:1036C000CF93DF93FC01892B09F477C0828DA09101
:1036D0008717B09188175A969C91891708F063C094
:1036E0004685578560897189772394F0A091871763
:1036F000B09188175A969C914AE050E060E070E0E3
:10370000491B51096109710946875787608B718B85
:10371000248535854BE0849FC0011124875E984E37
:1037200028173907B9F5EF018F010E5F1F4FC80148
:103730000E94250BE0918717F0918817E28DEA8FA0
:103740008091D7168E1710F4E093D7168BE08E9FDA
:10375000F0011124E75EF84E0180F281E02DFF8335
:10376000EE832681378139872887A681B781159610
:103770001C930E93149717830683EA8D8E9FF00196
:103780001124E75EF84EFD87EC8780818F5F808390
:1037900081E016C0A0918717B09188175A968C9136
:1037A000828F81E00DC095A5E0918717F091881771
:1037B000828D981720F080E003C080E001C081E096
:1037C000DF91CF911F910F9108950F931F93CF9386
:1037D000DF93FC01892B09F449C086A5815086A797
:1037E000228D95A5291709F443C0811143C0EF012B
:1037F0008F010E5F1F4FC8010E94250BEDA5EA8FB8
:103800008AE090E0A0E0B0E08E1B9109A109B10927
:103810008E879F87A88BB98B8091D7168E1710F44F
:10382000E093D7168BE08E9FF0011124E75EF84EEF
:103830000180F281E02DFF83EE8326813781398775
:103840002887A681B78115961C930E93149717832A
:103850000683EA8D8E9FF0011124E75EF84EFD8706
:10386000EC8780818F5F808381E005C080E003C0AA
:1038700080E001C080E0DF91CF911F910F9108950A
:103880000F931F93CF93DF93FC01892B09F45AC048
:1038900085A5861708F4862F928D891709F452C0E2
:1038A00026A5213009F04EC0828F46855785608954
:1038B0007189772364F04AE050E060E070E0481BD3
:1038C00051096109710946875787608B718B24857F
:1038D00035854BE0949FC0011124875E984E2817D0
:1038E000390781F5EF018F010E5F1F4FC8010E945C
:1038F000250BEA8D8091D7168E1710F4E093D7161A
:103900008BE08E9FF0011124E75EF84E0180F2817A
:10391000E02DFF83EE832681378139872887A681B2
:10392000B78115961C930E93149717830683EA8D1F
:103930008E9FF0011124E75EF84EFD87EC878081B1
:103940008F5F8083DF91CF911F910F910895CF9268
:10395000DF92EF92FF92E0918717F09188176685CA
:10396000778580899189E0918717F0918817A091D8
:103970008717B09188175A962C910F2EFAE0CF2E08
:10398000D12CE12CF12CF02DC21AD108E108F1085C
:10399000C686D786E08AF18AFF90EF90DF90CF90BD
:1039A00008958091871790918817892B39F0E091BD
:1039B0008717F091881786A58F5F86A78091871754
:1039C0009091881708954F925F926F927F92AF9275
:1039D000BF92CF92DF92EF92FF920F931F93CF93FC
:1039E000DF93280139010FB6F8940F92E091871701
:1039F000F0918817C82FD0E0EC0FFD1F83A982300B
:103A000079F1E0918717F0918817CE01880F991FFF
:103A1000880F991FE80FF91F87A590A9A1A9B2A93E
:103A20004095509560957095482359236A237B23D0
:103A300047A750AB61AB72ABE0918717F091881745
:103A4000EC0FFD1F81E083ABA114B104C104D104CC
:103A500039F041E0C601B5010E94A7140E94A10BF4
:103A60000F900FBE0FB6F8940F92E114F104A1F07D
:103A7000E0918717F0918817CE01880F991F880F62
:103A8000991FE80FF91F87A590A9A1A9B2A9F7016D
:103A900080839183A283B383E0918717F091881785
:103AA000EC0FFD1F83A98230E9F4E0918717F091B4
:103AB0008817CE01880F991F880F991FE80FF91FEB
:103AC00087A590A9A1A9B2A940945094609470943C
:103AD000482259226A227B2247A650AA61AA72AACA
:103AE00081E001C080E02091871730918817C20FD4
:103AF000D31F1BAA0F900FBEDF91CF911F910F9183
:103B0000FF90EF90DF90CF90BF90AF907F906F903D
:103B10005F904F9008958F929F92AF92BF92EF92D5
:103B2000FF920F93CF93DF93DC010FB6F8940F92BF
:103B3000E114F10489F0E62FF0E0EE0FFF1FEE0F25
:103B4000FF1FE80FF91F87A490A8A1A8B2A8F7014A
:103B500080829182A282B38270E0FD01E60FF71F9E
:103B600083A992E093AB023001F118F4013031F0F7
:103B70004DC0033079F10430D1F148C0660F771F92
:103B8000660F771FFD01E60FF71F87A490A8A1A875
:103B9000B2A8BA01A901482959296A297B2947A74E
:103BA00050AB61AB72AB01E034C0660F771F660F9C
:103BB000771FFD01E60FF71F47A550A961A972A95C
:103BC0004F5F5F4F6F4F7F4F47A750AB61AB72ABFB
:103BD00001E01FC0660F771F660F771FFD01E60F1C
:103BE000F71F27A730AB41AB52AB01E012C08230C8
:103BF00079F0660F771F660F771FFD01E60FF71F3D
:103C000027A730AB41AB52AB01E003C001E001C0DC
:103C100000E0813009F069C01C96ED91FC911D9780
:103C20001696CD91DC91179718968D919C911997C6
:103C30009F838E831896CD91DC91199716968D915E
:103C40009C9117979D838C83818192819D012E5F2A
:103C50003F4F8217930731F418968D919C911997D5
:103C6000928381831D961C921E921C9780818150A5
:103C700080835A96EC915A978091D7168E1710F43C
:103C8000E093D7168BE08E9FF0011124E75EF84E8B
:103C90000180F281E02D1796FC93EE9316974681F2
:103CA000578119965C934E931897C681D7813D83AF
:103CB0002C83378326835A96EC915A978E9FF00176
:103CC0001124E75EF84E1D96FC93EE931C978081BD
:103CD0008F5F80835A969C91E0918717F0918817A7
:103CE000828D891710F40E94A10B0F900FBE802FB8
:103CF000DF91CF910F91FF90EF90BF90AF909F9089
:103D00008F9008958F929F92AF92BF92CF92DF9241
:103D1000EF92FF920F93CF93DF93DC01E114F10454
:103D200089F0E62FF0E0EE0FFF1FEE0FFF1FE80F08
:103D3000F91F87A490A8A1A8B2A8F7018082918258
:103D4000A282B38270E0FD01E60FF71F93A982E023
:103D500083AB023001F118F4013031F04DC0033073
:103D600079F10430D1F148C0660F771F660F771FD5
:103D7000FD01E60FF71F87A490A8A1A8B2A8BA0179
:103D8000A901482959296A297B2947A750AB61AB6A
:103D900072AB81E034C0660F771F660F771FFD019D
:103DA000E60FF71F47A550A961A972A94F5F5F4FA2
:103DB0006F4F7F4F47A750AB61AB72AB81E01FC025
:103DC000660F771F660F771FFD01E60FF71F27A706
:103DD00030AB41AB52AB81E012C0923079F0660F4C
:103DE000771F660F771FFD01E60FF71F27A730AB80
:103DF00041AB52AB81E003C081E001C080E0913073
:103E000009F096C09091C81691115FC01C96ED9173
:103E1000FC911D971696CD91DC91179718962D91D0
:103E20003C9119973F832E831896CD91DC91199779
:103E300016962D913C9117973D832C834181528199
:103E40009D012E5F3F4F4217530731F418964D9155
:103E50005C911997528341831D961C921E921C9768
:103E60009081915090835A96EC915A979091D716E1
:103E70009E1710F4E093D7169BE09E9FF00111244B
:103E8000E75EF84E0180F281E02D1796FC93EE93E9
:103E900016974681578119965C934E931897C68161
:103EA000D7813D832C83378326835A96EC915A978A
:103EB0009E9FF0011124E75EF84E1D96FC93EE9351
:103EC0001C9790819F5F908321C064EF76E1FB0196
:103ED000C181D2815396DC93CE9352972E813F813C
:103EE00055963C932E9354974E815F819D01225F9E
:103EF0003F4FFA01358324833F832E8359967C9369
:103F00006E935897FB0190819F5F90835A962C91F6
:103F1000E0918717F0918817928D921748F4C11499
:103F2000D10419F091E0F601908391E09093D116BD
:103F3000DF91CF910F91FF90EF90DF90CF90BF90E6
:103F4000AF909F908F900895009721F480918717EC
:103F5000909188170FB6F8940F9270E0FC01E60F6D
:103F6000F71F23A9223031F4FC01E60FF71F13AA33
:103F700081E001C080E00F900FBE0895DC01E09168
:103F80009317F0919417808191E0811190E09C93B8
:103F9000911108C00780F085E02D608171818281D8
:103FA0009381089560E070E0CB010895CF92DF9295
:103FB000EF92FF920F931F93FC014283538364831C
:103FC0007583938782870417150726073707C0F084
:103FD0000C191D092E093F0986859785A089B1898D
:103FE000081719072A073B0700F5BF016E5F7F4FCF
:103FF00080919117909192170E94E80A80E018C072
:104000000C151D052E053F0528F44C155D056E05A4
:104010007F0568F4BF016E5F7F4F80919317909189
:1040200094170E94E80A80E003C081E001C081E0AB
:104030001F910F91FF90EF90DF90CF9008950FB6F2
:10404000F8940F9280918F1790919017892BE9F433
:1040500080EA97E10E94D30A85E997E10E94D30A9A
:1040600080EA97E1909394178093931785E997E1FD
:10407000909392178093911740E067E08AE00E9446
:10408000960D9093901780938F170F900FBE089501
:10409000EF92FF920F93D3DF80918F17909190173B
:1040A000892B91F00F2EFDE8EF2EF7E1FF2EF02D7A
:1040B00003E020E030E040EC50E067E176E088ED9E
:1040C00090E00E94491501C080E00F91FF90EF90B1
:1040D00008958F929F92AF92BF92CF92DF92EF920C
:1040E000FF920F931F93CF93DF93CDB7DEB7279740
:1040F0000FB6F894DEBF0FBECDBFE0918F17F091E1
:104100009017309781F169832A833B834C835D83C9
:104110009F838E836630F4F4C3DA823069F400E062
:10412000A7019601BE016F5F7F4F80918F1790911D
:1041300090170E94B90D18C000E020E030E0A901FE
:10414000BE016F5F7F4F80918F17909190170E94F3
:10415000B90D0AC020E0A801BE016F5F7F4FCF01FB
:104160000E94690E01C080E027960FB6F894DEBF6A
:104170000FBECDBFDF91CF911F910F91FF90EF90B8
:10418000DF90CF90BF90AF909F908F9008958F92C7
:104190009F92AF92BF92CF92DF92EF92FF920F93D6
:1041A0001F93CF93DF933BC00780F085E02D808085
:1041B0009180A280B380C085D1858E010E5F1F4F94
:1041C000C8010E94250BEC89FD89CE0119958E89C5
:1041D00082FF25C08E859F85A889B989880D991D84
:1041E000AA1DBB1D88169906AA06BB0670F48A8311
:1041F0009B83AC83BD83DB87CA87B801809193170B
:10420000909194170E94E80A0AC0C12CD12C760123
:1042100000E010E0A501940160E0CE015ADFE091DA
:104220009317F091941780818111BECF80919117DF
:10423000909192179093941780939317F0939217FD
:10424000E0939117DF91CF911F910F91FF90EF9025
:10425000DF90CF90BF90AF909F908F900895CF92B6
:10426000DF92EF92FF92CF93DF93EC010E94D31580
:104270006B017C018091891790918A17A0918B170F
:10428000B0918C17C816D906EA06FB0620F47FDF2A
:1042900081E0888301C01882C0928917D0928A1762
:1042A000E0928B17F0928C17C701B601DF91CF9186
:1042B000FF90EF90DF90CF9008954F925F926F92B2
:1042C0007F928F929F92AF92BF92CF92DF92EF92A6
:1042D000FF920F931F93CF93DF934B015C01290152
:1042E0003A01E0919317F09194170780F085E02D43
:1042F000C085D185CE0102960E94250B8E8982FF52
:104300001BC04E855F8568897989480D591D6A1DD6
:104310007B1D7501640193018201CE0147DE882374
:1043200069F0C12CD12C760100E010E0A5019401C8
:1043300060E0CE01CEDE02C08E7F8E8BEC89FD89DF
:10434000CE011995DF91CF911F910F91FF90EF90C2
:10435000DF90CF90BF90AF909F908F907F906F90A5
:104360005F904F9008958F929F92AF92BF92CF929D
:10437000DF92EF92FF921F93CF93DF931F92CDB7FF
:10438000DEB76B017C01142F0E94CD15CE01019682
:1043900066DF4B015C01898181112DC011110DC0B7
:1043A0008C149D04AE04BF0440F00E940D17A501BB
:1043B0009401C701B60181DF20C0112341F0E091D3
:1043C0009117F0919217808111E0811110E0B701EF
:1043D000A601481959096A097B09212F80918F1775
:1043E000909190170E94E40F0E940D17811105C053
:1043F0000E94A10B02C00E940D170F90DF91CF9178
:104400001F91FF90EF90DF90CF90BF90AF909F9063
:104410008F900895AF92BF92CF92DF92EF92FF926A
:104420000F931F93CF93DF93CDB7DEB728970FB6C7
:10443000F894DEBF0FBECDBF82C0898188230CF403
:104440007EC0AE80BF80D5011C968D919C911D973A
:10445000892B21F0C50102960E94250BCE010896FA
:10446000FEDE8B019C01E9810E2E000CFF0BEA3071
:10447000F10508F064C08827EE58FF4F8F4F0C9469
:104480005137F50186898160868BCA80DB80EC809C
:10449000FD8046855785608971894C0D5D1D6E1DB7
:1044A0007F1DC50183DD882309F449C0D5015496D9
:1044B000ED91FC915597C5011995F501868982FF0B
:1044C0003EC04A815B816C817D8186859785A0890C
:1044D000B1899A01AB01280F391F4A1F5B1FC12CFC
:1044E000D12C760100E010E060E0C501F2DD27C0CC
:1044F000D50156968C9156978E7F56968C931FC0F9
:10450000F50186898160868B4A815B816C817D8122
:1045100046875787608B718B400F511F621F731F37
:1045200068017901C50142DD0AC0F501868981FD76
:1045300004C0C5010E94960A02C08E7F868B20E0CF
:1045400030E0A901BE016F5F7F4F80918F1790917E
:1045500090170E94A40E811170CF28960FB6F89480
:10456000DEBF0FBECDBFDF91CF911F910F91FF90A6
:10457000EF90DF90CF90BF90AF900895089584B1F1
:10458000806884B985B1806885B9089583B18068F1
:1045900083B90895F4DF2FEF80E792E02150804047
:1045A0009040E1F700C00000F1DFF5CFE8DF2FEF2A
:1045B00087EA91E6215080409040E1F700C000007A
:1045C000E5DFF5CF04D06894B11150C0089533D021
:1045D00088F09F5790F0B92F9927B751A0F0D1F0EC
:1045E000660F771F881F991F1AF0BA95C9F712C076
:1045F000B13081F03AD0B1E0089537C0672F782FFD
:104600008827B85F39F0B93FCCF3869577956795E1
:10461000B395D9F73EF490958095709561957F4F4D
:104620008F4F9F4F089557FD9058440F551F59F0D5
:104630005F3F71F04795880F97FB991F61F09F3F8F
:1046400079F087950895121613061406551FF2CFB8
:104650004695F1DF08C0161617061806991FF1CF08
:1046600086957105610508940895E894BB2766272F
:104670007727CB0197F9089581B38F6081BB289884
:10468000289A21B381E090E00090DC1702C0880FE7
:10469000991F0A94E2F78095822381BBE091AB17C2
:1046A000F091AC17309709F019950895CF93DF93E7
:1046B000EC01FC0101900020E9F73197E81BF90BB0
:1046C000E093B117E13208F47DC018A20E94F738D8
:1046D0008091B1178530E0F444E050E0481B510967
:1046E0001416150674F480E090E020E02F5FFC01C2
:1046F000EE54F84E1082822F90E084179507B4F3A1
:1047000001C020E01092AE1791E0920F20E02EC081
:10471000E2EBF7E110821182128223E0F5CFFE0175
:10472000E40FF51FA08130ED3A0F3A3050F4E82F36
:10473000F0E0EE54F84EB0E0A151BA4F8C91808376
:1047400013C03FEB3A0F363050F4E82FF0E0EE5450
:10475000F84EB0E0A851BA4F8C91808305C0E82F85
:10476000F0E0EE54F84E10822F5F9F5F8FEF890FBD
:10477000422F50E0FE0101900020E9F73197EC1B39
:10478000FD0B4E175F0758F22091B117253010F13D
:10479000E82FF0E0EE54F84E1082E92FF0E0EE54EE
:1047A000F84E1082E1E0E90FF0E0EE54F84E10828E
:1047B0009E5F9093AE171092AD171092B0171092A3
:1047C000AF1708C00E94F7388091B117853008F400
:1047D00083CF9ECFE8EDF7E1A2EBB7E18C91808328
:1047E00011968C911197818312968C9112978283E6
:1047F00013968C918383DF91CF91089585B5856061
:1048000085BD089585B5887F85BD81B38F6081BBE7
:1048100008958F92AF92CF92EF920F931F93CF9301
:10482000DF93EC0180B38F6080BB81B38F6081BB6D
:10483000209A8CE393E29F938F93812CA12CC12C1F
:10484000E12C00E010E020E240E063E080E10E9423
:10485000D02E9093DE178093DD1789E187BD84B554
:10486000826084BDEEE6F0E0808182608083CADFF2
:10487000D093AC17C093AB170F900F90DF91CF91EF
:104880001F910F91EF90CF90AF908F9008951F924E
:104890000F920FB60F9211240BB60F922F933F93E6
:1048A0004F935F936F937F938F939F93AF93BF9338
:1048B000EF93FF938091AE17882369F12091AF1792
:1048C0003091B017253F91E0390738F42F5F3F4F03
:1048D0003093B0172093AF171EC01092B0171092EC
:1048E000AF17E091AD172E2F30E090E00497281716
:1048F000390714F4EF5F01C0E0E0E093AD17F0E09A
:10490000EE54F84EA8EDB7E12CED37E181918D938F
:10491000A217B307D9F78091DC1790E00196837056
:104920009078992324F401978C6F9F6F0196809360
:10493000DC179927FC01E852F84E60816095809160
:10494000DD179091DE170E94A72FFF91EF91BF9185
:10495000AF919F918F917F916F915F914F913F9117
:104960002F910F900BBE0F900FBE0F901F901895B8
:104970006530F1F4FA0180818F7390E0982F8827D9
:104980002181822B90930A02809309028281F0E4B4
:104990008F9FC0011124FA01238126952695822B31
:1049A000909308028093070281E08093DF170895B7
:1049B000643051F080E090E4909308028093070205
:1049C00090930A028093090208950F931F9308EBB6
:1049D00014E220E034E244EF50E060E087E20E941D
:1049E000C1339093E1178093E01721E0892B09F000
:1049F00020E0822F1F910F9108958091E0179091F0
:104A0000E117009759F040E060E070E00E94123436
:104A1000843031F41092DF1780E0089582E0089529
:104A200083E008958091E0179091E117009739F0A5
:104A300064E00E945E34853021F083E0089582E0D6
:104A4000089580E008956091090270910A0280E063
:104A500090E00E943C3620E030E048EC52E40E94B6
:104A6000A53620E038EF4FE756E40C94D135089591
:104A7000609107027091080280E090E00E943C364D
:104A800020E030E045E253E40E94A53620E038EF14
:104A90004FE756E40E94D13520E030E040E252E496
:104AA0000C946A350895E4DF20E030E040E251E400
:104AB0000E94A53687DDCB0108950F931F93CF93F6
:104AC000DF931F921F92CDB7DEB78C0119822DC0E4
:104AD000E0911918EC3250F481E08E0F8093191890
:104AE000F0E0E55BF74E8A81808302C010921918CE
:104AF0008A818A30D1F44091191850E0FA01E75BBD
:104B0000F74E1082415051099E012F5F3F4F6BE4D9
:104B100078E180911C1890911D180E946A12898179
:104B200081110E94A10B10921918BE016E5F7F4F78
:104B3000C8013ED6882361F20F900F90DF91CF918C
:104B40001F910F9108950F931F93CF93DF938C01C3
:104B5000EB0180911C1890911D180E947511B801ED
:104B600082EE97E10E94D838209779F0E2EEF7E1E3
:104B700001900020E9F7319780E290E091838083F3
:104B8000BE0182EE97E10E94CD38E2EEF7E1DF014F
:104B90000D900020E9F711978DE09AE011969C9313
:104BA0008E9312961C9201900020E9F73197E25EF5
:104BB000F741AE2F82EE97E1AC016A2F80911E186B
:104BC00090911F18A0D5811111C008E215E020E0D6
:104BD00030E04DE250E065EA78E180911C18909158
:104BE0001D180E94AE1285EA98E102C080E090E0B4
:104BF000DF91CF911F910F9108952F923F924F9285
:104C00005F926F927F928F929F92AF92BF92CF925C
:104C1000DF92EF92FF920F931F93CF93DF935C018C
:104C2000FC0101900020E9F731976F01C81AD90AF9
:104C30005C2C0F2EF8EC8F2EF8E09F2EF02DE12C3F
:104C4000F12C4C2C3701F40101811281E80109900B
:104C50000020E9F72197C01BD10B3C2EF9E0CF16BD
:104C6000D10458F0F4012080FEE02F1206C0B801F4
:104C7000C5010E94A838892B09F5442D351408F484
:104C80004C2F50E0B801C5010E94DF38892B49F450
:104C9000F301EE0FFF1FE60DF71DE853F74F2080DD
:104CA0000DC08FEFE81AF80AE3E08E0E911CF1E1D7
:104CB000EF16F10439F66894222424F8822DDF914E
:104CC000CF911F910F91FF90EF90DF90CF90BF9009
:104CD000AF909F908F907F906F905F904F903F909C
:104CE0002F90089530DF89CF089580911C189091FE
:104CF0001D180C94751108958F929F92AF92CF92C8
:104D0000EF920F931F93CF93C82F8B0141E060E088
:104D100070E088EC90E00E94431190931D188093FE
:104D20001C1810931B1800931A180F2EFDE58F2ED8
:104D3000F5E29F2EF02D6894AA24A6F86894CC245E
:104D4000C6F8E12C00E023E040E051EE60E070E0C6
:104D50008C2F06D490931F1880931E18E7E0F1E083
:104D6000808180618083CF911F910F91EF90CF90D0
:104D7000AF909F908F900895882331F0E8E0F1E0A4
:104D800080818F7E80830895E8E0F1E080818061FA
:104D90008083089560E070E08EE496E0D4DEE5EA7A
:104DA000F8E101900020E9F73197E55AF84181E0F8
:104DB000759708F080E00895CF93DF93EC0160E0F1
:104DC00070E08FE596E0BFDEE5EAF8E101900020B3
:104DD000E9F7E65BF84139F465EA78E1CE010E9433
:104DE000D83880E002C0188281E0DF91CF91089529
:104DF000FC0101900020E9F79F012151310928179A
:104E0000390729F4BC018DE896E06CCF089589E05C
:104E10000895FC0101900020E9F79F01215131091B
:104E20002817390729F4BC018CE996E05BCF089577
:104E300089E00895FC0101900020E9F79F012152CB
:104E400031092817390729F4BC018BEA96E04ACFCB
:104E5000089589E0089560E070E08AEE96E042CF20
:104E600008950F931F93E82FF0E0EE0FFF1FEC5310
:104E7000F74F6081718183EF96E034DF811114C0B8
:104E800008E215E020E030E04DE250E065EA78E12C
:104E900080911C1890911D180E94AE12882321F059
:104EA00085EA98E1AADE03C085EA98E1A6DE1F91B3
:104EB0000F9108950F931F93CF93DF931F92CDB758
:104EC000DEB7DB0111969C911197953108F0B4C0C3
:104ED000992381F160E070E0272F30E0462F50E009
:104EE000FD01E40FF51F928192959F709A3010F0AA
:104EF000995C01C0905DF901EA5CF74E90832F5FE9
:104F00003F4FFD01E40FF51F92819F70492F50E044
:104F10004A30510514F0995C01C0905DF901EA5CDA
:104F2000F74E90837E5F6F5F11969C911197691782
:104F300098F201C070E0E72FF0E0EA5CF74E1082D3
:104F40004C91811103C08CEF96E002C08EEF96E089
:104F500026E338E13F932F931F924F939F938F93B4
:104F600082E097E09F938F9388E798E19F938F93D8
:104F70000E94443960E070E088E798E1B3DE0FB644
:104F8000F894DEBF0FBECDBF811159C008E215E015
:104F900020E030E04DE250E065EA78E180911C18B5
:104FA00090911D180E94AE12882309F447C085EA2B
:104FB00098E123DE8E3009F042C087E0898380913A
:104FC0001A1890911B18892BA9F1BE016F5F7F4FB2
:104FD00085EA98E168D180932018E981F0E0EB55EB
:104FE000F74EDF010D900020E9F71197AE1BBF0BC4
:104FF000AA2391F0BB27CD0101979C0112F42F5FEA
:105000003F4F3595279520932118AF014F5F5F4F94
:1050100064E182E298E173D101E010E020E030E049
:1050200046E150E060E278E180911A1890911B18F7
:105030000E94A5118EE003C084E101C080E00F90C2
:10504000DF91CF911F910F910895813019F062E1A6
:1050500077E002C06BEE77E086E197E043CE0895FB
:105060009F938F9387E497E09F938F9388E798E1CE
:105070009F938F930E94443960E070E088E798E145
:1050800031DE0F900F900F900F900F900F900895BA
:105090002F923F924F925F926F927F928F929F9248
:1050A000AF92BF92CF92DF92EF92FF920F931F9336
:1050B000CF93DF93CDB7DEB7A0970FB6F894DEBFDE
:1050C0000FBECDBF64E777E080E897E03CDD95DD7B
:1050D0008111A3C080E2E2E2F2E0DE0111960190CC
:1050E0000D928A95E1F79E012F5F3F4F6901E12CF8
:1050F000F12C0F2EFCE8AF2EF7E0BF2EF02D08E7C5
:1051000018E10F2EF5EA4F2EF7E05F2EF02D0F2E4F
:10511000FCEB8F2EF7E09F2EF02D0F2EF6ED6F2E6D
:10512000F7E07F2EF02D3E2C2F2CFF92EF92BF92B6
:10513000AF921F930F930E94443960E070E0C80162
:1051400002DD5BDD0F900F900F900F900F900F908E
:10515000811163C032E03E15E8F4F60183818F933C
:1051600082818F9381818F9380818F93FF92EF92C1
:105170005F924F921F930F930E94443960E070E05A
:10518000C801E1DC3ADD0FB6F894DEBF0FBECDBF3B
:10519000811143C02F923F929F928F921F930F9342
:1051A0000E94443960E070E0C801CDDC26DD0F903C
:1051B0000F900F900F900F900F9081112EC02F9293
:1051C0003F927F926F921F930F930E94443960E049
:1051D00070E0C801B8DC11DD0F900F900F900F90B8
:1051E0000F900F90811119C03FEFE31AF30A84E08A
:1051F000C80ED11C98E0E916F10409F094CF60E0E4
:1052000070E08EEE97E09FDCF8DC811106C060E074
:1052100070E08FEF97E097DCF0DCA0960FB6F89483
:10522000DEBF0FBECDBFDF91CF911F910F91FF90D9
:10523000EF90DF90CF90BF90AF909F908F907F9036
:105240006F905F904F903F902F900895EF92FF9254
:105250000F931F93CF93DF93EC018B017A0181E0D1
:10526000F4DE81110DC0CE01D4DD811109C0C80169
:10527000E1DD811105C0C701BBDD811101C0EBDD9E
:10528000DF91CF911F910F91FF90EF90089590E0E3
:10529000FC01EE0FFF1F8E0F9F1FFC01E853F74F1D
:1052A000818192810895DC01009729F1FB01208121
:1052B000FC0101900020E9F73197E81BF90B822FE0
:1052C00090E0E817F907C8F080E008C0880F382F91
:1052D000330F330F830F8053890F2F5FFD01E20FD0
:1052E000F11D908130ED390F3A3010F49111EECF6D
:1052F000FB012083089580E0089580E008950F93D6
:105300001F93CF93DF93DC01EA012097E1F1FA01CB
:1053100001900020E9F73197E41BF50B329710F567
:1053200032C08D01040F151F30E0AE01420F531F34
:10533000FA019081913428F09753592F5295507F5C
:1053400003C0592F5295507F2C0F3D1FF9019181B9
:10535000913410F0975301C09053950FF80190834A
:105360008F5F01C080E0282F220F482F50E0FE0100
:1053700001900020E9F73197EC1BFD0B4E175F07FA
:1053800010F48613CECFDF91CF911F910F91089526
:105390008091D518860F8093D5189091D8189130A8
:1053A00079F028F09230A9F0933019F108956F3F09
:1053B00009F048C01092D51881E08093D81808955C
:1053C000663809F03FC01092D41882E08093D81854
:1053D0000895E091D41881E08E0F8093D418F0E006
:1053E000EE52F74E6083823069F583E08093D818DF
:1053F00008959091D41821E0290F2093D418963065
:1054000009F581110EC0E2EDF8E1808190E0982F5E
:1054100088272181820F911D9093DA188093D918E3
:1054200004C01092DA181092D9181092D818E0918E
:10543000D618F091D718309729F08091D91890910B
:10544000DA18199508958F929F92AF92CF92EF92AA
:105450000F930F2EF8EC8F2EF9E29F2EF02D68940B
:10546000AA24A4F86894CC24C4F8E12C00E023E03A
:1054700040E855E260E070E073D09093DC188093D0
:10548000DB180F91EF90CF90AF909F908F90089581
:105490009093D7188093D6180895CF93DF93CDB704
:1054A000DEB729970FB6F894DEBF0FBECDBF89E0F7
:1054B000E2E4F2E09E012F5F3F4FD90101900D928F
:1054C0008A95E1F71092DA181092D9188091DB18BA
:1054D0009091DC18009731F0422F532F69E013D1DF
:1054E00080E001C082E029960FB6F894DEBF0FBEBF
:1054F000CDBFDF91CF91089565360CF064E66C392D
:105500000CF46CE996EF6902B00111246854744FF1
:10551000811105C07093290160932801089570934B
:105520002B0160932A010895EAE0F1E0808188610F
:1055300080838FE39CE9909327018093260160E0AC
:1055400080E0DADF60E081E0D7DFE0E2F1E0808157
:10555000826A8083E1E2F1E080818A61808308953C
:105560002F923F924F925F926F927F928F929F9273
:10557000AF92CF92EF92FF920F931F93CF93DF934F
:10558000CDB7DEB7F82E2A013B0188E090E00E94FB
:1055900073378C018F2D90E0FC01EE0FFF1FE3525B
:1055A000F74E118300830115110509F46FC0880FB0
:1055B000991FFC01E55FFD4F80819181D8018D939A
:1055C0009C938C2D90E0880F991F880F991F0E9443
:1055D00073371C0186E090E00E9473377C014C2DEC
:1055E000B1010E944E35F801F582E4828A2D90E0E7
:1055F000880F991F880F991F0E9473371C0186E03E
:1056000090E00E9473377C014A2DB1010E944E3513
:10561000D8011396FC92EE92129717969C928E9256
:105620001697FFB6F894ED91FC911197369780810B
:10563000826080838D909C90C301B2010E943C36B1
:1056400020E030E040E051E40E94A5369B01AC012F
:1056500060E074E284E79BE40E94D13520E030E012
:1056600040E85FE30E946A350E94E722F401329726
:105670006083D801ED91FC911197359788E980837B
:10568000ED91FC91349786E08083FFBEC801DF91E5
:10569000CF911F910F91FF90EF90CF90AF909F907F
:1056A0008F907F906F905F904F903F902F900895D4
:1056B000CF93DF93DC01892B01F11296ED91FC91E0
:1056C0001397938182812581981B92238481981757
:1056D000B1F0838126952823C081D181C20FD11DCD
:1056E00068838F5F958189238383ED91FC91359742
:1056F00080818062808380E003C081E001C082E01D
:10570000DF91CF910895EF92FF920F931F93CF9364
:10571000DF937C01009709F441C0DC011296ED9102
:10572000FC91139793818281981B858198238481B2
:10573000891B8617A8F1662341F1842F952FDC0180
:105740006150462F50E04F5F5F4F480F591FE701F0
:10575000EA81FB81938182812581981B9223848138
:10576000981779F08C919381269529236081718116
:105770008B01020F111DE80188839F5F85819823AB
:1057800093831196A417B50711F7D701ED91FC91FA
:10579000359780818062808380E003C081E001C012
:1057A00082E0DF91CF911F910F91FF90EF900895CC
:1057B0000097D1F0DC011496ED91FC91159793813F
:1057C0008281981799F09281858186958923A0819D
:1057D000B181A80FB11D8C91DB018C939F5F8581F6
:1057E0009823928380E0089581E0089583E00895EE
:1057F0001F920F920FB60F9211240BB60F922F9398
:105800003F934F935F936F937F938F939F93AF9348
:10581000BF93CF93DF93EF93FF93A091DD18B091E7
:10582000DE18109711F16091C6001496ED91FC916D
:105830001597938182812581981B922384819817E3
:1058400061F0838126952823C081D181C20FD11DAB
:1058500068838F5F9581892383831696ED91FC91F0
:105860001797309711F0CD011995FF91EF91DF91C6
:10587000CF91BF91AF919F918F917F916F915F91E8
:105880004F913F912F910F900BBE0F900FBE0F9035
:105890001F9018951F920F920FB60F9211240BB6FE
:1058A0000F922F938F939F93AF93BF93EF93FF9399
:1058B000E091DD18F091DE183097B9F00280F381A5
:1058C000E02D938182819817B1F092818581282FF4
:1058D00026952923A081B181A20FB11D2C919F5F34
:1058E000892382832093C6000BC0E1ECF0E0808125
:1058F0008F7D808305C0E1ECF0E080818F7D808327
:10590000FF91EF91BF91AF919F918F912F910F9048
:105910000BBE0F900FBE0F901F9018951F920F9205
:105920000FB60F9211240BB60F922F933F934F9304
:105930005F936F937F938F939F93AF93BF93CF9317
:10594000DF93EF93FF93A091DF18B091E0181097C9
:1059500011F16091CE001496ED91FC911597938111
:1059600082812581981B92238481981761F083811D
:1059700026952823C081D181C20FD11D68838F5FF6
:105980009581892383831696ED91FC911797309723
:1059900011F0CD011995FF91EF91DF91CF91BF915A
:1059A000AF919F918F917F916F915F914F913F91B7
:1059B0002F910F900BBE0F900FBE0F901F90189558
:1059C0001F920F920FB60F9211240BB60F922F93C6
:1059D0008F939F93AF93BF93EF93FF93E091DF1863
:1059E000F091E0183097B9F00280F381E02D9381B7
:1059F00082819817B1F092818581282F26952923DD
:105A0000A081B181A20FB11D2C919F5F8923828358
:105A10002093CE000BC0E9ECF0E080818F7D808385
:105A200005C0E9ECF0E080818F7D8083FF91EF91EC
:105A3000BF91AF919F918F912F910F900BBE0F90BF
:105A40000FBE0F901F9018951F920F920FB60F92D6
:105A500011240BB60F922F933F934F935F936F9345
:105A60007F938F939F93AF93BF93CF93DF93EF93E6
:105A7000FF93A091E118B091E218109711F1609195
:105A8000D6001496ED91FC91159793818281258122
:105A9000981B92238481981761F08381269528238F
:105AA000C081D181C20FD11D68838F5F9581892309
:105AB00083831696ED91FC911797309711F0CD01E5
:105AC0001995FF91EF91DF91CF91BF91AF919F9188
:105AD0008F917F916F915F914F913F912F910F9097
