:10000000E5C0000003C1000001C10000FFC0000006
:10001000FDC00000FBC00000F9C00000F7C00000F8
:10002000F5C00000F3C00000F1C00000EFC0000008
:100030000C941C08EBC00000E9C00000E7C0000001
:10004000E5C00000E3C00000E1C00000DFC0000028
:10005000DDC00000DBC00000D9C00000D7C0000038
:10006000D5C000000C949C1B0C94EE1BCFC000006C
:10007000CDC00000CBC00000C9C00000C7C0000058
:10008000C5C00000C3C00000C1C00000BFC0000068
:100090000C94321C0C94841CB9C000000C94FC21FC
:1000A000B5C00000B3C00000B1C00000AFC0000088
:1000B000ADC00000ABC00000A9C00000A7C0000098
:1000C000A5C00000A3C00000A1C000000C94C81C83
:1000D0000C941A1D9BC000000C945E1D0C94B01D66
:1000E00095C00000D217D217D21709181118261878
:1000F000D217D217091811181E228E228E228E2294
:100100008E228E228E228E221E228E228E228E22DF
:100110008E228E228E228E2220228E228E228E22CD
:100120008E228E228E228E228E228E228E228E224F
:100130008E228E228E228E2220228E228E228E22AD
:100140008E228E228E228E228E228E228E228E222F
:100150008E228E228E228E228A228E228E228E2223
:100160008E228E228E228E2255228E228E228E2248
:100170008E228E228E228E228E228E228E228E22FF
:100180008E228E228E228E2249228E228E228E2234
:100190008E228E228E228E226D220E94140D80913C
:1001A0001715823008F083D60E944F18F6CFCF93F0
:1001B000DF931F92CDB7DEB7CE0101960E94521594
:1001C00049810E9447170E949B17F6CF11241FBE3A
:1001D000CFEFD1E2DEBFCDBF00E00CBF17E0A0E063
:1001E000B2E0E4EEF1E500E00BBF02C007900D9233
:1001F000AA30B107D9F726E1AAE0B7E001C01D9205
:10020000A131B207E1F797D00C94F028F9CE809194
:10021000F4159091F51508958091FA159091FB15BC
:100220000895DED29093FB158093FA15892B21F463
:1002300081E592E00E941326D3D29093F915809322
:10024000F815892B21F485E792E00C941326089584
:1002500041E060E070E08AE090E00E949D0B9093A6
:10026000FD158093FC1541E060E070E084E090E0D3
:100270000E949D0B9093FF158093FE1508958CE9C5
:1002800092E00E941326CDDF8FD1D9D0C8D134D2CD
:10029000DFCF0895EF92FF920F93E12CF12C03E052
:1002A00020E030E046E551E066EC72E088EC91E059
:1002B0000E94D70D02E020E030E044E251E062ED20
:1002C00072E087E292E00E94D70D20E030E044E245
:1002D00051E06AED72E088E193E00E94D70D20E0E2
:1002E00030E044E251E066EE72E08CED92E00E9474
:1002F000D70D20E030E044E251E06EEE72E08FE78F
:1003000093E00E94D70D20E030E044E251E068EF36
:1003100072E081E092E00E94D70D20E030E044E2FC
:1003200051E063E073E08CEE91E00E94D70D0F91F5
:10033000FF90EF90089580E00E94121E80E193E00C
:100340000E9413262FEF83ED90E3215080409040D0
:10035000E1F700C000008FE393E00E9413268CE6D3
:1003600093E00E94132696DF8AE993E00E94132609
:100370008CE693E00E94132682DF0E94220EFFCFBC
:1003800081B1816881B985E090E00C94191F0895CE
:10039000CF93DF9300D01F92CDB7DEB7F1DF0E947D
:1003A0005E0E69837A838B839C8389EA93E00E9443
:1003B00013268DEC93E00E9413262EDF47E050E0D9
:1003C00060E070E0C0D246EA5EE060E070E0CE013E
:1003D00001960E947410E9CFCF93DF9300D01F9253
:1003E000CDB7DEB70E945E0E69837A838B839C83D0
:1003F0004CE652E060E070E0CE0101960E9474107D
:10040000F7CFCF93DF9300D01F92CDB7DEB70E9416
:100410005E0E69837A838B839C838CEF93E00E94CA
:1004200013264CE652E060E070E0CE0101960E9497
:100430007410F3CF9093021680930116089583E011
:100440000E94C9198AE192E00C94EE190895CF93A5
:10045000DF9300D01F92CDB7DEB70E945E0E698396
:100460007A838B839C830E94F3198093001680917A
:1004700002168F93809101168F9383E094E09F93EF
:100480008F930E94002642EE54E060E070E0CE01BF
:1004900001960E9474100F900F900F900F90E3CF71
:1004A000CF93DF9300D000D0CDB7DEB7813009F015
:1004B00072C0CE0101960E94342081110FC08A8142
:1004C0008F9389818F938BE094E09F938F930E9409
:1004D00000260F900F900F900F9006C0833021F4EC
:1004E0008BE194E00E941326CE0101960E94082021
:1004F00081110FC08A818F9389818F9386E594E063
:100500009F938F930E9400260F900F900F900F9053
:1005100006C0833021F488E694E00E941326CE01C1
:1005200001960E94262081110FC08A818F938981B4
:100530008F938CE994E09F938F930E9400260F90F5
:100540000F900F900F9006C0833021F48FEA94E053
:100550000E941326CE0103960E944220811115C0ED
:100560008E818F938D818F938C818F938B818F93CD
:1005700084EE94E09F938F930E9400260F900F903B
:100580000F900F900F900F9006C0833021F480EFF2
:1005900094E00E94132626960FB6F894DEBF0FBE95
:1005A000CDBFDF91CF91089580E592E00C94C61FF6
:1005B00008950C94E11F0895CF93DF9300D01F920C
:1005C000CDB7DEB7F6DF0E945E0E69837A838B8338
:1005D0009C8322DE0F2EF2EECF2EF4E0DF2EE12CF4
:1005E000F12CF02D01E021E044E050E060E070E00B
:1005F0000AD161FF05C080E295E00E94132604C085
:100600008BE595E00E9413260E94F61F40E255E01C
:1006100060E070E0CE0101960E947410DACF0E9473
:10062000F518811104C086EA95E00C94132608950C
:100630000E940D19882321F083EC95E00E94132677
:100640006CE370E080E090E00E94D91082EE95E0CB
:100650000E9413260E945E0EDFDD0F2EF1E7CF2EE3
:10066000F2E0DF2EE12CF12CF02D01E021E042E060
:1006700050E060E070E0C7D061FF05C080E295E027
:100680000E94132604C08BE595E00E9413260E9469
:100690002219882321F084E096E00E94132662E06C
:1006A00070E080E090E00E94D9100E94631990935E
:1006B0000616809305160E9433190E9473186093E2
:1006C0000316709304167F936F93809106168F9391
:1006D000809105168F9388E296E09F938F930E94F6
:1006E000002688E496E00E9413260F900F900F904A
:1006F0000F900F900F90B0CF0C943A1A0895CF93AB
:10070000DF9300D01F92CDB7DEB70E945E0E6983E3
:100710007A838B839C838091F6159091F7150097CF
:10072000A9F148EE53E060E070E02DD7813051F53B
:100730006EDD7C0100E020E030E0A90160E070E0C7
:100740008091F6159091F715C9D580E796E00E9443
:1007500013268091060290910702E816F90629F403
:1007600088E996E00E94132611C08FEA96E09F93D5
:100770008F930E9400266E2D81E00E94221A0F9016
:100780000F9004C088ED96E00E94132641E752E0E6
:1007900060E070E0CE0101960E947410BCCF0F9310
:1007A00001110CC0DC01CB0182239323A423B523C8
:1007B000892B8A2B8B2B79F480E010C0DC01CB01D4
:1007C00082239323A423B523281739074A075B07FD
:1007D00021F080E003C081E001C081E00F91089525
:1007E000CF93DF938FE090E0AFD1EC01009739F029
:1007F000FC011192119211921192CF018AD2CE0175
:10080000DF91CF9108952F923F924F925F926F9216
:100810007F928F929F92AF92BF92CF92DF92EF9290
:10082000FF920F931F93CF93DF93EC014A015B017B
:10083000622E702E0E94580E288039804A805B807C
:10084000A5019401C201B101AADF8823A1F06620AD
:1008500089F1D501C40180959095A095B09582212C
:100860009321A421B52188839983AA83BB83C12CBA
:10087000D12C760122C0C114D104E104F104E9F0C5
:10088000611004C040E050E0BA0104C040E050E014
:1008900060E071E071107460482959296A297B2948
:1008A00097018601CE0104960E946F11212C312CF4
:1008B000210103C0C12CD12C76010E94980FCD28B4
:1008C000CE28CF2859F1811101C0F1D20E9416150E
:1008D0006B017C0191FD1FC00FB6F8940F92C88088
:1008E000D980EA80FB80072DA5019401C701B601DC
:1008F00056DF882371F0662061F080949094A09474
:10090000B0948C209D20AE20BF2088829982AA823C
:10091000BB820F900FBE160127015524C201B10101
:10092000DF91CF911F910F91FF90EF90DF90CF90CB
:10093000BF90AF909F908F907F906F905F904F90FF
:100940003F902F9008954F925F926F927F92AF9257
:10095000BF92CF92DF92EF92FF920F931F93CF93AC
:10096000DF93EC016A017B018C01095F1F4F0E943C
:10097000580EEB85FC8588819981AA81BB81C82AA4
:10098000D92AEA2AFB2AC882D982EA82FB82C12CB0
:10099000D12C76013DC0A480B58080819181A28157
:1009A000B381AC01BD017727B2FD0EC048805980EC
:1009B0006A807B8044225522662277224528462879
:1009C000472889F420E012C0488059806A807B80E3
:1009D000442255226622772244155505660577057F
:1009E00021F020E003C021E001C021E0222371F0CA
:1009F000B0FF04C0C42AD52AE62AF72A48815981C3
:100A00006A817B817260CF010E94AA12EA2DFB2DC0
:100A1000E017F10709F0BFCFC094D094E094F094B0
:100A200088819981AA81BB81C822D922EA22FB222E
:100A3000C882D982EA82FB820E94980F68817981FC
:100A40008A819B81DF91CF911F910F91FF90EF9051
:100A5000DF90CF90BF90AF907F906F905F904F905E
:100A60000895E6E1F7E0AAE1B7E0B183A08313823D
:100A70001282E2ECF4E1F0931507E093140713827D
:100A800012821182108288EA9DE013969C938E93C5
:100A90001297ED93FC939093110780931007909316
:100AA00013078093120780E090E890930B078093E0
:100AB0000A070895CF93DF93EC01A6E1B7E001C0E8
:100AC000DF01ED91FC911197EC17FD07C8F3129629
:100AD0008D919C9113979D01280F391FC217D30741
:100AE00049F42A813B81820F931F13969C938E9326
:100AF0001297ED018A819B819E01280F391FE21711
:100B0000F307C1F42091140730911507E217F3079A
:100B100071F022813381820F931F9B838A83ED9131
:100B2000FC911197808191819983888305C03983D5
:100B3000288302C0F983E883CA17DB0711F0CD933D
:100B4000DC93DF91CF910895EF92FF920F931F9363
:100B5000CF93DF938C010E94580E809114079091DF
:100B60001507892B09F47DDF80910A0790910B0707
:100B700080239123892B09F076C00115110549F0D6
:100B8000C80104960817190718F000E010E001C02A
:100B90008C010115110509F469C08091120790912B
:100BA00013078017910708F464C0C0911607D0910D
:100BB0001707E6E1F7E002C0FE01EC018A819B81A4
:100BC0008017910720F4888199810097A9F7809177
:100BD000140790911507C817D90709F44DC0E08094
:100BE000F18084E0E80EF11C8881998191838083F3
:100BF0002A813B81201B310B2930310548F0CE0181
:100C0000800F911FFC01338322831B830A8352DFF1
:100C10002A813B818091120790911307821B930BCD
:100C2000909313078093120740911007509111077A
:100C30008417950720F490931107809310078091F3
:100C40000A0790910B07282B392B3B832A831982A3
:100C5000188280910E0790910F07019690930F07CD
:100C600080930E070BC0E12CF12C08C0E12CF12C75
:100C700005C0E12CF12C02C0E12CF12C0E94980F50
:100C8000E114F10411F40E945B18C701DF91CF91C8
:100C90001F910F91FF90EF9008950F931F93CF93A3
:100CA000DF93009789F1EC0124974A815B812091C1
:100CB0000A0730910B07BA0162237323672B21F1D6
:100CC00068817981672B01F52095309524233523A0
:100CD0003B832A83EDD78A819B8120911207309133
:100CE0001307820F931F9093130780931207CE016F
:100CF000E1DE80910C0790910D07019690930D070E
:100D000080930C070E94980FDF91CF911F910F9154
:100D10000895FC010396928381834FEF5FEFBA0140
:100D20004383548365837683908787839287818703
:100D300010820895FC011386128608950F931F9365
:100D4000CF93DF93EB01088119812A813B810F3F0B
:100D50004FEF14072407340721F4FC01A185B28565
:100D600011C0DC01139601C0DF011496ED91FC91D6
:100D700015974081518162817381041715072607F9
:100D8000370790F71496ED91FC911597FD83EC834E
:100D9000D783C683BF83AE831596DC93CE93149717
:100DA0009B878A87FC0120812F5F2083DF91CF9171
:100DB0001F910F910895CF93DF93FC01A285B38516
:100DC000C481D581868197819F838E83C681D78197
:100DD000848195819D838C8311968D919C9112972E
:100DE000E817F90731F48681978112969C938E93C8
:100DF0001197138612868C9181508C938C91DF9180
:100E0000CF910895A89590EC88E10FB6F894A89535
:100E1000809360000FBE909360000895FC01608392
:100E2000319770833197108231971082319720E883
:100E300020833197108231971082319710827797F3
:100E400040833197508386970895DCDFA091851504
:100E5000B0918615CD91CDBFDD91DEBFFF91EF91B1
:100E6000DF91CF91BF91AF919F918F917F916F91C2
:100E70005F914F913F912F911F910F91FF90EF90B4
:100E8000DF90CF90BF90AF909F908F907F906F90AA
:100E90005F904F903F902F901F900F900CBE0F903F
:100EA0000BBE0F900FBE0F90089581E008950F9232
:100EB0000FB6F8940F920BB60F920CB60F921F92CA
:100EC00011242F923F924F925F926F927F928F9256
:100ED0009F92AF92BF92CF92DF92EF92FF920F93C9
:100EE0001F932F933F934F935F936F937F938F93B2
:100EF0009F93AF93BF93CF93DF93EF93FF93A09113
:100F00008515B09186150DB60D920EB60D920E9404
:100F1000F410A0918515B0918615CD91CDBFDD91CE
:100F2000DEBFFF91EF91DF91CF91BF91AF919F9184
:100F30008F917F916F915F914F913F912F911F9171
:100F40000F91FF90EF90DF90CF90BF90AF909F9068
:100F50008F907F906F905F904F903F902F901F9059
:100F60000F900CBE0F900BBE0F900FBE0F90089508
:100F70000F920FB6F8940F920BB60F920CB60F9219
:100F80001F9211242F923F924F925F926F927F9205
:100F90008F929F92AF92BF92CF92DF92EF92FF9289
:100FA0000F931F932F933F934F935F936F937F9371
:100FB0008F939F93AF93BF93CF93DF93EF93FF9361
:100FC000A0918515B09186150DB60D920EB60D92B5
:100FD00013BE82D681110E94F410A0918515B091A4
:100FE0008615CD91CDBFDD91DEBFFF91EF91DF91F1
:100FF000CF91BF91AF919F918F917F916F915F91B1
:101000004F913F912F911F910F91FF90EF90DF90A3
:10101000CF90BF90AF909F908F907F906F905F9098
:101020004F903F902F901F900F900CBE0F900BBED3
:101030000F900FBE0F9008959BDF1895DC0153961B
:101040002C915397222341F05A96ED91FC915B9796
:1010500090818AE0891B089580E008950FB6F89486
:101060000F92FC01868D811102C081E001C080E0F9
:101070000F900FBE08950FB6F8940F92FC01268DC5
:10108000878D281302C081E001C080E00F900FBE61
:1010900008950F931F93CF93DF93EC01042F1E8DC0
:1010A00048A141110CC088819981892B09F042C067
:1010B0008C819D810E9454141D821C8242C00111AA
:1010C00017C050E08A819B810E94F02528A18A8167
:1010D0009B81820F911D9B838A832C813D81821786
:1010E000930750F1888199819B838A8380E029C08E
:1010F00050E08E819F810E94F02588A190E091951B
:10110000819591092E813F81280F391F3F832E83BE
:10111000488159812417350730F42C813D81820F95
:10112000931F9F838E83023049F4112349F011509D
:1011300080E007C080E005C080E003C080E001C01F
:1011400080E01F5F1E8FDF91CF911F910F91089557
:10115000FC0140A14423A9F050E026813781240FEF
:10116000351F37832683848195812817390720F01E
:101170008081918197838683CB01668177810C94EE
:10118000F02508951F93CF93DF93EC010FB6F894E9
:101190000F921AA10BC08B89882351F0CE01439680
:1011A0000E94FB1181110E94BB13115011169CF378
:1011B0008FEF8AA30F900FBE0FB6F8940F9219A16C
:1011C0000BC08885882351F0CE0108960E94FB1140
:1011D00081110E94BB13115011169CF38FEF89A34C
:1011E0000F900FBEDF91CF911F910895CF93DF93A2
:1011F000EC010FB6F8940F92E881F9818F8D28A148
:1012000090E030E0829FA001839F500D929F500D8F
:1012100011244E0F5F1F5D834C831E8EFB83EA8378
:101220000197289FA001299F500D389F500D112430
:10123000CF01840F951F9F838E838FEF89A38AA38D
:1012400061110BC08885882371F0CE0108960E9439
:10125000FB11882341F02BDE06C0CE01089659DD34
:10126000CE01439656DD0F900FBE81E0DF91CF9106
:1012700008950F931F93F801611103C01183008338
:1012800002C051834083878F60A361E0CF01AEDF4E
:101290001F910F910895DF92EF92FF920F931F938A
:1012A000CF93DF93F82EE62ED42E869FC001112413
:1012B00083964ADCEC01009741F08C012D2DAC01A6
:1012C0004D5D5F4F6E2D8F2DD4DFCE01DF91CF911D
:1012D0001F910F91FF90EF90DF900895CF92DF92D2
:1012E000EF92FF920F931F93CF93DF93CDB7DEB7AB
:1012F00029970FB6F894DEBF0FBECDBF7C016B01FE
:101300002E833F834887598710E00FB6F8940F92D9
:10131000F701968D878D981710F00230B1F4402FA9
:10132000B601C701B6DEF7019389992341F0C701E1
:1013300043960E94FB11882321F0B9DD02C0811180
:10134000B6DD0F900FBE81E048C08E819F81A885D9
:10135000B985892B8A2B8B2B21F40F900FBE80E04F
:101360003CC0111105C0CE0101960E94441311E04A
:101370000F900FBE9DD40FB6F8940F92F70181A184
:101380008F3F09F411A2F70182A18F3F09F412A245
:101390000F900FBEBE016A5F7F4FCE0101960E9483
:1013A0005513811116C0C70166DE882371F04E8186
:1013B0005F8168857985C70108967AD7C701E2DE23
:1013C000B7D58111A2CF73DDA0CFC701DBDEB0D5C9
:1013D0009CCFC701D7DEACD580E029960FB6F89434
:1013E000DEBF0FBECDBFDF91CF911F910F91FF9058
:1013F000EF90DF90CF900895EF92FF920F931F939D
:10140000CF93DF938A01FC01568D378D531710F06F
:101410002230F1F4422F7801EC011AA18E8DCE0119
:1014200038DE1F3F79F48B898823A1F0CE014396E3
:10143000E2D7882389F0E114F10481F081E0F7011B
:1014400080830DC0FF24F394F10EFAA281E007C05F
:1014500080E005C081E003C081E001C081E0DF9150
:10146000CF911F910F91FF90EF900895CF92DF924F
:10147000EF92FF920F931F93CF93DF93CDB7DEB719
:1014800029970FB6F894DEBF0FBECDBF8C016B015C
:101490002E833F8348875987E12C0FB6F8940F922B
:1014A000F801F68CFF2091F0B601C80151DEFA94E4
:1014B000F801F68E8085882329F0C80108969BD70D
:1014C0008111F5DC0F900FBE81E04EC08E819F81AF
:1014D000A885B985892B8A2B8B2B21F40F900FBE01
:1014E00080E042C0E11006C0CE0101960E94441384
:1014F000EE24E3940F900FBEDBD30FB6F8940F9257
:10150000F80181A18F3F09F411A2F80182A18F3F58
:1015100009F412A20F900FBEBE016A5F7F4FCE0189
:1015200001960E945513811116C0C80197DD8823CA
:1015300071F04E815F8168857985C8014396B8D680
:10154000C80120DEF5D48111A8CFB1DCA6CFC80137
:1015500019DEEED4A2CFC80115DEEAD4C8017EDDC3
:10156000882309F49ACF80E029960FB6F894DEBF5D
:101570000FBECDBFDF91CF911F910F91FF90EF90E4
:10158000DF90CF900895EF92FF920F931F93CF9328
:10159000DF93CDB7DEB729970FB6F894DEBF0FBE45
:1015A000CDBF8C014E835F8368877987E12CF12C56
:1015B0000FB6F8940F92F801868D8823C1F0815000
:1015C000868F80819181892B29F40E944015F80132
:1015D00095838483F8018085882329F0C8010896C3
:1015E0000AD7811164DC0F900FBE81E06EC08E813E
:1015F0009F81A885B985892B8A2B8B2B21F40F908D
:101600000FBE80E062C0F11006C0CE0101960E94BC
:101610004413FF24F3940F900FBE4AD30FB6F894EF
:101620000F92F80181A18F3F09F411A2F80182A164
:101630008F3F09F412A20F900FBEBE016A5F7F4F69
:10164000CE0101960E945513811125C0C80106DD07
:101650008823E9F0F80180819181892B51F40FB63C
:10166000F8940F92848195810E94CD13E82E0F90FB
:101670000FBE4E815F8168857985C801439618D673
:10168000C80180DD55D4811193CF11DC91CFC80101
:1016900079DD4ED48DCFC80175DD4AD4C801DEDCBA
:1016A000882309F485CFEE2079F00FB6F8940F92D5
:1016B000C801C4DC682FF801848195810E94AF14B1
:1016C0000F900FBE80E001C080E029960FB6F8941D
:1016D000DEBF0FBECDBFDF91CF911F910F91FF9065
:1016E000EF900895CF93DF93EC010FB6F8940F922B
:1016F00089A18F3F09F419A28AA18F3F09F41AA288
:101700000F900FBE8E8D811103C0CE01439631D64E
:10171000CE0138DDDF91CF9108950F93FC018FE06A
:10172000DF011D928A95E9F77587648755834483A5
:101730003783268306870F910895CF92DF92EF9229
:10174000FF920F93CF93DF93EC016B01413011F4C3
:1017500001E001C000E0C114D10419F4CC24C39409
:10176000D12CCE014096C817D90720F42196ECD988
:101770007C0102C0E12CF12CE114F10439F0960156
:10178000AE01B701615F7F4FC701C7DFC701DF91BE
:10179000CF910F91FF90EF90DF90CF900895E0915F
:1017A000FF14F0910015808181110CC08FEF9FEF25
:1017B000DC018093C9149093CA14A093CB14B09306
:1017C000CC140895E091FF14F09100150780F08586
:1017D000E02D80819181A281B3818093C91490937F
:1017E000CA14A093CB14B093CC140895CF93DF9375
:1017F000EC018B8D9C8D51DACE014FDADF91CF91C8
:1018000008954F925F926F927F928F929F92AF92C4
:10181000BF92CF92DF92EF92FF920F93CF93DF931D
:101820002C015B014A013901E60165EA70E08B8D0C
:101830009C8D0E94F9258B8D9C8D21E0821A910848
:10184000880E991EA114B10489F415C0822F90E06E
:10185000F501E80FF91F3081DE01A80FB91F5D9671
:101860003C938081882329F02F5F01C020E0203144
:1018700068F31CA601C01D8E0A3008F009E00A8F2B
:101880000DA71EA6CE01029655DACE010E9652DAAB
:10189000DB87CA878AE090E0A0E0B0E0801B910976
:1018A000A109B1098E879F87A88BB98BDF8BCE8B5F
:1018B00084E0FE01BF96DF011D928A95E9F71BAA1D
:1018C000A301B201C401AADA99838883E114F10467
:1018D00019F0F701D183C083DF91CF910F91FF9071
:1018E000EF90DF90CF90BF90AF909F908F907F90C0
:1018F0006F905F904F900895CF93C0E008C02BE0A9
:10190000C29FC0011124895E9A4E03DACF5FCA30AC
:10191000B0F38CE095E1FDD981E095E1FAD982EF51
:1019200094E1F7D987EE94E1F4D98BED94E1F1D904
:101930008CE095E1909300158093FF1481E095E190
:101940009093FE148093FD14CF910895CF93DF936D
:10195000EC010FB6F8940F928091DA148F5F8093A8
:10196000DA148091851590918615892B51F4D093C6
:101970008615C09385158091DA14813091F4BCDF0F
:1019800010C08091D41481110CC0E0918515F091A4
:101990008615928D8A8D891720F0D0938615C09375
:1019A00085158091CD148F5F8093CD14EA8D809141
:1019B000D5148E1710F4E093D5148BE08E9FF001B0
:1019C0001124E95EFA4E0180F281E02DFF83EE835F
:1019D0002681378139872887A681B7819E012E5FAE
:1019E0003F4F15963C932E93149737832683EA8DA9
:1019F0008E9FF0011124E95EFA4EFD87EC8780810D
:101A00008F5F80830F900FBE8091D414882349F09C
:101A1000E0918515F0918615928D8A8D981708F4BE
:101A200046DADF91CF910895CF93DF931AC00FB6B6
:101A3000F8940F92E091EE14F091EF14C085D185E7
:101A4000CE010296B8D98091DA1481508093DA14CD
:101A50008091E61481508093E6140F900FBECE0162
:101A6000C5DE8091E6148111E2CFDF91CF91089518
:101A70008F929F92AF92BF92CF92DF92EF92FF929E
:101A8000CF93DF936B017C01C42F8090D61490908C
:101A9000D714A090D814B090D91480918515909146
:101AA0008615029688D98FEFC816D806E806F8067C
:101AB000B1F5CC23A1F1EBEDF4E1A181B281C091AC
:101AC0008515D0918615BF83AE83C0918515D091C1
:101AD000861516968D919C911797998788871696EB
:101AE000CD91DC911797809185159091861502967E
:101AF0009D838C838091851590918615029617960B
:101B00009C938E931697A0918515B09186151D967E
:101B1000FC93EE931C9780818F5F80833DC0C80C3F
:101B2000D91CEA1CFB1CE0918515F0918615C28238
:101B3000D382E482F582C814D904EA04FB0460F479
:101B400060918515709186158091FD149091FE1419
:101B50006E5F7F4FF3D820C0609185157091861518
:101B60008091FF14909100156E5F7F4FE7D88091B0
:101B7000C9149091CA14A091CB14B091CC14C8167A
:101B8000D906EA06FB0640F4C092C914D092CA14E2
:101B9000E092CB14F092CC14DF91CF91FF90EF90B4
:101BA000DF90CF90BF90AF909F908F9008952F922D
:101BB0003F924F925F926F927F928F929F92AF92DD
:101BC000BF92CF92DF92EF92FF920F93CF93DF936A
:101BD0003C011B014A012901CA010E94A4056C01B4
:101BE000892B69F084E390E00E94A405EC01892B25
:101BF00019F0DC8ECB8E05C0C6014FD802C0C0E004
:101C0000D0E0209761F0A12CB12C6E019201A401CB
:101C1000B101C301F6DDCE0199DE81E001C08FEF95
:101C2000DF91CF910F91FF90EF90DF90CF90BF9019
:101C3000AF909F908F907F906F905F904F903F906C
:101C40002F900895EF92FF920F930F2EF7ECEF2E47
:101C5000F4E1FF2EF02D00E020E030E040EC50E019
:101C600065EF76E08DEC90E0A2DF813009F4A4D737
:101C70008130C1F4F8948FEF9FEFDC018093C91499
:101C80009093CA14A093CB14B093CC1481E08093AA
:101C9000D4141092D6141092D7141092D814109213
:101CA000D914D3D8809108020F91FF90EF90089536
:101CB0008091C6148F5F8093C61408950FB6F89470
:101CC0000F926091D6147091D7148091D81490918E
:101CD000D9140F900FBE0895CF92DF92EF92FF922A
:101CE000CF93DF938091C614811105C1C090D614A3
:101CF000D090D714E090D814F090D9148FEFC81A70
:101D0000D80AE80AF80AC092D614D092D714E09202
:101D1000D814F092D914C114D104E104F104B1F43F
:101D20008091FF14909100152091FD143091FE14C4
:101D3000309300152093FF149093FE148093FD14AC
:101D40008091CE148F5F8093CE1429DD8091C914C9
:101D50009091CA14A091CB14B091CC14C816D90696
:101D6000EA06FB0620F480E0B2C081E001C080E01A
:101D7000E091FF14F0910015908191110CC04FEF8C
:101D80005FEFBA014093C9145093CA146093CB1407
:101D90007093CC149CC0E091FF14F0910015078063
:101DA000F085E02D0084F185E02D4281538164812E
:101DB0007581C416D506E606F70648F44093C914A3
:101DC0005093CA146093CB147093CC1480C0A48534
:101DD000B585C681D781208531853F832E83C08517
:101DE000D185268137813D832C8311964D915C915D
:101DF00012979F012E5F3F4F4217530731F44085E2
:101E0000518512965C934E931197158614869C917A
:101E100091509C93A08DB18D109709F1C289D389FF
:101E2000448955895F834E83C489D5894289538902
:101E30005D834C8311966D917C911297AF01425F47
:101E40005F4F6417750731F44489558912965C9386
:101E50004E931197118E108E9C9191509C93A28D50
:101E60009091D5149A1710F4A093D5149BE09A9FE3
:101E7000D0011124A95EBA4E11960D90BC91A02DEF
:101E8000B783A68316964D915C911797518740872B
:101E90001696CD91DC9117973D832C8317963C9332
:101EA0002E931697A28D9A9FD0011124A95EBA4E47
:101EB000B587A4879C919F5F9C93228DE0918515A7
:101EC000F0918615928D291708F04FCF51CFE091F0
:101ED0008515F0918615E28D9BE0E99FF0011124B4
:101EE000E95EFA4E9081923008F081E09091CF1433
:101EF000911116C016C08091D0149091D114A09168
:101F0000D214B091D3140196A11DB11D8093D014A9
:101F10009093D114A093D214B093D31480E001C055
:101F200081E0DF91CF91FF90EF90DF90CF90089507
:101F3000CF92DF92EF92FF92CF93DF930FB6F89498
:101F40000F928091C61481508093C6148091C6145C
:101F50008111BEC08091DA14811188C0BCC0E091AB
:101F6000F914F091FA140084F185E02DA08DB18D63
:101F7000C289D389848995899F838E83C489D589B1
:101F8000828993899D838C8311962D913C91129720
:101F9000CF010E962817390731F484899589129656
:101FA0009C938E931197118E108E8C9181508C93EF
:101FB000A485B585C681D781808591859F838E83D1
:101FC000C085D185868197819D838C8311968D9163
:101FD0009C9112979F012E5F3F4F8217930731F418
:101FE0008085918512969C938E9311971586148601
:101FF0008C9181508C93A28D8091D5148A1710F406
:10200000A093D5148BE08A9FD0011124A95EBA4E0B
:1020100011960D90BC91A02DB783A68316964D9175
:102020005C911797518740871696CD91DC91179751
:102030003D832C8317963C932E931697A28D8A9FEF
:10204000D0011124A95EBA4EB587A4878C918F5F09
:102050008C93928DA0918515B09186155A968C918E
:10206000981730F081E08093CF1402C0E0E0F0E0F8
:102070008091F214811173CFEF2B09F090DBC090A7
:10208000D014D090D114E090D214F090D314C11495
:10209000D104E104F104A1F01FDE882319F081E0EE
:1020A0008093CF1481E0C81AD108E108F108A1F7A4
:1020B0001092D0141092D1141092D2141092D31402
:1020C0008091CF14882331F00E94570781E003C02C
:1020D00080E001C080E00F900FBEDF91CF91FF90B4
:1020E000EF90DF90CF9008958F929F92AF92BF9222
:1020F000CF92DF92EF92FF921F93CF93DF93EC0189
:102100006A017B01D5DD8090D6149090D714A09001
:10211000D814B090D91488819981AA81BB81AC016F
:10212000BD014C0D5D1D6E1D7F1D88169906AA060A
:10213000BB0660F4481759076A077B0798F48416B2
:102140009506A606B70680F010E013C04817590799
:102150006A077B0758F084169506A606B70640F076
:1021600010E007C010E005C011E003C011E001C09D
:1021700011E0488359836A837B83112341F0CB01AB
:10218000BA01681979098A099B0940E071DCD0DE3F
:10219000811102C00E945707812FDF91CF911F91BB
:1021A000FF90EF90DF90CF90BF90AF909F908F9077
:1021B0000895CF92DF92EF92FF926B017C01672B23
:1021C000682B692B39F074DD40E0C701B60150DCA3
:1021D000AFDE01C080E0811102C00E945707FF906E
:1021E000EF90DF90CF9008958091C614882321F05E
:1021F00081E08093CF1408951092CF14E09185155B
:10220000F091861520813181E0918515F091861538
:10221000838D948D8217930758F060918515709186
:102220008615635E7F4F80918515909186154FD7F7
:102230008091D51401C08150282F30E09BE0929FFF
:10224000F001939FF00D1124E95EFA4E90819923DD
:1022500091F39BE0929FA001939F500D1124DF0109
:102260000180F281E02D0480F581E02D1296FC932F
:10227000EE931197465E5A4EE417F50729F4448110
:102280005581FD01528341839BE0929FF001939F12
:10229000F00D1124E95EFA4E0180F281E02D2085D7
:1022A000318530938615209385158093D514089534
:1022B000CF92DF92EF92FF926A017B0160918515C8
:1022C00070918615625F7F4F0E949E0641E0C701B4
:1022D000B601CEDBFF90EF90DF90CF9008950F9383
:1022E0001F93CF93DF93FC01A0918515B0918615C4
:1022F00070681E964D935D936D937C935197A18169
:10230000B281C0918515D0918615BB8BAA8BC091E7
:102310008515D091861516968D919C9117979D8B5A
:102320008C8B1696CD91DC911797809185159091A5
:1023300086150E969D838C838091851590918615C8
:102340000E9617969C938E931697A0918515B09133
:1023500086155996FC93EE93589780818F5F808302
:1023600041E0C901B80184DBDF91CF911F910F914A
:102370000895CF93DF93FC01CB01BA01A181B28113
:10238000C0918515D0918615BB8BAA8BC091851500
:10239000D091861516964D915C9117975D8B4C8B5D
:1023A0001696CD91DC911797409185155091861521
:1023B000425F5F4F5D834C83409185155091861538
:1023C000425F5F4F17965C934E931697A0918515C9
:1023D000B09186155996FC93EE93589730813F5FE4
:1023E0003083222319F06FEF7FEFCB01422F40DBC8
:1023F000DF91CF910895CF93DF93DC011796ED9194
:10240000FC9118970084F185E02DA08DB18DC289D3
:10241000D389848995899F838E83C489D58982894C
:1024200093899D838C8311968D919C9112979F0126
:10243000225F3F4F8217930731F484899589129662
:102440009C938E931197118E108E8C9181508C934A
:102450008091C614811152C0A485B585C681D781EB
:10246000808591859F838E83C085D1858681978164
:102470009D838C8311968D919C9112979F012E5F65
:102480003F4F8217930731F48085918512969C9374
:102490008E931197158614868C9181508C93A28D02
:1024A0008091D5148A1710F4A093D5148BE08A9FDD
:1024B000D0011124A95EBA4E11960D90BC91A02DA9
:1024C000B783A68316964D915C91179751874087E5
:1024D0001696CD91DC9117973D832C8317963C93EC
:1024E0002E931697A28D8A9FD0011124A95EBA4E11
:1024F000B587A4878C918F5F8C931CC042EF54E109
:10250000DA011196CD91DC911297D38BC28B8E811B
:102510009F81958B848B8E819F81DC0115963C93E6
:102520002E9314973F832E83518F408FDA018C9125
:102530008F5F8C93928DE0918515F0918615828D39
:10254000891720F481E08093CF1401C080E0DF91EF
:10255000CF910895CF93DF93DC0170684D935D9325
:102560006D937C9313971896ED91FC9119971A9699
:102570004D915C911B9714968D919C911597169691
:102580002D913C911797EC013F832E8316968D91E8
:102590009C91179714962D913C911597EC013D83D2
:1025A0002C83EA0189819A81A817B90731F416961C
:1025B0008D919C9117979A8389831B961C921E92EA
:1025C0001A97DA018C9181508C93A485B585C681C8
:1025D000D781808591859F838E83C085D1858681B3
:1025E00097819D838C8311968D919C9112979F0169
:1025F0002E5F3F4F8217930731F4808591851296A5
:102600009C938E931197158614868C9181508C9390
:10261000A28D8091D5148A1710F4A093D5148BE065
:102620008A9FD0011124A95EBA4E11960D90BC91DB
:10263000A02DB783A68316964D915C91179751876D
:1026400040871696CD91DC9117973D832C83179682
:102650003C932E931697A28D8A9FD0011124A95ED8
:10266000BA4EB587A4878C918F5F8C93928DE09141
:102670008515F0918615828D891718F481E0809375
:10268000CF14DF91CF9108952091CE14FC012083C7
:102690004091D6145091D7146091D8147091D914E8
:1026A000418352836383748308958F929F92AF9284
:1026B000BF92CF92DF92EF92FF920F931F93CF932F
:1026C000DF93FB010FB6F8940F92C090D614D09010
:1026D000D714E090D814F090D914DC0111960D9124
:1026E0001D912D913C91149746015701801A910A32
:1026F000A20AB30A40815181628173814F3FBFEFCB
:102700005B076B077B0739F1EC01B881A091CE1410
:10271000BA1759F0C016D106E206F30630F010825F
:1027200011821282138281E017C084169506A606D4
:10273000B70658F4481959096A097B09408351833F
:1027400062837383A1DF80E007C01082118212824E
:10275000138281E001C080E00F900FBEDF91CF9126
:102760001F910F91FF90EF90DF90CF90BF90AF90AF
:102770009F908F90089581E08093CF140895809169
:10278000D414882331F08091C614811104C082E0F2
:10279000089581E0089580E008950F931F93CF93EB
:1027A000DF93FC01892B09F477C0828DA0918515F8
:1027B000B09186155A969C91891708F063C046859A
:1027C000578560897189772394F0A0918515B09120
:1027D00086155A969C914AE050E060E070E0491BF3
:1027E00051096109710946875787608B718B248570
:1027F00035854BE0849FC0011124895E9A4E2817CD
:102800003907B9F5EF018F010E5F1F4FC8010E9414
:10281000DB06E0918515F0918615E28DEA8F8091B7
:10282000D5148E1710F4E093D5148BE08E9FF00131
:102830001124E95EFA4E0180F281E02DFF83EE83E0
:102840002681378139872887A681B78115961C9301
:102850000E93149717830683EA8D8E9FF00111243F
:10286000E95EFA4EFD87EC8780818F5F808381E08F
:1028700016C0A0918515B09186155A968C91828FBD
:1028800081E00DC095A5E0918515F0918615828DAA
:10289000981720F080E003C080E001C081E0DF9164
:1028A000CF911F910F9108950F931F93CF93DF93B3
:1028B000FC01892B09F449C086A5815086A7228D89
:1028C00095A5291709F443C0811143C0EF018F0179
:1028D0000E5F1F4FC8010E94DB06EDA5EA8F8AE05C
:1028E00090E0A0E0B0E08E1B9109A109B1098E87AC
:1028F0009F87A88BB98B8091D5148E1710F4E09325
:10290000D5148BE08E9FF0011124E95EFA4E018010
:10291000F281E02DFF83EE83268137813987288776
:10292000A681B78115961C930E931497178306837F
:10293000EA8D8E9FF0011124E95EFA4EFD87EC8747
:1029400080818F5F808381E005C080E003C080E0EC
:1029500001C080E0DF91CF911F910F9108950F93F7
:102960001F93CF93DF93FC01892B09F45AC085A5EF
:10297000861708F4862F928D891709F452C026A570
:10298000213009F04EC0828F468557856089718954
:10299000772364F04AE050E060E070E0481B5109A2
:1029A0006109710946875787608B718B248535854E
:1029B0004BE0949FC0011124895E9A4E2817390775
:1029C00081F5EF018F010E5F1F4FC8010E94DB06EA
:1029D000EA8D8091D5148E1710F4E093D5148BE016
:1029E0008E9FF0011124E95EFA4E0180F281E02D04
:1029F000FF83EE832681378139872887A681B781B7
:102A000015961C930E93149717830683EA8D8E9F59
:102A1000F0011124E95EFA4EFD87EC8780818F5F1B
:102A20008083DF91CF911F910F910895CF92DF9214
:102A3000EF92FF92E0918515F09186156685778576
:102A400080899189E0918515F0918615A091851571
:102A5000B09186155A962C910F2EFAE0CF2ED12CDC
:102A6000E12CF12CF02DC21AD108E108F108C6863C
:102A7000D786E08AF18AFF90EF90DF90CF9008959B
:102A80008091851590918615892B39F0E0918515F7
:102A9000F091861586A58F5F86A780918515909108
:102AA00086150895DC01E0919115F09192158081D1
:102AB00091E0811190E09C93911108C00780F0850E
:102AC000E02D6081718182819381089560E070E0E2
:102AD000CB010895CF92DF92EF92FF920F931F9355
:102AE000FC01428353836483758393878287041731
:102AF000150726073707C0F00C191D092E093F09D5
:102B000086859785A089B189081719072A073B0789
:102B100000F5BF016E5F7F4F80918F1590919015EA
:102B20000E949E0680E018C00C151D052E053F056D
:102B300028F44C155D056E057F0568F4BF016E5FD6
:102B40007F4F80919115909192150E949E0680E092
:102B500003C081E001C081E01F910F91FF90EF90D1
:102B6000DF90CF9008950FB6F8940F9280918D1555
:102B700090918E15892BE9F48EE995E10E948906E2
:102B800083E995E10E9489068EE995E1909392157B
:102B90008093911583E995E19093901580938F151B
:102BA00040E067E08AE00E944B0990938E15809385
:102BB0008D150F900FBE0895EF92FF920F93D3DF04
:102BC00080918D1590918E15892B91F00F2EFBE839
:102BD000EF2EF5E1FF2EF02D03E020E030E040EC99
:102BE00050E06AEF76E087ED90E00E94D70D01C0DB
:102BF00080E00F91FF90EF9008958F929F92AF9297
:102C0000BF92CF92DF92EF92FF920F931F93CF93D9
:102C1000DF93CDB7DEB727970FB6F894DEBF0FBEB0
:102C2000CDBFE0918D15F0918E15309781F16983BC
:102C30002A833B834C835D839F838E836630F4F4C9
:102C40009EDD823069F400E0A7019601BE016F5F4E
:102C50007F4F80918D1590918E150E946E0918C03E
:102C600000E020E030E0A901BE016F5F7F4F80915E
:102C70008D1590918E150E946E090AC020E0A80162
:102C8000BE016F5F7F4FCF010E94FC0901C080E051
:102C900027960FB6F894DEBF0FBECDBFDF91CF9160
:102CA0001F910F91FF90EF90DF90CF90BF90AF906A
:102CB0009F908F9008958F929F92AF92BF92CF92E4
:102CC000DF92EF92FF920F931F93CF93DF933BC05E
:102CD0000780F085E02D80809180A280B380C08540
:102CE000D1858E010E5F1F4FC8010E94DB06EC8963
:102CF000FD89CE0119958E8982FF25C08E859F851D
:102D0000A889B989880D991DAA1DBB1D8816990629
:102D1000AA06BB0670F48A839B83AC83BD83DB87E2
:102D2000CA87B80180919115909192150E949E06D4
:102D30000AC0C12CD12C760100E010E0A50194015D
:102D400060E0CE015ADFE0919115F09192158081FB
:102D50008111BECF80918F1590919015909392150F
:102D600080939115F0939015E0938F15DF91CF919B
:102D70001F910F91FF90EF90DF90CF90BF90AF9099
:102D80009F908F900895CF92DF92EF92FF92CF9312
:102D9000DF93EC010E945E0E6B017C018091871530
:102DA00090918815A0918915B0918A15C816D906F9
:102DB000EA06FB0620F47FDF81E0888301C01882E9
:102DC000C0928715D0928815E0928915F0928A15E5
:102DD000C701B601DF91CF91FF90EF90DF90CF90C8
:102DE00008954F925F926F927F928F929F92AF92CF
:102DF000BF92CF92DF92EF92FF920F931F93CF93E8
:102E0000DF934B015C0129013A01E0919115F091AA
:102E100092150780F085E02DC085D185CE01029600
:102E20000E94DB068E8982FF1BC04E855F85688904
:102E30007989480D591D6A1D7B1D75016401930137
:102E40008201CE0147DE882369F0C12CD12C7601A6
:102E500000E010E0A501940160E0CE01CEDE02C0EA
:102E60008E7F8E8BEC89FD89CE011995DF91CF91F4
:102E70001F910F91FF90EF90DF90CF90BF90AF9098
:102E80009F908F907F906F905F904F9008958F925A
:102E90009F92AF92BF92CF92DF92EF92FF921F93D9
:102EA000CF93DF931F92CDB7DEB76B017C01142F58
:102EB0000E94580ECE01019666DF4B015C018981AC
:102EC00081112BC011110CC08C149D04AE04BF04E1
:102ED00038F02ED8A5019401C701B60182DF1EC0CB
:102EE000112341F0E0918F15F0919015808111E050
:102EF000811110E0B701A601481959096A097B0937
:102F0000212F80918D1590918E150E94720B10D8F3
:102F1000811104C00E94570701C00AD80F90DF91A9
:102F2000CF911F91FF90EF90DF90CF90BF90AF9027
:102F30009F908F900895AF92BF92CF92DF92EF92C1
:102F4000FF920F931F93CF93DF93CDB7DEB72897F0
:102F50000FB6F894DEBF0FBECDBF82C08981882333
:102F60000CF47EC0AE80BF80D5011C968D919C91E3
:102F70001D97892B21F0C50102960E94DB06CE0128
:102F8000089601DF8B019C01E9810E2E000CFF0BDE
:102F9000EA30F10508F064C08827EE58FF4F8F4FE4
:102FA0000C94C324F50186898160868BCA80DB80FE
:102FB000EC80FD8046855785608971894C0D5D1DCB
:102FC0006E1D7F1DC50186DD882309F449C0D5012A
:102FD0005496ED91FC915597C5011995F501868997
:102FE00082FF3EC04A815B816C817D8186859785A9
:102FF000A089B1899A01AB01280F391F4A1F5B1FB5
:10300000C12CD12C760100E010E060E0C501F5DDB7
:1030100027C0D50156968C9156978E7F56968C93E5
:103020001FC0F50186898160868B4A815B816C8136
:103030007D8146875787608B718B400F511F621FC0
:10304000731F68017901C50145DD0AC0F501868954
:1030500081FD04C0C5010E944D0602C08E7F868B93
:1030600020E030E0A901BE016F5F7F4F80918D1598
:1030700090918E150E94360A811170CF28960FB656
:10308000F894DEBF0FBECDBFDF91CF911F910F919E
:10309000FF90EF90DF90CF90BF90AF90089508958C
:1030A00084B1806884B985B1806885B9089583B199
:1030B000806883B90895F4DF2FEF80E792E0215014
:1030C00080409040E1F700C00000F1DFF5CFE8DF7D
:1030D0002FEF87EA91E6215080409040E1F700C051
:1030E0000000E5DFF5CF33D088F09F5790F0B92F7F
:1030F0009927B751A0F0D1F0660F771F881F991F4D
:103100001AF0BA95C9F712C0B13081F03AD0B1E0E7
:10311000089537C0672F782F8827B85F39F0B93FF7
:10312000CCF3869577956795B395D9F73EF490954E
:103130008095709561957F4F8F4F9F4F089557FDF4
:103140009058440F551F59F05F3F71F04795880F15
:1031500097FB991F61F09F3F79F0879508951216AC
:1031600013061406551FF2CF4695F1DF08C0161658
:1031700017061806991FF1CF869571056105089409
:103180000895E894BB2766277727CB0197F9089520
:103190006530F1F4FA0180818F7390E0982F8827D1
:1031A0002181822B90930C0280930B028281F0E4A8
:1031B0008F9FC0011124FA01238126952695822B29
:1031C00090930A028093090281E08093A9150895E3
:1031D000643051F080E090E490930A0280930902F9
:1031E00090930C0280930B0208950F931F9308ECA9
:1031F00018E120E034E244EF50E060E087E20E9412
:103200002C219093AB158093AA1521E0892B09F00E
:1032100020E0822F1F910F9108958091AA1590911F
:10322000AB15009759F040E060E070E00E947D210E
:10323000843031F41092A91580E0089582E0089559
:1032400083E008958091AA159091AB15009739F00D
:1032500064E00E94C921853021F083E0089582E076
:10326000089580E0089560910B0270910C0280E057
:1032700090E00E94AE2320E030E048EC52E40E944F
:10328000172420E038EF4FE756E40C943C230895D0
:103290006091090270910A0280E090E00E94AE23E2
:1032A00020E030E045E253E40E94172420E038EFAC
:1032B0004FE756E40E943C2320E030E040E252E435
:1032C0000C94D5220895E4DF20E030E040E251E4A0
:1032D0000E9417240E94A723CB0108958091AF1567
:1032E000860F8093AF159091B215913079F028F048
:1032F0009230A9F0933019F108956F3F09F048C05A
:103300001092AF1581E08093B2150895663809F0E8
:103310003FC01092AE1582E08093B2150895E091FF
:10332000AE1581E08E0F8093AE15F0E0E455FA4EB5
:103330006083823069F583E08093B215089590919F
:10334000AE1521E0290F2093AE15963009F58111B5
:103350000EC0ECEAF5E1808190E0982F882721816A
:10336000820F911D9093B4158093B31504C01092F1
:10337000B4151092B3151092B215E091B015F091FA
:10338000B115309729F08091B3159091B415199526
:1033900008958F929F92AF92CF92EF920F930F2E3C
:1033A000FEE68F2EF9E19F2EF02D6894AA24A4F852
:1033B0006894CC24C4F8E12C00E023E040E855E216
:1033C00060E070E073D09093B6158093B5150F91BF
:1033D000EF90CF90AF909F908F9008959093B115FC
:1033E0008093B0150895CF93DF93CDB7DEB72997BB
:1033F0000FB6F894DEBF0FBECDBF89E0E4E2F2E085
:103400009E012F5F3F4FD90101900D928A95E1F700
:103410001092B4151092B3158091B5159091B61510
:10342000009731F0422F532F69E011D180E001C0A5
:1034300082E029960FB6F894DEBF0FBECDBFDF91B4
:10344000CF91089565360CF064E66C390CF46CE9A4
:1034500096EF6902B00111246854744F811105C0C0
:103460007093290160932801089570932B01609354
:103470002A010895EAE0F1E08081886180838FE38A
:103480009CE9909327018093260160E080E0DADFD9
:1034900060E081E0D7DFE0E2F1E08081826A808352
:1034A000E1E2F1E080818A61808308952F923F926A
:1034B0004F925F926F927F928F929F92AF92CF9234
:1034C000EF92FF920F931F93CF93DF93CDB7DEB7A9
:1034D000F82E2A013B0188E090E00E94CB248C0169
:1034E0008F2D90E0FC01EE0FFF1FE954FA4E11837F
:1034F00000830115110509F46DC0880F991FFC01A7
:10350000E35FFD4F80819181D8018D939C938C2D39
:1035100090E0880F991F880F991F0E94CB241C01EF
:1035200086E090E00E94CB247C014C2DB1010E94EA
:10353000B922F801F582E4828A2D90E0880F991F64
:10354000880F991F0E94CB241C0186E090E00E9406
:10355000CB247C014A2DB1010E94B922D8011396D7
:10356000FC92EE92129717969C928E921697FFB647
:10357000F894ED91FC911197369780818260808359
:103580008D909C90C301B2010E94AE2320E030E0F8
:1035900040E051E40E9417249B01AC0160E074E21A
:1035A00084E79BE40E943C2320E030E040E85FE3B6
:1035B000FCD799DDF40132976083D801ED91FC913D
:1035C0001197359788E98083ED91FC91349786E0D7
:1035D0008083FFBEC801DF91CF911F910F91FF90B3
:1035E000EF90CF90AF909F908F907F906F905F9073
:1035F0004F903F902F900895CF93DF93DC01892B5C
:1036000001F11296ED91FC911397938182812581AE
:10361000981B922384819817B1F0838126952823E3
:10362000C081D181C20FD11D68838F5F95818923AD
:103630008383ED91FC91359780818062808380E067
:1036400003C081E001C082E0DF91CF910895EF9245
:10365000FF920F931F93CF93DF937C01009709F4A0
:1036600041C0DC011296ED91FC9113979381828108
:10367000981B858198238481891B8617A8F166236E
:1036800041F1842F952FDC016150462F50E04F5FB0
:103690005F4F480F591FE701EA81FB8193818281C7
:1036A0002581981B92238481981779F08C919381BE
:1036B00026952923608171818B01020F111DE8017C
:1036C00088839F5F8581982393831196A417B507FC
:1036D00011F7D701ED91FC9135978081806280834D
:1036E00080E003C081E001C082E0DF91CF911F91B3
:1036F0000F91FF90EF9008950097D1F0DC011496A0
:10370000ED91FC91159793818281981799F09281A0
:10371000858186958923A081B181A80FB11D8C91E7
:10372000DB018C939F5F85819823928380E00895CD
:1037300081E0089583E008951F920F920FB60F92D3
:1037400011240BB60F922F933F934F935F936F9378
:103750007F938F939F93AF93BF93CF93DF93EF9319
:10376000FF93A091B715B091B815109711F1609122
:10377000C6001496ED91FC91159793818281258165
:10378000981B92238481981761F0838126952823C2
:10379000C081D181C20FD11D68838F5F958189233C
:1037A00083831696ED91FC911797309711F0CD0118
:1037B0001995FF91EF91DF91CF91BF91AF919F91BB
:1037C0008F917F916F915F914F913F912F910F90CA
:1037D0000BBE0F900FBE0F901F9018951F920F9267
:1037E0000FB60F9211240BB60F922F938F939F93C6
:1037F000AF93BF93EF93FF93E091B715F091B81596
:103800003097B9F00280F381E02D9381828198177F
:10381000B1F092818581282F26952923A081B1813D
:10382000A20FB11D2C919F5F892382832093C60034
:103830000BC0E1ECF0E080818F7D808305C0E1EC7E
:10384000F0E080818F7D8083FF91EF91BF91AF91F8
:103850009F918F912F910F900BBE0F900FBE0F90E5
:103860001F9018951F920F920FB60F9211240BB64E
:103870000F922F933F934F935F936F937F938F9309
:103880009F93AF93BF93CF93DF93EF93FF93A09159
:10389000B915B091BA15109711F16091CE00149638
:1038A000ED91FC911597938182812581981B92233C
:1038B0008481981761F0838126952823C081D18166
:1038C000C20FD11D68838F5F9581892383831696EC
:1038D000ED91FC911797309711F0CD011995FF915B
:1038E000EF91DF91CF91BF91AF919F918F917F9198
:1038F0006F915F914F913F912F910F900BBE0F9061
:103900000FBE0F901F9018951F920F920FB60F9237
:1039100011240BB60F922F938F939F93AF93BF9366
:10392000EF93FF93E091B915F091BA153097B9F084
:103930000280F381E02D938182819817B1F092810A
:103940008581282F26952923A081B181A20FB11D41
:103950002C919F5F892382832093CE000BC0E9ECDA
:10396000F0E080818F7D808305C0E9ECF0E080810C
:103970008F7D8083FF91EF91BF91AF919F918F9148
:103980002F910F900BBE0F900FBE0F901F901895A8
:103990001F920F920FB60F9211240BB60F922F9316
:1039A0003F934F935F936F937F938F939F93AF93C7
:1039B000BF93CF93DF93EF93FF93A091BB15B0918B
:1039C000BC15109711F16091D6001496ED91FC9101
:1039D0001597938182812581981B92238481981762
:1039E00061F0838126952823C081D181C20FD11D2A
:1039F00068838F5F9581892383831696ED91FC916F
:103A00001797309711F0CD011995FF91EF91DF9144
:103A1000CF91BF91AF919F918F917F916F915F9166
:103A20004F913F912F910F900BBE0F900FBE0F90B3
:103A30001F9018951F920F920FB60F9211240BB67C
:103A40000F922F938F939F93AF93BF93EF93FF9317
:103A5000E091BB15F091BC153097B9F00280F3816D
:103A6000E02D938182819817B1F092818581282F72
:103A700026952923A081B181A20FB11D2C919F5FB2
:103A8000892382832093D6000BC0E1EDF0E0808192
:103A90008F7D808305C0E1EDF0E080818F7D8083A4
:103AA000FF91EF91BF91AF919F918F912F910F90C7
:103AB0000BBE0F900FBE0F901F9018951F920F9284
:103AC0000FB60F9211240BB60F922F933F934F9383
:103AD0005F936F937F938F939F93AF93BF93CF9396
:103AE000DF93EF93FF93A091BD15B091BE15109792
:103AF00011F1609136011496ED91FC911597938127
:103B000082812581981B92238481981761F083819B
:103B100026952823C081D181C20FD11D68838F5F74
:103B20009581892383831696ED91FC9117973097A1
:103B300011F0CD011995FF91EF91DF91CF91BF91D8
:103B4000AF919F918F917F916F915F914F913F9135
:103B50002F910F900BBE0F900FBE0F901F901895D6
:103B60001F920F920FB60F9211240BB60F922F9344
:103B70008F939F93AF93BF93EF93FF93E091BD1506
:103B8000F091BE153097B9F00280F381E02D93815A
:103B900082819817B1F092818581282F269529235B
:103BA000A081B181A20FB11D2C919F5F89238283D7
:103BB000209336010BC0E1E3F1E080818F7D8083AB
:103BC00005C0E1E3F1E080818F7D8083FF91EF917B
:103BD000BF91AF919F918F912F910F900BBE0F903E
:103BE0000FBE0F901F901895CF93DF931F92CDB704
:103BF000DEB7BE016F5F7F4F8091BF159091C015FA
:103C00007BDD8111F6CF898190E00F90DF91CF911C
:103C10000895682F8091BF159091C015EDDC80E06C
:103C200090E008958F929F92AF92CF92EF920F9370
:103C3000812C912C6894AA24A7F86894CC24C7F806
:103C4000E12C00E023E040E051EE60E070E02EDC8B
:103C50009093C0158093BF15EBE0F6E185E192E00B
:103C600091838083938382830F91EF90CF90AF9065
:103C70009F908F90089590E0FC01EE0FFF1FE80FDA
:103C8000F91FEE0FFF1FEF53FA4E238121111FC0C2
:103C90009C01220F331FF901E80FF91FEE0FFF1FE0
:103CA000EF53FA4EA081B1814C91F901E80FF91F51
:103CB000EE0FFF1FEF53FA4E81E090E0028002C04A
:103CC000880F991F0A94E2F7842B8C930895FC01C6
:103CD000EE0FFF1FDF01A80FB91FAA0FBB1FAF53C5
:103CE000BA4E0D90BC91A02D2C91E80FF91FEE0F4C
:103CF000FF1FEF53FA4E81E090E0028002C0880F70
:103D0000991F0A94E2F7809582238C93089590E09E
:103D1000FC01EE0FFF1FE80FF91FEE0FFF1FEF531F
:103D2000FA4E2381211120C09C01220F331FF9017B
:103D3000E80FF91FEE0FFF1FEF53FA4EA081B1817C
:103D40004C91F901E80FF91FEE0FFF1FEF53FA4EE8
:103D500081E090E0028002C0880F991F0A94E2F788
:103D6000809584238C930895FC01EE0FFF1FDF01E3
:103D7000A80FB91FAA0FBB1FAF53BA4E0D90BC912D
:103D8000A02D2C91E80FF91FEE0FFF1FEF53FA4EF5
:103D900081E090E0028002C0880F991F0A94E2F748
:103DA000822B8C930895CC24C394D12C6894BB248B
:103DB000B2F8C1ECD5E110E08C81813081F018F1CE
:103DC000823061F5E881F9812081C6010A8002C054
:103DD000880F991F0A94E2F7822780831FC08D8184
:103DE0008F5F863010F48D8319C01D82E881F981C0
:103DF0002081C6010A8002C0880F991F0A94E2F749
:103E0000822780830BC00D81002329F0812F7FDF63
:103E100001500D8303C0BC82812F2DDF1F5F2696CA
:103E2000143051F66CE070E080E090E00E94D91010
:103E3000C0CFEF92FF920F931F93CF93DF93082F82
:103E400080E487B9C1ECD5E10F2EF8E2EF2EF12C1A
:103E5000F02DF982E88286E08A831B8214E01C83BD
:103E600080E009DF80E887B9FF82EE8287E08887FB
:103E700019861A8781E0FFDE80E283BB84E390E04D
:103E80009D878C8785E08E871F86188B82E0F3DE06
:103E900080E18093010182E091E09B8B8A8B1C8BF7
:103EA0001D8A1E8B83E0E7DEE12CF12C20E030E060
:103EB00040EC50E062E077E083ED9EE10E94D70D98
:103EC000DF91CF911F910F91FF90EF900895E091B6
:103ED000E115F091E215309709F0199508956450B5
:103EE000623008F03BC02091E015223079F018F4E0
:103EF000213031F030C0233081F02430A1F02BC0CC
:103F000022E02093E01561E044C20895FA01808127
:103F10008093DD1582E0DBCF089524E02093E01547
:103F200064E037C20895FA01818190E0982F8827D4
:103F30002081822B9093DC158093DB15838190E0A8
:103F4000982F88272281822B9093DA158093D91598
:103F500081E0BDCF089580E0BACF08951092E015BA
:103F600086E0B5CF08952091E3153091E415211531
:103F7000310541F0462FBC01C901BFD1823021F08B
:103F800080E0089587E0089585E008950F931F93DA
:103F90009093E2158093E1150FE61FE120E034E2F3
:103FA00044EF50E060E089E257D19093E4158093AC
:103FB000E315892B11F080E001C088E01F910F917B
:103FC0000895CF93DF931F921F92CDB7DEB780EA9B
:103FD000898383E08A831092E01562E0CE01019626
:103FE000C2DF0F900F90DF91CF910895CF93DF93B1
:103FF0001F92CDB7DEB784EB898383E08093E01511
:1040000061E0CE010196AFDF0F90DF91CF9108956F
:104010002091D9153091DA152F3F4FEF340741F039
:104020004091DB155091DC154F3F6FEF560739F487
:104030002FEF3FEFFC013183208383E00895421B83
:10404000530BFC015183408380E008952091D915E2
:104050003091DA15FC01318320832F3F3F4F11F05F
:1040600080E0089583E008952091DB153091DC1500
:10407000FC01318320832F3F3F4F11F080E00895F2
:1040800083E008952F923F924F925F926F927F92BA
:104090008F929F92AF92BF92CF92DF92EF92FF9258
:1040A0000F931F93CF93DF93C091D915D091DA1559
:1040B000CF3F2FEFD20741F06091DB157091DC15F7
:1040C0006F3FEFEF7E0759F44FEF5FEF6FE77FE74A
:1040D000FC01408351836283738383E099C01C0198
:1040E00080E090E03BD32B013C01BE0180E090E0FA
:1040F00035D34B015C018091DE1590E0019624E6FA
:10410000289FB001299F700D11248091DF15803206
:1041100069F08033A1F08031E1F40F2EC12CD12C55
:10412000F8ECEF2EF1E4FF2EF02D1BC00F2EC12C6A
:10413000D12CF6EDEF2EF3E4FF2EF02D12C00F2E52
:10414000C12CF0E5DF2EFAE1EF2EF6E4FF2EF02D84
:1041500008C00F2EC12CD12CF0E8EF2EFFE3FF2E6C
:10416000F02D072E000C880B990BFAD2A7019601AF
:104170005ED320E030E04CEC53E47ED26B017C0156
:1041800025E83BEE41ED5FE3C501B40150D39B014F
:10419000AC01C301B20109D2A70196016DD2162F5D
:1041A000D72FC82F092F2DE33AE047E15FE3C30182
:1041B000B2013DD32B013C0126EF38E24CE55FE331
:1041C000C501B40134D39B01AC01C301B201EDD1EF
:1041D000A701960151D2C62ED72EE82EF92E262FF2
:1041E000372F482F592F612F7D2F8C2F902F1BD3C6
:1041F000181624F01C2DDD2DCE2D0F2D412F5D2FF7
:104200006C2F702FF101408351836283738380E0B0
:10421000DF91CF911F910F91FF90EF90DF90CF90A2
:10422000BF90AF909F908F907F906F905F904F90D6
:104230003F902F9008958091F31581110CC08CE070
:104240008093B8008FEF8093BB0084E08093BC0024
:1042500081E08093F3150895AF92BF92CF92DF92E1
:10426000EF92FF920F931F93CF93DF93A82EB62E5A
:1042700069017A0184E090E08ED3EC01892B61F131
:10428000A88281E0B81212C0C701B60120EA36E860
:1042900041E050E056D3DA01C9014097A109B109C4
:1042A000B695A79597958795898311C0C701B601E3
:1042B00020E83AE146E050E044D3DA01C9014097F2
:1042C000A109B109B695A7959795879589831B8311
:1042D0000A838C2F9D2F02C080E090E0DF91CF9168
:1042E0001F910F91FF90EF90DF90CF90BF90AF9014
:1042F00008958091BC0081700895FF920F931F93E1
:10430000CF93DF930097D1F14A30D0F5F42E8B0193
:10431000EC01EFDF811136C08091E6159091E71531
:10432000C817D90741F087DF89818093B800D093FF
:10433000E715C093E61581E08F0D8093E81588811D
:10434000880F8093E915FF2089F0F801AAEEB5E106
:104350004FEF4F0D642F70E0CB010196B801680F4D
:10436000791F81918D93E617F707D9F788EF80932E
:10437000230285EA8093BC0084E005C086E003C088
:1043800087E001C082E0DF91CF911F910F91FF90F4
:1043900008951F93CF93DF93009729F16B3028F591
:1043A000162FEC01A6DF811122C08091E6159091B5
:1043B000E715C817D90741F03EDF89818093B8001F
:1043C000D093E715C093E6151093E8158881880F00
:1043D00081608093E91588EF8093230285EA8093BA
:1043E000BC0085E005C086E003C087E001C082E034
:1043F000DF91CF911F9108951F920F920FB60F92E8
:1044000011240BB60F922F933F934F935F936F93AB
:104410007F938F939F93AF93BF93EF93FF93E0911D
:10442000B9008E2F90E0FC013897E135F10508F0D6
:1044300075C08827E458FF4F8F4FA5C21092E5152D
:10444000E091E5158091E815E81770F481E08E0F92
:104450008093E515F0E0E751FA4E80818093BB0030
:1044600085E88093BC0072C084E98093BC00809191
:10447000E6159091E715DC011296ED91FC911397EA
:10448000309709F463C020E040E050E064E0199503
:104490005DC0E091E51581E08E0F8093E515809178
:1044A000BB00F0E0E751FA4E80838091B900803480
:1044B00011F41092E5152091E51530E08091E81592
:1044C00090E001972817390724F485EC8093BC000D
:1044D0003DC085E88093BC0039C08091BB00E0916D
:1044E000E515F0E0E751FA4E808384E98093BC0043
:1044F0008091E6159091E715DC011296ED91FC9103
:104500001397309719F12091E81549EE55E165E0D0
:1045100019951CC085EA8093BC0018C08091B90031
:104520008093230284E08093BC008091E6159091F3
:10453000E715DC011296ED91FC911397309731F05D
:1045400020E040E050E0609123021995FF91EF9147
:10455000BF91AF919F918F917F916F915F914F919B
:104560003F912F910F900BBE0F900FBE0F901F9099
:104570001895FC01411101C02FD3842F90E09C01BC
:104580002150310982239323892B09F025D3413807
:1045900008F022D3128213824483440F4150458392
:1045A0007183608380E090E008955058BB27AA276C
:1045B0000ED028C119D130F01ED120F031F49F3F28
:1045C00011F41EF40EC10EF4E095E7FB04C1E92FCF
:1045D0000E949F1878F3BA1762077307840795073C
:1045E00020F079F4A6F50C94C1180EF4E0950B2E8A
:1045F000BA2FA02D0B01B90190010C01CA01A00135
:104600001124FF27591B99F0593F50F4503E68F18F
:104610001A16F040A22F232F342F4427585FF3CFD0
:10462000469537952795A795F0405395C9F77EF4A1
:104630001F16BA0B620B730B840BBAF09150A1F0EA
:10464000FF0FBB1F661F771F881FC2F70EC0BA0F70
:10465000621F731F841F48F4879577956795B795F8
:10466000F7959E3F08F0B1CF9395880F08F09927F2
:10467000EE0F9795879508950DD0C4C0BCD048F033
:10468000B3D038F021F45F3F21F0A5C051110C9454
:10469000C218A7C00E949F1888F39923B9F3552325
:1046A000A1F3951B550BBB27AA2762177307840735
:1046B00038F09F5F5F4F220F331F441FAA1FA9F3DB
:1046C00034D00E2E3AF0E0E831D091505040E695CB
:1046D000001CCAF72AD0FE2F28D0660F771F881F2C
:1046E000BB1F261737074807AB07B0E809F0BB0B1D
:1046F000802DBF01FF2793585F4F32F09E3F510539
:1047000070F069C00C94C2185F3FE4F3983ED4F394
:10471000869577956795B795F7959F5FC9F7880F49
:10472000911D9695879597F90895E1E0660F771F9B
:10473000881FBB1F621773078407BA0720F0621B2C
:10474000730B840BBA0BEE1F88F7E09508950E9457
:1047500073186894B1110C94C2180895E89409C0B4
:1047600097FB3EF490958095709561957F4F8F4FA4
:104770009F4F9923A9F0F92F96E9BB279395F695BA
:10478000879577956795B795F111F8CFFAF4BB0F38
:1047900011F460FF1BC06F5F7F4F8F4F9F4F16C09C
:1047A000882311F096E911C0772321F09EE8872F26
:1047B000762F05C0662371F096E8862F70E060E0E2
:1047C0002AF09A95660F771F881FDAF7880F96955B
:1047D000879597F9089597F99F6780E870E060E002
:1047E00008959FEF80EC089500240A94161617068A
:1047F00018060906089500240A94121613061406D2
:1048000005060895092E0394000C11F4882352F034
:10481000BB0F40F4BF2B11F460FF04C06F5F7F4FEC
:104820008F4F9F4F089569D008F48FEF08950CD0F3
:10483000E9CFDADF28F0DFDF18F0952309F0CBCFDE
:10484000D0CF11240C94C2180E949F1890F3959F0A
:10485000C1F3950F50E0551F629FF001729FBB2777
:10486000F00DB11D639FAA27F00DB11DAA1F649F13
:104870006627B00DA11D661F829F2227B00DA11DC6
:10488000621F739FB00DA11D621F839FA00D611D4C
:10489000221F749F3327A00D611D231F849F600D6D
:1048A000211D822F762F6A2F11249F57504092F09E
:1048B000E9F088234AF0EE0FFF1FBB1F661F771F2A
:1048C000881F91505040A9F79E3F510578F083CF43
:1048D0000C94C2185F3FE4F3983ED4F38695779525
:1048E0006795B795F795E7959F5FC1F7FE2B880F02
:1048F000911D9695879597F90895990F0008550F82
:10490000AA0BE0E8FEEF16161706E807F907C0F055
:1049100012161306E407F50798F0621B730B840B5D
:10492000950B39F40A2661F0232B242B252B21F437
:1049300008950A2609F4A140A6958FEF811D811DD7
:104940000895A1E21A2EAA1BBB1BFD010DC0AA1FD0
:10495000BB1FEE1FFF1FA217B307E407F50720F0E8
:10496000A21BB30BE40BF50B661F771F881F991F63
:104970001A9469F760957095809590959B01AC01AC
:10498000BD01CF010895EE0FFF1F881F8BBF079059
:10499000F691E02D19940F931F93CF93DF938230FC
:1049A000910510F482E090E0E0910916F0910A166A
:1049B00020E030E0A0E0B0E0309719F14081518173
:1049C0000281138148175907C8F08417950769F4C5
:1049D000109731F012960C93129713961C9327C0E0
:1049E0000093091610930A1622C02115310519F0FB
:1049F0004217530718F49A01BD01EF01DF01F801D6
:104A0000DBCF21153105F9F0281B390B2430310596
:104A100080F48A819B816115710521F0FB019383EC
:104A2000828304C090930A1680930916FE01329681
:104A300044C0FE01E20FF31F81939193225031098C
:104A4000398328833AC02091071630910816232B0A
:104A500041F4209102023091030230930816209312
:104A6000071620910002309101022115310541F411
:104A70002DB73EB74091040250910502241B350B1F
:104A8000E0910716F0910816E217F307A0F42E1B29
:104A90003F0B2817390778F0AC014E5F5F4F2417A2
:104AA000350748F04E0F5F1F5093081640930716C6
:104AB0008193919302C0E0E0F0E0CF01DF91CF91CC
:104AC0001F910F910895CF93DF93009709F481C050
:104AD000FC01329713821282A0910916B0910A1636
:104AE000109781F420813181820F931F2091071646
:104AF000309108162817390751F5F0930816E093FE
:104B0000071667C0ED0120E030E0CE17DF0740F464
:104B10004A815B819E0141155105F1F0EA01F5CF13
:104B2000D383C28340815181840F951FC817D90751
:104B300059F488819981840F951F0296918380830F
:104B40008A819B81938382832115310529F4F09317
:104B50000A16E09309163DC0E901FB83EA834991F7
:104B60005991C40FD51FEC17FD0761F48081918125
:104B7000840F951F0296E90199838883828193812E
:104B80009B838A83E0E0F0E012968D919C911397CD
:104B9000009719F0FD01DC01F7CF8D919C911197E1
:104BA0009D012E5F3F4F820F931F2091071630917A
:104BB00008162817390769F4309729F410920A1655
:104BC0001092091602C013821282B0930816A093A5
:104BD0000716DF91CF91089581E090E0F89400C32B
:104BE000FB01DC0102C001900D9241505040D8F70A
:104BF0000895DC0101C06D9341505040E0F70895E5
:104C0000CF93DF93CDB7DEB7AE014A5F5F4FFA01B6
:104C100061917191AF0180910D1690910E1633D074
:104C2000DF91CF9108950F931F93CF93DF93E0917E
:104C30000D16F0910E16238121FF1BC08C01D0E0D0
:104C4000C0E0F80181918F0160910D1670910E16F0
:104C5000DB011896ED91FC911997882331F0199595
:104C6000892B79F3DFEFCFEFECCF8AE01995892B11
:104C700019F08FEF9FEF02C08D2F9C2FDF91CF9106
:104C80001F910F9108952F923F924F925F926F92D2
:104C90007F928F929F92AF92BF92CF92DF92EF92CC
:104CA000FF920F931F93CF93DF93CDB7DEB72B9770
:104CB0000FB6F894DEBF0FBECDBF6C017B018A0139
:104CC000FC0117821682838181FFBFC1CE0101964C
:104CD0003C01F6019381F70193FD859193FF81914A
:104CE0007F01882309F4ADC1853239F493FD8591A4
:104CF00093FF81917F01853221F4B60190E0D6D1F6
:104D0000E8CF912C212C312CFFE1F315D8F08B3218
:104D100079F038F4803279F08332A1F4232D2061C8
:104D20001DC08D3261F0803369F4232D216016C0DF
:104D3000832D8260382EE32DE4603E2E2AC0F32DB1
:104D4000F8601DC037FC2DC020ED280F2A3040F040
:104D50008E32B9F436FC75C1232D2064322E19C071
:104D600036FE06C08AE0989E200D1124922E11C0B6
:104D7000EAE02E9E200D1124222EF32DF0623F2E0C
:104D800008C08C3621F4832D8068382E02C0883606
:104D900041F4F70193FD859193FF81917F0181118A
:104DA000B3CF982F9F7D9554933028F40C5F1F4FFD
:104DB0009FE399830DC0833631F0833771F08335DB
:104DC00009F055C020C0F801808189830E5F1F4F14
:104DD00088248394912C530112C02801F2E04F0ED5
:104DE000511CF801A080B18036FE03C0692D70E02F
:104DF00002C06FEF7FEFC5014ED14C018201F32D50
:104E0000FF773F2E15C0280122E0420E511CF80109
:104E1000A080B18036FE03C0692D70E002C06FEF44
:104E20007FEFC5012DD14C01F32DF0683F2E82019B
:104E300033FC19C0822D90E088169906A0F4B601C3
:104E400080E290E033D12A94F5CFF50137FC8591CB
:104E500037FE81915F01B60190E028D121102A949C
:104E600021E0821A91088114910479F7E1C0843617
:104E700011F0893639F5F80137FE07C0608171817C
:104E8000828193810C5F1F4F08C060817181072E62
:104E9000000C880B990B0E5F1F4FF32DFF763F2EF2
:104EA00097FF09C090958095709561957F4F8F4FC2
:104EB0009F4FF0683F2E2AE030E0A30133D1882EC7
:104EC000861844C0853731F4232D2F7EB22E2AE078
:104ED00030E025C0932D997FB92E8F36C1F018F49C
:104EE000883579F0AEC0803719F0883721F0A9C035
:104EF000E92FE061BE2EB4FE0DC0FB2DF460BF2E85
:104F000009C034FE0AC0292F2660B22E06C028E050
:104F100030E005C020E130E002C020E132E0F801DD
:104F2000B7FE07C060817181828193810C5F1F4F42
:104F300006C06081718180E090E00E5F1F4FA30189
:104F4000F1D0882E8618FB2DFF773F2E36FE0DC040
:104F5000232D2E7FA22E891458F434FE0BC032FC70
:104F600009C0832D8E7EA82E05C0B82CA32C03C0AB
:104F7000B82C01C0B92CA4FE0FC0FE01E80DF11D34
:104F80008081803321F49A2D997EA92E09C0A2FE3A
:104F900006C0B394B39404C08A2D867809F0B39404
:104FA000A3FC10C0A0FE06C0B21480F4280C922C02
:104FB0009B180DC0B21458F4B60180E290E076D090
:104FC000B394F8CFB21418F42B1802C0982C212CEB
:104FD000A4FE0FC0B60180E390E068D0A2FE16C028
:104FE000A1FC03C088E790E002C088E590E0B6012C
:104FF0000CC08A2D867851F0A1FE02C08BE201C060
:1050000080E2A7FC8DE2B60190E050D0891430F424
:10501000B60180E390E04AD09A94F8CF8A94F301E5
:10502000E80DF11D8081B60190E040D08110F6CFEF
:10503000222009F44ECEB60180E290E037D02A94C7
:10504000F7CFF6018681978102C08FEF9FEF2B96F5
:105050000FB6F894DEBF0FBECDBFDF91CF911F9189
:105060000F91FF90EF90DF90CF90BF90AF909F9007
:105070008F907F906F905F904F903F902F9008950A
:10508000FC010590615070400110D8F78095909513
:105090008E0F9F1F0895FC01615070400190011018
:1050A000D8F7809590958E0F9F1F08950F931F93AB
:1050B000CF93DF93FB01238121FD03C08FEF9FEF8F
:1050C0002CC022FF16C046815781248135814217AA
:1050D000530744F4A081B1819D012F5F3F4F31837D
:1050E00020838C93268137812F5F3F4F3783268320
:1050F00014C08B01EC01FB010084F185E02D1995B2
:10510000892BE1F6D80116968D919C9117970196FF
:1051100017969C938E931697CE01DF91CF911F9196
:105120000F910895FA01AA27283051F1203181F119
:10513000E8946F936E7F6E5F7F4F8F4F9F4FAF4F9F
:10514000B1E03ED0B4E03CD0670F781F891F9A1FB2
:10515000A11D680F791F8A1F911DA11D6A0F711D66
:10516000811D911DA11D20D009F468943F912AE072
:10517000269F11243019305D3193DEF6CF0108955A
:10518000462F4770405D4193B3E00FD0C9F7F6CF8B
:10519000462F4F70405D4A3318F0495D31FD405253
:1051A000419302D0A9F7EACFB4E0A69597958795E9
:1051B00077956795BA95C9F70097610571050895C8
:1051C0009B01AC010A2E0694579547953795279574
:1051D000BA95C9F7620F731F841F951FA01D08950C
:0451E000F894FFCF71
:1051E40000001116200046000900400040C600CE11
:1051F40000D60036010000000300000000091EF480
:105204001D0000F8FF0186000000000079FF01790D
:10521400A000000000E6FF0179000000000086FF06
:105224000187000000000078FF01880000000000F2
:10523400004D6561737572652067726F75702063C8
:1052440072656174656420737563636573736675F1
:105254006C6C790A00446174612052656164792040
:1052640067726F757020637265617465642073750D
:10527400636365737366756C6C790A005374617249
:1052840074696E6720696E6974696174696E6720F8
:1052940073656E736F727320616E64206576656EDC
:1052A40074732E2E2E004D61696E417070546173BB
:1052B4006B00434F325461736B0054656D704875D5
:1052C4006D5461736B004C75785461736B00536556
:1052D40072766F5461736B0055704C696E6B5461D8
:1052E400736B00446F776E4C696E6B5461736B0023
:1052F4002D2D2D2D2D2D2D2D2D2D2D2D2D2D2D2DDA
:105304002D2D2D2D424F4F54494E472D2D2D2D2DF2
:105314002D2D2D2D2D2D2D2D2D2D2D2D2D2D006DA6
:1053240061696E282920737461727465642C20632A
:105334006F6D6D756E69636174696F6E20746F2033
:1053440073657269616C207365740A002D2D2D2DAF
:105354002D2D2D2D2D2D2D2D2D2D2D2D2D2D2D2D79
:105364002D2D2D2D2D2D2D2D2D2D2D2D2D2D2D2D69
:105374002D2D2D2D2D2D2D2D2D005461736B73206E
:10538400637265617465640A005B4150505D20542A
:10539400696D652D626173656420636865636B691B
:1053A4006E67207374617274202D3E0A005B415055
:1053B400505D2053656E64696E67206D6561737519
:1053C40072656D656E7420737461727420657665A0
:1053D4006E7420626974732E2E2E0A0055704C4927
:1053E4006E6B00434F323A202564000A46756C6C9C
:1053F400205261773A253034580A000A46756C6C9D
:1054040020737065637472756D206F766572666C57
:105414006F77202D206368616E6765206761696E10
:1054240020616E6420696E746567726174696F6E61
:105434002074696D650056697369626C65205261F8
:10544400773A253034580A0056697369626C6520CE
:105454006F766572666C6F77202D206368616E6766
:1054640065206761696E20616E6420696E7465678A
:10547400726174696F6E2074696D6500496E66723D
:1054840061726564205261773A253034580A0049C4
:105494006E667261726564206F766572666C6F7792
:1054A400202D206368616E6765206761696E2061E5
:1054B4006E6420696E746567726174696F6E2074BE
:1054C400696D65004C75783A2025352E34660A00DE
:1054D4004C7578206F766572666C6F77202D20632B
:1054E40068616E6765206761696E20616E6420691A
:1054F4006E746567726174696F6E2074696D65009E
:105504005B48554D2F54454D505D204D6561737575
:10551400726520726571756573742072656365695F
:105524007665642E0A54616B696E67206D656173DC
:105534007572656D656E742E2E2E005B575D5B482B
:10554400554D2F54454D505D204D65617375726501
:10555400206C697374656E65722074696D6564206E
:105564006F75742E204D6561737572696E67206660
:105574006F72206172636869766520707572706FEE
:1055840073652E2E2E0054454D502F48554D2053F3
:10559400454E534F5220494E495449414C495A456E
:1055A400440A0054454D502F48554D2053454E5301
:1055B4004F522057414B452055502057524F4E478C
:1055C4000A0054454D502F48554D2053454E534FD6
:1055D400522057414B4520555020434F4D504C4588
:1055E40054450A005B455D5B54454D502F48554D6D
:1055F4005D2053454E534F52204D4541535552451E
:105604002057524F4E470A005B48554D2F54454D85
:10561400505D20526573756C747320543A20256470
:1056240020483A2025640A005B48554D2F54454DC7
:10563400505D20476F696E6720746F20736C6565D9
:105644007020666F7220696E74657276616C2E00CC
:10565400536572766F20616E676C65207265636551
:10566400697665642066726F6D20636F6E66696724
:1056740075726174696F6E00536572766F20616E26
:10568400676C6520756E6368616E6765642E005390
:105694006572766F20616E676C65206368616E6702
:1056A40065643B20636F7272656374696E67206121
:1056B4006E676C652E2E2E004572726F72207265B5
:1056C40063656976696E6720736572766F20616EB3
:1056D400676C652E0049444C4500546D7220537626
:0A56E400630048414C5F4C45440050
:00000001FF
